{
	"04-Camps/08-UpChain_Camp_3_OpenSpace/0115_ERC777TokenBank/contracts/TokenBank.sol": {
		"TokenBank": {
			"abi": [
				{
					"inputs": [
						{
							"internalType": "address",
							"name": "_tokenAddr",
							"type": "address"
						}
					],
					"stateMutability": "nonpayable",
					"type": "constructor"
				},
				{
					"inputs": [
						{
							"internalType": "address",
							"name": "inputAddr",
							"type": "address"
						},
						{
							"internalType": "address",
							"name": "validAddr",
							"type": "address"
						}
					],
					"name": "WrongTokenReceived",
					"type": "error"
				},
				{
					"anonymous": false,
					"inputs": [
						{
							"indexed": false,
							"internalType": "address",
							"name": "sender",
							"type": "address"
						},
						{
							"indexed": false,
							"internalType": "uint256",
							"name": "amount",
							"type": "uint256"
						}
					],
					"name": "tokenReceived",
					"type": "event"
				},
				{
					"inputs": [],
					"name": "depositETH",
					"outputs": [],
					"stateMutability": "payable",
					"type": "function"
				},
				{
					"inputs": [
						{
							"internalType": "uint256",
							"name": "_tokenAmount",
							"type": "uint256"
						}
					],
					"name": "depositToken",
					"outputs": [],
					"stateMutability": "nonpayable",
					"type": "function"
				},
				{
					"inputs": [
						{
							"internalType": "address",
							"name": "_account",
							"type": "address"
						}
					],
					"name": "getETHBalance",
					"outputs": [
						{
							"internalType": "uint256",
							"name": "",
							"type": "uint256"
						}
					],
					"stateMutability": "view",
					"type": "function"
				},
				{
					"inputs": [],
					"name": "getETHTopThreeAccount",
					"outputs": [
						{
							"internalType": "address",
							"name": "",
							"type": "address"
						},
						{
							"internalType": "address",
							"name": "",
							"type": "address"
						},
						{
							"internalType": "address",
							"name": "",
							"type": "address"
						}
					],
					"stateMutability": "view",
					"type": "function"
				},
				{
					"inputs": [
						{
							"internalType": "address",
							"name": "_account",
							"type": "address"
						}
					],
					"name": "getTokenBalance",
					"outputs": [
						{
							"internalType": "uint256",
							"name": "",
							"type": "uint256"
						}
					],
					"stateMutability": "view",
					"type": "function"
				},
				{
					"inputs": [],
					"name": "getTokenTopThreeAccount",
					"outputs": [
						{
							"internalType": "address",
							"name": "",
							"type": "address"
						},
						{
							"internalType": "address",
							"name": "",
							"type": "address"
						},
						{
							"internalType": "address",
							"name": "",
							"type": "address"
						}
					],
					"stateMutability": "view",
					"type": "function"
				},
				{
					"inputs": [],
					"name": "iERC20Token",
					"outputs": [
						{
							"internalType": "contract IERC20",
							"name": "",
							"type": "address"
						}
					],
					"stateMutability": "view",
					"type": "function"
				},
				{
					"inputs": [],
					"name": "iGTT",
					"outputs": [
						{
							"internalType": "contract IERC20TokenGTT",
							"name": "",
							"type": "address"
						}
					],
					"stateMutability": "view",
					"type": "function"
				},
				{
					"inputs": [],
					"name": "owner",
					"outputs": [
						{
							"internalType": "address",
							"name": "",
							"type": "address"
						}
					],
					"stateMutability": "view",
					"type": "function"
				},
				{
					"inputs": [],
					"name": "tokenAddr",
					"outputs": [
						{
							"internalType": "address",
							"name": "",
							"type": "address"
						}
					],
					"stateMutability": "view",
					"type": "function"
				},
				{
					"inputs": [
						{
							"internalType": "address",
							"name": "_from",
							"type": "address"
						},
						{
							"internalType": "uint256",
							"name": "_amount",
							"type": "uint256"
						}
					],
					"name": "tokensReceived",
					"outputs": [
						{
							"internalType": "bool",
							"name": "",
							"type": "bool"
						}
					],
					"stateMutability": "nonpayable",
					"type": "function"
				},
				{
					"inputs": [],
					"name": "withdrawETH",
					"outputs": [],
					"stateMutability": "nonpayable",
					"type": "function"
				},
				{
					"inputs": [],
					"name": "withdrawToken",
					"outputs": [],
					"stateMutability": "nonpayable",
					"type": "function"
				},
				{
					"stateMutability": "payable",
					"type": "receive"
				}
			],
			"devdoc": {
				"kind": "dev",
				"methods": {},
				"version": 1
			},
			"evm": {
				"assembly": "    /* \"04-Camps/08-UpChain_Camp_3_OpenSpace/0115_ERC777TokenBank/contracts/TokenBank.sol\":530:4526  contract TokenBank is Bank {... */\n  mstore(0x40, 0xe0)\n    /* \"04-Camps/08-UpChain_Camp_3_OpenSpace/0115_ERC777TokenBank/contracts/TokenBank.sol\":936:1120  constructor(address _tokenAddr) {... */\n  callvalue\n  dup1\n  iszero\n  tag_1\n  jumpi\n  0x00\n  dup1\n  revert\ntag_1:\n  pop\n  mload(0x40)\n  sub(codesize, bytecodeSize)\n  dup1\n  bytecodeSize\n  dup4\n  codecopy\n  dup2\n  dup2\n  add\n  0x40\n  mstore\n  dup2\n  add\n  swap1\n  tag_2\n  swap2\n  swap1\n  tag_3\n  jump\t// in\ntag_2:\n    /* \"04-Camps/08-UpChain_Camp_3_OpenSpace/0115_ERC777TokenBank/contracts/Bank.sol\":424:434  msg.sender */\n  caller\n    /* \"04-Camps/08-UpChain_Camp_3_OpenSpace/0115_ERC777TokenBank/contracts/Bank.sol\":416:421  owner */\n  0x04\n  0x00\n    /* \"04-Camps/08-UpChain_Camp_3_OpenSpace/0115_ERC777TokenBank/contracts/Bank.sol\":416:434  owner = msg.sender */\n  0x0100\n  exp\n  dup2\n  sload\n  dup2\n  0xffffffffffffffffffffffffffffffffffffffff\n  mul\n  not\n  and\n  swap1\n  dup4\n  0xffffffffffffffffffffffffffffffffffffffff\n  and\n  mul\n  or\n  swap1\n  sstore\n  pop\n    /* \"04-Camps/08-UpChain_Camp_3_OpenSpace/0115_ERC777TokenBank/contracts/TokenBank.sol\":986:996  msg.sender */\n  caller\n    /* \"04-Camps/08-UpChain_Camp_3_OpenSpace/0115_ERC777TokenBank/contracts/TokenBank.sol\":978:983  owner */\n  0x04\n  0x00\n    /* \"04-Camps/08-UpChain_Camp_3_OpenSpace/0115_ERC777TokenBank/contracts/TokenBank.sol\":978:996  owner = msg.sender */\n  0x0100\n  exp\n  dup2\n  sload\n  dup2\n  0xffffffffffffffffffffffffffffffffffffffff\n  mul\n  not\n  and\n  swap1\n  dup4\n  0xffffffffffffffffffffffffffffffffffffffff\n  and\n  mul\n  or\n  swap1\n  sstore\n  pop\n    /* \"04-Camps/08-UpChain_Camp_3_OpenSpace/0115_ERC777TokenBank/contracts/TokenBank.sol\":1018:1028  _tokenAddr */\n  dup1\n    /* \"04-Camps/08-UpChain_Camp_3_OpenSpace/0115_ERC777TokenBank/contracts/TokenBank.sol\":1006:1028  tokenAddr = _tokenAddr */\n  0xffffffffffffffffffffffffffffffffffffffff\n  and\n  0x80\n  dup2\n  0xffffffffffffffffffffffffffffffffffffffff\n  and\n  dup2\n  mstore\n  pop\n  pop\n    /* \"04-Camps/08-UpChain_Camp_3_OpenSpace/0115_ERC777TokenBank/contracts/TokenBank.sol\":1060:1070  _tokenAddr */\n  dup1\n    /* \"04-Camps/08-UpChain_Camp_3_OpenSpace/0115_ERC777TokenBank/contracts/TokenBank.sol\":1038:1071  iGTT = IERC20TokenGTT(_tokenAddr) */\n  0xffffffffffffffffffffffffffffffffffffffff\n  and\n  0xa0\n  dup2\n  0xffffffffffffffffffffffffffffffffffffffff\n  and\n  dup2\n  mstore\n  pop\n  pop\n    /* \"04-Camps/08-UpChain_Camp_3_OpenSpace/0115_ERC777TokenBank/contracts/TokenBank.sol\":1102:1112  _tokenAddr */\n  dup1\n    /* \"04-Camps/08-UpChain_Camp_3_OpenSpace/0115_ERC777TokenBank/contracts/TokenBank.sol\":1081:1113  iERC20Token = IERC20(_tokenAddr) */\n  0xffffffffffffffffffffffffffffffffffffffff\n  and\n  0xc0\n  dup2\n  0xffffffffffffffffffffffffffffffffffffffff\n  and\n  dup2\n  mstore\n  pop\n  pop\n    /* \"04-Camps/08-UpChain_Camp_3_OpenSpace/0115_ERC777TokenBank/contracts/TokenBank.sol\":936:1120  constructor(address _tokenAddr) {... */\n  pop\n    /* \"04-Camps/08-UpChain_Camp_3_OpenSpace/0115_ERC777TokenBank/contracts/TokenBank.sol\":530:4526  contract TokenBank is Bank {... */\n  jump(tag_8)\n    /* \"#utility.yul\":88:205   */\ntag_10:\n    /* \"#utility.yul\":197:198   */\n  0x00\n    /* \"#utility.yul\":194:195   */\n  dup1\n    /* \"#utility.yul\":187:199   */\n  revert\n    /* \"#utility.yul\":334:460   */\ntag_12:\n    /* \"#utility.yul\":371:378   */\n  0x00\n    /* \"#utility.yul\":411:453   */\n  0xffffffffffffffffffffffffffffffffffffffff\n    /* \"#utility.yul\":404:409   */\n  dup3\n    /* \"#utility.yul\":400:454   */\n  and\n    /* \"#utility.yul\":389:454   */\n  swap1\n  pop\n    /* \"#utility.yul\":334:460   */\n  swap2\n  swap1\n  pop\n  jump\t// out\n    /* \"#utility.yul\":466:562   */\ntag_13:\n    /* \"#utility.yul\":503:510   */\n  0x00\n    /* \"#utility.yul\":532:556   */\n  tag_22\n    /* \"#utility.yul\":550:555   */\n  dup3\n    /* \"#utility.yul\":532:556   */\n  tag_12\n  jump\t// in\ntag_22:\n    /* \"#utility.yul\":521:556   */\n  swap1\n  pop\n    /* \"#utility.yul\":466:562   */\n  swap2\n  swap1\n  pop\n  jump\t// out\n    /* \"#utility.yul\":568:690   */\ntag_14:\n    /* \"#utility.yul\":641:665   */\n  tag_24\n    /* \"#utility.yul\":659:664   */\n  dup2\n    /* \"#utility.yul\":641:665   */\n  tag_13\n  jump\t// in\ntag_24:\n    /* \"#utility.yul\":634:639   */\n  dup2\n    /* \"#utility.yul\":631:666   */\n  eq\n    /* \"#utility.yul\":621:684   */\n  tag_25\n  jumpi\n    /* \"#utility.yul\":680:681   */\n  0x00\n    /* \"#utility.yul\":677:678   */\n  dup1\n    /* \"#utility.yul\":670:682   */\n  revert\n    /* \"#utility.yul\":621:684   */\ntag_25:\n    /* \"#utility.yul\":568:690   */\n  pop\n  jump\t// out\n    /* \"#utility.yul\":696:839   */\ntag_15:\n    /* \"#utility.yul\":753:758   */\n  0x00\n    /* \"#utility.yul\":784:790   */\n  dup2\n    /* \"#utility.yul\":778:791   */\n  mload\n    /* \"#utility.yul\":769:791   */\n  swap1\n  pop\n    /* \"#utility.yul\":800:833   */\n  tag_27\n    /* \"#utility.yul\":827:832   */\n  dup2\n    /* \"#utility.yul\":800:833   */\n  tag_14\n  jump\t// in\ntag_27:\n    /* \"#utility.yul\":696:839   */\n  swap3\n  swap2\n  pop\n  pop\n  jump\t// out\n    /* \"#utility.yul\":845:1196   */\ntag_3:\n    /* \"#utility.yul\":915:921   */\n  0x00\n    /* \"#utility.yul\":964:966   */\n  0x20\n    /* \"#utility.yul\":952:961   */\n  dup3\n    /* \"#utility.yul\":943:950   */\n  dup5\n    /* \"#utility.yul\":939:962   */\n  sub\n    /* \"#utility.yul\":935:967   */\n  slt\n    /* \"#utility.yul\":932:1051   */\n  iszero\n  tag_29\n  jumpi\n    /* \"#utility.yul\":970:1049   */\n  tag_30\n  tag_10\n  jump\t// in\ntag_30:\n    /* \"#utility.yul\":932:1051   */\ntag_29:\n    /* \"#utility.yul\":1090:1091   */\n  0x00\n    /* \"#utility.yul\":1115:1179   */\n  tag_31\n    /* \"#utility.yul\":1171:1178   */\n  dup5\n    /* \"#utility.yul\":1162:1168   */\n  dup3\n    /* \"#utility.yul\":1151:1160   */\n  dup6\n    /* \"#utility.yul\":1147:1169   */\n  add\n    /* \"#utility.yul\":1115:1179   */\n  tag_15\n  jump\t// in\ntag_31:\n    /* \"#utility.yul\":1105:1179   */\n  swap2\n  pop\n    /* \"#utility.yul\":1061:1189   */\n  pop\n    /* \"#utility.yul\":845:1196   */\n  swap3\n  swap2\n  pop\n  pop\n  jump\t// out\n    /* \"04-Camps/08-UpChain_Camp_3_OpenSpace/0115_ERC777TokenBank/contracts/TokenBank.sol\":530:4526  contract TokenBank is Bank {... */\ntag_8:\n  mload(0x80)\n  mload(0xa0)\n  mload(0xc0)\n  codecopy(0x00, dataOffset(sub_0), dataSize(sub_0))\n  0x00\n  assignImmutable(\"0x6cfd55a66e5cc34b29752b3a64b2ed84f83c6356956121755c4a645dab2f4b8e\")\n  0x00\n  assignImmutable(\"0x44caf484852acee09d52b2802dba26d3c8ab3d28c7abcc1398b87898115633ec\")\n  0x00\n  assignImmutable(\"0x1691e29ee441a8bef8d5e9b87b08f05a140c26669fbfed8ad7e49a944a066767\")\n  return(0x00, dataSize(sub_0))\nstop\n\nsub_0: assembly {\n        /* \"04-Camps/08-UpChain_Camp_3_OpenSpace/0115_ERC777TokenBank/contracts/TokenBank.sol\":530:4526  contract TokenBank is Bank {... */\n      mstore(0x40, 0x80)\n      jumpi(tag_1, lt(calldatasize, 0x04))\n      shr(0xe0, calldataload(0x00))\n      dup1\n      0x6215be77\n      gt\n      tag_16\n      jumpi\n      dup1\n      0xb254b80a\n      gt\n      tag_17\n      jumpi\n      dup1\n      0xb254b80a\n      eq\n      tag_12\n      jumpi\n      dup1\n      0xca628c78\n      eq\n      tag_13\n      jumpi\n      dup1\n      0xe086e5ec\n      eq\n      tag_14\n      jumpi\n      dup1\n      0xf6326fb3\n      eq\n      tag_15\n      jumpi\n      jump(tag_2)\n    tag_17:\n      dup1\n      0x6215be77\n      eq\n      tag_9\n      jumpi\n      dup1\n      0x7251e8c2\n      eq\n      tag_10\n      jumpi\n      dup1\n      0x8da5cb5b\n      eq\n      tag_11\n      jumpi\n      jump(tag_2)\n    tag_16:\n      dup1\n      0x24a756d1\n      eq\n      tag_3\n      jumpi\n      dup1\n      0x2b7e8faf\n      eq\n      tag_4\n      jumpi\n      dup1\n      0x3aecd0e3\n      eq\n      tag_5\n      jumpi\n      dup1\n      0x3bb66a7b\n      eq\n      tag_6\n      jumpi\n      dup1\n      0x4d3f3cf6\n      eq\n      tag_7\n      jumpi\n      dup1\n      0x5fbe4d1d\n      eq\n      tag_8\n      jumpi\n      jump(tag_2)\n    tag_1:\n      jumpi(tag_2, calldatasize)\n        /* \"04-Camps/08-UpChain_Camp_3_OpenSpace/0115_ERC777TokenBank/contracts/Bank.sol\":730:742  depositETH() */\n      tag_20\n        /* \"04-Camps/08-UpChain_Camp_3_OpenSpace/0115_ERC777TokenBank/contracts/Bank.sol\":730:740  depositETH */\n      tag_21\n        /* \"04-Camps/08-UpChain_Camp_3_OpenSpace/0115_ERC777TokenBank/contracts/Bank.sol\":730:742  depositETH() */\n      jump\t// in\n    tag_20:\n        /* \"04-Camps/08-UpChain_Camp_3_OpenSpace/0115_ERC777TokenBank/contracts/TokenBank.sol\":530:4526  contract TokenBank is Bank {... */\n      stop\n    tag_2:\n      0x00\n      dup1\n      revert\n        /* \"04-Camps/08-UpChain_Camp_3_OpenSpace/0115_ERC777TokenBank/contracts/TokenBank.sol\":1552:1883  function tokensReceived(... */\n    tag_3:\n      callvalue\n      dup1\n      iszero\n      tag_22\n      jumpi\n      0x00\n      dup1\n      revert\n    tag_22:\n      pop\n      tag_23\n      0x04\n      dup1\n      calldatasize\n      sub\n      dup2\n      add\n      swap1\n      tag_24\n      swap2\n      swap1\n      tag_25\n      jump\t// in\n    tag_24:\n      tag_26\n      jump\t// in\n    tag_23:\n      mload(0x40)\n      tag_27\n      swap2\n      swap1\n      tag_28\n      jump\t// in\n    tag_27:\n      mload(0x40)\n      dup1\n      swap2\n      sub\n      swap1\n      return\n        /* \"04-Camps/08-UpChain_Camp_3_OpenSpace/0115_ERC777TokenBank/contracts/Bank.sol\":990:1150  function getETHTopThreeAccount()... */\n    tag_4:\n      callvalue\n      dup1\n      iszero\n      tag_29\n      jumpi\n      0x00\n      dup1\n      revert\n    tag_29:\n      pop\n      tag_30\n      tag_31\n      jump\t// in\n    tag_30:\n      mload(0x40)\n      tag_32\n      swap4\n      swap3\n      swap2\n      swap1\n      tag_33\n      jump\t// in\n    tag_32:\n      mload(0x40)\n      dup1\n      swap2\n      sub\n      swap1\n      return\n        /* \"04-Camps/08-UpChain_Camp_3_OpenSpace/0115_ERC777TokenBank/contracts/TokenBank.sol\":1889:2005  function getTokenBalance(address _account) public view returns (uint) {... */\n    tag_5:\n      callvalue\n      dup1\n      iszero\n      tag_34\n      jumpi\n      0x00\n      dup1\n      revert\n    tag_34:\n      pop\n      tag_35\n      0x04\n      dup1\n      calldatasize\n      sub\n      dup2\n      add\n      swap1\n      tag_36\n      swap2\n      swap1\n      tag_37\n      jump\t// in\n    tag_36:\n      tag_38\n      jump\t// in\n    tag_35:\n      mload(0x40)\n      tag_39\n      swap2\n      swap1\n      tag_40\n      jump\t// in\n    tag_39:\n      mload(0x40)\n      dup1\n      swap2\n      sub\n      swap1\n      return\n        /* \"04-Camps/08-UpChain_Camp_3_OpenSpace/0115_ERC777TokenBank/contracts/Bank.sol\":864:984  function getETHBalance(address _account) public view virtual returns (uint) {... */\n    tag_6:\n      callvalue\n      dup1\n      iszero\n      tag_41\n      jumpi\n      0x00\n      dup1\n      revert\n    tag_41:\n      pop\n      tag_42\n      0x04\n      dup1\n      calldatasize\n      sub\n      dup2\n      add\n      swap1\n      tag_43\n      swap2\n      swap1\n      tag_37\n      jump\t// in\n    tag_43:\n      tag_44\n      jump\t// in\n    tag_42:\n      mload(0x40)\n      tag_45\n      swap2\n      swap1\n      tag_40\n      jump\t// in\n    tag_45:\n      mload(0x40)\n      dup1\n      swap2\n      sub\n      swap1\n      return\n        /* \"04-Camps/08-UpChain_Camp_3_OpenSpace/0115_ERC777TokenBank/contracts/TokenBank.sol\":690:726  IERC20TokenGTT public immutable iGTT */\n    tag_7:\n      callvalue\n      dup1\n      iszero\n      tag_46\n      jumpi\n      0x00\n      dup1\n      revert\n    tag_46:\n      pop\n      tag_47\n      tag_48\n      jump\t// in\n    tag_47:\n      mload(0x40)\n      tag_49\n      swap2\n      swap1\n      tag_50\n      jump\t// in\n    tag_49:\n      mload(0x40)\n      dup1\n      swap2\n      sub\n      swap1\n      return\n        /* \"04-Camps/08-UpChain_Camp_3_OpenSpace/0115_ERC777TokenBank/contracts/TokenBank.sol\":650:684  address public immutable tokenAddr */\n    tag_8:\n      callvalue\n      dup1\n      iszero\n      tag_51\n      jumpi\n      0x00\n      dup1\n      revert\n    tag_51:\n      pop\n      tag_52\n      tag_53\n      jump\t// in\n    tag_52:\n      mload(0x40)\n      tag_54\n      swap2\n      swap1\n      tag_55\n      jump\t// in\n    tag_54:\n      mload(0x40)\n      dup1\n      swap2\n      sub\n      swap1\n      return\n        /* \"04-Camps/08-UpChain_Camp_3_OpenSpace/0115_ERC777TokenBank/contracts/TokenBank.sol\":1126:1413  function depositToken(uint _tokenAmount) public {... */\n    tag_9:\n      callvalue\n      dup1\n      iszero\n      tag_56\n      jumpi\n      0x00\n      dup1\n      revert\n    tag_56:\n      pop\n      tag_57\n      0x04\n      dup1\n      calldatasize\n      sub\n      dup2\n      add\n      swap1\n      tag_58\n      swap2\n      swap1\n      tag_59\n      jump\t// in\n    tag_58:\n      tag_60\n      jump\t// in\n    tag_57:\n      stop\n        /* \"04-Camps/08-UpChain_Camp_3_OpenSpace/0115_ERC777TokenBank/contracts/TokenBank.sol\":732:767  IERC20 public immutable iERC20Token */\n    tag_10:\n      callvalue\n      dup1\n      iszero\n      tag_61\n      jumpi\n      0x00\n      dup1\n      revert\n    tag_61:\n      pop\n      tag_62\n      tag_63\n      jump\t// in\n    tag_62:\n      mload(0x40)\n      tag_64\n      swap2\n      swap1\n      tag_65\n      jump\t// in\n    tag_64:\n      mload(0x40)\n      dup1\n      swap2\n      sub\n      swap1\n      return\n        /* \"04-Camps/08-UpChain_Camp_3_OpenSpace/0115_ERC777TokenBank/contracts/Bank.sol\":365:385  address public owner */\n    tag_11:\n      callvalue\n      dup1\n      iszero\n      tag_66\n      jumpi\n      0x00\n      dup1\n      revert\n    tag_66:\n      pop\n      tag_67\n      tag_68\n      jump\t// in\n    tag_67:\n      mload(0x40)\n      tag_69\n      swap2\n      swap1\n      tag_55\n      jump\t// in\n    tag_69:\n      mload(0x40)\n      dup1\n      swap2\n      sub\n      swap1\n      return\n        /* \"04-Camps/08-UpChain_Camp_3_OpenSpace/0115_ERC777TokenBank/contracts/TokenBank.sol\":2011:2188  function getTokenTopThreeAccount()... */\n    tag_12:\n      callvalue\n      dup1\n      iszero\n      tag_70\n      jumpi\n      0x00\n      dup1\n      revert\n    tag_70:\n      pop\n      tag_71\n      tag_72\n      jump\t// in\n    tag_71:\n      mload(0x40)\n      tag_73\n      swap4\n      swap3\n      swap2\n      swap1\n      tag_33\n      jump\t// in\n    tag_73:\n      mload(0x40)\n      dup1\n      swap2\n      sub\n      swap1\n      return\n        /* \"04-Camps/08-UpChain_Camp_3_OpenSpace/0115_ERC777TokenBank/contracts/TokenBank.sol\":1419:1546  function withdrawToken() public onlyOwner {... */\n    tag_13:\n      callvalue\n      dup1\n      iszero\n      tag_74\n      jumpi\n      0x00\n      dup1\n      revert\n    tag_74:\n      pop\n      tag_75\n      tag_76\n      jump\t// in\n    tag_75:\n      stop\n        /* \"04-Camps/08-UpChain_Camp_3_OpenSpace/0115_ERC777TokenBank/contracts/Bank.sol\":755:858  function withdrawETH() public onlyOwner {... */\n    tag_14:\n      callvalue\n      dup1\n      iszero\n      tag_77\n      jumpi\n      0x00\n      dup1\n      revert\n    tag_77:\n      pop\n      tag_78\n      tag_79\n      jump\t// in\n    tag_78:\n      stop\n        /* \"04-Camps/08-UpChain_Camp_3_OpenSpace/0115_ERC777TokenBank/contracts/Bank.sol\":553:679  function depositETH() public payable {... */\n    tag_15:\n      tag_80\n      tag_21\n      jump\t// in\n    tag_80:\n      stop\n    tag_21:\n        /* \"04-Camps/08-UpChain_Camp_3_OpenSpace/0115_ERC777TokenBank/contracts/Bank.sol\":626:635  msg.value */\n      callvalue\n        /* \"04-Camps/08-UpChain_Camp_3_OpenSpace/0115_ERC777TokenBank/contracts/Bank.sol\":600:610  ETHBalance */\n      0x00\n        /* \"04-Camps/08-UpChain_Camp_3_OpenSpace/0115_ERC777TokenBank/contracts/Bank.sol\":600:622  ETHBalance[msg.sender] */\n      dup1\n        /* \"04-Camps/08-UpChain_Camp_3_OpenSpace/0115_ERC777TokenBank/contracts/Bank.sol\":611:621  msg.sender */\n      caller\n        /* \"04-Camps/08-UpChain_Camp_3_OpenSpace/0115_ERC777TokenBank/contracts/Bank.sol\":600:622  ETHBalance[msg.sender] */\n      0xffffffffffffffffffffffffffffffffffffffff\n      and\n      0xffffffffffffffffffffffffffffffffffffffff\n      and\n      dup2\n      mstore\n      0x20\n      add\n      swap1\n      dup2\n      mstore\n      0x20\n      add\n      0x00\n      keccak256\n      0x00\n        /* \"04-Camps/08-UpChain_Camp_3_OpenSpace/0115_ERC777TokenBank/contracts/Bank.sol\":600:635  ETHBalance[msg.sender] += msg.value */\n      dup3\n      dup3\n      sload\n      tag_82\n      swap2\n      swap1\n      tag_83\n      jump\t// in\n    tag_82:\n      swap3\n      pop\n      pop\n      dup2\n      swap1\n      sstore\n      pop\n        /* \"04-Camps/08-UpChain_Camp_3_OpenSpace/0115_ERC777TokenBank/contracts/Bank.sol\":645:672  _handleRankWhenDepositETH() */\n      tag_84\n        /* \"04-Camps/08-UpChain_Camp_3_OpenSpace/0115_ERC777TokenBank/contracts/Bank.sol\":645:670  _handleRankWhenDepositETH */\n      tag_85\n        /* \"04-Camps/08-UpChain_Camp_3_OpenSpace/0115_ERC777TokenBank/contracts/Bank.sol\":645:672  _handleRankWhenDepositETH() */\n      jump\t// in\n    tag_84:\n        /* \"04-Camps/08-UpChain_Camp_3_OpenSpace/0115_ERC777TokenBank/contracts/Bank.sol\":553:679  function depositETH() public payable {... */\n      jump\t// out\n        /* \"04-Camps/08-UpChain_Camp_3_OpenSpace/0115_ERC777TokenBank/contracts/TokenBank.sol\":1552:1883  function tokensReceived(... */\n    tag_26:\n        /* \"04-Camps/08-UpChain_Camp_3_OpenSpace/0115_ERC777TokenBank/contracts/TokenBank.sol\":1645:1649  bool */\n      0x00\n        /* \"04-Camps/08-UpChain_Camp_3_OpenSpace/0115_ERC777TokenBank/contracts/TokenBank.sol\":1687:1696  tokenAddr */\n      immutable(\"0x1691e29ee441a8bef8d5e9b87b08f05a140c26669fbfed8ad7e49a944a066767\")\n        /* \"04-Camps/08-UpChain_Camp_3_OpenSpace/0115_ERC777TokenBank/contracts/TokenBank.sol\":1665:1697  msg.sender != address(tokenAddr) */\n      0xffffffffffffffffffffffffffffffffffffffff\n      and\n        /* \"04-Camps/08-UpChain_Camp_3_OpenSpace/0115_ERC777TokenBank/contracts/TokenBank.sol\":1665:1675  msg.sender */\n      caller\n        /* \"04-Camps/08-UpChain_Camp_3_OpenSpace/0115_ERC777TokenBank/contracts/TokenBank.sol\":1665:1697  msg.sender != address(tokenAddr) */\n      0xffffffffffffffffffffffffffffffffffffffff\n      and\n      eq\n        /* \"04-Camps/08-UpChain_Camp_3_OpenSpace/0115_ERC777TokenBank/contracts/TokenBank.sol\":1661:1772  if (msg.sender != address(tokenAddr)) {... */\n      tag_87\n      jumpi\n        /* \"04-Camps/08-UpChain_Camp_3_OpenSpace/0115_ERC777TokenBank/contracts/TokenBank.sol\":1739:1749  msg.sender */\n      caller\n        /* \"04-Camps/08-UpChain_Camp_3_OpenSpace/0115_ERC777TokenBank/contracts/TokenBank.sol\":1751:1760  tokenAddr */\n      immutable(\"0x1691e29ee441a8bef8d5e9b87b08f05a140c26669fbfed8ad7e49a944a066767\")\n        /* \"04-Camps/08-UpChain_Camp_3_OpenSpace/0115_ERC777TokenBank/contracts/TokenBank.sol\":1720:1761  WrongTokenReceived(msg.sender, tokenAddr) */\n      mload(0x40)\n      0x093b7d3400000000000000000000000000000000000000000000000000000000\n      dup2\n      mstore\n      0x04\n      add\n      tag_88\n      swap3\n      swap2\n      swap1\n      tag_89\n      jump\t// in\n    tag_88:\n      mload(0x40)\n      dup1\n      swap2\n      sub\n      swap1\n      revert\n        /* \"04-Camps/08-UpChain_Camp_3_OpenSpace/0115_ERC777TokenBank/contracts/TokenBank.sol\":1661:1772  if (msg.sender != address(tokenAddr)) {... */\n    tag_87:\n        /* \"04-Camps/08-UpChain_Camp_3_OpenSpace/0115_ERC777TokenBank/contracts/TokenBank.sol\":1804:1811  _amount */\n      dup2\n        /* \"04-Camps/08-UpChain_Camp_3_OpenSpace/0115_ERC777TokenBank/contracts/TokenBank.sol\":1781:1793  tokenBalance */\n      0x05\n        /* \"04-Camps/08-UpChain_Camp_3_OpenSpace/0115_ERC777TokenBank/contracts/TokenBank.sol\":1781:1800  tokenBalance[_from] */\n      0x00\n        /* \"04-Camps/08-UpChain_Camp_3_OpenSpace/0115_ERC777TokenBank/contracts/TokenBank.sol\":1794:1799  _from */\n      dup6\n        /* \"04-Camps/08-UpChain_Camp_3_OpenSpace/0115_ERC777TokenBank/contracts/TokenBank.sol\":1781:1800  tokenBalance[_from] */\n      0xffffffffffffffffffffffffffffffffffffffff\n      and\n      0xffffffffffffffffffffffffffffffffffffffff\n      and\n      dup2\n      mstore\n      0x20\n      add\n      swap1\n      dup2\n      mstore\n      0x20\n      add\n      0x00\n      keccak256\n      0x00\n        /* \"04-Camps/08-UpChain_Camp_3_OpenSpace/0115_ERC777TokenBank/contracts/TokenBank.sol\":1781:1811  tokenBalance[_from] += _amount */\n      dup3\n      dup3\n      sload\n      tag_90\n      swap2\n      swap1\n      tag_83\n      jump\t// in\n    tag_90:\n      swap3\n      pop\n      pop\n      dup2\n      swap1\n      sstore\n      pop\n        /* \"04-Camps/08-UpChain_Camp_3_OpenSpace/0115_ERC777TokenBank/contracts/TokenBank.sol\":1826:1855  tokenReceived(_from, _amount) */\n      0xcae15051bbb38f81d4d2fb0eeba04c25ec7fc5e1ac9d89d6d68af8d3aab337dc\n        /* \"04-Camps/08-UpChain_Camp_3_OpenSpace/0115_ERC777TokenBank/contracts/TokenBank.sol\":1840:1845  _from */\n      dup4\n        /* \"04-Camps/08-UpChain_Camp_3_OpenSpace/0115_ERC777TokenBank/contracts/TokenBank.sol\":1847:1854  _amount */\n      dup4\n        /* \"04-Camps/08-UpChain_Camp_3_OpenSpace/0115_ERC777TokenBank/contracts/TokenBank.sol\":1826:1855  tokenReceived(_from, _amount) */\n      mload(0x40)\n      tag_91\n      swap3\n      swap2\n      swap1\n      tag_92\n      jump\t// in\n    tag_91:\n      mload(0x40)\n      dup1\n      swap2\n      sub\n      swap1\n      log1\n        /* \"04-Camps/08-UpChain_Camp_3_OpenSpace/0115_ERC777TokenBank/contracts/TokenBank.sol\":1872:1876  true */\n      0x01\n        /* \"04-Camps/08-UpChain_Camp_3_OpenSpace/0115_ERC777TokenBank/contracts/TokenBank.sol\":1865:1876  return true */\n      swap1\n      pop\n        /* \"04-Camps/08-UpChain_Camp_3_OpenSpace/0115_ERC777TokenBank/contracts/TokenBank.sol\":1552:1883  function tokensReceived(... */\n      swap3\n      swap2\n      pop\n      pop\n      jump\t// out\n        /* \"04-Camps/08-UpChain_Camp_3_OpenSpace/0115_ERC777TokenBank/contracts/Bank.sol\":990:1150  function getETHTopThreeAccount()... */\n    tag_31:\n        /* \"04-Camps/08-UpChain_Camp_3_OpenSpace/0115_ERC777TokenBank/contracts/Bank.sol\":1068:1075  address */\n      0x00\n        /* \"04-Camps/08-UpChain_Camp_3_OpenSpace/0115_ERC777TokenBank/contracts/Bank.sol\":1077:1084  address */\n      dup1\n        /* \"04-Camps/08-UpChain_Camp_3_OpenSpace/0115_ERC777TokenBank/contracts/Bank.sol\":1086:1093  address */\n      0x00\n        /* \"04-Camps/08-UpChain_Camp_3_OpenSpace/0115_ERC777TokenBank/contracts/Bank.sol\":1117:1121  rank */\n      0x01\n        /* \"04-Camps/08-UpChain_Camp_3_OpenSpace/0115_ERC777TokenBank/contracts/Bank.sol\":1122:1123  0 */\n      0x00\n        /* \"04-Camps/08-UpChain_Camp_3_OpenSpace/0115_ERC777TokenBank/contracts/Bank.sol\":1117:1124  rank[0] */\n      0x03\n      dup2\n      lt\n      tag_94\n      jumpi\n      tag_95\n      tag_96\n      jump\t// in\n    tag_95:\n    tag_94:\n      add\n      0x00\n      swap1\n      sload\n      swap1\n      0x0100\n      exp\n      swap1\n      div\n      0xffffffffffffffffffffffffffffffffffffffff\n      and\n        /* \"04-Camps/08-UpChain_Camp_3_OpenSpace/0115_ERC777TokenBank/contracts/Bank.sol\":1126:1130  rank */\n      0x01\n        /* \"04-Camps/08-UpChain_Camp_3_OpenSpace/0115_ERC777TokenBank/contracts/Bank.sol\":1131:1132  1 */\n      dup1\n        /* \"04-Camps/08-UpChain_Camp_3_OpenSpace/0115_ERC777TokenBank/contracts/Bank.sol\":1126:1133  rank[1] */\n      0x03\n      dup2\n      lt\n      tag_98\n      jumpi\n      tag_99\n      tag_96\n      jump\t// in\n    tag_99:\n    tag_98:\n      add\n      0x00\n      swap1\n      sload\n      swap1\n      0x0100\n      exp\n      swap1\n      div\n      0xffffffffffffffffffffffffffffffffffffffff\n      and\n        /* \"04-Camps/08-UpChain_Camp_3_OpenSpace/0115_ERC777TokenBank/contracts/Bank.sol\":1135:1139  rank */\n      0x01\n        /* \"04-Camps/08-UpChain_Camp_3_OpenSpace/0115_ERC777TokenBank/contracts/Bank.sol\":1140:1141  2 */\n      0x02\n        /* \"04-Camps/08-UpChain_Camp_3_OpenSpace/0115_ERC777TokenBank/contracts/Bank.sol\":1135:1142  rank[2] */\n      0x03\n      dup2\n      lt\n      tag_101\n      jumpi\n      tag_102\n      tag_96\n      jump\t// in\n    tag_102:\n    tag_101:\n      add\n      0x00\n      swap1\n      sload\n      swap1\n      0x0100\n      exp\n      swap1\n      div\n      0xffffffffffffffffffffffffffffffffffffffff\n      and\n        /* \"04-Camps/08-UpChain_Camp_3_OpenSpace/0115_ERC777TokenBank/contracts/Bank.sol\":1109:1143  return (rank[0], rank[1], rank[2]) */\n      swap3\n      pop\n      swap3\n      pop\n      swap3\n      pop\n        /* \"04-Camps/08-UpChain_Camp_3_OpenSpace/0115_ERC777TokenBank/contracts/Bank.sol\":990:1150  function getETHTopThreeAccount()... */\n      swap1\n      swap2\n      swap3\n      jump\t// out\n        /* \"04-Camps/08-UpChain_Camp_3_OpenSpace/0115_ERC777TokenBank/contracts/TokenBank.sol\":1889:2005  function getTokenBalance(address _account) public view returns (uint) {... */\n    tag_38:\n        /* \"04-Camps/08-UpChain_Camp_3_OpenSpace/0115_ERC777TokenBank/contracts/TokenBank.sol\":1953:1957  uint */\n      0x00\n        /* \"04-Camps/08-UpChain_Camp_3_OpenSpace/0115_ERC777TokenBank/contracts/TokenBank.sol\":1976:1988  tokenBalance */\n      0x05\n        /* \"04-Camps/08-UpChain_Camp_3_OpenSpace/0115_ERC777TokenBank/contracts/TokenBank.sol\":1976:1998  tokenBalance[_account] */\n      0x00\n        /* \"04-Camps/08-UpChain_Camp_3_OpenSpace/0115_ERC777TokenBank/contracts/TokenBank.sol\":1989:1997  _account */\n      dup4\n        /* \"04-Camps/08-UpChain_Camp_3_OpenSpace/0115_ERC777TokenBank/contracts/TokenBank.sol\":1976:1998  tokenBalance[_account] */\n      0xffffffffffffffffffffffffffffffffffffffff\n      and\n      0xffffffffffffffffffffffffffffffffffffffff\n      and\n      dup2\n      mstore\n      0x20\n      add\n      swap1\n      dup2\n      mstore\n      0x20\n      add\n      0x00\n      keccak256\n      sload\n        /* \"04-Camps/08-UpChain_Camp_3_OpenSpace/0115_ERC777TokenBank/contracts/TokenBank.sol\":1969:1998  return tokenBalance[_account] */\n      swap1\n      pop\n        /* \"04-Camps/08-UpChain_Camp_3_OpenSpace/0115_ERC777TokenBank/contracts/TokenBank.sol\":1889:2005  function getTokenBalance(address _account) public view returns (uint) {... */\n      swap2\n      swap1\n      pop\n      jump\t// out\n        /* \"04-Camps/08-UpChain_Camp_3_OpenSpace/0115_ERC777TokenBank/contracts/Bank.sol\":864:984  function getETHBalance(address _account) public view virtual returns (uint) {... */\n    tag_44:\n        /* \"04-Camps/08-UpChain_Camp_3_OpenSpace/0115_ERC777TokenBank/contracts/Bank.sol\":934:938  uint */\n      0x00\n        /* \"04-Camps/08-UpChain_Camp_3_OpenSpace/0115_ERC777TokenBank/contracts/Bank.sol\":957:967  ETHBalance */\n      dup1\n        /* \"04-Camps/08-UpChain_Camp_3_OpenSpace/0115_ERC777TokenBank/contracts/Bank.sol\":957:977  ETHBalance[_account] */\n      0x00\n        /* \"04-Camps/08-UpChain_Camp_3_OpenSpace/0115_ERC777TokenBank/contracts/Bank.sol\":968:976  _account */\n      dup4\n        /* \"04-Camps/08-UpChain_Camp_3_OpenSpace/0115_ERC777TokenBank/contracts/Bank.sol\":957:977  ETHBalance[_account] */\n      0xffffffffffffffffffffffffffffffffffffffff\n      and\n      0xffffffffffffffffffffffffffffffffffffffff\n      and\n      dup2\n      mstore\n      0x20\n      add\n      swap1\n      dup2\n      mstore\n      0x20\n      add\n      0x00\n      keccak256\n      sload\n        /* \"04-Camps/08-UpChain_Camp_3_OpenSpace/0115_ERC777TokenBank/contracts/Bank.sol\":950:977  return ETHBalance[_account] */\n      swap1\n      pop\n        /* \"04-Camps/08-UpChain_Camp_3_OpenSpace/0115_ERC777TokenBank/contracts/Bank.sol\":864:984  function getETHBalance(address _account) public view virtual returns (uint) {... */\n      swap2\n      swap1\n      pop\n      jump\t// out\n        /* \"04-Camps/08-UpChain_Camp_3_OpenSpace/0115_ERC777TokenBank/contracts/TokenBank.sol\":690:726  IERC20TokenGTT public immutable iGTT */\n    tag_48:\n      immutable(\"0x44caf484852acee09d52b2802dba26d3c8ab3d28c7abcc1398b87898115633ec\")\n      dup2\n      jump\t// out\n        /* \"04-Camps/08-UpChain_Camp_3_OpenSpace/0115_ERC777TokenBank/contracts/TokenBank.sol\":650:684  address public immutable tokenAddr */\n    tag_53:\n      immutable(\"0x1691e29ee441a8bef8d5e9b87b08f05a140c26669fbfed8ad7e49a944a066767\")\n      dup2\n      jump\t// out\n        /* \"04-Camps/08-UpChain_Camp_3_OpenSpace/0115_ERC777TokenBank/contracts/TokenBank.sol\":1126:1413  function depositToken(uint _tokenAmount) public {... */\n    tag_60:\n        /* \"04-Camps/08-UpChain_Camp_3_OpenSpace/0115_ERC777TokenBank/contracts/TokenBank.sol\":1184:1188  iGTT */\n      immutable(\"0x44caf484852acee09d52b2802dba26d3c8ab3d28c7abcc1398b87898115633ec\")\n        /* \"04-Camps/08-UpChain_Camp_3_OpenSpace/0115_ERC777TokenBank/contracts/TokenBank.sol\":1184:1205  iGTT.safeTransferFrom */\n      0xffffffffffffffffffffffffffffffffffffffff\n      and\n      0xd9fc4b61\n        /* \"04-Camps/08-UpChain_Camp_3_OpenSpace/0115_ERC777TokenBank/contracts/TokenBank.sol\":1219:1230  iERC20Token */\n      immutable(\"0x6cfd55a66e5cc34b29752b3a64b2ed84f83c6356956121755c4a645dab2f4b8e\")\n        /* \"04-Camps/08-UpChain_Camp_3_OpenSpace/0115_ERC777TokenBank/contracts/TokenBank.sol\":1244:1254  msg.sender */\n      caller\n        /* \"04-Camps/08-UpChain_Camp_3_OpenSpace/0115_ERC777TokenBank/contracts/TokenBank.sol\":1276:1280  this */\n      address\n        /* \"04-Camps/08-UpChain_Camp_3_OpenSpace/0115_ERC777TokenBank/contracts/TokenBank.sol\":1295:1307  _tokenAmount */\n      dup6\n        /* \"04-Camps/08-UpChain_Camp_3_OpenSpace/0115_ERC777TokenBank/contracts/TokenBank.sol\":1184:1317  iGTT.safeTransferFrom(... */\n      mload(0x40)\n      dup6\n      0xffffffff\n      and\n      0xe0\n      shl\n      dup2\n      mstore\n      0x04\n      add\n      tag_107\n      swap5\n      swap4\n      swap3\n      swap2\n      swap1\n      tag_108\n      jump\t// in\n    tag_107:\n      0x00\n      mload(0x40)\n      dup1\n      dup4\n      sub\n      dup2\n      0x00\n      dup8\n      dup1\n      extcodesize\n      iszero\n      dup1\n      iszero\n      tag_109\n      jumpi\n      0x00\n      dup1\n      revert\n    tag_109:\n      pop\n      gas\n      call\n      iszero\n      dup1\n      iszero\n      tag_111\n      jumpi\n      returndatasize\n      0x00\n      dup1\n      returndatacopy\n      revert(0x00, returndatasize)\n    tag_111:\n      pop\n      pop\n      pop\n      pop\n        /* \"04-Camps/08-UpChain_Camp_3_OpenSpace/0115_ERC777TokenBank/contracts/TokenBank.sol\":1355:1367  _tokenAmount */\n      dup1\n        /* \"04-Camps/08-UpChain_Camp_3_OpenSpace/0115_ERC777TokenBank/contracts/TokenBank.sol\":1327:1339  tokenBalance */\n      0x05\n        /* \"04-Camps/08-UpChain_Camp_3_OpenSpace/0115_ERC777TokenBank/contracts/TokenBank.sol\":1327:1351  tokenBalance[msg.sender] */\n      0x00\n        /* \"04-Camps/08-UpChain_Camp_3_OpenSpace/0115_ERC777TokenBank/contracts/TokenBank.sol\":1340:1350  msg.sender */\n      caller\n        /* \"04-Camps/08-UpChain_Camp_3_OpenSpace/0115_ERC777TokenBank/contracts/TokenBank.sol\":1327:1351  tokenBalance[msg.sender] */\n      0xffffffffffffffffffffffffffffffffffffffff\n      and\n      0xffffffffffffffffffffffffffffffffffffffff\n      and\n      dup2\n      mstore\n      0x20\n      add\n      swap1\n      dup2\n      mstore\n      0x20\n      add\n      0x00\n      keccak256\n      0x00\n        /* \"04-Camps/08-UpChain_Camp_3_OpenSpace/0115_ERC777TokenBank/contracts/TokenBank.sol\":1327:1367  tokenBalance[msg.sender] += _tokenAmount */\n      dup3\n      dup3\n      sload\n      tag_112\n      swap2\n      swap1\n      tag_83\n      jump\t// in\n    tag_112:\n      swap3\n      pop\n      pop\n      dup2\n      swap1\n      sstore\n      pop\n        /* \"04-Camps/08-UpChain_Camp_3_OpenSpace/0115_ERC777TokenBank/contracts/TokenBank.sol\":1377:1406  _handleRankWhenDepositToken() */\n      tag_113\n        /* \"04-Camps/08-UpChain_Camp_3_OpenSpace/0115_ERC777TokenBank/contracts/TokenBank.sol\":1377:1404  _handleRankWhenDepositToken */\n      tag_114\n        /* \"04-Camps/08-UpChain_Camp_3_OpenSpace/0115_ERC777TokenBank/contracts/TokenBank.sol\":1377:1406  _handleRankWhenDepositToken() */\n      jump\t// in\n    tag_113:\n        /* \"04-Camps/08-UpChain_Camp_3_OpenSpace/0115_ERC777TokenBank/contracts/TokenBank.sol\":1126:1413  function depositToken(uint _tokenAmount) public {... */\n      pop\n      jump\t// out\n        /* \"04-Camps/08-UpChain_Camp_3_OpenSpace/0115_ERC777TokenBank/contracts/TokenBank.sol\":732:767  IERC20 public immutable iERC20Token */\n    tag_63:\n      immutable(\"0x6cfd55a66e5cc34b29752b3a64b2ed84f83c6356956121755c4a645dab2f4b8e\")\n      dup2\n      jump\t// out\n        /* \"04-Camps/08-UpChain_Camp_3_OpenSpace/0115_ERC777TokenBank/contracts/Bank.sol\":365:385  address public owner */\n    tag_68:\n      0x04\n      0x00\n      swap1\n      sload\n      swap1\n      0x0100\n      exp\n      swap1\n      div\n      0xffffffffffffffffffffffffffffffffffffffff\n      and\n      dup2\n      jump\t// out\n        /* \"04-Camps/08-UpChain_Camp_3_OpenSpace/0115_ERC777TokenBank/contracts/TokenBank.sol\":2011:2188  function getTokenTopThreeAccount()... */\n    tag_72:\n        /* \"04-Camps/08-UpChain_Camp_3_OpenSpace/0115_ERC777TokenBank/contracts/TokenBank.sol\":2091:2098  address */\n      0x00\n        /* \"04-Camps/08-UpChain_Camp_3_OpenSpace/0115_ERC777TokenBank/contracts/TokenBank.sol\":2100:2107  address */\n      dup1\n        /* \"04-Camps/08-UpChain_Camp_3_OpenSpace/0115_ERC777TokenBank/contracts/TokenBank.sol\":2109:2116  address */\n      0x00\n        /* \"04-Camps/08-UpChain_Camp_3_OpenSpace/0115_ERC777TokenBank/contracts/TokenBank.sol\":2140:2149  tokenRank */\n      0x06\n        /* \"04-Camps/08-UpChain_Camp_3_OpenSpace/0115_ERC777TokenBank/contracts/TokenBank.sol\":2150:2151  0 */\n      0x00\n        /* \"04-Camps/08-UpChain_Camp_3_OpenSpace/0115_ERC777TokenBank/contracts/TokenBank.sol\":2140:2152  tokenRank[0] */\n      0x03\n      dup2\n      lt\n      tag_116\n      jumpi\n      tag_117\n      tag_96\n      jump\t// in\n    tag_117:\n    tag_116:\n      add\n      0x00\n      swap1\n      sload\n      swap1\n      0x0100\n      exp\n      swap1\n      div\n      0xffffffffffffffffffffffffffffffffffffffff\n      and\n        /* \"04-Camps/08-UpChain_Camp_3_OpenSpace/0115_ERC777TokenBank/contracts/TokenBank.sol\":2154:2163  tokenRank */\n      0x06\n        /* \"04-Camps/08-UpChain_Camp_3_OpenSpace/0115_ERC777TokenBank/contracts/TokenBank.sol\":2164:2165  1 */\n      0x01\n        /* \"04-Camps/08-UpChain_Camp_3_OpenSpace/0115_ERC777TokenBank/contracts/TokenBank.sol\":2154:2166  tokenRank[1] */\n      0x03\n      dup2\n      lt\n      tag_119\n      jumpi\n      tag_120\n      tag_96\n      jump\t// in\n    tag_120:\n    tag_119:\n      add\n      0x00\n      swap1\n      sload\n      swap1\n      0x0100\n      exp\n      swap1\n      div\n      0xffffffffffffffffffffffffffffffffffffffff\n      and\n        /* \"04-Camps/08-UpChain_Camp_3_OpenSpace/0115_ERC777TokenBank/contracts/TokenBank.sol\":2168:2177  tokenRank */\n      0x06\n        /* \"04-Camps/08-UpChain_Camp_3_OpenSpace/0115_ERC777TokenBank/contracts/TokenBank.sol\":2178:2179  2 */\n      0x02\n        /* \"04-Camps/08-UpChain_Camp_3_OpenSpace/0115_ERC777TokenBank/contracts/TokenBank.sol\":2168:2180  tokenRank[2] */\n      0x03\n      dup2\n      lt\n      tag_122\n      jumpi\n      tag_123\n      tag_96\n      jump\t// in\n    tag_123:\n    tag_122:\n      add\n      0x00\n      swap1\n      sload\n      swap1\n      0x0100\n      exp\n      swap1\n      div\n      0xffffffffffffffffffffffffffffffffffffffff\n      and\n        /* \"04-Camps/08-UpChain_Camp_3_OpenSpace/0115_ERC777TokenBank/contracts/TokenBank.sol\":2132:2181  return (tokenRank[0], tokenRank[1], tokenRank[2]) */\n      swap3\n      pop\n      swap3\n      pop\n      swap3\n      pop\n        /* \"04-Camps/08-UpChain_Camp_3_OpenSpace/0115_ERC777TokenBank/contracts/TokenBank.sol\":2011:2188  function getTokenTopThreeAccount()... */\n      swap1\n      swap2\n      swap3\n      jump\t// out\n        /* \"04-Camps/08-UpChain_Camp_3_OpenSpace/0115_ERC777TokenBank/contracts/TokenBank.sol\":1419:1546  function withdrawToken() public onlyOwner {... */\n    tag_76:\n        /* \"04-Camps/08-UpChain_Camp_3_OpenSpace/0115_ERC777TokenBank/contracts/Bank.sol\":500:505  owner */\n      0x04\n      0x00\n      swap1\n      sload\n      swap1\n      0x0100\n      exp\n      swap1\n      div\n      0xffffffffffffffffffffffffffffffffffffffff\n      and\n        /* \"04-Camps/08-UpChain_Camp_3_OpenSpace/0115_ERC777TokenBank/contracts/Bank.sol\":486:505  msg.sender == owner */\n      0xffffffffffffffffffffffffffffffffffffffff\n      and\n        /* \"04-Camps/08-UpChain_Camp_3_OpenSpace/0115_ERC777TokenBank/contracts/Bank.sol\":486:496  msg.sender */\n      caller\n        /* \"04-Camps/08-UpChain_Camp_3_OpenSpace/0115_ERC777TokenBank/contracts/Bank.sol\":486:505  msg.sender == owner */\n      0xffffffffffffffffffffffffffffffffffffffff\n      and\n      eq\n        /* \"04-Camps/08-UpChain_Camp_3_OpenSpace/0115_ERC777TokenBank/contracts/Bank.sol\":478:529  require(msg.sender == owner, \"Only owner can call\") */\n      tag_126\n      jumpi\n      mload(0x40)\n      0x08c379a000000000000000000000000000000000000000000000000000000000\n      dup2\n      mstore\n      0x04\n      add\n      tag_127\n      swap1\n      tag_128\n      jump\t// in\n    tag_127:\n      mload(0x40)\n      dup1\n      swap2\n      sub\n      swap1\n      revert\n    tag_126:\n        /* \"04-Camps/08-UpChain_Camp_3_OpenSpace/0115_ERC777TokenBank/contracts/TokenBank.sol\":1471:1475  iGTT */\n      immutable(\"0x44caf484852acee09d52b2802dba26d3c8ab3d28c7abcc1398b87898115633ec\")\n        /* \"04-Camps/08-UpChain_Camp_3_OpenSpace/0115_ERC777TokenBank/contracts/TokenBank.sol\":1471:1488  iGTT.safeTransfer */\n      0xffffffffffffffffffffffffffffffffffffffff\n      and\n      0xd1660f99\n        /* \"04-Camps/08-UpChain_Camp_3_OpenSpace/0115_ERC777TokenBank/contracts/TokenBank.sol\":1489:1500  iERC20Token */\n      immutable(\"0x6cfd55a66e5cc34b29752b3a64b2ed84f83c6356956121755c4a645dab2f4b8e\")\n        /* \"04-Camps/08-UpChain_Camp_3_OpenSpace/0115_ERC777TokenBank/contracts/TokenBank.sol\":1502:1507  owner */\n      0x04\n      0x00\n      swap1\n      sload\n      swap1\n      0x0100\n      exp\n      swap1\n      div\n      0xffffffffffffffffffffffffffffffffffffffff\n      and\n        /* \"04-Camps/08-UpChain_Camp_3_OpenSpace/0115_ERC777TokenBank/contracts/TokenBank.sol\":1509:1513  iGTT */\n      immutable(\"0x44caf484852acee09d52b2802dba26d3c8ab3d28c7abcc1398b87898115633ec\")\n        /* \"04-Camps/08-UpChain_Camp_3_OpenSpace/0115_ERC777TokenBank/contracts/TokenBank.sol\":1509:1523  iGTT.balanceOf */\n      0xffffffffffffffffffffffffffffffffffffffff\n      and\n      0x70a08231\n        /* \"04-Camps/08-UpChain_Camp_3_OpenSpace/0115_ERC777TokenBank/contracts/TokenBank.sol\":1532:1536  this */\n      address\n        /* \"04-Camps/08-UpChain_Camp_3_OpenSpace/0115_ERC777TokenBank/contracts/TokenBank.sol\":1509:1538  iGTT.balanceOf(address(this)) */\n      mload(0x40)\n      dup3\n      0xffffffff\n      and\n      0xe0\n      shl\n      dup2\n      mstore\n      0x04\n      add\n      tag_130\n      swap2\n      swap1\n      tag_55\n      jump\t// in\n    tag_130:\n      0x20\n      mload(0x40)\n      dup1\n      dup4\n      sub\n      dup2\n      dup7\n      gas\n      staticcall\n      iszero\n      dup1\n      iszero\n      tag_132\n      jumpi\n      returndatasize\n      0x00\n      dup1\n      returndatacopy\n      revert(0x00, returndatasize)\n    tag_132:\n      pop\n      pop\n      pop\n      pop\n      mload(0x40)\n      returndatasize\n      not(0x1f)\n      0x1f\n      dup3\n      add\n      and\n      dup3\n      add\n      dup1\n      0x40\n      mstore\n      pop\n      dup2\n      add\n      swap1\n      tag_133\n      swap2\n      swap1\n      tag_134\n      jump\t// in\n    tag_133:\n        /* \"04-Camps/08-UpChain_Camp_3_OpenSpace/0115_ERC777TokenBank/contracts/TokenBank.sol\":1471:1539  iGTT.safeTransfer(iERC20Token, owner, iGTT.balanceOf(address(this))) */\n      mload(0x40)\n      dup5\n      0xffffffff\n      and\n      0xe0\n      shl\n      dup2\n      mstore\n      0x04\n      add\n      tag_135\n      swap4\n      swap3\n      swap2\n      swap1\n      tag_136\n      jump\t// in\n    tag_135:\n      0x00\n      mload(0x40)\n      dup1\n      dup4\n      sub\n      dup2\n      0x00\n      dup8\n      dup1\n      extcodesize\n      iszero\n      dup1\n      iszero\n      tag_137\n      jumpi\n      0x00\n      dup1\n      revert\n    tag_137:\n      pop\n      gas\n      call\n      iszero\n      dup1\n      iszero\n      tag_139\n      jumpi\n      returndatasize\n      0x00\n      dup1\n      returndatacopy\n      revert(0x00, returndatasize)\n    tag_139:\n      pop\n      pop\n      pop\n      pop\n        /* \"04-Camps/08-UpChain_Camp_3_OpenSpace/0115_ERC777TokenBank/contracts/TokenBank.sol\":1419:1546  function withdrawToken() public onlyOwner {... */\n      jump\t// out\n        /* \"04-Camps/08-UpChain_Camp_3_OpenSpace/0115_ERC777TokenBank/contracts/Bank.sol\":755:858  function withdrawETH() public onlyOwner {... */\n    tag_79:\n        /* \"04-Camps/08-UpChain_Camp_3_OpenSpace/0115_ERC777TokenBank/contracts/Bank.sol\":500:505  owner */\n      0x04\n      0x00\n      swap1\n      sload\n      swap1\n      0x0100\n      exp\n      swap1\n      div\n      0xffffffffffffffffffffffffffffffffffffffff\n      and\n        /* \"04-Camps/08-UpChain_Camp_3_OpenSpace/0115_ERC777TokenBank/contracts/Bank.sol\":486:505  msg.sender == owner */\n      0xffffffffffffffffffffffffffffffffffffffff\n      and\n        /* \"04-Camps/08-UpChain_Camp_3_OpenSpace/0115_ERC777TokenBank/contracts/Bank.sol\":486:496  msg.sender */\n      caller\n        /* \"04-Camps/08-UpChain_Camp_3_OpenSpace/0115_ERC777TokenBank/contracts/Bank.sol\":486:505  msg.sender == owner */\n      0xffffffffffffffffffffffffffffffffffffffff\n      and\n      eq\n        /* \"04-Camps/08-UpChain_Camp_3_OpenSpace/0115_ERC777TokenBank/contracts/Bank.sol\":478:529  require(msg.sender == owner, \"Only owner can call\") */\n      tag_141\n      jumpi\n      mload(0x40)\n      0x08c379a000000000000000000000000000000000000000000000000000000000\n      dup2\n      mstore\n      0x04\n      add\n      tag_142\n      swap1\n      tag_128\n      jump\t// in\n    tag_142:\n      mload(0x40)\n      dup1\n      swap2\n      sub\n      swap1\n      revert\n    tag_141:\n        /* \"04-Camps/08-UpChain_Camp_3_OpenSpace/0115_ERC777TokenBank/contracts/Bank.sol\":813:818  owner */\n      0x04\n      0x00\n      swap1\n      sload\n      swap1\n      0x0100\n      exp\n      swap1\n      div\n      0xffffffffffffffffffffffffffffffffffffffff\n      and\n        /* \"04-Camps/08-UpChain_Camp_3_OpenSpace/0115_ERC777TokenBank/contracts/Bank.sol\":805:828  payable(owner).transfer */\n      0xffffffffffffffffffffffffffffffffffffffff\n      and\n        /* \"04-Camps/08-UpChain_Camp_3_OpenSpace/0115_ERC777TokenBank/contracts/Bank.sol\":805:851  payable(owner).transfer(address(this).balance) */\n      0x08fc\n        /* \"04-Camps/08-UpChain_Camp_3_OpenSpace/0115_ERC777TokenBank/contracts/Bank.sol\":829:850  address(this).balance */\n      selfbalance\n        /* \"04-Camps/08-UpChain_Camp_3_OpenSpace/0115_ERC777TokenBank/contracts/Bank.sol\":805:851  payable(owner).transfer(address(this).balance) */\n      swap1\n      dup2\n      iszero\n      mul\n      swap1\n      mload(0x40)\n      0x00\n      mload(0x40)\n      dup1\n      dup4\n      sub\n      dup2\n      dup6\n      dup9\n      dup9\n      call\n      swap4\n      pop\n      pop\n      pop\n      pop\n      iszero\n      dup1\n      iszero\n      tag_145\n      jumpi\n      returndatasize\n      0x00\n      dup1\n      returndatacopy\n      revert(0x00, returndatasize)\n    tag_145:\n      pop\n        /* \"04-Camps/08-UpChain_Camp_3_OpenSpace/0115_ERC777TokenBank/contracts/Bank.sol\":755:858  function withdrawETH() public onlyOwner {... */\n      jump\t// out\n        /* \"04-Camps/08-UpChain_Camp_3_OpenSpace/0115_ERC777TokenBank/contracts/Bank.sol\":1156:3068  function _handleRankWhenDepositETH() internal {... */\n    tag_85:\n        /* \"04-Camps/08-UpChain_Camp_3_OpenSpace/0115_ERC777TokenBank/contracts/Bank.sol\":1212:1232  uint membershipIndex */\n      0x00\n        /* \"04-Camps/08-UpChain_Camp_3_OpenSpace/0115_ERC777TokenBank/contracts/Bank.sol\":1235:1260  _checkETHRankMembership() */\n      tag_147\n        /* \"04-Camps/08-UpChain_Camp_3_OpenSpace/0115_ERC777TokenBank/contracts/Bank.sol\":1235:1258  _checkETHRankMembership */\n      tag_148\n        /* \"04-Camps/08-UpChain_Camp_3_OpenSpace/0115_ERC777TokenBank/contracts/Bank.sol\":1235:1260  _checkETHRankMembership() */\n      jump\t// in\n    tag_147:\n        /* \"04-Camps/08-UpChain_Camp_3_OpenSpace/0115_ERC777TokenBank/contracts/Bank.sol\":1212:1260  uint membershipIndex = _checkETHRankMembership() */\n      swap1\n      pop\n        /* \"04-Camps/08-UpChain_Camp_3_OpenSpace/0115_ERC777TokenBank/contracts/Bank.sol\":1270:1289  uint convertedIndex */\n      0x00\n        /* \"04-Camps/08-UpChain_Camp_3_OpenSpace/0115_ERC777TokenBank/contracts/Bank.sol\":1299:1315  uint indexRecord */\n      dup1\n        /* \"04-Camps/08-UpChain_Camp_3_OpenSpace/0115_ERC777TokenBank/contracts/Bank.sol\":1318:1321  777 */\n      0x0309\n        /* \"04-Camps/08-UpChain_Camp_3_OpenSpace/0115_ERC777TokenBank/contracts/Bank.sol\":1299:1321  uint indexRecord = 777 */\n      swap1\n      pop\n        /* \"04-Camps/08-UpChain_Camp_3_OpenSpace/0115_ERC777TokenBank/contracts/Bank.sol\":1354:1357  999 */\n      0x03e7\n        /* \"04-Camps/08-UpChain_Camp_3_OpenSpace/0115_ERC777TokenBank/contracts/Bank.sol\":1335:1350  membershipIndex */\n      dup4\n        /* \"04-Camps/08-UpChain_Camp_3_OpenSpace/0115_ERC777TokenBank/contracts/Bank.sol\":1335:1357  membershipIndex != 999 */\n      eq\n        /* \"04-Camps/08-UpChain_Camp_3_OpenSpace/0115_ERC777TokenBank/contracts/Bank.sol\":1331:3062  if (membershipIndex != 999) {... */\n      tag_149\n      jumpi\n        /* \"04-Camps/08-UpChain_Camp_3_OpenSpace/0115_ERC777TokenBank/contracts/Bank.sol\":1475:1476  4 */\n      0x04\n        /* \"04-Camps/08-UpChain_Camp_3_OpenSpace/0115_ERC777TokenBank/contracts/Bank.sol\":1457:1472  membershipIndex */\n      dup4\n        /* \"04-Camps/08-UpChain_Camp_3_OpenSpace/0115_ERC777TokenBank/contracts/Bank.sol\":1457:1476  membershipIndex + 4 */\n      tag_150\n      swap2\n      swap1\n      tag_83\n      jump\t// in\n    tag_150:\n        /* \"04-Camps/08-UpChain_Camp_3_OpenSpace/0115_ERC777TokenBank/contracts/Bank.sol\":1440:1476  convertedIndex = membershipIndex + 4 */\n      swap2\n      pop\n        /* \"04-Camps/08-UpChain_Camp_3_OpenSpace/0115_ERC777TokenBank/contracts/Bank.sol\":1495:1501  uint i */\n      0x00\n        /* \"04-Camps/08-UpChain_Camp_3_OpenSpace/0115_ERC777TokenBank/contracts/Bank.sol\":1521:1522  3 */\n      0x03\n        /* \"04-Camps/08-UpChain_Camp_3_OpenSpace/0115_ERC777TokenBank/contracts/Bank.sol\":1504:1518  convertedIndex */\n      dup4\n        /* \"04-Camps/08-UpChain_Camp_3_OpenSpace/0115_ERC777TokenBank/contracts/Bank.sol\":1504:1522  convertedIndex - 3 */\n      tag_154\n      swap2\n      swap1\n      tag_155\n      jump\t// in\n    tag_154:\n        /* \"04-Camps/08-UpChain_Camp_3_OpenSpace/0115_ERC777TokenBank/contracts/Bank.sol\":1495:1522  uint i = convertedIndex - 3 */\n      swap1\n      pop\n        /* \"04-Camps/08-UpChain_Camp_3_OpenSpace/0115_ERC777TokenBank/contracts/Bank.sol\":1490:2236  for (uint i = convertedIndex - 3; i > 1; i--) {... */\n    tag_151:\n        /* \"04-Camps/08-UpChain_Camp_3_OpenSpace/0115_ERC777TokenBank/contracts/Bank.sol\":1528:1529  1 */\n      0x01\n        /* \"04-Camps/08-UpChain_Camp_3_OpenSpace/0115_ERC777TokenBank/contracts/Bank.sol\":1524:1525  i */\n      dup2\n        /* \"04-Camps/08-UpChain_Camp_3_OpenSpace/0115_ERC777TokenBank/contracts/Bank.sol\":1524:1529  i > 1 */\n      gt\n        /* \"04-Camps/08-UpChain_Camp_3_OpenSpace/0115_ERC777TokenBank/contracts/Bank.sol\":1490:2236  for (uint i = convertedIndex - 3; i > 1; i--) {... */\n      iszero\n      tag_152\n      jumpi\n        /* \"04-Camps/08-UpChain_Camp_3_OpenSpace/0115_ERC777TokenBank/contracts/Bank.sol\":1577:1578  0 */\n      0x00\n        /* \"04-Camps/08-UpChain_Camp_3_OpenSpace/0115_ERC777TokenBank/contracts/Bank.sol\":1558:1573  membershipIndex */\n      dup5\n        /* \"04-Camps/08-UpChain_Camp_3_OpenSpace/0115_ERC777TokenBank/contracts/Bank.sol\":1558:1578  membershipIndex != 0 */\n      eq\n        /* \"04-Camps/08-UpChain_Camp_3_OpenSpace/0115_ERC777TokenBank/contracts/Bank.sol\":1554:2222  if (membershipIndex != 0) {... */\n      tag_156\n      jumpi\n        /* \"04-Camps/08-UpChain_Camp_3_OpenSpace/0115_ERC777TokenBank/contracts/Bank.sol\":1631:1641  ETHBalance */\n      0x00\n        /* \"04-Camps/08-UpChain_Camp_3_OpenSpace/0115_ERC777TokenBank/contracts/Bank.sol\":1631:1654  ETHBalance[rank[i - 2]] */\n      dup1\n        /* \"04-Camps/08-UpChain_Camp_3_OpenSpace/0115_ERC777TokenBank/contracts/Bank.sol\":1642:1646  rank */\n      0x01\n        /* \"04-Camps/08-UpChain_Camp_3_OpenSpace/0115_ERC777TokenBank/contracts/Bank.sol\":1651:1652  2 */\n      0x02\n        /* \"04-Camps/08-UpChain_Camp_3_OpenSpace/0115_ERC777TokenBank/contracts/Bank.sol\":1647:1648  i */\n      dup5\n        /* \"04-Camps/08-UpChain_Camp_3_OpenSpace/0115_ERC777TokenBank/contracts/Bank.sol\":1647:1652  i - 2 */\n      tag_157\n      swap2\n      swap1\n      tag_155\n      jump\t// in\n    tag_157:\n        /* \"04-Camps/08-UpChain_Camp_3_OpenSpace/0115_ERC777TokenBank/contracts/Bank.sol\":1642:1653  rank[i - 2] */\n      0x03\n      dup2\n      lt\n      tag_158\n      jumpi\n      tag_159\n      tag_96\n      jump\t// in\n    tag_159:\n    tag_158:\n      add\n      0x00\n      swap1\n      sload\n      swap1\n      0x0100\n      exp\n      swap1\n      div\n      0xffffffffffffffffffffffffffffffffffffffff\n      and\n        /* \"04-Camps/08-UpChain_Camp_3_OpenSpace/0115_ERC777TokenBank/contracts/Bank.sol\":1631:1654  ETHBalance[rank[i - 2]] */\n      0xffffffffffffffffffffffffffffffffffffffff\n      and\n      0xffffffffffffffffffffffffffffffffffffffff\n      and\n      dup2\n      mstore\n      0x20\n      add\n      swap1\n      dup2\n      mstore\n      0x20\n      add\n      0x00\n      keccak256\n      sload\n        /* \"04-Camps/08-UpChain_Camp_3_OpenSpace/0115_ERC777TokenBank/contracts/Bank.sol\":1606:1616  ETHBalance */\n      0x00\n        /* \"04-Camps/08-UpChain_Camp_3_OpenSpace/0115_ERC777TokenBank/contracts/Bank.sol\":1606:1628  ETHBalance[msg.sender] */\n      dup1\n        /* \"04-Camps/08-UpChain_Camp_3_OpenSpace/0115_ERC777TokenBank/contracts/Bank.sol\":1617:1627  msg.sender */\n      caller\n        /* \"04-Camps/08-UpChain_Camp_3_OpenSpace/0115_ERC777TokenBank/contracts/Bank.sol\":1606:1628  ETHBalance[msg.sender] */\n      0xffffffffffffffffffffffffffffffffffffffff\n      and\n      0xffffffffffffffffffffffffffffffffffffffff\n      and\n      dup2\n      mstore\n      0x20\n      add\n      swap1\n      dup2\n      mstore\n      0x20\n      add\n      0x00\n      keccak256\n      sload\n        /* \"04-Camps/08-UpChain_Camp_3_OpenSpace/0115_ERC777TokenBank/contracts/Bank.sol\":1606:1654  ETHBalance[msg.sender] > ETHBalance[rank[i - 2]] */\n      gt\n        /* \"04-Camps/08-UpChain_Camp_3_OpenSpace/0115_ERC777TokenBank/contracts/Bank.sol\":1602:2204  if (ETHBalance[msg.sender] > ETHBalance[rank[i - 2]]) {... */\n      iszero\n      tag_161\n      jumpi\n        /* \"04-Camps/08-UpChain_Camp_3_OpenSpace/0115_ERC777TokenBank/contracts/Bank.sol\":1700:1701  2 */\n      0x02\n        /* \"04-Camps/08-UpChain_Camp_3_OpenSpace/0115_ERC777TokenBank/contracts/Bank.sol\":1696:1697  i */\n      dup2\n        /* \"04-Camps/08-UpChain_Camp_3_OpenSpace/0115_ERC777TokenBank/contracts/Bank.sol\":1696:1701  i - 2 */\n      tag_162\n      swap2\n      swap1\n      tag_155\n      jump\t// in\n    tag_162:\n        /* \"04-Camps/08-UpChain_Camp_3_OpenSpace/0115_ERC777TokenBank/contracts/Bank.sol\":1682:1701  indexRecord = i - 2 */\n      swap2\n      pop\n        /* \"04-Camps/08-UpChain_Camp_3_OpenSpace/0115_ERC777TokenBank/contracts/Bank.sol\":1732:1738  uint j */\n      0x00\n        /* \"04-Camps/08-UpChain_Camp_3_OpenSpace/0115_ERC777TokenBank/contracts/Bank.sol\":1741:1742  2 */\n      0x02\n        /* \"04-Camps/08-UpChain_Camp_3_OpenSpace/0115_ERC777TokenBank/contracts/Bank.sol\":1732:1742  uint j = 2 */\n      swap1\n      pop\n        /* \"04-Camps/08-UpChain_Camp_3_OpenSpace/0115_ERC777TokenBank/contracts/Bank.sol\":1727:1838  for (uint j = 2; j > i - 2; j--) {... */\n    tag_163:\n        /* \"04-Camps/08-UpChain_Camp_3_OpenSpace/0115_ERC777TokenBank/contracts/Bank.sol\":1752:1753  2 */\n      0x02\n        /* \"04-Camps/08-UpChain_Camp_3_OpenSpace/0115_ERC777TokenBank/contracts/Bank.sol\":1748:1749  i */\n      dup3\n        /* \"04-Camps/08-UpChain_Camp_3_OpenSpace/0115_ERC777TokenBank/contracts/Bank.sol\":1748:1753  i - 2 */\n      tag_166\n      swap2\n      swap1\n      tag_155\n      jump\t// in\n    tag_166:\n        /* \"04-Camps/08-UpChain_Camp_3_OpenSpace/0115_ERC777TokenBank/contracts/Bank.sol\":1744:1745  j */\n      dup2\n        /* \"04-Camps/08-UpChain_Camp_3_OpenSpace/0115_ERC777TokenBank/contracts/Bank.sol\":1744:1753  j > i - 2 */\n      gt\n        /* \"04-Camps/08-UpChain_Camp_3_OpenSpace/0115_ERC777TokenBank/contracts/Bank.sol\":1727:1838  for (uint j = 2; j > i - 2; j--) {... */\n      iszero\n      tag_164\n      jumpi\n        /* \"04-Camps/08-UpChain_Camp_3_OpenSpace/0115_ERC777TokenBank/contracts/Bank.sol\":1800:1804  rank */\n      0x01\n        /* \"04-Camps/08-UpChain_Camp_3_OpenSpace/0115_ERC777TokenBank/contracts/Bank.sol\":1809:1810  1 */\n      dup1\n        /* \"04-Camps/08-UpChain_Camp_3_OpenSpace/0115_ERC777TokenBank/contracts/Bank.sol\":1805:1806  j */\n      dup3\n        /* \"04-Camps/08-UpChain_Camp_3_OpenSpace/0115_ERC777TokenBank/contracts/Bank.sol\":1805:1810  j - 1 */\n      tag_167\n      swap2\n      swap1\n      tag_155\n      jump\t// in\n    tag_167:\n        /* \"04-Camps/08-UpChain_Camp_3_OpenSpace/0115_ERC777TokenBank/contracts/Bank.sol\":1800:1811  rank[j - 1] */\n      0x03\n      dup2\n      lt\n      tag_168\n      jumpi\n      tag_169\n      tag_96\n      jump\t// in\n    tag_169:\n    tag_168:\n      add\n      0x00\n      swap1\n      sload\n      swap1\n      0x0100\n      exp\n      swap1\n      div\n      0xffffffffffffffffffffffffffffffffffffffff\n      and\n        /* \"04-Camps/08-UpChain_Camp_3_OpenSpace/0115_ERC777TokenBank/contracts/Bank.sol\":1790:1794  rank */\n      0x01\n        /* \"04-Camps/08-UpChain_Camp_3_OpenSpace/0115_ERC777TokenBank/contracts/Bank.sol\":1795:1796  j */\n      dup3\n        /* \"04-Camps/08-UpChain_Camp_3_OpenSpace/0115_ERC777TokenBank/contracts/Bank.sol\":1790:1797  rank[j] */\n      0x03\n      dup2\n      lt\n      tag_171\n      jumpi\n      tag_172\n      tag_96\n      jump\t// in\n    tag_172:\n    tag_171:\n      add\n      0x00\n        /* \"04-Camps/08-UpChain_Camp_3_OpenSpace/0115_ERC777TokenBank/contracts/Bank.sol\":1790:1811  rank[j] = rank[j - 1] */\n      0x0100\n      exp\n      dup2\n      sload\n      dup2\n      0xffffffffffffffffffffffffffffffffffffffff\n      mul\n      not\n      and\n      swap1\n      dup4\n      0xffffffffffffffffffffffffffffffffffffffff\n      and\n      mul\n      or\n      swap1\n      sstore\n      pop\n        /* \"04-Camps/08-UpChain_Camp_3_OpenSpace/0115_ERC777TokenBank/contracts/Bank.sol\":1755:1758  j-- */\n      dup1\n      dup1\n      tag_174\n      swap1\n      tag_175\n      jump\t// in\n    tag_174:\n      swap2\n      pop\n      pop\n        /* \"04-Camps/08-UpChain_Camp_3_OpenSpace/0115_ERC777TokenBank/contracts/Bank.sol\":1727:1838  for (uint j = 2; j > i - 2; j--) {... */\n      jump(tag_163)\n    tag_164:\n      pop\n        /* \"04-Camps/08-UpChain_Camp_3_OpenSpace/0115_ERC777TokenBank/contracts/Bank.sol\":1927:1928  0 */\n      0x00\n        /* \"04-Camps/08-UpChain_Camp_3_OpenSpace/0115_ERC777TokenBank/contracts/Bank.sol\":1912:1923  indexRecord */\n      dup3\n        /* \"04-Camps/08-UpChain_Camp_3_OpenSpace/0115_ERC777TokenBank/contracts/Bank.sol\":1912:1928  indexRecord == 0 */\n      sub\n        /* \"04-Camps/08-UpChain_Camp_3_OpenSpace/0115_ERC777TokenBank/contracts/Bank.sol\":1908:2017  if (indexRecord == 0) {... */\n      tag_176\n      jumpi\n        /* \"04-Camps/08-UpChain_Camp_3_OpenSpace/0115_ERC777TokenBank/contracts/Bank.sol\":1980:1990  msg.sender */\n      caller\n        /* \"04-Camps/08-UpChain_Camp_3_OpenSpace/0115_ERC777TokenBank/contracts/Bank.sol\":1960:1964  rank */\n      0x01\n        /* \"04-Camps/08-UpChain_Camp_3_OpenSpace/0115_ERC777TokenBank/contracts/Bank.sol\":1965:1976  indexRecord */\n      dup4\n        /* \"04-Camps/08-UpChain_Camp_3_OpenSpace/0115_ERC777TokenBank/contracts/Bank.sol\":1960:1977  rank[indexRecord] */\n      0x03\n      dup2\n      lt\n      tag_177\n      jumpi\n      tag_178\n      tag_96\n      jump\t// in\n    tag_178:\n    tag_177:\n      add\n      0x00\n        /* \"04-Camps/08-UpChain_Camp_3_OpenSpace/0115_ERC777TokenBank/contracts/Bank.sol\":1960:1990  rank[indexRecord] = msg.sender */\n      0x0100\n      exp\n      dup2\n      sload\n      dup2\n      0xffffffffffffffffffffffffffffffffffffffff\n      mul\n      not\n      and\n      swap1\n      dup4\n      0xffffffffffffffffffffffffffffffffffffffff\n      and\n      mul\n      or\n      swap1\n      sstore\n      pop\n        /* \"04-Camps/08-UpChain_Camp_3_OpenSpace/0115_ERC777TokenBank/contracts/Bank.sol\":1908:2017  if (indexRecord == 0) {... */\n    tag_176:\n        /* \"04-Camps/08-UpChain_Camp_3_OpenSpace/0115_ERC777TokenBank/contracts/Bank.sol\":1602:2204  if (ETHBalance[msg.sender] > ETHBalance[rank[i - 2]]) {... */\n      jump(tag_180)\n    tag_161:\n        /* \"04-Camps/08-UpChain_Camp_3_OpenSpace/0115_ERC777TokenBank/contracts/Bank.sol\":2090:2093  777 */\n      0x0309\n        /* \"04-Camps/08-UpChain_Camp_3_OpenSpace/0115_ERC777TokenBank/contracts/Bank.sol\":2075:2086  indexRecord */\n      dup3\n        /* \"04-Camps/08-UpChain_Camp_3_OpenSpace/0115_ERC777TokenBank/contracts/Bank.sol\":2075:2093  indexRecord != 777 */\n      eq\n        /* \"04-Camps/08-UpChain_Camp_3_OpenSpace/0115_ERC777TokenBank/contracts/Bank.sol\":2071:2182  if (indexRecord != 777) {... */\n      tag_181\n      jumpi\n        /* \"04-Camps/08-UpChain_Camp_3_OpenSpace/0115_ERC777TokenBank/contracts/Bank.sol\":2145:2155  msg.sender */\n      caller\n        /* \"04-Camps/08-UpChain_Camp_3_OpenSpace/0115_ERC777TokenBank/contracts/Bank.sol\":2125:2129  rank */\n      0x01\n        /* \"04-Camps/08-UpChain_Camp_3_OpenSpace/0115_ERC777TokenBank/contracts/Bank.sol\":2130:2141  indexRecord */\n      dup4\n        /* \"04-Camps/08-UpChain_Camp_3_OpenSpace/0115_ERC777TokenBank/contracts/Bank.sol\":2125:2142  rank[indexRecord] */\n      0x03\n      dup2\n      lt\n      tag_182\n      jumpi\n      tag_183\n      tag_96\n      jump\t// in\n    tag_183:\n    tag_182:\n      add\n      0x00\n        /* \"04-Camps/08-UpChain_Camp_3_OpenSpace/0115_ERC777TokenBank/contracts/Bank.sol\":2125:2155  rank[indexRecord] = msg.sender */\n      0x0100\n      exp\n      dup2\n      sload\n      dup2\n      0xffffffffffffffffffffffffffffffffffffffff\n      mul\n      not\n      and\n      swap1\n      dup4\n      0xffffffffffffffffffffffffffffffffffffffff\n      and\n      mul\n      or\n      swap1\n      sstore\n      pop\n        /* \"04-Camps/08-UpChain_Camp_3_OpenSpace/0115_ERC777TokenBank/contracts/Bank.sol\":2071:2182  if (indexRecord != 777) {... */\n    tag_181:\n        /* \"04-Camps/08-UpChain_Camp_3_OpenSpace/0115_ERC777TokenBank/contracts/Bank.sol\":1602:2204  if (ETHBalance[msg.sender] > ETHBalance[rank[i - 2]]) {... */\n    tag_180:\n        /* \"04-Camps/08-UpChain_Camp_3_OpenSpace/0115_ERC777TokenBank/contracts/Bank.sol\":1554:2222  if (membershipIndex != 0) {... */\n    tag_156:\n        /* \"04-Camps/08-UpChain_Camp_3_OpenSpace/0115_ERC777TokenBank/contracts/Bank.sol\":1531:1534  i-- */\n      dup1\n      dup1\n      tag_185\n      swap1\n      tag_175\n      jump\t// in\n    tag_185:\n      swap2\n      pop\n      pop\n        /* \"04-Camps/08-UpChain_Camp_3_OpenSpace/0115_ERC777TokenBank/contracts/Bank.sol\":1490:2236  for (uint i = convertedIndex - 3; i > 1; i--) {... */\n      jump(tag_151)\n    tag_152:\n      pop\n        /* \"04-Camps/08-UpChain_Camp_3_OpenSpace/0115_ERC777TokenBank/contracts/Bank.sol\":1331:3062  if (membershipIndex != 999) {... */\n      jump(tag_186)\n    tag_149:\n        /* \"04-Camps/08-UpChain_Camp_3_OpenSpace/0115_ERC777TokenBank/contracts/Bank.sol\":2334:2340  uint i */\n      0x00\n        /* \"04-Camps/08-UpChain_Camp_3_OpenSpace/0115_ERC777TokenBank/contracts/Bank.sol\":2343:2344  3 */\n      0x03\n        /* \"04-Camps/08-UpChain_Camp_3_OpenSpace/0115_ERC777TokenBank/contracts/Bank.sol\":2334:2344  uint i = 3 */\n      swap1\n      pop\n        /* \"04-Camps/08-UpChain_Camp_3_OpenSpace/0115_ERC777TokenBank/contracts/Bank.sol\":2329:3052  for (uint i = 3; i > 0; i--) {... */\n    tag_187:\n        /* \"04-Camps/08-UpChain_Camp_3_OpenSpace/0115_ERC777TokenBank/contracts/Bank.sol\":2350:2351  0 */\n      0x00\n        /* \"04-Camps/08-UpChain_Camp_3_OpenSpace/0115_ERC777TokenBank/contracts/Bank.sol\":2346:2347  i */\n      dup2\n        /* \"04-Camps/08-UpChain_Camp_3_OpenSpace/0115_ERC777TokenBank/contracts/Bank.sol\":2346:2351  i > 0 */\n      gt\n        /* \"04-Camps/08-UpChain_Camp_3_OpenSpace/0115_ERC777TokenBank/contracts/Bank.sol\":2329:3052  for (uint i = 3; i > 0; i--) {... */\n      iszero\n      tag_188\n      jumpi\n        /* \"04-Camps/08-UpChain_Camp_3_OpenSpace/0115_ERC777TokenBank/contracts/Bank.sol\":2405:2415  ETHBalance */\n      0x00\n        /* \"04-Camps/08-UpChain_Camp_3_OpenSpace/0115_ERC777TokenBank/contracts/Bank.sol\":2405:2428  ETHBalance[rank[i - 1]] */\n      dup1\n        /* \"04-Camps/08-UpChain_Camp_3_OpenSpace/0115_ERC777TokenBank/contracts/Bank.sol\":2416:2420  rank */\n      0x01\n        /* \"04-Camps/08-UpChain_Camp_3_OpenSpace/0115_ERC777TokenBank/contracts/Bank.sol\":2425:2426  1 */\n      dup1\n        /* \"04-Camps/08-UpChain_Camp_3_OpenSpace/0115_ERC777TokenBank/contracts/Bank.sol\":2421:2422  i */\n      dup5\n        /* \"04-Camps/08-UpChain_Camp_3_OpenSpace/0115_ERC777TokenBank/contracts/Bank.sol\":2421:2426  i - 1 */\n      tag_190\n      swap2\n      swap1\n      tag_155\n      jump\t// in\n    tag_190:\n        /* \"04-Camps/08-UpChain_Camp_3_OpenSpace/0115_ERC777TokenBank/contracts/Bank.sol\":2416:2427  rank[i - 1] */\n      0x03\n      dup2\n      lt\n      tag_191\n      jumpi\n      tag_192\n      tag_96\n      jump\t// in\n    tag_192:\n    tag_191:\n      add\n      0x00\n      swap1\n      sload\n      swap1\n      0x0100\n      exp\n      swap1\n      div\n      0xffffffffffffffffffffffffffffffffffffffff\n      and\n        /* \"04-Camps/08-UpChain_Camp_3_OpenSpace/0115_ERC777TokenBank/contracts/Bank.sol\":2405:2428  ETHBalance[rank[i - 1]] */\n      0xffffffffffffffffffffffffffffffffffffffff\n      and\n      0xffffffffffffffffffffffffffffffffffffffff\n      and\n      dup2\n      mstore\n      0x20\n      add\n      swap1\n      dup2\n      mstore\n      0x20\n      add\n      0x00\n      keccak256\n      sload\n        /* \"04-Camps/08-UpChain_Camp_3_OpenSpace/0115_ERC777TokenBank/contracts/Bank.sol\":2380:2390  ETHBalance */\n      0x00\n        /* \"04-Camps/08-UpChain_Camp_3_OpenSpace/0115_ERC777TokenBank/contracts/Bank.sol\":2380:2402  ETHBalance[msg.sender] */\n      dup1\n        /* \"04-Camps/08-UpChain_Camp_3_OpenSpace/0115_ERC777TokenBank/contracts/Bank.sol\":2391:2401  msg.sender */\n      caller\n        /* \"04-Camps/08-UpChain_Camp_3_OpenSpace/0115_ERC777TokenBank/contracts/Bank.sol\":2380:2402  ETHBalance[msg.sender] */\n      0xffffffffffffffffffffffffffffffffffffffff\n      and\n      0xffffffffffffffffffffffffffffffffffffffff\n      and\n      dup2\n      mstore\n      0x20\n      add\n      swap1\n      dup2\n      mstore\n      0x20\n      add\n      0x00\n      keccak256\n      sload\n        /* \"04-Camps/08-UpChain_Camp_3_OpenSpace/0115_ERC777TokenBank/contracts/Bank.sol\":2380:2428  ETHBalance[msg.sender] > ETHBalance[rank[i - 1]] */\n      gt\n        /* \"04-Camps/08-UpChain_Camp_3_OpenSpace/0115_ERC777TokenBank/contracts/Bank.sol\":2376:3038  if (ETHBalance[msg.sender] > ETHBalance[rank[i - 1]]) {... */\n      iszero\n      tag_194\n      jumpi\n        /* \"04-Camps/08-UpChain_Camp_3_OpenSpace/0115_ERC777TokenBank/contracts/Bank.sol\":2470:2471  1 */\n      0x01\n        /* \"04-Camps/08-UpChain_Camp_3_OpenSpace/0115_ERC777TokenBank/contracts/Bank.sol\":2466:2467  i */\n      dup2\n        /* \"04-Camps/08-UpChain_Camp_3_OpenSpace/0115_ERC777TokenBank/contracts/Bank.sol\":2466:2471  i - 1 */\n      tag_195\n      swap2\n      swap1\n      tag_155\n      jump\t// in\n    tag_195:\n        /* \"04-Camps/08-UpChain_Camp_3_OpenSpace/0115_ERC777TokenBank/contracts/Bank.sol\":2452:2471  indexRecord = i - 1 */\n      swap2\n      pop\n        /* \"04-Camps/08-UpChain_Camp_3_OpenSpace/0115_ERC777TokenBank/contracts/Bank.sol\":2610:2616  uint j */\n      0x00\n        /* \"04-Camps/08-UpChain_Camp_3_OpenSpace/0115_ERC777TokenBank/contracts/Bank.sol\":2619:2620  2 */\n      0x02\n        /* \"04-Camps/08-UpChain_Camp_3_OpenSpace/0115_ERC777TokenBank/contracts/Bank.sol\":2610:2620  uint j = 2 */\n      swap1\n      pop\n        /* \"04-Camps/08-UpChain_Camp_3_OpenSpace/0115_ERC777TokenBank/contracts/Bank.sol\":2605:2708  for (uint j = 2; j > i - 1; j--) {... */\n    tag_196:\n        /* \"04-Camps/08-UpChain_Camp_3_OpenSpace/0115_ERC777TokenBank/contracts/Bank.sol\":2630:2631  1 */\n      0x01\n        /* \"04-Camps/08-UpChain_Camp_3_OpenSpace/0115_ERC777TokenBank/contracts/Bank.sol\":2626:2627  i */\n      dup3\n        /* \"04-Camps/08-UpChain_Camp_3_OpenSpace/0115_ERC777TokenBank/contracts/Bank.sol\":2626:2631  i - 1 */\n      tag_199\n      swap2\n      swap1\n      tag_155\n      jump\t// in\n    tag_199:\n        /* \"04-Camps/08-UpChain_Camp_3_OpenSpace/0115_ERC777TokenBank/contracts/Bank.sol\":2622:2623  j */\n      dup2\n        /* \"04-Camps/08-UpChain_Camp_3_OpenSpace/0115_ERC777TokenBank/contracts/Bank.sol\":2622:2631  j > i - 1 */\n      gt\n        /* \"04-Camps/08-UpChain_Camp_3_OpenSpace/0115_ERC777TokenBank/contracts/Bank.sol\":2605:2708  for (uint j = 2; j > i - 1; j--) {... */\n      iszero\n      tag_197\n      jumpi\n        /* \"04-Camps/08-UpChain_Camp_3_OpenSpace/0115_ERC777TokenBank/contracts/Bank.sol\":2674:2678  rank */\n      0x01\n        /* \"04-Camps/08-UpChain_Camp_3_OpenSpace/0115_ERC777TokenBank/contracts/Bank.sol\":2683:2684  1 */\n      dup1\n        /* \"04-Camps/08-UpChain_Camp_3_OpenSpace/0115_ERC777TokenBank/contracts/Bank.sol\":2679:2680  j */\n      dup3\n        /* \"04-Camps/08-UpChain_Camp_3_OpenSpace/0115_ERC777TokenBank/contracts/Bank.sol\":2679:2684  j - 1 */\n      tag_200\n      swap2\n      swap1\n      tag_155\n      jump\t// in\n    tag_200:\n        /* \"04-Camps/08-UpChain_Camp_3_OpenSpace/0115_ERC777TokenBank/contracts/Bank.sol\":2674:2685  rank[j - 1] */\n      0x03\n      dup2\n      lt\n      tag_201\n      jumpi\n      tag_202\n      tag_96\n      jump\t// in\n    tag_202:\n    tag_201:\n      add\n      0x00\n      swap1\n      sload\n      swap1\n      0x0100\n      exp\n      swap1\n      div\n      0xffffffffffffffffffffffffffffffffffffffff\n      and\n        /* \"04-Camps/08-UpChain_Camp_3_OpenSpace/0115_ERC777TokenBank/contracts/Bank.sol\":2664:2668  rank */\n      0x01\n        /* \"04-Camps/08-UpChain_Camp_3_OpenSpace/0115_ERC777TokenBank/contracts/Bank.sol\":2669:2670  j */\n      dup3\n        /* \"04-Camps/08-UpChain_Camp_3_OpenSpace/0115_ERC777TokenBank/contracts/Bank.sol\":2664:2671  rank[j] */\n      0x03\n      dup2\n      lt\n      tag_204\n      jumpi\n      tag_205\n      tag_96\n      jump\t// in\n    tag_205:\n    tag_204:\n      add\n      0x00\n        /* \"04-Camps/08-UpChain_Camp_3_OpenSpace/0115_ERC777TokenBank/contracts/Bank.sol\":2664:2685  rank[j] = rank[j - 1] */\n      0x0100\n      exp\n      dup2\n      sload\n      dup2\n      0xffffffffffffffffffffffffffffffffffffffff\n      mul\n      not\n      and\n      swap1\n      dup4\n      0xffffffffffffffffffffffffffffffffffffffff\n      and\n      mul\n      or\n      swap1\n      sstore\n      pop\n        /* \"04-Camps/08-UpChain_Camp_3_OpenSpace/0115_ERC777TokenBank/contracts/Bank.sol\":2633:2636  j-- */\n      dup1\n      dup1\n      tag_207\n      swap1\n      tag_175\n      jump\t// in\n    tag_207:\n      swap2\n      pop\n      pop\n        /* \"04-Camps/08-UpChain_Camp_3_OpenSpace/0115_ERC777TokenBank/contracts/Bank.sol\":2605:2708  for (uint j = 2; j > i - 1; j--) {... */\n      jump(tag_196)\n    tag_197:\n      pop\n        /* \"04-Camps/08-UpChain_Camp_3_OpenSpace/0115_ERC777TokenBank/contracts/Bank.sol\":2789:2790  0 */\n      0x00\n        /* \"04-Camps/08-UpChain_Camp_3_OpenSpace/0115_ERC777TokenBank/contracts/Bank.sol\":2774:2785  indexRecord */\n      dup3\n        /* \"04-Camps/08-UpChain_Camp_3_OpenSpace/0115_ERC777TokenBank/contracts/Bank.sol\":2774:2790  indexRecord == 0 */\n      sub\n        /* \"04-Camps/08-UpChain_Camp_3_OpenSpace/0115_ERC777TokenBank/contracts/Bank.sol\":2770:2871  if (indexRecord == 0) {... */\n      tag_208\n      jumpi\n        /* \"04-Camps/08-UpChain_Camp_3_OpenSpace/0115_ERC777TokenBank/contracts/Bank.sol\":2838:2848  msg.sender */\n      caller\n        /* \"04-Camps/08-UpChain_Camp_3_OpenSpace/0115_ERC777TokenBank/contracts/Bank.sol\":2818:2822  rank */\n      0x01\n        /* \"04-Camps/08-UpChain_Camp_3_OpenSpace/0115_ERC777TokenBank/contracts/Bank.sol\":2823:2834  indexRecord */\n      dup4\n        /* \"04-Camps/08-UpChain_Camp_3_OpenSpace/0115_ERC777TokenBank/contracts/Bank.sol\":2818:2835  rank[indexRecord] */\n      0x03\n      dup2\n      lt\n      tag_209\n      jumpi\n      tag_210\n      tag_96\n      jump\t// in\n    tag_210:\n    tag_209:\n      add\n      0x00\n        /* \"04-Camps/08-UpChain_Camp_3_OpenSpace/0115_ERC777TokenBank/contracts/Bank.sol\":2818:2848  rank[indexRecord] = msg.sender */\n      0x0100\n      exp\n      dup2\n      sload\n      dup2\n      0xffffffffffffffffffffffffffffffffffffffff\n      mul\n      not\n      and\n      swap1\n      dup4\n      0xffffffffffffffffffffffffffffffffffffffff\n      and\n      mul\n      or\n      swap1\n      sstore\n      pop\n        /* \"04-Camps/08-UpChain_Camp_3_OpenSpace/0115_ERC777TokenBank/contracts/Bank.sol\":2770:2871  if (indexRecord == 0) {... */\n    tag_208:\n        /* \"04-Camps/08-UpChain_Camp_3_OpenSpace/0115_ERC777TokenBank/contracts/Bank.sol\":2376:3038  if (ETHBalance[msg.sender] > ETHBalance[rank[i - 1]]) {... */\n      jump(tag_212)\n    tag_194:\n        /* \"04-Camps/08-UpChain_Camp_3_OpenSpace/0115_ERC777TokenBank/contracts/Bank.sol\":2936:2939  777 */\n      0x0309\n        /* \"04-Camps/08-UpChain_Camp_3_OpenSpace/0115_ERC777TokenBank/contracts/Bank.sol\":2921:2932  indexRecord */\n      dup3\n        /* \"04-Camps/08-UpChain_Camp_3_OpenSpace/0115_ERC777TokenBank/contracts/Bank.sol\":2921:2939  indexRecord != 777 */\n      eq\n        /* \"04-Camps/08-UpChain_Camp_3_OpenSpace/0115_ERC777TokenBank/contracts/Bank.sol\":2917:3020  if (indexRecord != 777) {... */\n      tag_213\n      jumpi\n        /* \"04-Camps/08-UpChain_Camp_3_OpenSpace/0115_ERC777TokenBank/contracts/Bank.sol\":2987:2997  msg.sender */\n      caller\n        /* \"04-Camps/08-UpChain_Camp_3_OpenSpace/0115_ERC777TokenBank/contracts/Bank.sol\":2967:2971  rank */\n      0x01\n        /* \"04-Camps/08-UpChain_Camp_3_OpenSpace/0115_ERC777TokenBank/contracts/Bank.sol\":2972:2983  indexRecord */\n      dup4\n        /* \"04-Camps/08-UpChain_Camp_3_OpenSpace/0115_ERC777TokenBank/contracts/Bank.sol\":2967:2984  rank[indexRecord] */\n      0x03\n      dup2\n      lt\n      tag_214\n      jumpi\n      tag_215\n      tag_96\n      jump\t// in\n    tag_215:\n    tag_214:\n      add\n      0x00\n        /* \"04-Camps/08-UpChain_Camp_3_OpenSpace/0115_ERC777TokenBank/contracts/Bank.sol\":2967:2997  rank[indexRecord] = msg.sender */\n      0x0100\n      exp\n      dup2\n      sload\n      dup2\n      0xffffffffffffffffffffffffffffffffffffffff\n      mul\n      not\n      and\n      swap1\n      dup4\n      0xffffffffffffffffffffffffffffffffffffffff\n      and\n      mul\n      or\n      swap1\n      sstore\n      pop\n        /* \"04-Camps/08-UpChain_Camp_3_OpenSpace/0115_ERC777TokenBank/contracts/Bank.sol\":2917:3020  if (indexRecord != 777) {... */\n    tag_213:\n        /* \"04-Camps/08-UpChain_Camp_3_OpenSpace/0115_ERC777TokenBank/contracts/Bank.sol\":2376:3038  if (ETHBalance[msg.sender] > ETHBalance[rank[i - 1]]) {... */\n    tag_212:\n        /* \"04-Camps/08-UpChain_Camp_3_OpenSpace/0115_ERC777TokenBank/contracts/Bank.sol\":2353:2356  i-- */\n      dup1\n      dup1\n      tag_217\n      swap1\n      tag_175\n      jump\t// in\n    tag_217:\n      swap2\n      pop\n      pop\n        /* \"04-Camps/08-UpChain_Camp_3_OpenSpace/0115_ERC777TokenBank/contracts/Bank.sol\":2329:3052  for (uint i = 3; i > 0; i--) {... */\n      jump(tag_187)\n    tag_188:\n      pop\n        /* \"04-Camps/08-UpChain_Camp_3_OpenSpace/0115_ERC777TokenBank/contracts/Bank.sol\":1331:3062  if (membershipIndex != 999) {... */\n    tag_186:\n        /* \"04-Camps/08-UpChain_Camp_3_OpenSpace/0115_ERC777TokenBank/contracts/Bank.sol\":1202:3068  {... */\n      pop\n      pop\n      pop\n        /* \"04-Camps/08-UpChain_Camp_3_OpenSpace/0115_ERC777TokenBank/contracts/Bank.sol\":1156:3068  function _handleRankWhenDepositETH() internal {... */\n      jump\t// out\n        /* \"04-Camps/08-UpChain_Camp_3_OpenSpace/0115_ERC777TokenBank/contracts/TokenBank.sol\":2194:4238  function _handleRankWhenDepositToken() internal {... */\n    tag_114:\n        /* \"04-Camps/08-UpChain_Camp_3_OpenSpace/0115_ERC777TokenBank/contracts/TokenBank.sol\":2252:2272  uint membershipIndex */\n      0x00\n        /* \"04-Camps/08-UpChain_Camp_3_OpenSpace/0115_ERC777TokenBank/contracts/TokenBank.sol\":2275:2302  _checkTokenRankMembership() */\n      tag_219\n        /* \"04-Camps/08-UpChain_Camp_3_OpenSpace/0115_ERC777TokenBank/contracts/TokenBank.sol\":2275:2300  _checkTokenRankMembership */\n      tag_220\n        /* \"04-Camps/08-UpChain_Camp_3_OpenSpace/0115_ERC777TokenBank/contracts/TokenBank.sol\":2275:2302  _checkTokenRankMembership() */\n      jump\t// in\n    tag_219:\n        /* \"04-Camps/08-UpChain_Camp_3_OpenSpace/0115_ERC777TokenBank/contracts/TokenBank.sol\":2252:2302  uint membershipIndex = _checkTokenRankMembership() */\n      swap1\n      pop\n        /* \"04-Camps/08-UpChain_Camp_3_OpenSpace/0115_ERC777TokenBank/contracts/TokenBank.sol\":2312:2331  uint convertedIndex */\n      0x00\n        /* \"04-Camps/08-UpChain_Camp_3_OpenSpace/0115_ERC777TokenBank/contracts/TokenBank.sol\":2341:2357  uint indexRecord */\n      dup1\n        /* \"04-Camps/08-UpChain_Camp_3_OpenSpace/0115_ERC777TokenBank/contracts/TokenBank.sol\":2360:2363  777 */\n      0x0309\n        /* \"04-Camps/08-UpChain_Camp_3_OpenSpace/0115_ERC777TokenBank/contracts/TokenBank.sol\":2341:2363  uint indexRecord = 777 */\n      swap1\n      pop\n        /* \"04-Camps/08-UpChain_Camp_3_OpenSpace/0115_ERC777TokenBank/contracts/TokenBank.sol\":2396:2399  999 */\n      0x03e7\n        /* \"04-Camps/08-UpChain_Camp_3_OpenSpace/0115_ERC777TokenBank/contracts/TokenBank.sol\":2377:2392  membershipIndex */\n      dup4\n        /* \"04-Camps/08-UpChain_Camp_3_OpenSpace/0115_ERC777TokenBank/contracts/TokenBank.sol\":2377:2399  membershipIndex != 999 */\n      eq\n        /* \"04-Camps/08-UpChain_Camp_3_OpenSpace/0115_ERC777TokenBank/contracts/TokenBank.sol\":2373:4232  if (membershipIndex != 999) {... */\n      tag_221\n      jumpi\n        /* \"04-Camps/08-UpChain_Camp_3_OpenSpace/0115_ERC777TokenBank/contracts/TokenBank.sol\":2517:2518  4 */\n      0x04\n        /* \"04-Camps/08-UpChain_Camp_3_OpenSpace/0115_ERC777TokenBank/contracts/TokenBank.sol\":2499:2514  membershipIndex */\n      dup4\n        /* \"04-Camps/08-UpChain_Camp_3_OpenSpace/0115_ERC777TokenBank/contracts/TokenBank.sol\":2499:2518  membershipIndex + 4 */\n      tag_222\n      swap2\n      swap1\n      tag_83\n      jump\t// in\n    tag_222:\n        /* \"04-Camps/08-UpChain_Camp_3_OpenSpace/0115_ERC777TokenBank/contracts/TokenBank.sol\":2482:2518  convertedIndex = membershipIndex + 4 */\n      swap2\n      pop\n        /* \"04-Camps/08-UpChain_Camp_3_OpenSpace/0115_ERC777TokenBank/contracts/TokenBank.sol\":2537:2543  uint i */\n      0x00\n        /* \"04-Camps/08-UpChain_Camp_3_OpenSpace/0115_ERC777TokenBank/contracts/TokenBank.sol\":2563:2564  3 */\n      0x03\n        /* \"04-Camps/08-UpChain_Camp_3_OpenSpace/0115_ERC777TokenBank/contracts/TokenBank.sol\":2546:2560  convertedIndex */\n      dup4\n        /* \"04-Camps/08-UpChain_Camp_3_OpenSpace/0115_ERC777TokenBank/contracts/TokenBank.sol\":2546:2564  convertedIndex - 3 */\n      tag_226\n      swap2\n      swap1\n      tag_155\n      jump\t// in\n    tag_226:\n        /* \"04-Camps/08-UpChain_Camp_3_OpenSpace/0115_ERC777TokenBank/contracts/TokenBank.sol\":2537:2564  uint i = convertedIndex - 3 */\n      swap1\n      pop\n        /* \"04-Camps/08-UpChain_Camp_3_OpenSpace/0115_ERC777TokenBank/contracts/TokenBank.sol\":2532:3377  for (uint i = convertedIndex - 3; i > 1; i--) {... */\n    tag_223:\n        /* \"04-Camps/08-UpChain_Camp_3_OpenSpace/0115_ERC777TokenBank/contracts/TokenBank.sol\":2570:2571  1 */\n      0x01\n        /* \"04-Camps/08-UpChain_Camp_3_OpenSpace/0115_ERC777TokenBank/contracts/TokenBank.sol\":2566:2567  i */\n      dup2\n        /* \"04-Camps/08-UpChain_Camp_3_OpenSpace/0115_ERC777TokenBank/contracts/TokenBank.sol\":2566:2571  i > 1 */\n      gt\n        /* \"04-Camps/08-UpChain_Camp_3_OpenSpace/0115_ERC777TokenBank/contracts/TokenBank.sol\":2532:3377  for (uint i = convertedIndex - 3; i > 1; i--) {... */\n      iszero\n      tag_224\n      jumpi\n        /* \"04-Camps/08-UpChain_Camp_3_OpenSpace/0115_ERC777TokenBank/contracts/TokenBank.sol\":2619:2620  0 */\n      0x00\n        /* \"04-Camps/08-UpChain_Camp_3_OpenSpace/0115_ERC777TokenBank/contracts/TokenBank.sol\":2600:2615  membershipIndex */\n      dup5\n        /* \"04-Camps/08-UpChain_Camp_3_OpenSpace/0115_ERC777TokenBank/contracts/TokenBank.sol\":2600:2620  membershipIndex != 0 */\n      eq\n        /* \"04-Camps/08-UpChain_Camp_3_OpenSpace/0115_ERC777TokenBank/contracts/TokenBank.sol\":2596:3363  if (membershipIndex != 0) {... */\n      tag_227\n      jumpi\n        /* \"04-Camps/08-UpChain_Camp_3_OpenSpace/0115_ERC777TokenBank/contracts/TokenBank.sol\":2724:2736  tokenBalance */\n      0x05\n        /* \"04-Camps/08-UpChain_Camp_3_OpenSpace/0115_ERC777TokenBank/contracts/TokenBank.sol\":2724:2754  tokenBalance[tokenRank[i - 2]] */\n      0x00\n        /* \"04-Camps/08-UpChain_Camp_3_OpenSpace/0115_ERC777TokenBank/contracts/TokenBank.sol\":2737:2746  tokenRank */\n      0x06\n        /* \"04-Camps/08-UpChain_Camp_3_OpenSpace/0115_ERC777TokenBank/contracts/TokenBank.sol\":2751:2752  2 */\n      0x02\n        /* \"04-Camps/08-UpChain_Camp_3_OpenSpace/0115_ERC777TokenBank/contracts/TokenBank.sol\":2747:2748  i */\n      dup5\n        /* \"04-Camps/08-UpChain_Camp_3_OpenSpace/0115_ERC777TokenBank/contracts/TokenBank.sol\":2747:2752  i - 2 */\n      tag_228\n      swap2\n      swap1\n      tag_155\n      jump\t// in\n    tag_228:\n        /* \"04-Camps/08-UpChain_Camp_3_OpenSpace/0115_ERC777TokenBank/contracts/TokenBank.sol\":2737:2753  tokenRank[i - 2] */\n      0x03\n      dup2\n      lt\n      tag_229\n      jumpi\n      tag_230\n      tag_96\n      jump\t// in\n    tag_230:\n    tag_229:\n      add\n      0x00\n      swap1\n      sload\n      swap1\n      0x0100\n      exp\n      swap1\n      div\n      0xffffffffffffffffffffffffffffffffffffffff\n      and\n        /* \"04-Camps/08-UpChain_Camp_3_OpenSpace/0115_ERC777TokenBank/contracts/TokenBank.sol\":2724:2754  tokenBalance[tokenRank[i - 2]] */\n      0xffffffffffffffffffffffffffffffffffffffff\n      and\n      0xffffffffffffffffffffffffffffffffffffffff\n      and\n      dup2\n      mstore\n      0x20\n      add\n      swap1\n      dup2\n      mstore\n      0x20\n      add\n      0x00\n      keccak256\n      sload\n        /* \"04-Camps/08-UpChain_Camp_3_OpenSpace/0115_ERC777TokenBank/contracts/TokenBank.sol\":2673:2685  tokenBalance */\n      0x05\n        /* \"04-Camps/08-UpChain_Camp_3_OpenSpace/0115_ERC777TokenBank/contracts/TokenBank.sol\":2673:2697  tokenBalance[msg.sender] */\n      0x00\n        /* \"04-Camps/08-UpChain_Camp_3_OpenSpace/0115_ERC777TokenBank/contracts/TokenBank.sol\":2686:2696  msg.sender */\n      caller\n        /* \"04-Camps/08-UpChain_Camp_3_OpenSpace/0115_ERC777TokenBank/contracts/TokenBank.sol\":2673:2697  tokenBalance[msg.sender] */\n      0xffffffffffffffffffffffffffffffffffffffff\n      and\n      0xffffffffffffffffffffffffffffffffffffffff\n      and\n      dup2\n      mstore\n      0x20\n      add\n      swap1\n      dup2\n      mstore\n      0x20\n      add\n      0x00\n      keccak256\n      sload\n        /* \"04-Camps/08-UpChain_Camp_3_OpenSpace/0115_ERC777TokenBank/contracts/TokenBank.sol\":2673:2754  tokenBalance[msg.sender] >... */\n      gt\n        /* \"04-Camps/08-UpChain_Camp_3_OpenSpace/0115_ERC777TokenBank/contracts/TokenBank.sol\":2644:3345  if (... */\n      iszero\n      tag_232\n      jumpi\n        /* \"04-Camps/08-UpChain_Camp_3_OpenSpace/0115_ERC777TokenBank/contracts/TokenBank.sol\":2821:2822  2 */\n      0x02\n        /* \"04-Camps/08-UpChain_Camp_3_OpenSpace/0115_ERC777TokenBank/contracts/TokenBank.sol\":2817:2818  i */\n      dup2\n        /* \"04-Camps/08-UpChain_Camp_3_OpenSpace/0115_ERC777TokenBank/contracts/TokenBank.sol\":2817:2822  i - 2 */\n      tag_233\n      swap2\n      swap1\n      tag_155\n      jump\t// in\n    tag_233:\n        /* \"04-Camps/08-UpChain_Camp_3_OpenSpace/0115_ERC777TokenBank/contracts/TokenBank.sol\":2803:2822  indexRecord = i - 2 */\n      swap2\n      pop\n        /* \"04-Camps/08-UpChain_Camp_3_OpenSpace/0115_ERC777TokenBank/contracts/TokenBank.sol\":2853:2859  uint j */\n      0x00\n        /* \"04-Camps/08-UpChain_Camp_3_OpenSpace/0115_ERC777TokenBank/contracts/TokenBank.sol\":2862:2863  2 */\n      0x02\n        /* \"04-Camps/08-UpChain_Camp_3_OpenSpace/0115_ERC777TokenBank/contracts/TokenBank.sol\":2853:2863  uint j = 2 */\n      swap1\n      pop\n        /* \"04-Camps/08-UpChain_Camp_3_OpenSpace/0115_ERC777TokenBank/contracts/TokenBank.sol\":2848:2969  for (uint j = 2; j > i - 2; j--) {... */\n    tag_234:\n        /* \"04-Camps/08-UpChain_Camp_3_OpenSpace/0115_ERC777TokenBank/contracts/TokenBank.sol\":2873:2874  2 */\n      0x02\n        /* \"04-Camps/08-UpChain_Camp_3_OpenSpace/0115_ERC777TokenBank/contracts/TokenBank.sol\":2869:2870  i */\n      dup3\n        /* \"04-Camps/08-UpChain_Camp_3_OpenSpace/0115_ERC777TokenBank/contracts/TokenBank.sol\":2869:2874  i - 2 */\n      tag_237\n      swap2\n      swap1\n      tag_155\n      jump\t// in\n    tag_237:\n        /* \"04-Camps/08-UpChain_Camp_3_OpenSpace/0115_ERC777TokenBank/contracts/TokenBank.sol\":2865:2866  j */\n      dup2\n        /* \"04-Camps/08-UpChain_Camp_3_OpenSpace/0115_ERC777TokenBank/contracts/TokenBank.sol\":2865:2874  j > i - 2 */\n      gt\n        /* \"04-Camps/08-UpChain_Camp_3_OpenSpace/0115_ERC777TokenBank/contracts/TokenBank.sol\":2848:2969  for (uint j = 2; j > i - 2; j--) {... */\n      iszero\n      tag_235\n      jumpi\n        /* \"04-Camps/08-UpChain_Camp_3_OpenSpace/0115_ERC777TokenBank/contracts/TokenBank.sol\":2926:2935  tokenRank */\n      0x06\n        /* \"04-Camps/08-UpChain_Camp_3_OpenSpace/0115_ERC777TokenBank/contracts/TokenBank.sol\":2940:2941  1 */\n      0x01\n        /* \"04-Camps/08-UpChain_Camp_3_OpenSpace/0115_ERC777TokenBank/contracts/TokenBank.sol\":2936:2937  j */\n      dup3\n        /* \"04-Camps/08-UpChain_Camp_3_OpenSpace/0115_ERC777TokenBank/contracts/TokenBank.sol\":2936:2941  j - 1 */\n      tag_238\n      swap2\n      swap1\n      tag_155\n      jump\t// in\n    tag_238:\n        /* \"04-Camps/08-UpChain_Camp_3_OpenSpace/0115_ERC777TokenBank/contracts/TokenBank.sol\":2926:2942  tokenRank[j - 1] */\n      0x03\n      dup2\n      lt\n      tag_239\n      jumpi\n      tag_240\n      tag_96\n      jump\t// in\n    tag_240:\n    tag_239:\n      add\n      0x00\n      swap1\n      sload\n      swap1\n      0x0100\n      exp\n      swap1\n      div\n      0xffffffffffffffffffffffffffffffffffffffff\n      and\n        /* \"04-Camps/08-UpChain_Camp_3_OpenSpace/0115_ERC777TokenBank/contracts/TokenBank.sol\":2911:2920  tokenRank */\n      0x06\n        /* \"04-Camps/08-UpChain_Camp_3_OpenSpace/0115_ERC777TokenBank/contracts/TokenBank.sol\":2921:2922  j */\n      dup3\n        /* \"04-Camps/08-UpChain_Camp_3_OpenSpace/0115_ERC777TokenBank/contracts/TokenBank.sol\":2911:2923  tokenRank[j] */\n      0x03\n      dup2\n      lt\n      tag_242\n      jumpi\n      tag_243\n      tag_96\n      jump\t// in\n    tag_243:\n    tag_242:\n      add\n      0x00\n        /* \"04-Camps/08-UpChain_Camp_3_OpenSpace/0115_ERC777TokenBank/contracts/TokenBank.sol\":2911:2942  tokenRank[j] = tokenRank[j - 1] */\n      0x0100\n      exp\n      dup2\n      sload\n      dup2\n      0xffffffffffffffffffffffffffffffffffffffff\n      mul\n      not\n      and\n      swap1\n      dup4\n      0xffffffffffffffffffffffffffffffffffffffff\n      and\n      mul\n      or\n      swap1\n      sstore\n      pop\n        /* \"04-Camps/08-UpChain_Camp_3_OpenSpace/0115_ERC777TokenBank/contracts/TokenBank.sol\":2876:2879  j-- */\n      dup1\n      dup1\n      tag_245\n      swap1\n      tag_175\n      jump\t// in\n    tag_245:\n      swap2\n      pop\n      pop\n        /* \"04-Camps/08-UpChain_Camp_3_OpenSpace/0115_ERC777TokenBank/contracts/TokenBank.sol\":2848:2969  for (uint j = 2; j > i - 2; j--) {... */\n      jump(tag_234)\n    tag_235:\n      pop\n        /* \"04-Camps/08-UpChain_Camp_3_OpenSpace/0115_ERC777TokenBank/contracts/TokenBank.sol\":3058:3059  0 */\n      0x00\n        /* \"04-Camps/08-UpChain_Camp_3_OpenSpace/0115_ERC777TokenBank/contracts/TokenBank.sol\":3043:3054  indexRecord */\n      dup3\n        /* \"04-Camps/08-UpChain_Camp_3_OpenSpace/0115_ERC777TokenBank/contracts/TokenBank.sol\":3043:3059  indexRecord == 0 */\n      sub\n        /* \"04-Camps/08-UpChain_Camp_3_OpenSpace/0115_ERC777TokenBank/contracts/TokenBank.sol\":3039:3153  if (indexRecord == 0) {... */\n      tag_246\n      jumpi\n        /* \"04-Camps/08-UpChain_Camp_3_OpenSpace/0115_ERC777TokenBank/contracts/TokenBank.sol\":3116:3126  msg.sender */\n      caller\n        /* \"04-Camps/08-UpChain_Camp_3_OpenSpace/0115_ERC777TokenBank/contracts/TokenBank.sol\":3091:3100  tokenRank */\n      0x06\n        /* \"04-Camps/08-UpChain_Camp_3_OpenSpace/0115_ERC777TokenBank/contracts/TokenBank.sol\":3101:3112  indexRecord */\n      dup4\n        /* \"04-Camps/08-UpChain_Camp_3_OpenSpace/0115_ERC777TokenBank/contracts/TokenBank.sol\":3091:3113  tokenRank[indexRecord] */\n      0x03\n      dup2\n      lt\n      tag_247\n      jumpi\n      tag_248\n      tag_96\n      jump\t// in\n    tag_248:\n    tag_247:\n      add\n      0x00\n        /* \"04-Camps/08-UpChain_Camp_3_OpenSpace/0115_ERC777TokenBank/contracts/TokenBank.sol\":3091:3126  tokenRank[indexRecord] = msg.sender */\n      0x0100\n      exp\n      dup2\n      sload\n      dup2\n      0xffffffffffffffffffffffffffffffffffffffff\n      mul\n      not\n      and\n      swap1\n      dup4\n      0xffffffffffffffffffffffffffffffffffffffff\n      and\n      mul\n      or\n      swap1\n      sstore\n      pop\n        /* \"04-Camps/08-UpChain_Camp_3_OpenSpace/0115_ERC777TokenBank/contracts/TokenBank.sol\":3039:3153  if (indexRecord == 0) {... */\n    tag_246:\n        /* \"04-Camps/08-UpChain_Camp_3_OpenSpace/0115_ERC777TokenBank/contracts/TokenBank.sol\":2644:3345  if (... */\n      jump(tag_250)\n    tag_232:\n        /* \"04-Camps/08-UpChain_Camp_3_OpenSpace/0115_ERC777TokenBank/contracts/TokenBank.sol\":3226:3229  777 */\n      0x0309\n        /* \"04-Camps/08-UpChain_Camp_3_OpenSpace/0115_ERC777TokenBank/contracts/TokenBank.sol\":3211:3222  indexRecord */\n      dup3\n        /* \"04-Camps/08-UpChain_Camp_3_OpenSpace/0115_ERC777TokenBank/contracts/TokenBank.sol\":3211:3229  indexRecord != 777 */\n      eq\n        /* \"04-Camps/08-UpChain_Camp_3_OpenSpace/0115_ERC777TokenBank/contracts/TokenBank.sol\":3207:3323  if (indexRecord != 777) {... */\n      tag_251\n      jumpi\n        /* \"04-Camps/08-UpChain_Camp_3_OpenSpace/0115_ERC777TokenBank/contracts/TokenBank.sol\":3286:3296  msg.sender */\n      caller\n        /* \"04-Camps/08-UpChain_Camp_3_OpenSpace/0115_ERC777TokenBank/contracts/TokenBank.sol\":3261:3270  tokenRank */\n      0x06\n        /* \"04-Camps/08-UpChain_Camp_3_OpenSpace/0115_ERC777TokenBank/contracts/TokenBank.sol\":3271:3282  indexRecord */\n      dup4\n        /* \"04-Camps/08-UpChain_Camp_3_OpenSpace/0115_ERC777TokenBank/contracts/TokenBank.sol\":3261:3283  tokenRank[indexRecord] */\n      0x03\n      dup2\n      lt\n      tag_252\n      jumpi\n      tag_253\n      tag_96\n      jump\t// in\n    tag_253:\n    tag_252:\n      add\n      0x00\n        /* \"04-Camps/08-UpChain_Camp_3_OpenSpace/0115_ERC777TokenBank/contracts/TokenBank.sol\":3261:3296  tokenRank[indexRecord] = msg.sender */\n      0x0100\n      exp\n      dup2\n      sload\n      dup2\n      0xffffffffffffffffffffffffffffffffffffffff\n      mul\n      not\n      and\n      swap1\n      dup4\n      0xffffffffffffffffffffffffffffffffffffffff\n      and\n      mul\n      or\n      swap1\n      sstore\n      pop\n        /* \"04-Camps/08-UpChain_Camp_3_OpenSpace/0115_ERC777TokenBank/contracts/TokenBank.sol\":3207:3323  if (indexRecord != 777) {... */\n    tag_251:\n        /* \"04-Camps/08-UpChain_Camp_3_OpenSpace/0115_ERC777TokenBank/contracts/TokenBank.sol\":2644:3345  if (... */\n    tag_250:\n        /* \"04-Camps/08-UpChain_Camp_3_OpenSpace/0115_ERC777TokenBank/contracts/TokenBank.sol\":2596:3363  if (membershipIndex != 0) {... */\n    tag_227:\n        /* \"04-Camps/08-UpChain_Camp_3_OpenSpace/0115_ERC777TokenBank/contracts/TokenBank.sol\":2573:2576  i-- */\n      dup1\n      dup1\n      tag_255\n      swap1\n      tag_175\n      jump\t// in\n    tag_255:\n      swap2\n      pop\n      pop\n        /* \"04-Camps/08-UpChain_Camp_3_OpenSpace/0115_ERC777TokenBank/contracts/TokenBank.sol\":2532:3377  for (uint i = convertedIndex - 3; i > 1; i--) {... */\n      jump(tag_223)\n    tag_224:\n      pop\n        /* \"04-Camps/08-UpChain_Camp_3_OpenSpace/0115_ERC777TokenBank/contracts/TokenBank.sol\":2373:4232  if (membershipIndex != 999) {... */\n      jump(tag_256)\n    tag_221:\n        /* \"04-Camps/08-UpChain_Camp_3_OpenSpace/0115_ERC777TokenBank/contracts/TokenBank.sol\":3475:3481  uint i */\n      0x00\n        /* \"04-Camps/08-UpChain_Camp_3_OpenSpace/0115_ERC777TokenBank/contracts/TokenBank.sol\":3484:3485  3 */\n      0x03\n        /* \"04-Camps/08-UpChain_Camp_3_OpenSpace/0115_ERC777TokenBank/contracts/TokenBank.sol\":3475:3485  uint i = 3 */\n      swap1\n      pop\n        /* \"04-Camps/08-UpChain_Camp_3_OpenSpace/0115_ERC777TokenBank/contracts/TokenBank.sol\":3470:4222  for (uint i = 3; i > 0; i--) {... */\n    tag_257:\n        /* \"04-Camps/08-UpChain_Camp_3_OpenSpace/0115_ERC777TokenBank/contracts/TokenBank.sol\":3491:3492  0 */\n      0x00\n        /* \"04-Camps/08-UpChain_Camp_3_OpenSpace/0115_ERC777TokenBank/contracts/TokenBank.sol\":3487:3488  i */\n      dup2\n        /* \"04-Camps/08-UpChain_Camp_3_OpenSpace/0115_ERC777TokenBank/contracts/TokenBank.sol\":3487:3492  i > 0 */\n      gt\n        /* \"04-Camps/08-UpChain_Camp_3_OpenSpace/0115_ERC777TokenBank/contracts/TokenBank.sol\":3470:4222  for (uint i = 3; i > 0; i--) {... */\n      iszero\n      tag_258\n      jumpi\n        /* \"04-Camps/08-UpChain_Camp_3_OpenSpace/0115_ERC777TokenBank/contracts/TokenBank.sol\":3548:3560  tokenBalance */\n      0x05\n        /* \"04-Camps/08-UpChain_Camp_3_OpenSpace/0115_ERC777TokenBank/contracts/TokenBank.sol\":3548:3578  tokenBalance[tokenRank[i - 1]] */\n      0x00\n        /* \"04-Camps/08-UpChain_Camp_3_OpenSpace/0115_ERC777TokenBank/contracts/TokenBank.sol\":3561:3570  tokenRank */\n      0x06\n        /* \"04-Camps/08-UpChain_Camp_3_OpenSpace/0115_ERC777TokenBank/contracts/TokenBank.sol\":3575:3576  1 */\n      0x01\n        /* \"04-Camps/08-UpChain_Camp_3_OpenSpace/0115_ERC777TokenBank/contracts/TokenBank.sol\":3571:3572  i */\n      dup5\n        /* \"04-Camps/08-UpChain_Camp_3_OpenSpace/0115_ERC777TokenBank/contracts/TokenBank.sol\":3571:3576  i - 1 */\n      tag_260\n      swap2\n      swap1\n      tag_155\n      jump\t// in\n    tag_260:\n        /* \"04-Camps/08-UpChain_Camp_3_OpenSpace/0115_ERC777TokenBank/contracts/TokenBank.sol\":3561:3577  tokenRank[i - 1] */\n      0x03\n      dup2\n      lt\n      tag_261\n      jumpi\n      tag_262\n      tag_96\n      jump\t// in\n    tag_262:\n    tag_261:\n      add\n      0x00\n      swap1\n      sload\n      swap1\n      0x0100\n      exp\n      swap1\n      div\n      0xffffffffffffffffffffffffffffffffffffffff\n      and\n        /* \"04-Camps/08-UpChain_Camp_3_OpenSpace/0115_ERC777TokenBank/contracts/TokenBank.sol\":3548:3578  tokenBalance[tokenRank[i - 1]] */\n      0xffffffffffffffffffffffffffffffffffffffff\n      and\n      0xffffffffffffffffffffffffffffffffffffffff\n      and\n      dup2\n      mstore\n      0x20\n      add\n      swap1\n      dup2\n      mstore\n      0x20\n      add\n      0x00\n      keccak256\n      sload\n        /* \"04-Camps/08-UpChain_Camp_3_OpenSpace/0115_ERC777TokenBank/contracts/TokenBank.sol\":3521:3533  tokenBalance */\n      0x05\n        /* \"04-Camps/08-UpChain_Camp_3_OpenSpace/0115_ERC777TokenBank/contracts/TokenBank.sol\":3521:3545  tokenBalance[msg.sender] */\n      0x00\n        /* \"04-Camps/08-UpChain_Camp_3_OpenSpace/0115_ERC777TokenBank/contracts/TokenBank.sol\":3534:3544  msg.sender */\n      caller\n        /* \"04-Camps/08-UpChain_Camp_3_OpenSpace/0115_ERC777TokenBank/contracts/TokenBank.sol\":3521:3545  tokenBalance[msg.sender] */\n      0xffffffffffffffffffffffffffffffffffffffff\n      and\n      0xffffffffffffffffffffffffffffffffffffffff\n      and\n      dup2\n      mstore\n      0x20\n      add\n      swap1\n      dup2\n      mstore\n      0x20\n      add\n      0x00\n      keccak256\n      sload\n        /* \"04-Camps/08-UpChain_Camp_3_OpenSpace/0115_ERC777TokenBank/contracts/TokenBank.sol\":3521:3578  tokenBalance[msg.sender] > tokenBalance[tokenRank[i - 1]] */\n      gt\n        /* \"04-Camps/08-UpChain_Camp_3_OpenSpace/0115_ERC777TokenBank/contracts/TokenBank.sol\":3517:4208  if (tokenBalance[msg.sender] > tokenBalance[tokenRank[i - 1]]) {... */\n      iszero\n      tag_264\n      jumpi\n        /* \"04-Camps/08-UpChain_Camp_3_OpenSpace/0115_ERC777TokenBank/contracts/TokenBank.sol\":3620:3621  1 */\n      0x01\n        /* \"04-Camps/08-UpChain_Camp_3_OpenSpace/0115_ERC777TokenBank/contracts/TokenBank.sol\":3616:3617  i */\n      dup2\n        /* \"04-Camps/08-UpChain_Camp_3_OpenSpace/0115_ERC777TokenBank/contracts/TokenBank.sol\":3616:3621  i - 1 */\n      tag_265\n      swap2\n      swap1\n      tag_155\n      jump\t// in\n    tag_265:\n        /* \"04-Camps/08-UpChain_Camp_3_OpenSpace/0115_ERC777TokenBank/contracts/TokenBank.sol\":3602:3621  indexRecord = i - 1 */\n      swap2\n      pop\n        /* \"04-Camps/08-UpChain_Camp_3_OpenSpace/0115_ERC777TokenBank/contracts/TokenBank.sol\":3760:3766  uint j */\n      0x00\n        /* \"04-Camps/08-UpChain_Camp_3_OpenSpace/0115_ERC777TokenBank/contracts/TokenBank.sol\":3769:3770  2 */\n      0x02\n        /* \"04-Camps/08-UpChain_Camp_3_OpenSpace/0115_ERC777TokenBank/contracts/TokenBank.sol\":3760:3770  uint j = 2 */\n      swap1\n      pop\n        /* \"04-Camps/08-UpChain_Camp_3_OpenSpace/0115_ERC777TokenBank/contracts/TokenBank.sol\":3755:3868  for (uint j = 2; j > i - 1; j--) {... */\n    tag_266:\n        /* \"04-Camps/08-UpChain_Camp_3_OpenSpace/0115_ERC777TokenBank/contracts/TokenBank.sol\":3780:3781  1 */\n      0x01\n        /* \"04-Camps/08-UpChain_Camp_3_OpenSpace/0115_ERC777TokenBank/contracts/TokenBank.sol\":3776:3777  i */\n      dup3\n        /* \"04-Camps/08-UpChain_Camp_3_OpenSpace/0115_ERC777TokenBank/contracts/TokenBank.sol\":3776:3781  i - 1 */\n      tag_269\n      swap2\n      swap1\n      tag_155\n      jump\t// in\n    tag_269:\n        /* \"04-Camps/08-UpChain_Camp_3_OpenSpace/0115_ERC777TokenBank/contracts/TokenBank.sol\":3772:3773  j */\n      dup2\n        /* \"04-Camps/08-UpChain_Camp_3_OpenSpace/0115_ERC777TokenBank/contracts/TokenBank.sol\":3772:3781  j > i - 1 */\n      gt\n        /* \"04-Camps/08-UpChain_Camp_3_OpenSpace/0115_ERC777TokenBank/contracts/TokenBank.sol\":3755:3868  for (uint j = 2; j > i - 1; j--) {... */\n      iszero\n      tag_267\n      jumpi\n        /* \"04-Camps/08-UpChain_Camp_3_OpenSpace/0115_ERC777TokenBank/contracts/TokenBank.sol\":3829:3838  tokenRank */\n      0x06\n        /* \"04-Camps/08-UpChain_Camp_3_OpenSpace/0115_ERC777TokenBank/contracts/TokenBank.sol\":3843:3844  1 */\n      0x01\n        /* \"04-Camps/08-UpChain_Camp_3_OpenSpace/0115_ERC777TokenBank/contracts/TokenBank.sol\":3839:3840  j */\n      dup3\n        /* \"04-Camps/08-UpChain_Camp_3_OpenSpace/0115_ERC777TokenBank/contracts/TokenBank.sol\":3839:3844  j - 1 */\n      tag_270\n      swap2\n      swap1\n      tag_155\n      jump\t// in\n    tag_270:\n        /* \"04-Camps/08-UpChain_Camp_3_OpenSpace/0115_ERC777TokenBank/contracts/TokenBank.sol\":3829:3845  tokenRank[j - 1] */\n      0x03\n      dup2\n      lt\n      tag_271\n      jumpi\n      tag_272\n      tag_96\n      jump\t// in\n    tag_272:\n    tag_271:\n      add\n      0x00\n      swap1\n      sload\n      swap1\n      0x0100\n      exp\n      swap1\n      div\n      0xffffffffffffffffffffffffffffffffffffffff\n      and\n        /* \"04-Camps/08-UpChain_Camp_3_OpenSpace/0115_ERC777TokenBank/contracts/TokenBank.sol\":3814:3823  tokenRank */\n      0x06\n        /* \"04-Camps/08-UpChain_Camp_3_OpenSpace/0115_ERC777TokenBank/contracts/TokenBank.sol\":3824:3825  j */\n      dup3\n        /* \"04-Camps/08-UpChain_Camp_3_OpenSpace/0115_ERC777TokenBank/contracts/TokenBank.sol\":3814:3826  tokenRank[j] */\n      0x03\n      dup2\n      lt\n      tag_274\n      jumpi\n      tag_275\n      tag_96\n      jump\t// in\n    tag_275:\n    tag_274:\n      add\n      0x00\n        /* \"04-Camps/08-UpChain_Camp_3_OpenSpace/0115_ERC777TokenBank/contracts/TokenBank.sol\":3814:3845  tokenRank[j] = tokenRank[j - 1] */\n      0x0100\n      exp\n      dup2\n      sload\n      dup2\n      0xffffffffffffffffffffffffffffffffffffffff\n      mul\n      not\n      and\n      swap1\n      dup4\n      0xffffffffffffffffffffffffffffffffffffffff\n      and\n      mul\n      or\n      swap1\n      sstore\n      pop\n        /* \"04-Camps/08-UpChain_Camp_3_OpenSpace/0115_ERC777TokenBank/contracts/TokenBank.sol\":3783:3786  j-- */\n      dup1\n      dup1\n      tag_277\n      swap1\n      tag_175\n      jump\t// in\n    tag_277:\n      swap2\n      pop\n      pop\n        /* \"04-Camps/08-UpChain_Camp_3_OpenSpace/0115_ERC777TokenBank/contracts/TokenBank.sol\":3755:3868  for (uint j = 2; j > i - 1; j--) {... */\n      jump(tag_266)\n    tag_267:\n      pop\n        /* \"04-Camps/08-UpChain_Camp_3_OpenSpace/0115_ERC777TokenBank/contracts/TokenBank.sol\":3949:3950  0 */\n      0x00\n        /* \"04-Camps/08-UpChain_Camp_3_OpenSpace/0115_ERC777TokenBank/contracts/TokenBank.sol\":3934:3945  indexRecord */\n      dup3\n        /* \"04-Camps/08-UpChain_Camp_3_OpenSpace/0115_ERC777TokenBank/contracts/TokenBank.sol\":3934:3950  indexRecord == 0 */\n      sub\n        /* \"04-Camps/08-UpChain_Camp_3_OpenSpace/0115_ERC777TokenBank/contracts/TokenBank.sol\":3930:4036  if (indexRecord == 0) {... */\n      tag_278\n      jumpi\n        /* \"04-Camps/08-UpChain_Camp_3_OpenSpace/0115_ERC777TokenBank/contracts/TokenBank.sol\":4003:4013  msg.sender */\n      caller\n        /* \"04-Camps/08-UpChain_Camp_3_OpenSpace/0115_ERC777TokenBank/contracts/TokenBank.sol\":3978:3987  tokenRank */\n      0x06\n        /* \"04-Camps/08-UpChain_Camp_3_OpenSpace/0115_ERC777TokenBank/contracts/TokenBank.sol\":3988:3999  indexRecord */\n      dup4\n        /* \"04-Camps/08-UpChain_Camp_3_OpenSpace/0115_ERC777TokenBank/contracts/TokenBank.sol\":3978:4000  tokenRank[indexRecord] */\n      0x03\n      dup2\n      lt\n      tag_279\n      jumpi\n      tag_280\n      tag_96\n      jump\t// in\n    tag_280:\n    tag_279:\n      add\n      0x00\n        /* \"04-Camps/08-UpChain_Camp_3_OpenSpace/0115_ERC777TokenBank/contracts/TokenBank.sol\":3978:4013  tokenRank[indexRecord] = msg.sender */\n      0x0100\n      exp\n      dup2\n      sload\n      dup2\n      0xffffffffffffffffffffffffffffffffffffffff\n      mul\n      not\n      and\n      swap1\n      dup4\n      0xffffffffffffffffffffffffffffffffffffffff\n      and\n      mul\n      or\n      swap1\n      sstore\n      pop\n        /* \"04-Camps/08-UpChain_Camp_3_OpenSpace/0115_ERC777TokenBank/contracts/TokenBank.sol\":3930:4036  if (indexRecord == 0) {... */\n    tag_278:\n        /* \"04-Camps/08-UpChain_Camp_3_OpenSpace/0115_ERC777TokenBank/contracts/TokenBank.sol\":3517:4208  if (tokenBalance[msg.sender] > tokenBalance[tokenRank[i - 1]]) {... */\n      jump(tag_282)\n    tag_264:\n        /* \"04-Camps/08-UpChain_Camp_3_OpenSpace/0115_ERC777TokenBank/contracts/TokenBank.sol\":4101:4104  777 */\n      0x0309\n        /* \"04-Camps/08-UpChain_Camp_3_OpenSpace/0115_ERC777TokenBank/contracts/TokenBank.sol\":4086:4097  indexRecord */\n      dup3\n        /* \"04-Camps/08-UpChain_Camp_3_OpenSpace/0115_ERC777TokenBank/contracts/TokenBank.sol\":4086:4104  indexRecord != 777 */\n      eq\n        /* \"04-Camps/08-UpChain_Camp_3_OpenSpace/0115_ERC777TokenBank/contracts/TokenBank.sol\":4082:4190  if (indexRecord != 777) {... */\n      tag_283\n      jumpi\n        /* \"04-Camps/08-UpChain_Camp_3_OpenSpace/0115_ERC777TokenBank/contracts/TokenBank.sol\":4157:4167  msg.sender */\n      caller\n        /* \"04-Camps/08-UpChain_Camp_3_OpenSpace/0115_ERC777TokenBank/contracts/TokenBank.sol\":4132:4141  tokenRank */\n      0x06\n        /* \"04-Camps/08-UpChain_Camp_3_OpenSpace/0115_ERC777TokenBank/contracts/TokenBank.sol\":4142:4153  indexRecord */\n      dup4\n        /* \"04-Camps/08-UpChain_Camp_3_OpenSpace/0115_ERC777TokenBank/contracts/TokenBank.sol\":4132:4154  tokenRank[indexRecord] */\n      0x03\n      dup2\n      lt\n      tag_284\n      jumpi\n      tag_285\n      tag_96\n      jump\t// in\n    tag_285:\n    tag_284:\n      add\n      0x00\n        /* \"04-Camps/08-UpChain_Camp_3_OpenSpace/0115_ERC777TokenBank/contracts/TokenBank.sol\":4132:4167  tokenRank[indexRecord] = msg.sender */\n      0x0100\n      exp\n      dup2\n      sload\n      dup2\n      0xffffffffffffffffffffffffffffffffffffffff\n      mul\n      not\n      and\n      swap1\n      dup4\n      0xffffffffffffffffffffffffffffffffffffffff\n      and\n      mul\n      or\n      swap1\n      sstore\n      pop\n        /* \"04-Camps/08-UpChain_Camp_3_OpenSpace/0115_ERC777TokenBank/contracts/TokenBank.sol\":4082:4190  if (indexRecord != 777) {... */\n    tag_283:\n        /* \"04-Camps/08-UpChain_Camp_3_OpenSpace/0115_ERC777TokenBank/contracts/TokenBank.sol\":3517:4208  if (tokenBalance[msg.sender] > tokenBalance[tokenRank[i - 1]]) {... */\n    tag_282:\n        /* \"04-Camps/08-UpChain_Camp_3_OpenSpace/0115_ERC777TokenBank/contracts/TokenBank.sol\":3494:3497  i-- */\n      dup1\n      dup1\n      tag_287\n      swap1\n      tag_175\n      jump\t// in\n    tag_287:\n      swap2\n      pop\n      pop\n        /* \"04-Camps/08-UpChain_Camp_3_OpenSpace/0115_ERC777TokenBank/contracts/TokenBank.sol\":3470:4222  for (uint i = 3; i > 0; i--) {... */\n      jump(tag_257)\n    tag_258:\n      pop\n        /* \"04-Camps/08-UpChain_Camp_3_OpenSpace/0115_ERC777TokenBank/contracts/TokenBank.sol\":2373:4232  if (membershipIndex != 999) {... */\n    tag_256:\n        /* \"04-Camps/08-UpChain_Camp_3_OpenSpace/0115_ERC777TokenBank/contracts/TokenBank.sol\":2242:4238  {... */\n      pop\n      pop\n      pop\n        /* \"04-Camps/08-UpChain_Camp_3_OpenSpace/0115_ERC777TokenBank/contracts/TokenBank.sol\":2194:4238  function _handleRankWhenDepositToken() internal {... */\n      jump\t// out\n        /* \"04-Camps/08-UpChain_Camp_3_OpenSpace/0115_ERC777TokenBank/contracts/Bank.sol\":3074:3347  function _checkETHRankMembership() internal view returns (uint) {... */\n    tag_148:\n        /* \"04-Camps/08-UpChain_Camp_3_OpenSpace/0115_ERC777TokenBank/contracts/Bank.sol\":3132:3136  uint */\n      0x00\n        /* \"04-Camps/08-UpChain_Camp_3_OpenSpace/0115_ERC777TokenBank/contracts/Bank.sol\":3148:3158  uint index */\n      dup1\n        /* \"04-Camps/08-UpChain_Camp_3_OpenSpace/0115_ERC777TokenBank/contracts/Bank.sol\":3161:3164  999 */\n      0x03e7\n        /* \"04-Camps/08-UpChain_Camp_3_OpenSpace/0115_ERC777TokenBank/contracts/Bank.sol\":3148:3164  uint index = 999 */\n      swap1\n      pop\n        /* \"04-Camps/08-UpChain_Camp_3_OpenSpace/0115_ERC777TokenBank/contracts/Bank.sol\":3179:3185  uint i */\n      0x00\n        /* \"04-Camps/08-UpChain_Camp_3_OpenSpace/0115_ERC777TokenBank/contracts/Bank.sol\":3174:3319  for (uint i = 0; i < 3; i++) {... */\n    tag_289:\n        /* \"04-Camps/08-UpChain_Camp_3_OpenSpace/0115_ERC777TokenBank/contracts/Bank.sol\":3195:3196  3 */\n      0x03\n        /* \"04-Camps/08-UpChain_Camp_3_OpenSpace/0115_ERC777TokenBank/contracts/Bank.sol\":3191:3192  i */\n      dup2\n        /* \"04-Camps/08-UpChain_Camp_3_OpenSpace/0115_ERC777TokenBank/contracts/Bank.sol\":3191:3196  i < 3 */\n      lt\n        /* \"04-Camps/08-UpChain_Camp_3_OpenSpace/0115_ERC777TokenBank/contracts/Bank.sol\":3174:3319  for (uint i = 0; i < 3; i++) {... */\n      iszero\n      tag_290\n      jumpi\n        /* \"04-Camps/08-UpChain_Camp_3_OpenSpace/0115_ERC777TokenBank/contracts/Bank.sol\":3232:3242  msg.sender */\n      caller\n        /* \"04-Camps/08-UpChain_Camp_3_OpenSpace/0115_ERC777TokenBank/contracts/Bank.sol\":3221:3242  rank[i] == msg.sender */\n      0xffffffffffffffffffffffffffffffffffffffff\n      and\n        /* \"04-Camps/08-UpChain_Camp_3_OpenSpace/0115_ERC777TokenBank/contracts/Bank.sol\":3221:3225  rank */\n      0x01\n        /* \"04-Camps/08-UpChain_Camp_3_OpenSpace/0115_ERC777TokenBank/contracts/Bank.sol\":3226:3227  i */\n      dup3\n        /* \"04-Camps/08-UpChain_Camp_3_OpenSpace/0115_ERC777TokenBank/contracts/Bank.sol\":3221:3228  rank[i] */\n      0x03\n      dup2\n      lt\n      tag_292\n      jumpi\n      tag_293\n      tag_96\n      jump\t// in\n    tag_293:\n    tag_292:\n      add\n      0x00\n      swap1\n      sload\n      swap1\n      0x0100\n      exp\n      swap1\n      div\n      0xffffffffffffffffffffffffffffffffffffffff\n      and\n        /* \"04-Camps/08-UpChain_Camp_3_OpenSpace/0115_ERC777TokenBank/contracts/Bank.sol\":3221:3242  rank[i] == msg.sender */\n      0xffffffffffffffffffffffffffffffffffffffff\n      and\n      sub\n        /* \"04-Camps/08-UpChain_Camp_3_OpenSpace/0115_ERC777TokenBank/contracts/Bank.sol\":3217:3309  if (rank[i] == msg.sender) {... */\n      tag_295\n      jumpi\n        /* \"04-Camps/08-UpChain_Camp_3_OpenSpace/0115_ERC777TokenBank/contracts/Bank.sol\":3270:3271  i */\n      dup1\n        /* \"04-Camps/08-UpChain_Camp_3_OpenSpace/0115_ERC777TokenBank/contracts/Bank.sol\":3262:3271  index = i */\n      swap2\n      pop\n        /* \"04-Camps/08-UpChain_Camp_3_OpenSpace/0115_ERC777TokenBank/contracts/Bank.sol\":3289:3294  break */\n      jump(tag_290)\n        /* \"04-Camps/08-UpChain_Camp_3_OpenSpace/0115_ERC777TokenBank/contracts/Bank.sol\":3217:3309  if (rank[i] == msg.sender) {... */\n    tag_295:\n        /* \"04-Camps/08-UpChain_Camp_3_OpenSpace/0115_ERC777TokenBank/contracts/Bank.sol\":3198:3201  i++ */\n      dup1\n      dup1\n      0x01\n      add\n      swap2\n      pop\n      pop\n        /* \"04-Camps/08-UpChain_Camp_3_OpenSpace/0115_ERC777TokenBank/contracts/Bank.sol\":3174:3319  for (uint i = 0; i < 3; i++) {... */\n      jump(tag_289)\n    tag_290:\n      pop\n        /* \"04-Camps/08-UpChain_Camp_3_OpenSpace/0115_ERC777TokenBank/contracts/Bank.sol\":3335:3340  index */\n      dup1\n        /* \"04-Camps/08-UpChain_Camp_3_OpenSpace/0115_ERC777TokenBank/contracts/Bank.sol\":3328:3340  return index */\n      swap2\n      pop\n      pop\n        /* \"04-Camps/08-UpChain_Camp_3_OpenSpace/0115_ERC777TokenBank/contracts/Bank.sol\":3074:3347  function _checkETHRankMembership() internal view returns (uint) {... */\n      swap1\n      jump\t// out\n        /* \"04-Camps/08-UpChain_Camp_3_OpenSpace/0115_ERC777TokenBank/contracts/TokenBank.sol\":4244:4524  function _checkTokenRankMembership() internal view returns (uint) {... */\n    tag_220:\n        /* \"04-Camps/08-UpChain_Camp_3_OpenSpace/0115_ERC777TokenBank/contracts/TokenBank.sol\":4304:4308  uint */\n      0x00\n        /* \"04-Camps/08-UpChain_Camp_3_OpenSpace/0115_ERC777TokenBank/contracts/TokenBank.sol\":4320:4330  uint index */\n      dup1\n        /* \"04-Camps/08-UpChain_Camp_3_OpenSpace/0115_ERC777TokenBank/contracts/TokenBank.sol\":4333:4336  999 */\n      0x03e7\n        /* \"04-Camps/08-UpChain_Camp_3_OpenSpace/0115_ERC777TokenBank/contracts/TokenBank.sol\":4320:4336  uint index = 999 */\n      swap1\n      pop\n        /* \"04-Camps/08-UpChain_Camp_3_OpenSpace/0115_ERC777TokenBank/contracts/TokenBank.sol\":4351:4357  uint i */\n      0x00\n        /* \"04-Camps/08-UpChain_Camp_3_OpenSpace/0115_ERC777TokenBank/contracts/TokenBank.sol\":4346:4496  for (uint i = 0; i < 3; i++) {... */\n    tag_297:\n        /* \"04-Camps/08-UpChain_Camp_3_OpenSpace/0115_ERC777TokenBank/contracts/TokenBank.sol\":4367:4368  3 */\n      0x03\n        /* \"04-Camps/08-UpChain_Camp_3_OpenSpace/0115_ERC777TokenBank/contracts/TokenBank.sol\":4363:4364  i */\n      dup2\n        /* \"04-Camps/08-UpChain_Camp_3_OpenSpace/0115_ERC777TokenBank/contracts/TokenBank.sol\":4363:4368  i < 3 */\n      lt\n        /* \"04-Camps/08-UpChain_Camp_3_OpenSpace/0115_ERC777TokenBank/contracts/TokenBank.sol\":4346:4496  for (uint i = 0; i < 3; i++) {... */\n      iszero\n      tag_298\n      jumpi\n        /* \"04-Camps/08-UpChain_Camp_3_OpenSpace/0115_ERC777TokenBank/contracts/TokenBank.sol\":4409:4419  msg.sender */\n      caller\n        /* \"04-Camps/08-UpChain_Camp_3_OpenSpace/0115_ERC777TokenBank/contracts/TokenBank.sol\":4393:4419  tokenRank[i] == msg.sender */\n      0xffffffffffffffffffffffffffffffffffffffff\n      and\n        /* \"04-Camps/08-UpChain_Camp_3_OpenSpace/0115_ERC777TokenBank/contracts/TokenBank.sol\":4393:4402  tokenRank */\n      0x06\n        /* \"04-Camps/08-UpChain_Camp_3_OpenSpace/0115_ERC777TokenBank/contracts/TokenBank.sol\":4403:4404  i */\n      dup3\n        /* \"04-Camps/08-UpChain_Camp_3_OpenSpace/0115_ERC777TokenBank/contracts/TokenBank.sol\":4393:4405  tokenRank[i] */\n      0x03\n      dup2\n      lt\n      tag_300\n      jumpi\n      tag_301\n      tag_96\n      jump\t// in\n    tag_301:\n    tag_300:\n      add\n      0x00\n      swap1\n      sload\n      swap1\n      0x0100\n      exp\n      swap1\n      div\n      0xffffffffffffffffffffffffffffffffffffffff\n      and\n        /* \"04-Camps/08-UpChain_Camp_3_OpenSpace/0115_ERC777TokenBank/contracts/TokenBank.sol\":4393:4419  tokenRank[i] == msg.sender */\n      0xffffffffffffffffffffffffffffffffffffffff\n      and\n      sub\n        /* \"04-Camps/08-UpChain_Camp_3_OpenSpace/0115_ERC777TokenBank/contracts/TokenBank.sol\":4389:4486  if (tokenRank[i] == msg.sender) {... */\n      tag_303\n      jumpi\n        /* \"04-Camps/08-UpChain_Camp_3_OpenSpace/0115_ERC777TokenBank/contracts/TokenBank.sol\":4447:4448  i */\n      dup1\n        /* \"04-Camps/08-UpChain_Camp_3_OpenSpace/0115_ERC777TokenBank/contracts/TokenBank.sol\":4439:4448  index = i */\n      swap2\n      pop\n        /* \"04-Camps/08-UpChain_Camp_3_OpenSpace/0115_ERC777TokenBank/contracts/TokenBank.sol\":4466:4471  break */\n      jump(tag_298)\n        /* \"04-Camps/08-UpChain_Camp_3_OpenSpace/0115_ERC777TokenBank/contracts/TokenBank.sol\":4389:4486  if (tokenRank[i] == msg.sender) {... */\n    tag_303:\n        /* \"04-Camps/08-UpChain_Camp_3_OpenSpace/0115_ERC777TokenBank/contracts/TokenBank.sol\":4370:4373  i++ */\n      dup1\n      dup1\n      0x01\n      add\n      swap2\n      pop\n      pop\n        /* \"04-Camps/08-UpChain_Camp_3_OpenSpace/0115_ERC777TokenBank/contracts/TokenBank.sol\":4346:4496  for (uint i = 0; i < 3; i++) {... */\n      jump(tag_297)\n    tag_298:\n      pop\n        /* \"04-Camps/08-UpChain_Camp_3_OpenSpace/0115_ERC777TokenBank/contracts/TokenBank.sol\":4512:4517  index */\n      dup1\n        /* \"04-Camps/08-UpChain_Camp_3_OpenSpace/0115_ERC777TokenBank/contracts/TokenBank.sol\":4505:4517  return index */\n      swap2\n      pop\n      pop\n        /* \"04-Camps/08-UpChain_Camp_3_OpenSpace/0115_ERC777TokenBank/contracts/TokenBank.sol\":4244:4524  function _checkTokenRankMembership() internal view returns (uint) {... */\n      swap1\n      jump\t// out\n        /* \"#utility.yul\":88:205   */\n    tag_305:\n        /* \"#utility.yul\":197:198   */\n      0x00\n        /* \"#utility.yul\":194:195   */\n      dup1\n        /* \"#utility.yul\":187:199   */\n      revert\n        /* \"#utility.yul\":334:460   */\n    tag_307:\n        /* \"#utility.yul\":371:378   */\n      0x00\n        /* \"#utility.yul\":411:453   */\n      0xffffffffffffffffffffffffffffffffffffffff\n        /* \"#utility.yul\":404:409   */\n      dup3\n        /* \"#utility.yul\":400:454   */\n      and\n        /* \"#utility.yul\":389:454   */\n      swap1\n      pop\n        /* \"#utility.yul\":334:460   */\n      swap2\n      swap1\n      pop\n      jump\t// out\n        /* \"#utility.yul\":466:562   */\n    tag_308:\n        /* \"#utility.yul\":503:510   */\n      0x00\n        /* \"#utility.yul\":532:556   */\n      tag_336\n        /* \"#utility.yul\":550:555   */\n      dup3\n        /* \"#utility.yul\":532:556   */\n      tag_307\n      jump\t// in\n    tag_336:\n        /* \"#utility.yul\":521:556   */\n      swap1\n      pop\n        /* \"#utility.yul\":466:562   */\n      swap2\n      swap1\n      pop\n      jump\t// out\n        /* \"#utility.yul\":568:690   */\n    tag_309:\n        /* \"#utility.yul\":641:665   */\n      tag_338\n        /* \"#utility.yul\":659:664   */\n      dup2\n        /* \"#utility.yul\":641:665   */\n      tag_308\n      jump\t// in\n    tag_338:\n        /* \"#utility.yul\":634:639   */\n      dup2\n        /* \"#utility.yul\":631:666   */\n      eq\n        /* \"#utility.yul\":621:684   */\n      tag_339\n      jumpi\n        /* \"#utility.yul\":680:681   */\n      0x00\n        /* \"#utility.yul\":677:678   */\n      dup1\n        /* \"#utility.yul\":670:682   */\n      revert\n        /* \"#utility.yul\":621:684   */\n    tag_339:\n        /* \"#utility.yul\":568:690   */\n      pop\n      jump\t// out\n        /* \"#utility.yul\":696:835   */\n    tag_310:\n        /* \"#utility.yul\":742:747   */\n      0x00\n        /* \"#utility.yul\":780:786   */\n      dup2\n        /* \"#utility.yul\":767:787   */\n      calldataload\n        /* \"#utility.yul\":758:787   */\n      swap1\n      pop\n        /* \"#utility.yul\":796:829   */\n      tag_341\n        /* \"#utility.yul\":823:828   */\n      dup2\n        /* \"#utility.yul\":796:829   */\n      tag_309\n      jump\t// in\n    tag_341:\n        /* \"#utility.yul\":696:835   */\n      swap3\n      swap2\n      pop\n      pop\n      jump\t// out\n        /* \"#utility.yul\":841:918   */\n    tag_311:\n        /* \"#utility.yul\":878:885   */\n      0x00\n        /* \"#utility.yul\":907:912   */\n      dup2\n        /* \"#utility.yul\":896:912   */\n      swap1\n      pop\n        /* \"#utility.yul\":841:918   */\n      swap2\n      swap1\n      pop\n      jump\t// out\n        /* \"#utility.yul\":924:1046   */\n    tag_312:\n        /* \"#utility.yul\":997:1021   */\n      tag_344\n        /* \"#utility.yul\":1015:1020   */\n      dup2\n        /* \"#utility.yul\":997:1021   */\n      tag_311\n      jump\t// in\n    tag_344:\n        /* \"#utility.yul\":990:995   */\n      dup2\n        /* \"#utility.yul\":987:1022   */\n      eq\n        /* \"#utility.yul\":977:1040   */\n      tag_345\n      jumpi\n        /* \"#utility.yul\":1036:1037   */\n      0x00\n        /* \"#utility.yul\":1033:1034   */\n      dup1\n        /* \"#utility.yul\":1026:1038   */\n      revert\n        /* \"#utility.yul\":977:1040   */\n    tag_345:\n        /* \"#utility.yul\":924:1046   */\n      pop\n      jump\t// out\n        /* \"#utility.yul\":1052:1191   */\n    tag_313:\n        /* \"#utility.yul\":1098:1103   */\n      0x00\n        /* \"#utility.yul\":1136:1142   */\n      dup2\n        /* \"#utility.yul\":1123:1143   */\n      calldataload\n        /* \"#utility.yul\":1114:1143   */\n      swap1\n      pop\n        /* \"#utility.yul\":1152:1185   */\n      tag_347\n        /* \"#utility.yul\":1179:1184   */\n      dup2\n        /* \"#utility.yul\":1152:1185   */\n      tag_312\n      jump\t// in\n    tag_347:\n        /* \"#utility.yul\":1052:1191   */\n      swap3\n      swap2\n      pop\n      pop\n      jump\t// out\n        /* \"#utility.yul\":1197:1671   */\n    tag_25:\n        /* \"#utility.yul\":1265:1271   */\n      0x00\n        /* \"#utility.yul\":1273:1279   */\n      dup1\n        /* \"#utility.yul\":1322:1324   */\n      0x40\n        /* \"#utility.yul\":1310:1319   */\n      dup4\n        /* \"#utility.yul\":1301:1308   */\n      dup6\n        /* \"#utility.yul\":1297:1320   */\n      sub\n        /* \"#utility.yul\":1293:1325   */\n      slt\n        /* \"#utility.yul\":1290:1409   */\n      iszero\n      tag_349\n      jumpi\n        /* \"#utility.yul\":1328:1407   */\n      tag_350\n      tag_305\n      jump\t// in\n    tag_350:\n        /* \"#utility.yul\":1290:1409   */\n    tag_349:\n        /* \"#utility.yul\":1448:1449   */\n      0x00\n        /* \"#utility.yul\":1473:1526   */\n      tag_351\n        /* \"#utility.yul\":1518:1525   */\n      dup6\n        /* \"#utility.yul\":1509:1515   */\n      dup3\n        /* \"#utility.yul\":1498:1507   */\n      dup7\n        /* \"#utility.yul\":1494:1516   */\n      add\n        /* \"#utility.yul\":1473:1526   */\n      tag_310\n      jump\t// in\n    tag_351:\n        /* \"#utility.yul\":1463:1526   */\n      swap3\n      pop\n        /* \"#utility.yul\":1419:1536   */\n      pop\n        /* \"#utility.yul\":1575:1577   */\n      0x20\n        /* \"#utility.yul\":1601:1654   */\n      tag_352\n        /* \"#utility.yul\":1646:1653   */\n      dup6\n        /* \"#utility.yul\":1637:1643   */\n      dup3\n        /* \"#utility.yul\":1626:1635   */\n      dup7\n        /* \"#utility.yul\":1622:1644   */\n      add\n        /* \"#utility.yul\":1601:1654   */\n      tag_313\n      jump\t// in\n    tag_352:\n        /* \"#utility.yul\":1591:1654   */\n      swap2\n      pop\n        /* \"#utility.yul\":1546:1664   */\n      pop\n        /* \"#utility.yul\":1197:1671   */\n      swap3\n      pop\n      swap3\n      swap1\n      pop\n      jump\t// out\n        /* \"#utility.yul\":1677:1767   */\n    tag_314:\n        /* \"#utility.yul\":1711:1718   */\n      0x00\n        /* \"#utility.yul\":1754:1759   */\n      dup2\n        /* \"#utility.yul\":1747:1760   */\n      iszero\n        /* \"#utility.yul\":1740:1761   */\n      iszero\n        /* \"#utility.yul\":1729:1761   */\n      swap1\n      pop\n        /* \"#utility.yul\":1677:1767   */\n      swap2\n      swap1\n      pop\n      jump\t// out\n        /* \"#utility.yul\":1773:1882   */\n    tag_315:\n        /* \"#utility.yul\":1854:1875   */\n      tag_355\n        /* \"#utility.yul\":1869:1874   */\n      dup2\n        /* \"#utility.yul\":1854:1875   */\n      tag_314\n      jump\t// in\n    tag_355:\n        /* \"#utility.yul\":1849:1852   */\n      dup3\n        /* \"#utility.yul\":1842:1876   */\n      mstore\n        /* \"#utility.yul\":1773:1882   */\n      pop\n      pop\n      jump\t// out\n        /* \"#utility.yul\":1888:2098   */\n    tag_28:\n        /* \"#utility.yul\":1975:1979   */\n      0x00\n        /* \"#utility.yul\":2013:2015   */\n      0x20\n        /* \"#utility.yul\":2002:2011   */\n      dup3\n        /* \"#utility.yul\":1998:2016   */\n      add\n        /* \"#utility.yul\":1990:2016   */\n      swap1\n      pop\n        /* \"#utility.yul\":2026:2091   */\n      tag_357\n        /* \"#utility.yul\":2088:2089   */\n      0x00\n        /* \"#utility.yul\":2077:2086   */\n      dup4\n        /* \"#utility.yul\":2073:2090   */\n      add\n        /* \"#utility.yul\":2064:2070   */\n      dup5\n        /* \"#utility.yul\":2026:2091   */\n      tag_315\n      jump\t// in\n    tag_357:\n        /* \"#utility.yul\":1888:2098   */\n      swap3\n      swap2\n      pop\n      pop\n      jump\t// out\n        /* \"#utility.yul\":2104:2222   */\n    tag_316:\n        /* \"#utility.yul\":2191:2215   */\n      tag_359\n        /* \"#utility.yul\":2209:2214   */\n      dup2\n        /* \"#utility.yul\":2191:2215   */\n      tag_308\n      jump\t// in\n    tag_359:\n        /* \"#utility.yul\":2186:2189   */\n      dup3\n        /* \"#utility.yul\":2179:2216   */\n      mstore\n        /* \"#utility.yul\":2104:2222   */\n      pop\n      pop\n      jump\t// out\n        /* \"#utility.yul\":2228:2670   */\n    tag_33:\n        /* \"#utility.yul\":2377:2381   */\n      0x00\n        /* \"#utility.yul\":2415:2417   */\n      0x60\n        /* \"#utility.yul\":2404:2413   */\n      dup3\n        /* \"#utility.yul\":2400:2418   */\n      add\n        /* \"#utility.yul\":2392:2418   */\n      swap1\n      pop\n        /* \"#utility.yul\":2428:2499   */\n      tag_361\n        /* \"#utility.yul\":2496:2497   */\n      0x00\n        /* \"#utility.yul\":2485:2494   */\n      dup4\n        /* \"#utility.yul\":2481:2498   */\n      add\n        /* \"#utility.yul\":2472:2478   */\n      dup7\n        /* \"#utility.yul\":2428:2499   */\n      tag_316\n      jump\t// in\n    tag_361:\n        /* \"#utility.yul\":2509:2581   */\n      tag_362\n        /* \"#utility.yul\":2577:2579   */\n      0x20\n        /* \"#utility.yul\":2566:2575   */\n      dup4\n        /* \"#utility.yul\":2562:2580   */\n      add\n        /* \"#utility.yul\":2553:2559   */\n      dup6\n        /* \"#utility.yul\":2509:2581   */\n      tag_316\n      jump\t// in\n    tag_362:\n        /* \"#utility.yul\":2591:2663   */\n      tag_363\n        /* \"#utility.yul\":2659:2661   */\n      0x40\n        /* \"#utility.yul\":2648:2657   */\n      dup4\n        /* \"#utility.yul\":2644:2662   */\n      add\n        /* \"#utility.yul\":2635:2641   */\n      dup5\n        /* \"#utility.yul\":2591:2663   */\n      tag_316\n      jump\t// in\n    tag_363:\n        /* \"#utility.yul\":2228:2670   */\n      swap5\n      swap4\n      pop\n      pop\n      pop\n      pop\n      jump\t// out\n        /* \"#utility.yul\":2676:3005   */\n    tag_37:\n        /* \"#utility.yul\":2735:2741   */\n      0x00\n        /* \"#utility.yul\":2784:2786   */\n      0x20\n        /* \"#utility.yul\":2772:2781   */\n      dup3\n        /* \"#utility.yul\":2763:2770   */\n      dup5\n        /* \"#utility.yul\":2759:2782   */\n      sub\n        /* \"#utility.yul\":2755:2787   */\n      slt\n        /* \"#utility.yul\":2752:2871   */\n      iszero\n      tag_365\n      jumpi\n        /* \"#utility.yul\":2790:2869   */\n      tag_366\n      tag_305\n      jump\t// in\n    tag_366:\n        /* \"#utility.yul\":2752:2871   */\n    tag_365:\n        /* \"#utility.yul\":2910:2911   */\n      0x00\n        /* \"#utility.yul\":2935:2988   */\n      tag_367\n        /* \"#utility.yul\":2980:2987   */\n      dup5\n        /* \"#utility.yul\":2971:2977   */\n      dup3\n        /* \"#utility.yul\":2960:2969   */\n      dup6\n        /* \"#utility.yul\":2956:2978   */\n      add\n        /* \"#utility.yul\":2935:2988   */\n      tag_310\n      jump\t// in\n    tag_367:\n        /* \"#utility.yul\":2925:2988   */\n      swap2\n      pop\n        /* \"#utility.yul\":2881:2998   */\n      pop\n        /* \"#utility.yul\":2676:3005   */\n      swap3\n      swap2\n      pop\n      pop\n      jump\t// out\n        /* \"#utility.yul\":3011:3129   */\n    tag_317:\n        /* \"#utility.yul\":3098:3122   */\n      tag_369\n        /* \"#utility.yul\":3116:3121   */\n      dup2\n        /* \"#utility.yul\":3098:3122   */\n      tag_311\n      jump\t// in\n    tag_369:\n        /* \"#utility.yul\":3093:3096   */\n      dup3\n        /* \"#utility.yul\":3086:3123   */\n      mstore\n        /* \"#utility.yul\":3011:3129   */\n      pop\n      pop\n      jump\t// out\n        /* \"#utility.yul\":3135:3357   */\n    tag_40:\n        /* \"#utility.yul\":3228:3232   */\n      0x00\n        /* \"#utility.yul\":3266:3268   */\n      0x20\n        /* \"#utility.yul\":3255:3264   */\n      dup3\n        /* \"#utility.yul\":3251:3269   */\n      add\n        /* \"#utility.yul\":3243:3269   */\n      swap1\n      pop\n        /* \"#utility.yul\":3279:3350   */\n      tag_371\n        /* \"#utility.yul\":3347:3348   */\n      0x00\n        /* \"#utility.yul\":3336:3345   */\n      dup4\n        /* \"#utility.yul\":3332:3349   */\n      add\n        /* \"#utility.yul\":3323:3329   */\n      dup5\n        /* \"#utility.yul\":3279:3350   */\n      tag_317\n      jump\t// in\n    tag_371:\n        /* \"#utility.yul\":3135:3357   */\n      swap3\n      swap2\n      pop\n      pop\n      jump\t// out\n        /* \"#utility.yul\":3363:3423   */\n    tag_318:\n        /* \"#utility.yul\":3391:3394   */\n      0x00\n        /* \"#utility.yul\":3412:3417   */\n      dup2\n        /* \"#utility.yul\":3405:3417   */\n      swap1\n      pop\n        /* \"#utility.yul\":3363:3423   */\n      swap2\n      swap1\n      pop\n      jump\t// out\n        /* \"#utility.yul\":3429:3571   */\n    tag_319:\n        /* \"#utility.yul\":3479:3488   */\n      0x00\n        /* \"#utility.yul\":3512:3565   */\n      tag_374\n        /* \"#utility.yul\":3530:3564   */\n      tag_375\n        /* \"#utility.yul\":3539:3563   */\n      tag_376\n        /* \"#utility.yul\":3557:3562   */\n      dup5\n        /* \"#utility.yul\":3539:3563   */\n      tag_307\n      jump\t// in\n    tag_376:\n        /* \"#utility.yul\":3530:3564   */\n      tag_318\n      jump\t// in\n    tag_375:\n        /* \"#utility.yul\":3512:3565   */\n      tag_307\n      jump\t// in\n    tag_374:\n        /* \"#utility.yul\":3499:3565   */\n      swap1\n      pop\n        /* \"#utility.yul\":3429:3571   */\n      swap2\n      swap1\n      pop\n      jump\t// out\n        /* \"#utility.yul\":3577:3703   */\n    tag_320:\n        /* \"#utility.yul\":3627:3636   */\n      0x00\n        /* \"#utility.yul\":3660:3697   */\n      tag_378\n        /* \"#utility.yul\":3691:3696   */\n      dup3\n        /* \"#utility.yul\":3660:3697   */\n      tag_319\n      jump\t// in\n    tag_378:\n        /* \"#utility.yul\":3647:3697   */\n      swap1\n      pop\n        /* \"#utility.yul\":3577:3703   */\n      swap2\n      swap1\n      pop\n      jump\t// out\n        /* \"#utility.yul\":3709:3857   */\n    tag_321:\n        /* \"#utility.yul\":3781:3790   */\n      0x00\n        /* \"#utility.yul\":3814:3851   */\n      tag_380\n        /* \"#utility.yul\":3845:3850   */\n      dup3\n        /* \"#utility.yul\":3814:3851   */\n      tag_320\n      jump\t// in\n    tag_380:\n        /* \"#utility.yul\":3801:3851   */\n      swap1\n      pop\n        /* \"#utility.yul\":3709:3857   */\n      swap2\n      swap1\n      pop\n      jump\t// out\n        /* \"#utility.yul\":3863:4038   */\n    tag_322:\n        /* \"#utility.yul\":3972:4031   */\n      tag_382\n        /* \"#utility.yul\":4025:4030   */\n      dup2\n        /* \"#utility.yul\":3972:4031   */\n      tag_321\n      jump\t// in\n    tag_382:\n        /* \"#utility.yul\":3967:3970   */\n      dup3\n        /* \"#utility.yul\":3960:4032   */\n      mstore\n        /* \"#utility.yul\":3863:4038   */\n      pop\n      pop\n      jump\t// out\n        /* \"#utility.yul\":4044:4310   */\n    tag_50:\n        /* \"#utility.yul\":4159:4163   */\n      0x00\n        /* \"#utility.yul\":4197:4199   */\n      0x20\n        /* \"#utility.yul\":4186:4195   */\n      dup3\n        /* \"#utility.yul\":4182:4200   */\n      add\n        /* \"#utility.yul\":4174:4200   */\n      swap1\n      pop\n        /* \"#utility.yul\":4210:4303   */\n      tag_384\n        /* \"#utility.yul\":4300:4301   */\n      0x00\n        /* \"#utility.yul\":4289:4298   */\n      dup4\n        /* \"#utility.yul\":4285:4302   */\n      add\n        /* \"#utility.yul\":4276:4282   */\n      dup5\n        /* \"#utility.yul\":4210:4303   */\n      tag_322\n      jump\t// in\n    tag_384:\n        /* \"#utility.yul\":4044:4310   */\n      swap3\n      swap2\n      pop\n      pop\n      jump\t// out\n        /* \"#utility.yul\":4316:4538   */\n    tag_55:\n        /* \"#utility.yul\":4409:4413   */\n      0x00\n        /* \"#utility.yul\":4447:4449   */\n      0x20\n        /* \"#utility.yul\":4436:4445   */\n      dup3\n        /* \"#utility.yul\":4432:4450   */\n      add\n        /* \"#utility.yul\":4424:4450   */\n      swap1\n      pop\n        /* \"#utility.yul\":4460:4531   */\n      tag_386\n        /* \"#utility.yul\":4528:4529   */\n      0x00\n        /* \"#utility.yul\":4517:4526   */\n      dup4\n        /* \"#utility.yul\":4513:4530   */\n      add\n        /* \"#utility.yul\":4504:4510   */\n      dup5\n        /* \"#utility.yul\":4460:4531   */\n      tag_316\n      jump\t// in\n    tag_386:\n        /* \"#utility.yul\":4316:4538   */\n      swap3\n      swap2\n      pop\n      pop\n      jump\t// out\n        /* \"#utility.yul\":4544:4873   */\n    tag_59:\n        /* \"#utility.yul\":4603:4609   */\n      0x00\n        /* \"#utility.yul\":4652:4654   */\n      0x20\n        /* \"#utility.yul\":4640:4649   */\n      dup3\n        /* \"#utility.yul\":4631:4638   */\n      dup5\n        /* \"#utility.yul\":4627:4650   */\n      sub\n        /* \"#utility.yul\":4623:4655   */\n      slt\n        /* \"#utility.yul\":4620:4739   */\n      iszero\n      tag_388\n      jumpi\n        /* \"#utility.yul\":4658:4737   */\n      tag_389\n      tag_305\n      jump\t// in\n    tag_389:\n        /* \"#utility.yul\":4620:4739   */\n    tag_388:\n        /* \"#utility.yul\":4778:4779   */\n      0x00\n        /* \"#utility.yul\":4803:4856   */\n      tag_390\n        /* \"#utility.yul\":4848:4855   */\n      dup5\n        /* \"#utility.yul\":4839:4845   */\n      dup3\n        /* \"#utility.yul\":4828:4837   */\n      dup6\n        /* \"#utility.yul\":4824:4846   */\n      add\n        /* \"#utility.yul\":4803:4856   */\n      tag_313\n      jump\t// in\n    tag_390:\n        /* \"#utility.yul\":4793:4856   */\n      swap2\n      pop\n        /* \"#utility.yul\":4749:4866   */\n      pop\n        /* \"#utility.yul\":4544:4873   */\n      swap3\n      swap2\n      pop\n      pop\n      jump\t// out\n        /* \"#utility.yul\":4879:5019   */\n    tag_323:\n        /* \"#utility.yul\":4943:4952   */\n      0x00\n        /* \"#utility.yul\":4976:5013   */\n      tag_392\n        /* \"#utility.yul\":5007:5012   */\n      dup3\n        /* \"#utility.yul\":4976:5013   */\n      tag_320\n      jump\t// in\n    tag_392:\n        /* \"#utility.yul\":4963:5013   */\n      swap1\n      pop\n        /* \"#utility.yul\":4879:5019   */\n      swap2\n      swap1\n      pop\n      jump\t// out\n        /* \"#utility.yul\":5025:5184   */\n    tag_324:\n        /* \"#utility.yul\":5126:5177   */\n      tag_394\n        /* \"#utility.yul\":5171:5176   */\n      dup2\n        /* \"#utility.yul\":5126:5177   */\n      tag_323\n      jump\t// in\n    tag_394:\n        /* \"#utility.yul\":5121:5124   */\n      dup3\n        /* \"#utility.yul\":5114:5178   */\n      mstore\n        /* \"#utility.yul\":5025:5184   */\n      pop\n      pop\n      jump\t// out\n        /* \"#utility.yul\":5190:5440   */\n    tag_65:\n        /* \"#utility.yul\":5297:5301   */\n      0x00\n        /* \"#utility.yul\":5335:5337   */\n      0x20\n        /* \"#utility.yul\":5324:5333   */\n      dup3\n        /* \"#utility.yul\":5320:5338   */\n      add\n        /* \"#utility.yul\":5312:5338   */\n      swap1\n      pop\n        /* \"#utility.yul\":5348:5433   */\n      tag_396\n        /* \"#utility.yul\":5430:5431   */\n      0x00\n        /* \"#utility.yul\":5419:5428   */\n      dup4\n        /* \"#utility.yul\":5415:5432   */\n      add\n        /* \"#utility.yul\":5406:5412   */\n      dup5\n        /* \"#utility.yul\":5348:5433   */\n      tag_324\n      jump\t// in\n    tag_396:\n        /* \"#utility.yul\":5190:5440   */\n      swap3\n      swap2\n      pop\n      pop\n      jump\t// out\n        /* \"#utility.yul\":5446:5626   */\n    tag_325:\n        /* \"#utility.yul\":5494:5571   */\n      0x4e487b7100000000000000000000000000000000000000000000000000000000\n        /* \"#utility.yul\":5491:5492   */\n      0x00\n        /* \"#utility.yul\":5484:5572   */\n      mstore\n        /* \"#utility.yul\":5591:5595   */\n      0x11\n        /* \"#utility.yul\":5588:5589   */\n      0x04\n        /* \"#utility.yul\":5581:5596   */\n      mstore\n        /* \"#utility.yul\":5615:5619   */\n      0x24\n        /* \"#utility.yul\":5612:5613   */\n      0x00\n        /* \"#utility.yul\":5605:5620   */\n      revert\n        /* \"#utility.yul\":5632:5823   */\n    tag_83:\n        /* \"#utility.yul\":5672:5675   */\n      0x00\n        /* \"#utility.yul\":5691:5711   */\n      tag_399\n        /* \"#utility.yul\":5709:5710   */\n      dup3\n        /* \"#utility.yul\":5691:5711   */\n      tag_311\n      jump\t// in\n    tag_399:\n        /* \"#utility.yul\":5686:5711   */\n      swap2\n      pop\n        /* \"#utility.yul\":5725:5745   */\n      tag_400\n        /* \"#utility.yul\":5743:5744   */\n      dup4\n        /* \"#utility.yul\":5725:5745   */\n      tag_311\n      jump\t// in\n    tag_400:\n        /* \"#utility.yul\":5720:5745   */\n      swap3\n      pop\n        /* \"#utility.yul\":5768:5769   */\n      dup3\n        /* \"#utility.yul\":5765:5766   */\n      dup3\n        /* \"#utility.yul\":5761:5770   */\n      add\n        /* \"#utility.yul\":5754:5770   */\n      swap1\n      pop\n        /* \"#utility.yul\":5789:5792   */\n      dup1\n        /* \"#utility.yul\":5786:5787   */\n      dup3\n        /* \"#utility.yul\":5783:5793   */\n      gt\n        /* \"#utility.yul\":5780:5816   */\n      iszero\n      tag_401\n      jumpi\n        /* \"#utility.yul\":5796:5814   */\n      tag_402\n      tag_325\n      jump\t// in\n    tag_402:\n        /* \"#utility.yul\":5780:5816   */\n    tag_401:\n        /* \"#utility.yul\":5632:5823   */\n      swap3\n      swap2\n      pop\n      pop\n      jump\t// out\n        /* \"#utility.yul\":5829:6161   */\n    tag_89:\n        /* \"#utility.yul\":5950:5954   */\n      0x00\n        /* \"#utility.yul\":5988:5990   */\n      0x40\n        /* \"#utility.yul\":5977:5986   */\n      dup3\n        /* \"#utility.yul\":5973:5991   */\n      add\n        /* \"#utility.yul\":5965:5991   */\n      swap1\n      pop\n        /* \"#utility.yul\":6001:6072   */\n      tag_404\n        /* \"#utility.yul\":6069:6070   */\n      0x00\n        /* \"#utility.yul\":6058:6067   */\n      dup4\n        /* \"#utility.yul\":6054:6071   */\n      add\n        /* \"#utility.yul\":6045:6051   */\n      dup6\n        /* \"#utility.yul\":6001:6072   */\n      tag_316\n      jump\t// in\n    tag_404:\n        /* \"#utility.yul\":6082:6154   */\n      tag_405\n        /* \"#utility.yul\":6150:6152   */\n      0x20\n        /* \"#utility.yul\":6139:6148   */\n      dup4\n        /* \"#utility.yul\":6135:6153   */\n      add\n        /* \"#utility.yul\":6126:6132   */\n      dup5\n        /* \"#utility.yul\":6082:6154   */\n      tag_316\n      jump\t// in\n    tag_405:\n        /* \"#utility.yul\":5829:6161   */\n      swap4\n      swap3\n      pop\n      pop\n      pop\n      jump\t// out\n        /* \"#utility.yul\":6167:6499   */\n    tag_92:\n        /* \"#utility.yul\":6288:6292   */\n      0x00\n        /* \"#utility.yul\":6326:6328   */\n      0x40\n        /* \"#utility.yul\":6315:6324   */\n      dup3\n        /* \"#utility.yul\":6311:6329   */\n      add\n        /* \"#utility.yul\":6303:6329   */\n      swap1\n      pop\n        /* \"#utility.yul\":6339:6410   */\n      tag_407\n        /* \"#utility.yul\":6407:6408   */\n      0x00\n        /* \"#utility.yul\":6396:6405   */\n      dup4\n        /* \"#utility.yul\":6392:6409   */\n      add\n        /* \"#utility.yul\":6383:6389   */\n      dup6\n        /* \"#utility.yul\":6339:6410   */\n      tag_316\n      jump\t// in\n    tag_407:\n        /* \"#utility.yul\":6420:6492   */\n      tag_408\n        /* \"#utility.yul\":6488:6490   */\n      0x20\n        /* \"#utility.yul\":6477:6486   */\n      dup4\n        /* \"#utility.yul\":6473:6491   */\n      add\n        /* \"#utility.yul\":6464:6470   */\n      dup5\n        /* \"#utility.yul\":6420:6492   */\n      tag_317\n      jump\t// in\n    tag_408:\n        /* \"#utility.yul\":6167:6499   */\n      swap4\n      swap3\n      pop\n      pop\n      pop\n      jump\t// out\n        /* \"#utility.yul\":6505:6685   */\n    tag_96:\n        /* \"#utility.yul\":6553:6630   */\n      0x4e487b7100000000000000000000000000000000000000000000000000000000\n        /* \"#utility.yul\":6550:6551   */\n      0x00\n        /* \"#utility.yul\":6543:6631   */\n      mstore\n        /* \"#utility.yul\":6650:6654   */\n      0x32\n        /* \"#utility.yul\":6647:6648   */\n      0x04\n        /* \"#utility.yul\":6640:6655   */\n      mstore\n        /* \"#utility.yul\":6674:6678   */\n      0x24\n        /* \"#utility.yul\":6671:6672   */\n      0x00\n        /* \"#utility.yul\":6664:6679   */\n      revert\n        /* \"#utility.yul\":6691:7272   */\n    tag_108:\n        /* \"#utility.yul\":6882:6886   */\n      0x00\n        /* \"#utility.yul\":6920:6923   */\n      0x80\n        /* \"#utility.yul\":6909:6918   */\n      dup3\n        /* \"#utility.yul\":6905:6924   */\n      add\n        /* \"#utility.yul\":6897:6924   */\n      swap1\n      pop\n        /* \"#utility.yul\":6934:7019   */\n      tag_411\n        /* \"#utility.yul\":7016:7017   */\n      0x00\n        /* \"#utility.yul\":7005:7014   */\n      dup4\n        /* \"#utility.yul\":7001:7018   */\n      add\n        /* \"#utility.yul\":6992:6998   */\n      dup8\n        /* \"#utility.yul\":6934:7019   */\n      tag_324\n      jump\t// in\n    tag_411:\n        /* \"#utility.yul\":7029:7101   */\n      tag_412\n        /* \"#utility.yul\":7097:7099   */\n      0x20\n        /* \"#utility.yul\":7086:7095   */\n      dup4\n        /* \"#utility.yul\":7082:7100   */\n      add\n        /* \"#utility.yul\":7073:7079   */\n      dup7\n        /* \"#utility.yul\":7029:7101   */\n      tag_316\n      jump\t// in\n    tag_412:\n        /* \"#utility.yul\":7111:7183   */\n      tag_413\n        /* \"#utility.yul\":7179:7181   */\n      0x40\n        /* \"#utility.yul\":7168:7177   */\n      dup4\n        /* \"#utility.yul\":7164:7182   */\n      add\n        /* \"#utility.yul\":7155:7161   */\n      dup6\n        /* \"#utility.yul\":7111:7183   */\n      tag_316\n      jump\t// in\n    tag_413:\n        /* \"#utility.yul\":7193:7265   */\n      tag_414\n        /* \"#utility.yul\":7261:7263   */\n      0x60\n        /* \"#utility.yul\":7250:7259   */\n      dup4\n        /* \"#utility.yul\":7246:7264   */\n      add\n        /* \"#utility.yul\":7237:7243   */\n      dup5\n        /* \"#utility.yul\":7193:7265   */\n      tag_317\n      jump\t// in\n    tag_414:\n        /* \"#utility.yul\":6691:7272   */\n      swap6\n      swap5\n      pop\n      pop\n      pop\n      pop\n      pop\n      jump\t// out\n        /* \"#utility.yul\":7278:7447   */\n    tag_326:\n        /* \"#utility.yul\":7362:7373   */\n      0x00\n        /* \"#utility.yul\":7396:7402   */\n      dup3\n        /* \"#utility.yul\":7391:7394   */\n      dup3\n        /* \"#utility.yul\":7384:7403   */\n      mstore\n        /* \"#utility.yul\":7436:7440   */\n      0x20\n        /* \"#utility.yul\":7431:7434   */\n      dup3\n        /* \"#utility.yul\":7427:7441   */\n      add\n        /* \"#utility.yul\":7412:7441   */\n      swap1\n      pop\n        /* \"#utility.yul\":7278:7447   */\n      swap3\n      swap2\n      pop\n      pop\n      jump\t// out\n        /* \"#utility.yul\":7453:7622   */\n    tag_327:\n        /* \"#utility.yul\":7593:7614   */\n      0x4f6e6c79206f776e65722063616e2063616c6c00000000000000000000000000\n        /* \"#utility.yul\":7589:7590   */\n      0x00\n        /* \"#utility.yul\":7581:7587   */\n      dup3\n        /* \"#utility.yul\":7577:7591   */\n      add\n        /* \"#utility.yul\":7570:7615   */\n      mstore\n        /* \"#utility.yul\":7453:7622   */\n      pop\n      jump\t// out\n        /* \"#utility.yul\":7628:7994   */\n    tag_328:\n        /* \"#utility.yul\":7770:7773   */\n      0x00\n        /* \"#utility.yul\":7791:7858   */\n      tag_418\n        /* \"#utility.yul\":7855:7857   */\n      0x13\n        /* \"#utility.yul\":7850:7853   */\n      dup4\n        /* \"#utility.yul\":7791:7858   */\n      tag_326\n      jump\t// in\n    tag_418:\n        /* \"#utility.yul\":7784:7858   */\n      swap2\n      pop\n        /* \"#utility.yul\":7867:7960   */\n      tag_419\n        /* \"#utility.yul\":7956:7959   */\n      dup3\n        /* \"#utility.yul\":7867:7960   */\n      tag_327\n      jump\t// in\n    tag_419:\n        /* \"#utility.yul\":7985:7987   */\n      0x20\n        /* \"#utility.yul\":7980:7983   */\n      dup3\n        /* \"#utility.yul\":7976:7988   */\n      add\n        /* \"#utility.yul\":7969:7988   */\n      swap1\n      pop\n        /* \"#utility.yul\":7628:7994   */\n      swap2\n      swap1\n      pop\n      jump\t// out\n        /* \"#utility.yul\":8000:8419   */\n    tag_128:\n        /* \"#utility.yul\":8166:8170   */\n      0x00\n        /* \"#utility.yul\":8204:8206   */\n      0x20\n        /* \"#utility.yul\":8193:8202   */\n      dup3\n        /* \"#utility.yul\":8189:8207   */\n      add\n        /* \"#utility.yul\":8181:8207   */\n      swap1\n      pop\n        /* \"#utility.yul\":8253:8262   */\n      dup2\n        /* \"#utility.yul\":8247:8251   */\n      dup2\n        /* \"#utility.yul\":8243:8263   */\n      sub\n        /* \"#utility.yul\":8239:8240   */\n      0x00\n        /* \"#utility.yul\":8228:8237   */\n      dup4\n        /* \"#utility.yul\":8224:8241   */\n      add\n        /* \"#utility.yul\":8217:8264   */\n      mstore\n        /* \"#utility.yul\":8281:8412   */\n      tag_421\n        /* \"#utility.yul\":8407:8411   */\n      dup2\n        /* \"#utility.yul\":8281:8412   */\n      tag_328\n      jump\t// in\n    tag_421:\n        /* \"#utility.yul\":8273:8412   */\n      swap1\n      pop\n        /* \"#utility.yul\":8000:8419   */\n      swap2\n      swap1\n      pop\n      jump\t// out\n        /* \"#utility.yul\":8425:8568   */\n    tag_329:\n        /* \"#utility.yul\":8482:8487   */\n      0x00\n        /* \"#utility.yul\":8513:8519   */\n      dup2\n        /* \"#utility.yul\":8507:8520   */\n      mload\n        /* \"#utility.yul\":8498:8520   */\n      swap1\n      pop\n        /* \"#utility.yul\":8529:8562   */\n      tag_423\n        /* \"#utility.yul\":8556:8561   */\n      dup2\n        /* \"#utility.yul\":8529:8562   */\n      tag_312\n      jump\t// in\n    tag_423:\n        /* \"#utility.yul\":8425:8568   */\n      swap3\n      swap2\n      pop\n      pop\n      jump\t// out\n        /* \"#utility.yul\":8574:8925   */\n    tag_134:\n        /* \"#utility.yul\":8644:8650   */\n      0x00\n        /* \"#utility.yul\":8693:8695   */\n      0x20\n        /* \"#utility.yul\":8681:8690   */\n      dup3\n        /* \"#utility.yul\":8672:8679   */\n      dup5\n        /* \"#utility.yul\":8668:8691   */\n      sub\n        /* \"#utility.yul\":8664:8696   */\n      slt\n        /* \"#utility.yul\":8661:8780   */\n      iszero\n      tag_425\n      jumpi\n        /* \"#utility.yul\":8699:8778   */\n      tag_426\n      tag_305\n      jump\t// in\n    tag_426:\n        /* \"#utility.yul\":8661:8780   */\n    tag_425:\n        /* \"#utility.yul\":8819:8820   */\n      0x00\n        /* \"#utility.yul\":8844:8908   */\n      tag_427\n        /* \"#utility.yul\":8900:8907   */\n      dup5\n        /* \"#utility.yul\":8891:8897   */\n      dup3\n        /* \"#utility.yul\":8880:8889   */\n      dup6\n        /* \"#utility.yul\":8876:8898   */\n      add\n        /* \"#utility.yul\":8844:8908   */\n      tag_329\n      jump\t// in\n    tag_427:\n        /* \"#utility.yul\":8834:8908   */\n      swap2\n      pop\n        /* \"#utility.yul\":8790:8918   */\n      pop\n        /* \"#utility.yul\":8574:8925   */\n      swap3\n      swap2\n      pop\n      pop\n      jump\t// out\n        /* \"#utility.yul\":8931:9401   */\n    tag_136:\n        /* \"#utility.yul\":9094:9098   */\n      0x00\n        /* \"#utility.yul\":9132:9134   */\n      0x60\n        /* \"#utility.yul\":9121:9130   */\n      dup3\n        /* \"#utility.yul\":9117:9135   */\n      add\n        /* \"#utility.yul\":9109:9135   */\n      swap1\n      pop\n        /* \"#utility.yul\":9145:9230   */\n      tag_429\n        /* \"#utility.yul\":9227:9228   */\n      0x00\n        /* \"#utility.yul\":9216:9225   */\n      dup4\n        /* \"#utility.yul\":9212:9229   */\n      add\n        /* \"#utility.yul\":9203:9209   */\n      dup7\n        /* \"#utility.yul\":9145:9230   */\n      tag_324\n      jump\t// in\n    tag_429:\n        /* \"#utility.yul\":9240:9312   */\n      tag_430\n        /* \"#utility.yul\":9308:9310   */\n      0x20\n        /* \"#utility.yul\":9297:9306   */\n      dup4\n        /* \"#utility.yul\":9293:9311   */\n      add\n        /* \"#utility.yul\":9284:9290   */\n      dup6\n        /* \"#utility.yul\":9240:9312   */\n      tag_316\n      jump\t// in\n    tag_430:\n        /* \"#utility.yul\":9322:9394   */\n      tag_431\n        /* \"#utility.yul\":9390:9392   */\n      0x40\n        /* \"#utility.yul\":9379:9388   */\n      dup4\n        /* \"#utility.yul\":9375:9393   */\n      add\n        /* \"#utility.yul\":9366:9372   */\n      dup5\n        /* \"#utility.yul\":9322:9394   */\n      tag_317\n      jump\t// in\n    tag_431:\n        /* \"#utility.yul\":8931:9401   */\n      swap5\n      swap4\n      pop\n      pop\n      pop\n      pop\n      jump\t// out\n        /* \"#utility.yul\":9407:9601   */\n    tag_155:\n        /* \"#utility.yul\":9447:9451   */\n      0x00\n        /* \"#utility.yul\":9467:9487   */\n      tag_433\n        /* \"#utility.yul\":9485:9486   */\n      dup3\n        /* \"#utility.yul\":9467:9487   */\n      tag_311\n      jump\t// in\n    tag_433:\n        /* \"#utility.yul\":9462:9487   */\n      swap2\n      pop\n        /* \"#utility.yul\":9501:9521   */\n      tag_434\n        /* \"#utility.yul\":9519:9520   */\n      dup4\n        /* \"#utility.yul\":9501:9521   */\n      tag_311\n      jump\t// in\n    tag_434:\n        /* \"#utility.yul\":9496:9521   */\n      swap3\n      pop\n        /* \"#utility.yul\":9545:9546   */\n      dup3\n        /* \"#utility.yul\":9542:9543   */\n      dup3\n        /* \"#utility.yul\":9538:9547   */\n      sub\n        /* \"#utility.yul\":9530:9547   */\n      swap1\n      pop\n        /* \"#utility.yul\":9569:9570   */\n      dup2\n        /* \"#utility.yul\":9563:9567   */\n      dup2\n        /* \"#utility.yul\":9560:9571   */\n      gt\n        /* \"#utility.yul\":9557:9594   */\n      iszero\n      tag_435\n      jumpi\n        /* \"#utility.yul\":9574:9592   */\n      tag_436\n      tag_325\n      jump\t// in\n    tag_436:\n        /* \"#utility.yul\":9557:9594   */\n    tag_435:\n        /* \"#utility.yul\":9407:9601   */\n      swap3\n      swap2\n      pop\n      pop\n      jump\t// out\n        /* \"#utility.yul\":9607:9778   */\n    tag_175:\n        /* \"#utility.yul\":9646:9649   */\n      0x00\n        /* \"#utility.yul\":9669:9693   */\n      tag_438\n        /* \"#utility.yul\":9687:9692   */\n      dup3\n        /* \"#utility.yul\":9669:9693   */\n      tag_311\n      jump\t// in\n    tag_438:\n        /* \"#utility.yul\":9660:9693   */\n      swap2\n      pop\n        /* \"#utility.yul\":9715:9719   */\n      0x00\n        /* \"#utility.yul\":9708:9713   */\n      dup3\n        /* \"#utility.yul\":9705:9720   */\n      sub\n        /* \"#utility.yul\":9702:9743   */\n      tag_439\n      jumpi\n        /* \"#utility.yul\":9723:9741   */\n      tag_440\n      tag_325\n      jump\t// in\n    tag_440:\n        /* \"#utility.yul\":9702:9743   */\n    tag_439:\n        /* \"#utility.yul\":9770:9771   */\n      0x01\n        /* \"#utility.yul\":9763:9768   */\n      dup3\n        /* \"#utility.yul\":9759:9772   */\n      sub\n        /* \"#utility.yul\":9752:9772   */\n      swap1\n      pop\n        /* \"#utility.yul\":9607:9778   */\n      swap2\n      swap1\n      pop\n      jump\t// out\n\n    auxdata: 0xa2646970667358221220460bf08a877b9e2ca706a669fbf85613faf97b71a7d79083c35d7c5cac5d3ef264736f6c63430008160033\n}\n",
				"bytecode": {
					"linkReferences": {},
					"object": "60e060405234801562000010575f80fd5b5060405162001de838038062001de88339818101604052810190620000369190620001be565b3360045f6101000a81548173ffffffffffffffffffffffffffffffffffffffff021916908373ffffffffffffffffffffffffffffffffffffffff1602179055503360045f6101000a81548173ffffffffffffffffffffffffffffffffffffffff021916908373ffffffffffffffffffffffffffffffffffffffff1602179055508073ffffffffffffffffffffffffffffffffffffffff1660808173ffffffffffffffffffffffffffffffffffffffff16815250508073ffffffffffffffffffffffffffffffffffffffff1660a08173ffffffffffffffffffffffffffffffffffffffff16815250508073ffffffffffffffffffffffffffffffffffffffff1660c08173ffffffffffffffffffffffffffffffffffffffff168152505050620001ee565b5f80fd5b5f73ffffffffffffffffffffffffffffffffffffffff82169050919050565b5f62000188826200015d565b9050919050565b6200019a816200017c565b8114620001a5575f80fd5b50565b5f81519050620001b8816200018f565b92915050565b5f60208284031215620001d657620001d562000159565b5b5f620001e584828501620001a8565b91505092915050565b60805160a05160c051611b9e6200024a5f395f818161064e0152818161071c01526108df01525f81816105ca01528181610612015281816108a3015261092201525f81816103490152818161039d01526105ee0152611b9e5ff3fe6080604052600436106100c5575f3560e01c80636215be771161007e578063b254b80a11610058578063b254b80a14610288578063ca628c78146102b4578063e086e5ec146102ca578063f6326fb3146102e0576100d4565b80636215be771461020c5780637251e8c2146102345780638da5cb5b1461025e576100d4565b806324a756d1146100d85780632b7e8faf146101145780633aecd0e3146101405780633bb66a7b1461017c5780634d3f3cf6146101b85780635fbe4d1d146101e2576100d4565b366100d4576100d26102ea565b005b5f80fd5b3480156100e3575f80fd5b506100fe60048036038101906100f9919061170b565b610346565b60405161010b9190611763565b60405180910390f35b34801561011f575f80fd5b5061012861048f565b6040516101379392919061178b565b60405180910390f35b34801561014b575f80fd5b50610166600480360381019061016191906117c0565b61053d565b60405161017391906117fa565b60405180910390f35b348015610187575f80fd5b506101a2600480360381019061019d91906117c0565b610583565b6040516101af91906117fa565b60405180910390f35b3480156101c3575f80fd5b506101cc6105c8565b6040516101d9919061186e565b60405180910390f35b3480156101ed575f80fd5b506101f66105ec565b6040516102039190611887565b60405180910390f35b348015610217575f80fd5b50610232600480360381019061022d91906118a0565b610610565b005b34801561023f575f80fd5b5061024861071a565b60405161025591906118eb565b60405180910390f35b348015610269575f80fd5b5061027261073e565b60405161027f9190611887565b60405180910390f35b348015610293575f80fd5b5061029c610763565b6040516102ab9392919061178b565b60405180910390f35b3480156102bf575f80fd5b506102c8610812565b005b3480156102d5575f80fd5b506102de610a05565b005b6102e86102ea565b005b345f803373ffffffffffffffffffffffffffffffffffffffff1673ffffffffffffffffffffffffffffffffffffffff1681526020019081526020015f205f8282546103359190611931565b92505081905550610344610afb565b565b5f7f000000000000000000000000000000000000000000000000000000000000000073ffffffffffffffffffffffffffffffffffffffff163373ffffffffffffffffffffffffffffffffffffffff16146103f957337f00000000000000000000000000000000000000000000000000000000000000006040517f093b7d340000000000000000000000000000000000000000000000000000000081526004016103f0929190611964565b60405180910390fd5b8160055f8573ffffffffffffffffffffffffffffffffffffffff1673ffffffffffffffffffffffffffffffffffffffff1681526020019081526020015f205f8282546104459190611931565b925050819055507fcae15051bbb38f81d4d2fb0eeba04c25ec7fc5e1ac9d89d6d68af8d3aab337dc838360405161047d92919061198b565b60405180910390a16001905092915050565b5f805f60015f600381106104a6576104a56119b2565b5b015f9054906101000a900473ffffffffffffffffffffffffffffffffffffffff16600180600381106104db576104da6119b2565b5b015f9054906101000a900473ffffffffffffffffffffffffffffffffffffffff166001600260038110610511576105106119b2565b5b015f9054906101000a900473ffffffffffffffffffffffffffffffffffffffff16925092509250909192565b5f60055f8373ffffffffffffffffffffffffffffffffffffffff1673ffffffffffffffffffffffffffffffffffffffff1681526020019081526020015f20549050919050565b5f805f8373ffffffffffffffffffffffffffffffffffffffff1673ffffffffffffffffffffffffffffffffffffffff1681526020019081526020015f20549050919050565b7f000000000000000000000000000000000000000000000000000000000000000081565b7f000000000000000000000000000000000000000000000000000000000000000081565b7f000000000000000000000000000000000000000000000000000000000000000073ffffffffffffffffffffffffffffffffffffffff1663d9fc4b617f00000000000000000000000000000000000000000000000000000000000000003330856040518563ffffffff1660e01b815260040161068f94939291906119df565b5f604051808303815f87803b1580156106a6575f80fd5b505af11580156106b8573d5f803e3d5ffd5b505050508060055f3373ffffffffffffffffffffffffffffffffffffffff1673ffffffffffffffffffffffffffffffffffffffff1681526020019081526020015f205f8282546107089190611931565b92505081905550610717611021565b50565b7f000000000000000000000000000000000000000000000000000000000000000081565b60045f9054906101000a900473ffffffffffffffffffffffffffffffffffffffff1681565b5f805f60065f6003811061077a576107796119b2565b5b015f9054906101000a900473ffffffffffffffffffffffffffffffffffffffff1660066001600381106107b0576107af6119b2565b5b015f9054906101000a900473ffffffffffffffffffffffffffffffffffffffff1660066002600381106107e6576107e56119b2565b5b015f9054906101000a900473ffffffffffffffffffffffffffffffffffffffff16925092509250909192565b60045f9054906101000a900473ffffffffffffffffffffffffffffffffffffffff1673ffffffffffffffffffffffffffffffffffffffff163373ffffffffffffffffffffffffffffffffffffffff16146108a1576040517f08c379a000000000000000000000000000000000000000000000000000000000815260040161089890611a7c565b60405180910390fd5b7f000000000000000000000000000000000000000000000000000000000000000073ffffffffffffffffffffffffffffffffffffffff1663d1660f997f000000000000000000000000000000000000000000000000000000000000000060045f9054906101000a900473ffffffffffffffffffffffffffffffffffffffff167f000000000000000000000000000000000000000000000000000000000000000073ffffffffffffffffffffffffffffffffffffffff166370a08231306040518263ffffffff1660e01b81526004016109799190611887565b602060405180830381865afa158015610994573d5f803e3d5ffd5b505050506040513d601f19601f820116820180604052508101906109b89190611aae565b6040518463ffffffff1660e01b81526004016109d693929190611ad9565b5f604051808303815f87803b1580156109ed575f80fd5b505af11580156109ff573d5f803e3d5ffd5b50505050565b60045f9054906101000a900473ffffffffffffffffffffffffffffffffffffffff1673ffffffffffffffffffffffffffffffffffffffff163373ffffffffffffffffffffffffffffffffffffffff1614610a94576040517f08c379a0000000000000000000000000000000000000000000000000000000008152600401610a8b90611a7c565b60405180910390fd5b60045f9054906101000a900473ffffffffffffffffffffffffffffffffffffffff1673ffffffffffffffffffffffffffffffffffffffff166108fc4790811502906040515f60405180830381858888f19350505050158015610af8573d5f803e3d5ffd5b50565b5f610b0461154e565b90505f8061030990506103e78314610dad57600483610b239190611931565b91505f600383610b339190611b0e565b90505b6001811115610da7575f8414610d94575f806001600284610b579190611b0e565b60038110610b6857610b676119b2565b5b015f9054906101000a900473ffffffffffffffffffffffffffffffffffffffff1673ffffffffffffffffffffffffffffffffffffffff1673ffffffffffffffffffffffffffffffffffffffff1681526020019081526020015f20545f803373ffffffffffffffffffffffffffffffffffffffff1673ffffffffffffffffffffffffffffffffffffffff1681526020019081526020015f20541115610d3557600281610c139190611b0e565b91505f600290505b600282610c289190611b0e565b811115610cd45760018082610c3d9190611b0e565b60038110610c4e57610c4d6119b2565b5b015f9054906101000a900473ffffffffffffffffffffffffffffffffffffffff1660018260038110610c8357610c826119b2565b5b015f6101000a81548173ffffffffffffffffffffffffffffffffffffffff021916908373ffffffffffffffffffffffffffffffffffffffff1602179055508080610ccc90611b41565b915050610c1b565b505f8203610d30573360018360038110610cf157610cf06119b2565b5b015f6101000a81548173ffffffffffffffffffffffffffffffffffffffff021916908373ffffffffffffffffffffffffffffffffffffffff1602179055505b610d93565b6103098214610d92573360018360038110610d5357610d526119b2565b5b015f6101000a81548173ffffffffffffffffffffffffffffffffffffffff021916908373ffffffffffffffffffffffffffffffffffffffff1602179055505b5b5b8080610d9f90611b41565b915050610b36565b5061101c565b5f600390505b5f81111561101a575f8060018084610dcb9190611b0e565b60038110610ddc57610ddb6119b2565b5b015f9054906101000a900473ffffffffffffffffffffffffffffffffffffffff1673ffffffffffffffffffffffffffffffffffffffff1673ffffffffffffffffffffffffffffffffffffffff1681526020019081526020015f20545f803373ffffffffffffffffffffffffffffffffffffffff1673ffffffffffffffffffffffffffffffffffffffff1681526020019081526020015f20541115610fa957600181610e879190611b0e565b91505f600290505b600182610e9c9190611b0e565b811115610f485760018082610eb19190611b0e565b60038110610ec257610ec16119b2565b5b015f9054906101000a900473ffffffffffffffffffffffffffffffffffffffff1660018260038110610ef757610ef66119b2565b5b015f6101000a81548173ffffffffffffffffffffffffffffffffffffffff021916908373ffffffffffffffffffffffffffffffffffffffff1602179055508080610f4090611b41565b915050610e8f565b505f8203610fa4573360018360038110610f6557610f646119b2565b5b015f6101000a81548173ffffffffffffffffffffffffffffffffffffffff021916908373ffffffffffffffffffffffffffffffffffffffff1602179055505b611007565b6103098214611006573360018360038110610fc757610fc66119b2565b5b015f6101000a81548173ffffffffffffffffffffffffffffffffffffffff021916908373ffffffffffffffffffffffffffffffffffffffff1602179055505b5b808061101290611b41565b915050610db3565b505b505050565b5f61102a6115e4565b90505f8061030990506103e783146112d6576004836110499190611931565b91505f6003836110599190611b0e565b90505b60018111156112d0575f84146112bd5760055f600660028461107e9190611b0e565b6003811061108f5761108e6119b2565b5b015f9054906101000a900473ffffffffffffffffffffffffffffffffffffffff1673ffffffffffffffffffffffffffffffffffffffff1673ffffffffffffffffffffffffffffffffffffffff1681526020019081526020015f205460055f3373ffffffffffffffffffffffffffffffffffffffff1673ffffffffffffffffffffffffffffffffffffffff1681526020019081526020015f2054111561125e5760028161113b9190611b0e565b91505f600290505b6002826111509190611b0e565b8111156111fd5760066001826111669190611b0e565b60038110611177576111766119b2565b5b015f9054906101000a900473ffffffffffffffffffffffffffffffffffffffff16600682600381106111ac576111ab6119b2565b5b015f6101000a81548173ffffffffffffffffffffffffffffffffffffffff021916908373ffffffffffffffffffffffffffffffffffffffff16021790555080806111f590611b41565b915050611143565b505f820361125957336006836003811061121a576112196119b2565b5b015f6101000a81548173ffffffffffffffffffffffffffffffffffffffff021916908373ffffffffffffffffffffffffffffffffffffffff1602179055505b6112bc565b61030982146112bb57336006836003811061127c5761127b6119b2565b5b015f6101000a81548173ffffffffffffffffffffffffffffffffffffffff021916908373ffffffffffffffffffffffffffffffffffffffff1602179055505b5b5b80806112c890611b41565b91505061105c565b50611549565b5f600390505b5f8111156115475760055f60066001846112f69190611b0e565b60038110611307576113066119b2565b5b015f9054906101000a900473ffffffffffffffffffffffffffffffffffffffff1673ffffffffffffffffffffffffffffffffffffffff1673ffffffffffffffffffffffffffffffffffffffff1681526020019081526020015f205460055f3373ffffffffffffffffffffffffffffffffffffffff1673ffffffffffffffffffffffffffffffffffffffff1681526020019081526020015f205411156114d6576001816113b39190611b0e565b91505f600290505b6001826113c89190611b0e565b8111156114755760066001826113de9190611b0e565b600381106113ef576113ee6119b2565b5b015f9054906101000a900473ffffffffffffffffffffffffffffffffffffffff1660068260038110611424576114236119b2565b5b015f6101000a81548173ffffffffffffffffffffffffffffffffffffffff021916908373ffffffffffffffffffffffffffffffffffffffff160217905550808061146d90611b41565b9150506113bb565b505f82036114d1573360068360038110611492576114916119b2565b5b015f6101000a81548173ffffffffffffffffffffffffffffffffffffffff021916908373ffffffffffffffffffffffffffffffffffffffff1602179055505b611534565b61030982146115335733600683600381106114f4576114f36119b2565b5b015f6101000a81548173ffffffffffffffffffffffffffffffffffffffff021916908373ffffffffffffffffffffffffffffffffffffffff1602179055505b5b808061153f90611b41565b9150506112dc565b505b505050565b5f806103e790505f5b60038110156115dc573373ffffffffffffffffffffffffffffffffffffffff166001826003811061158b5761158a6119b2565b5b015f9054906101000a900473ffffffffffffffffffffffffffffffffffffffff1673ffffffffffffffffffffffffffffffffffffffff16036115cf578091506115dc565b8080600101915050611557565b508091505090565b5f806103e790505f5b6003811015611672573373ffffffffffffffffffffffffffffffffffffffff1660068260038110611621576116206119b2565b5b015f9054906101000a900473ffffffffffffffffffffffffffffffffffffffff1673ffffffffffffffffffffffffffffffffffffffff160361166557809150611672565b80806001019150506115ed565b508091505090565b5f80fd5b5f73ffffffffffffffffffffffffffffffffffffffff82169050919050565b5f6116a78261167e565b9050919050565b6116b78161169d565b81146116c1575f80fd5b50565b5f813590506116d2816116ae565b92915050565b5f819050919050565b6116ea816116d8565b81146116f4575f80fd5b50565b5f81359050611705816116e1565b92915050565b5f80604083850312156117215761172061167a565b5b5f61172e858286016116c4565b925050602061173f858286016116f7565b9150509250929050565b5f8115159050919050565b61175d81611749565b82525050565b5f6020820190506117765f830184611754565b92915050565b6117858161169d565b82525050565b5f60608201905061179e5f83018661177c565b6117ab602083018561177c565b6117b8604083018461177c565b949350505050565b5f602082840312156117d5576117d461167a565b5b5f6117e2848285016116c4565b91505092915050565b6117f4816116d8565b82525050565b5f60208201905061180d5f8301846117eb565b92915050565b5f819050919050565b5f61183661183161182c8461167e565b611813565b61167e565b9050919050565b5f6118478261181c565b9050919050565b5f6118588261183d565b9050919050565b6118688161184e565b82525050565b5f6020820190506118815f83018461185f565b92915050565b5f60208201905061189a5f83018461177c565b92915050565b5f602082840312156118b5576118b461167a565b5b5f6118c2848285016116f7565b91505092915050565b5f6118d58261183d565b9050919050565b6118e5816118cb565b82525050565b5f6020820190506118fe5f8301846118dc565b92915050565b7f4e487b71000000000000000000000000000000000000000000000000000000005f52601160045260245ffd5b5f61193b826116d8565b9150611946836116d8565b925082820190508082111561195e5761195d611904565b5b92915050565b5f6040820190506119775f83018561177c565b611984602083018461177c565b9392505050565b5f60408201905061199e5f83018561177c565b6119ab60208301846117eb565b9392505050565b7f4e487b71000000000000000000000000000000000000000000000000000000005f52603260045260245ffd5b5f6080820190506119f25f8301876118dc565b6119ff602083018661177c565b611a0c604083018561177c565b611a1960608301846117eb565b95945050505050565b5f82825260208201905092915050565b7f4f6e6c79206f776e65722063616e2063616c6c000000000000000000000000005f82015250565b5f611a66601383611a22565b9150611a7182611a32565b602082019050919050565b5f6020820190508181035f830152611a9381611a5a565b9050919050565b5f81519050611aa8816116e1565b92915050565b5f60208284031215611ac357611ac261167a565b5b5f611ad084828501611a9a565b91505092915050565b5f606082019050611aec5f8301866118dc565b611af9602083018561177c565b611b0660408301846117eb565b949350505050565b5f611b18826116d8565b9150611b23836116d8565b9250828203905081811115611b3b57611b3a611904565b5b92915050565b5f611b4b826116d8565b91505f8203611b5d57611b5c611904565b5b60018203905091905056fea2646970667358221220460bf08a877b9e2ca706a669fbf85613faf97b71a7d79083c35d7c5cac5d3ef264736f6c63430008160033",
					"opcodes": "PUSH1 0xE0 PUSH1 0x40 MSTORE CALLVALUE DUP1 ISZERO PUSH3 0x10 JUMPI PUSH0 DUP1 REVERT JUMPDEST POP PUSH1 0x40 MLOAD PUSH3 0x1DE8 CODESIZE SUB DUP1 PUSH3 0x1DE8 DUP4 CODECOPY DUP2 DUP2 ADD PUSH1 0x40 MSTORE DUP2 ADD SWAP1 PUSH3 0x36 SWAP2 SWAP1 PUSH3 0x1BE JUMP JUMPDEST CALLER PUSH1 0x4 PUSH0 PUSH2 0x100 EXP DUP2 SLOAD DUP2 PUSH20 0xFFFFFFFFFFFFFFFFFFFFFFFFFFFFFFFFFFFFFFFF MUL NOT AND SWAP1 DUP4 PUSH20 0xFFFFFFFFFFFFFFFFFFFFFFFFFFFFFFFFFFFFFFFF AND MUL OR SWAP1 SSTORE POP CALLER PUSH1 0x4 PUSH0 PUSH2 0x100 EXP DUP2 SLOAD DUP2 PUSH20 0xFFFFFFFFFFFFFFFFFFFFFFFFFFFFFFFFFFFFFFFF MUL NOT AND SWAP1 DUP4 PUSH20 0xFFFFFFFFFFFFFFFFFFFFFFFFFFFFFFFFFFFFFFFF AND MUL OR SWAP1 SSTORE POP DUP1 PUSH20 0xFFFFFFFFFFFFFFFFFFFFFFFFFFFFFFFFFFFFFFFF AND PUSH1 0x80 DUP2 PUSH20 0xFFFFFFFFFFFFFFFFFFFFFFFFFFFFFFFFFFFFFFFF AND DUP2 MSTORE POP POP DUP1 PUSH20 0xFFFFFFFFFFFFFFFFFFFFFFFFFFFFFFFFFFFFFFFF AND PUSH1 0xA0 DUP2 PUSH20 0xFFFFFFFFFFFFFFFFFFFFFFFFFFFFFFFFFFFFFFFF AND DUP2 MSTORE POP POP DUP1 PUSH20 0xFFFFFFFFFFFFFFFFFFFFFFFFFFFFFFFFFFFFFFFF AND PUSH1 0xC0 DUP2 PUSH20 0xFFFFFFFFFFFFFFFFFFFFFFFFFFFFFFFFFFFFFFFF AND DUP2 MSTORE POP POP POP PUSH3 0x1EE JUMP JUMPDEST PUSH0 DUP1 REVERT JUMPDEST PUSH0 PUSH20 0xFFFFFFFFFFFFFFFFFFFFFFFFFFFFFFFFFFFFFFFF DUP3 AND SWAP1 POP SWAP2 SWAP1 POP JUMP JUMPDEST PUSH0 PUSH3 0x188 DUP3 PUSH3 0x15D JUMP JUMPDEST SWAP1 POP SWAP2 SWAP1 POP JUMP JUMPDEST PUSH3 0x19A DUP2 PUSH3 0x17C JUMP JUMPDEST DUP2 EQ PUSH3 0x1A5 JUMPI PUSH0 DUP1 REVERT JUMPDEST POP JUMP JUMPDEST PUSH0 DUP2 MLOAD SWAP1 POP PUSH3 0x1B8 DUP2 PUSH3 0x18F JUMP JUMPDEST SWAP3 SWAP2 POP POP JUMP JUMPDEST PUSH0 PUSH1 0x20 DUP3 DUP5 SUB SLT ISZERO PUSH3 0x1D6 JUMPI PUSH3 0x1D5 PUSH3 0x159 JUMP JUMPDEST JUMPDEST PUSH0 PUSH3 0x1E5 DUP5 DUP3 DUP6 ADD PUSH3 0x1A8 JUMP JUMPDEST SWAP2 POP POP SWAP3 SWAP2 POP POP JUMP JUMPDEST PUSH1 0x80 MLOAD PUSH1 0xA0 MLOAD PUSH1 0xC0 MLOAD PUSH2 0x1B9E PUSH3 0x24A PUSH0 CODECOPY PUSH0 DUP2 DUP2 PUSH2 0x64E ADD MSTORE DUP2 DUP2 PUSH2 0x71C ADD MSTORE PUSH2 0x8DF ADD MSTORE PUSH0 DUP2 DUP2 PUSH2 0x5CA ADD MSTORE DUP2 DUP2 PUSH2 0x612 ADD MSTORE DUP2 DUP2 PUSH2 0x8A3 ADD MSTORE PUSH2 0x922 ADD MSTORE PUSH0 DUP2 DUP2 PUSH2 0x349 ADD MSTORE DUP2 DUP2 PUSH2 0x39D ADD MSTORE PUSH2 0x5EE ADD MSTORE PUSH2 0x1B9E PUSH0 RETURN INVALID PUSH1 0x80 PUSH1 0x40 MSTORE PUSH1 0x4 CALLDATASIZE LT PUSH2 0xC5 JUMPI PUSH0 CALLDATALOAD PUSH1 0xE0 SHR DUP1 PUSH4 0x6215BE77 GT PUSH2 0x7E JUMPI DUP1 PUSH4 0xB254B80A GT PUSH2 0x58 JUMPI DUP1 PUSH4 0xB254B80A EQ PUSH2 0x288 JUMPI DUP1 PUSH4 0xCA628C78 EQ PUSH2 0x2B4 JUMPI DUP1 PUSH4 0xE086E5EC EQ PUSH2 0x2CA JUMPI DUP1 PUSH4 0xF6326FB3 EQ PUSH2 0x2E0 JUMPI PUSH2 0xD4 JUMP JUMPDEST DUP1 PUSH4 0x6215BE77 EQ PUSH2 0x20C JUMPI DUP1 PUSH4 0x7251E8C2 EQ PUSH2 0x234 JUMPI DUP1 PUSH4 0x8DA5CB5B EQ PUSH2 0x25E JUMPI PUSH2 0xD4 JUMP JUMPDEST DUP1 PUSH4 0x24A756D1 EQ PUSH2 0xD8 JUMPI DUP1 PUSH4 0x2B7E8FAF EQ PUSH2 0x114 JUMPI DUP1 PUSH4 0x3AECD0E3 EQ PUSH2 0x140 JUMPI DUP1 PUSH4 0x3BB66A7B EQ PUSH2 0x17C JUMPI DUP1 PUSH4 0x4D3F3CF6 EQ PUSH2 0x1B8 JUMPI DUP1 PUSH4 0x5FBE4D1D EQ PUSH2 0x1E2 JUMPI PUSH2 0xD4 JUMP JUMPDEST CALLDATASIZE PUSH2 0xD4 JUMPI PUSH2 0xD2 PUSH2 0x2EA JUMP JUMPDEST STOP JUMPDEST PUSH0 DUP1 REVERT JUMPDEST CALLVALUE DUP1 ISZERO PUSH2 0xE3 JUMPI PUSH0 DUP1 REVERT JUMPDEST POP PUSH2 0xFE PUSH1 0x4 DUP1 CALLDATASIZE SUB DUP2 ADD SWAP1 PUSH2 0xF9 SWAP2 SWAP1 PUSH2 0x170B JUMP JUMPDEST PUSH2 0x346 JUMP JUMPDEST PUSH1 0x40 MLOAD PUSH2 0x10B SWAP2 SWAP1 PUSH2 0x1763 JUMP JUMPDEST PUSH1 0x40 MLOAD DUP1 SWAP2 SUB SWAP1 RETURN JUMPDEST CALLVALUE DUP1 ISZERO PUSH2 0x11F JUMPI PUSH0 DUP1 REVERT JUMPDEST POP PUSH2 0x128 PUSH2 0x48F JUMP JUMPDEST PUSH1 0x40 MLOAD PUSH2 0x137 SWAP4 SWAP3 SWAP2 SWAP1 PUSH2 0x178B JUMP JUMPDEST PUSH1 0x40 MLOAD DUP1 SWAP2 SUB SWAP1 RETURN JUMPDEST CALLVALUE DUP1 ISZERO PUSH2 0x14B JUMPI PUSH0 DUP1 REVERT JUMPDEST POP PUSH2 0x166 PUSH1 0x4 DUP1 CALLDATASIZE SUB DUP2 ADD SWAP1 PUSH2 0x161 SWAP2 SWAP1 PUSH2 0x17C0 JUMP JUMPDEST PUSH2 0x53D JUMP JUMPDEST PUSH1 0x40 MLOAD PUSH2 0x173 SWAP2 SWAP1 PUSH2 0x17FA JUMP JUMPDEST PUSH1 0x40 MLOAD DUP1 SWAP2 SUB SWAP1 RETURN JUMPDEST CALLVALUE DUP1 ISZERO PUSH2 0x187 JUMPI PUSH0 DUP1 REVERT JUMPDEST POP PUSH2 0x1A2 PUSH1 0x4 DUP1 CALLDATASIZE SUB DUP2 ADD SWAP1 PUSH2 0x19D SWAP2 SWAP1 PUSH2 0x17C0 JUMP JUMPDEST PUSH2 0x583 JUMP JUMPDEST PUSH1 0x40 MLOAD PUSH2 0x1AF SWAP2 SWAP1 PUSH2 0x17FA JUMP JUMPDEST PUSH1 0x40 MLOAD DUP1 SWAP2 SUB SWAP1 RETURN JUMPDEST CALLVALUE DUP1 ISZERO PUSH2 0x1C3 JUMPI PUSH0 DUP1 REVERT JUMPDEST POP PUSH2 0x1CC PUSH2 0x5C8 JUMP JUMPDEST PUSH1 0x40 MLOAD PUSH2 0x1D9 SWAP2 SWAP1 PUSH2 0x186E JUMP JUMPDEST PUSH1 0x40 MLOAD DUP1 SWAP2 SUB SWAP1 RETURN JUMPDEST CALLVALUE DUP1 ISZERO PUSH2 0x1ED JUMPI PUSH0 DUP1 REVERT JUMPDEST POP PUSH2 0x1F6 PUSH2 0x5EC JUMP JUMPDEST PUSH1 0x40 MLOAD PUSH2 0x203 SWAP2 SWAP1 PUSH2 0x1887 JUMP JUMPDEST PUSH1 0x40 MLOAD DUP1 SWAP2 SUB SWAP1 RETURN JUMPDEST CALLVALUE DUP1 ISZERO PUSH2 0x217 JUMPI PUSH0 DUP1 REVERT JUMPDEST POP PUSH2 0x232 PUSH1 0x4 DUP1 CALLDATASIZE SUB DUP2 ADD SWAP1 PUSH2 0x22D SWAP2 SWAP1 PUSH2 0x18A0 JUMP JUMPDEST PUSH2 0x610 JUMP JUMPDEST STOP JUMPDEST CALLVALUE DUP1 ISZERO PUSH2 0x23F JUMPI PUSH0 DUP1 REVERT JUMPDEST POP PUSH2 0x248 PUSH2 0x71A JUMP JUMPDEST PUSH1 0x40 MLOAD PUSH2 0x255 SWAP2 SWAP1 PUSH2 0x18EB JUMP JUMPDEST PUSH1 0x40 MLOAD DUP1 SWAP2 SUB SWAP1 RETURN JUMPDEST CALLVALUE DUP1 ISZERO PUSH2 0x269 JUMPI PUSH0 DUP1 REVERT JUMPDEST POP PUSH2 0x272 PUSH2 0x73E JUMP JUMPDEST PUSH1 0x40 MLOAD PUSH2 0x27F SWAP2 SWAP1 PUSH2 0x1887 JUMP JUMPDEST PUSH1 0x40 MLOAD DUP1 SWAP2 SUB SWAP1 RETURN JUMPDEST CALLVALUE DUP1 ISZERO PUSH2 0x293 JUMPI PUSH0 DUP1 REVERT JUMPDEST POP PUSH2 0x29C PUSH2 0x763 JUMP JUMPDEST PUSH1 0x40 MLOAD PUSH2 0x2AB SWAP4 SWAP3 SWAP2 SWAP1 PUSH2 0x178B JUMP JUMPDEST PUSH1 0x40 MLOAD DUP1 SWAP2 SUB SWAP1 RETURN JUMPDEST CALLVALUE DUP1 ISZERO PUSH2 0x2BF JUMPI PUSH0 DUP1 REVERT JUMPDEST POP PUSH2 0x2C8 PUSH2 0x812 JUMP JUMPDEST STOP JUMPDEST CALLVALUE DUP1 ISZERO PUSH2 0x2D5 JUMPI PUSH0 DUP1 REVERT JUMPDEST POP PUSH2 0x2DE PUSH2 0xA05 JUMP JUMPDEST STOP JUMPDEST PUSH2 0x2E8 PUSH2 0x2EA JUMP JUMPDEST STOP JUMPDEST CALLVALUE PUSH0 DUP1 CALLER PUSH20 0xFFFFFFFFFFFFFFFFFFFFFFFFFFFFFFFFFFFFFFFF AND PUSH20 0xFFFFFFFFFFFFFFFFFFFFFFFFFFFFFFFFFFFFFFFF AND DUP2 MSTORE PUSH1 0x20 ADD SWAP1 DUP2 MSTORE PUSH1 0x20 ADD PUSH0 KECCAK256 PUSH0 DUP3 DUP3 SLOAD PUSH2 0x335 SWAP2 SWAP1 PUSH2 0x1931 JUMP JUMPDEST SWAP3 POP POP DUP2 SWAP1 SSTORE POP PUSH2 0x344 PUSH2 0xAFB JUMP JUMPDEST JUMP JUMPDEST PUSH0 PUSH32 0x0 PUSH20 0xFFFFFFFFFFFFFFFFFFFFFFFFFFFFFFFFFFFFFFFF AND CALLER PUSH20 0xFFFFFFFFFFFFFFFFFFFFFFFFFFFFFFFFFFFFFFFF AND EQ PUSH2 0x3F9 JUMPI CALLER PUSH32 0x0 PUSH1 0x40 MLOAD PUSH32 0x93B7D3400000000000000000000000000000000000000000000000000000000 DUP2 MSTORE PUSH1 0x4 ADD PUSH2 0x3F0 SWAP3 SWAP2 SWAP1 PUSH2 0x1964 JUMP JUMPDEST PUSH1 0x40 MLOAD DUP1 SWAP2 SUB SWAP1 REVERT JUMPDEST DUP2 PUSH1 0x5 PUSH0 DUP6 PUSH20 0xFFFFFFFFFFFFFFFFFFFFFFFFFFFFFFFFFFFFFFFF AND PUSH20 0xFFFFFFFFFFFFFFFFFFFFFFFFFFFFFFFFFFFFFFFF AND DUP2 MSTORE PUSH1 0x20 ADD SWAP1 DUP2 MSTORE PUSH1 0x20 ADD PUSH0 KECCAK256 PUSH0 DUP3 DUP3 SLOAD PUSH2 0x445 SWAP2 SWAP1 PUSH2 0x1931 JUMP JUMPDEST SWAP3 POP POP DUP2 SWAP1 SSTORE POP PUSH32 0xCAE15051BBB38F81D4D2FB0EEBA04C25EC7FC5E1AC9D89D6D68AF8D3AAB337DC DUP4 DUP4 PUSH1 0x40 MLOAD PUSH2 0x47D SWAP3 SWAP2 SWAP1 PUSH2 0x198B JUMP JUMPDEST PUSH1 0x40 MLOAD DUP1 SWAP2 SUB SWAP1 LOG1 PUSH1 0x1 SWAP1 POP SWAP3 SWAP2 POP POP JUMP JUMPDEST PUSH0 DUP1 PUSH0 PUSH1 0x1 PUSH0 PUSH1 0x3 DUP2 LT PUSH2 0x4A6 JUMPI PUSH2 0x4A5 PUSH2 0x19B2 JUMP JUMPDEST JUMPDEST ADD PUSH0 SWAP1 SLOAD SWAP1 PUSH2 0x100 EXP SWAP1 DIV PUSH20 0xFFFFFFFFFFFFFFFFFFFFFFFFFFFFFFFFFFFFFFFF AND PUSH1 0x1 DUP1 PUSH1 0x3 DUP2 LT PUSH2 0x4DB JUMPI PUSH2 0x4DA PUSH2 0x19B2 JUMP JUMPDEST JUMPDEST ADD PUSH0 SWAP1 SLOAD SWAP1 PUSH2 0x100 EXP SWAP1 DIV PUSH20 0xFFFFFFFFFFFFFFFFFFFFFFFFFFFFFFFFFFFFFFFF AND PUSH1 0x1 PUSH1 0x2 PUSH1 0x3 DUP2 LT PUSH2 0x511 JUMPI PUSH2 0x510 PUSH2 0x19B2 JUMP JUMPDEST JUMPDEST ADD PUSH0 SWAP1 SLOAD SWAP1 PUSH2 0x100 EXP SWAP1 DIV PUSH20 0xFFFFFFFFFFFFFFFFFFFFFFFFFFFFFFFFFFFFFFFF AND SWAP3 POP SWAP3 POP SWAP3 POP SWAP1 SWAP2 SWAP3 JUMP JUMPDEST PUSH0 PUSH1 0x5 PUSH0 DUP4 PUSH20 0xFFFFFFFFFFFFFFFFFFFFFFFFFFFFFFFFFFFFFFFF AND PUSH20 0xFFFFFFFFFFFFFFFFFFFFFFFFFFFFFFFFFFFFFFFF AND DUP2 MSTORE PUSH1 0x20 ADD SWAP1 DUP2 MSTORE PUSH1 0x20 ADD PUSH0 KECCAK256 SLOAD SWAP1 POP SWAP2 SWAP1 POP JUMP JUMPDEST PUSH0 DUP1 PUSH0 DUP4 PUSH20 0xFFFFFFFFFFFFFFFFFFFFFFFFFFFFFFFFFFFFFFFF AND PUSH20 0xFFFFFFFFFFFFFFFFFFFFFFFFFFFFFFFFFFFFFFFF AND DUP2 MSTORE PUSH1 0x20 ADD SWAP1 DUP2 MSTORE PUSH1 0x20 ADD PUSH0 KECCAK256 SLOAD SWAP1 POP SWAP2 SWAP1 POP JUMP JUMPDEST PUSH32 0x0 DUP2 JUMP JUMPDEST PUSH32 0x0 DUP2 JUMP JUMPDEST PUSH32 0x0 PUSH20 0xFFFFFFFFFFFFFFFFFFFFFFFFFFFFFFFFFFFFFFFF AND PUSH4 0xD9FC4B61 PUSH32 0x0 CALLER ADDRESS DUP6 PUSH1 0x40 MLOAD DUP6 PUSH4 0xFFFFFFFF AND PUSH1 0xE0 SHL DUP2 MSTORE PUSH1 0x4 ADD PUSH2 0x68F SWAP5 SWAP4 SWAP3 SWAP2 SWAP1 PUSH2 0x19DF JUMP JUMPDEST PUSH0 PUSH1 0x40 MLOAD DUP1 DUP4 SUB DUP2 PUSH0 DUP8 DUP1 EXTCODESIZE ISZERO DUP1 ISZERO PUSH2 0x6A6 JUMPI PUSH0 DUP1 REVERT JUMPDEST POP GAS CALL ISZERO DUP1 ISZERO PUSH2 0x6B8 JUMPI RETURNDATASIZE PUSH0 DUP1 RETURNDATACOPY RETURNDATASIZE PUSH0 REVERT JUMPDEST POP POP POP POP DUP1 PUSH1 0x5 PUSH0 CALLER PUSH20 0xFFFFFFFFFFFFFFFFFFFFFFFFFFFFFFFFFFFFFFFF AND PUSH20 0xFFFFFFFFFFFFFFFFFFFFFFFFFFFFFFFFFFFFFFFF AND DUP2 MSTORE PUSH1 0x20 ADD SWAP1 DUP2 MSTORE PUSH1 0x20 ADD PUSH0 KECCAK256 PUSH0 DUP3 DUP3 SLOAD PUSH2 0x708 SWAP2 SWAP1 PUSH2 0x1931 JUMP JUMPDEST SWAP3 POP POP DUP2 SWAP1 SSTORE POP PUSH2 0x717 PUSH2 0x1021 JUMP JUMPDEST POP JUMP JUMPDEST PUSH32 0x0 DUP2 JUMP JUMPDEST PUSH1 0x4 PUSH0 SWAP1 SLOAD SWAP1 PUSH2 0x100 EXP SWAP1 DIV PUSH20 0xFFFFFFFFFFFFFFFFFFFFFFFFFFFFFFFFFFFFFFFF AND DUP2 JUMP JUMPDEST PUSH0 DUP1 PUSH0 PUSH1 0x6 PUSH0 PUSH1 0x3 DUP2 LT PUSH2 0x77A JUMPI PUSH2 0x779 PUSH2 0x19B2 JUMP JUMPDEST JUMPDEST ADD PUSH0 SWAP1 SLOAD SWAP1 PUSH2 0x100 EXP SWAP1 DIV PUSH20 0xFFFFFFFFFFFFFFFFFFFFFFFFFFFFFFFFFFFFFFFF AND PUSH1 0x6 PUSH1 0x1 PUSH1 0x3 DUP2 LT PUSH2 0x7B0 JUMPI PUSH2 0x7AF PUSH2 0x19B2 JUMP JUMPDEST JUMPDEST ADD PUSH0 SWAP1 SLOAD SWAP1 PUSH2 0x100 EXP SWAP1 DIV PUSH20 0xFFFFFFFFFFFFFFFFFFFFFFFFFFFFFFFFFFFFFFFF AND PUSH1 0x6 PUSH1 0x2 PUSH1 0x3 DUP2 LT PUSH2 0x7E6 JUMPI PUSH2 0x7E5 PUSH2 0x19B2 JUMP JUMPDEST JUMPDEST ADD PUSH0 SWAP1 SLOAD SWAP1 PUSH2 0x100 EXP SWAP1 DIV PUSH20 0xFFFFFFFFFFFFFFFFFFFFFFFFFFFFFFFFFFFFFFFF AND SWAP3 POP SWAP3 POP SWAP3 POP SWAP1 SWAP2 SWAP3 JUMP JUMPDEST PUSH1 0x4 PUSH0 SWAP1 SLOAD SWAP1 PUSH2 0x100 EXP SWAP1 DIV PUSH20 0xFFFFFFFFFFFFFFFFFFFFFFFFFFFFFFFFFFFFFFFF AND PUSH20 0xFFFFFFFFFFFFFFFFFFFFFFFFFFFFFFFFFFFFFFFF AND CALLER PUSH20 0xFFFFFFFFFFFFFFFFFFFFFFFFFFFFFFFFFFFFFFFF AND EQ PUSH2 0x8A1 JUMPI PUSH1 0x40 MLOAD PUSH32 0x8C379A000000000000000000000000000000000000000000000000000000000 DUP2 MSTORE PUSH1 0x4 ADD PUSH2 0x898 SWAP1 PUSH2 0x1A7C JUMP JUMPDEST PUSH1 0x40 MLOAD DUP1 SWAP2 SUB SWAP1 REVERT JUMPDEST PUSH32 0x0 PUSH20 0xFFFFFFFFFFFFFFFFFFFFFFFFFFFFFFFFFFFFFFFF AND PUSH4 0xD1660F99 PUSH32 0x0 PUSH1 0x4 PUSH0 SWAP1 SLOAD SWAP1 PUSH2 0x100 EXP SWAP1 DIV PUSH20 0xFFFFFFFFFFFFFFFFFFFFFFFFFFFFFFFFFFFFFFFF AND PUSH32 0x0 PUSH20 0xFFFFFFFFFFFFFFFFFFFFFFFFFFFFFFFFFFFFFFFF AND PUSH4 0x70A08231 ADDRESS PUSH1 0x40 MLOAD DUP3 PUSH4 0xFFFFFFFF AND PUSH1 0xE0 SHL DUP2 MSTORE PUSH1 0x4 ADD PUSH2 0x979 SWAP2 SWAP1 PUSH2 0x1887 JUMP JUMPDEST PUSH1 0x20 PUSH1 0x40 MLOAD DUP1 DUP4 SUB DUP2 DUP7 GAS STATICCALL ISZERO DUP1 ISZERO PUSH2 0x994 JUMPI RETURNDATASIZE PUSH0 DUP1 RETURNDATACOPY RETURNDATASIZE PUSH0 REVERT JUMPDEST POP POP POP POP PUSH1 0x40 MLOAD RETURNDATASIZE PUSH1 0x1F NOT PUSH1 0x1F DUP3 ADD AND DUP3 ADD DUP1 PUSH1 0x40 MSTORE POP DUP2 ADD SWAP1 PUSH2 0x9B8 SWAP2 SWAP1 PUSH2 0x1AAE JUMP JUMPDEST PUSH1 0x40 MLOAD DUP5 PUSH4 0xFFFFFFFF AND PUSH1 0xE0 SHL DUP2 MSTORE PUSH1 0x4 ADD PUSH2 0x9D6 SWAP4 SWAP3 SWAP2 SWAP1 PUSH2 0x1AD9 JUMP JUMPDEST PUSH0 PUSH1 0x40 MLOAD DUP1 DUP4 SUB DUP2 PUSH0 DUP8 DUP1 EXTCODESIZE ISZERO DUP1 ISZERO PUSH2 0x9ED JUMPI PUSH0 DUP1 REVERT JUMPDEST POP GAS CALL ISZERO DUP1 ISZERO PUSH2 0x9FF JUMPI RETURNDATASIZE PUSH0 DUP1 RETURNDATACOPY RETURNDATASIZE PUSH0 REVERT JUMPDEST POP POP POP POP JUMP JUMPDEST PUSH1 0x4 PUSH0 SWAP1 SLOAD SWAP1 PUSH2 0x100 EXP SWAP1 DIV PUSH20 0xFFFFFFFFFFFFFFFFFFFFFFFFFFFFFFFFFFFFFFFF AND PUSH20 0xFFFFFFFFFFFFFFFFFFFFFFFFFFFFFFFFFFFFFFFF AND CALLER PUSH20 0xFFFFFFFFFFFFFFFFFFFFFFFFFFFFFFFFFFFFFFFF AND EQ PUSH2 0xA94 JUMPI PUSH1 0x40 MLOAD PUSH32 0x8C379A000000000000000000000000000000000000000000000000000000000 DUP2 MSTORE PUSH1 0x4 ADD PUSH2 0xA8B SWAP1 PUSH2 0x1A7C JUMP JUMPDEST PUSH1 0x40 MLOAD DUP1 SWAP2 SUB SWAP1 REVERT JUMPDEST PUSH1 0x4 PUSH0 SWAP1 SLOAD SWAP1 PUSH2 0x100 EXP SWAP1 DIV PUSH20 0xFFFFFFFFFFFFFFFFFFFFFFFFFFFFFFFFFFFFFFFF AND PUSH20 0xFFFFFFFFFFFFFFFFFFFFFFFFFFFFFFFFFFFFFFFF AND PUSH2 0x8FC SELFBALANCE SWAP1 DUP2 ISZERO MUL SWAP1 PUSH1 0x40 MLOAD PUSH0 PUSH1 0x40 MLOAD DUP1 DUP4 SUB DUP2 DUP6 DUP9 DUP9 CALL SWAP4 POP POP POP POP ISZERO DUP1 ISZERO PUSH2 0xAF8 JUMPI RETURNDATASIZE PUSH0 DUP1 RETURNDATACOPY RETURNDATASIZE PUSH0 REVERT JUMPDEST POP JUMP JUMPDEST PUSH0 PUSH2 0xB04 PUSH2 0x154E JUMP JUMPDEST SWAP1 POP PUSH0 DUP1 PUSH2 0x309 SWAP1 POP PUSH2 0x3E7 DUP4 EQ PUSH2 0xDAD JUMPI PUSH1 0x4 DUP4 PUSH2 0xB23 SWAP2 SWAP1 PUSH2 0x1931 JUMP JUMPDEST SWAP2 POP PUSH0 PUSH1 0x3 DUP4 PUSH2 0xB33 SWAP2 SWAP1 PUSH2 0x1B0E JUMP JUMPDEST SWAP1 POP JUMPDEST PUSH1 0x1 DUP2 GT ISZERO PUSH2 0xDA7 JUMPI PUSH0 DUP5 EQ PUSH2 0xD94 JUMPI PUSH0 DUP1 PUSH1 0x1 PUSH1 0x2 DUP5 PUSH2 0xB57 SWAP2 SWAP1 PUSH2 0x1B0E JUMP JUMPDEST PUSH1 0x3 DUP2 LT PUSH2 0xB68 JUMPI PUSH2 0xB67 PUSH2 0x19B2 JUMP JUMPDEST JUMPDEST ADD PUSH0 SWAP1 SLOAD SWAP1 PUSH2 0x100 EXP SWAP1 DIV PUSH20 0xFFFFFFFFFFFFFFFFFFFFFFFFFFFFFFFFFFFFFFFF AND PUSH20 0xFFFFFFFFFFFFFFFFFFFFFFFFFFFFFFFFFFFFFFFF AND PUSH20 0xFFFFFFFFFFFFFFFFFFFFFFFFFFFFFFFFFFFFFFFF AND DUP2 MSTORE PUSH1 0x20 ADD SWAP1 DUP2 MSTORE PUSH1 0x20 ADD PUSH0 KECCAK256 SLOAD PUSH0 DUP1 CALLER PUSH20 0xFFFFFFFFFFFFFFFFFFFFFFFFFFFFFFFFFFFFFFFF AND PUSH20 0xFFFFFFFFFFFFFFFFFFFFFFFFFFFFFFFFFFFFFFFF AND DUP2 MSTORE PUSH1 0x20 ADD SWAP1 DUP2 MSTORE PUSH1 0x20 ADD PUSH0 KECCAK256 SLOAD GT ISZERO PUSH2 0xD35 JUMPI PUSH1 0x2 DUP2 PUSH2 0xC13 SWAP2 SWAP1 PUSH2 0x1B0E JUMP JUMPDEST SWAP2 POP PUSH0 PUSH1 0x2 SWAP1 POP JUMPDEST PUSH1 0x2 DUP3 PUSH2 0xC28 SWAP2 SWAP1 PUSH2 0x1B0E JUMP JUMPDEST DUP2 GT ISZERO PUSH2 0xCD4 JUMPI PUSH1 0x1 DUP1 DUP3 PUSH2 0xC3D SWAP2 SWAP1 PUSH2 0x1B0E JUMP JUMPDEST PUSH1 0x3 DUP2 LT PUSH2 0xC4E JUMPI PUSH2 0xC4D PUSH2 0x19B2 JUMP JUMPDEST JUMPDEST ADD PUSH0 SWAP1 SLOAD SWAP1 PUSH2 0x100 EXP SWAP1 DIV PUSH20 0xFFFFFFFFFFFFFFFFFFFFFFFFFFFFFFFFFFFFFFFF AND PUSH1 0x1 DUP3 PUSH1 0x3 DUP2 LT PUSH2 0xC83 JUMPI PUSH2 0xC82 PUSH2 0x19B2 JUMP JUMPDEST JUMPDEST ADD PUSH0 PUSH2 0x100 EXP DUP2 SLOAD DUP2 PUSH20 0xFFFFFFFFFFFFFFFFFFFFFFFFFFFFFFFFFFFFFFFF MUL NOT AND SWAP1 DUP4 PUSH20 0xFFFFFFFFFFFFFFFFFFFFFFFFFFFFFFFFFFFFFFFF AND MUL OR SWAP1 SSTORE POP DUP1 DUP1 PUSH2 0xCCC SWAP1 PUSH2 0x1B41 JUMP JUMPDEST SWAP2 POP POP PUSH2 0xC1B JUMP JUMPDEST POP PUSH0 DUP3 SUB PUSH2 0xD30 JUMPI CALLER PUSH1 0x1 DUP4 PUSH1 0x3 DUP2 LT PUSH2 0xCF1 JUMPI PUSH2 0xCF0 PUSH2 0x19B2 JUMP JUMPDEST JUMPDEST ADD PUSH0 PUSH2 0x100 EXP DUP2 SLOAD DUP2 PUSH20 0xFFFFFFFFFFFFFFFFFFFFFFFFFFFFFFFFFFFFFFFF MUL NOT AND SWAP1 DUP4 PUSH20 0xFFFFFFFFFFFFFFFFFFFFFFFFFFFFFFFFFFFFFFFF AND MUL OR SWAP1 SSTORE POP JUMPDEST PUSH2 0xD93 JUMP JUMPDEST PUSH2 0x309 DUP3 EQ PUSH2 0xD92 JUMPI CALLER PUSH1 0x1 DUP4 PUSH1 0x3 DUP2 LT PUSH2 0xD53 JUMPI PUSH2 0xD52 PUSH2 0x19B2 JUMP JUMPDEST JUMPDEST ADD PUSH0 PUSH2 0x100 EXP DUP2 SLOAD DUP2 PUSH20 0xFFFFFFFFFFFFFFFFFFFFFFFFFFFFFFFFFFFFFFFF MUL NOT AND SWAP1 DUP4 PUSH20 0xFFFFFFFFFFFFFFFFFFFFFFFFFFFFFFFFFFFFFFFF AND MUL OR SWAP1 SSTORE POP JUMPDEST JUMPDEST JUMPDEST DUP1 DUP1 PUSH2 0xD9F SWAP1 PUSH2 0x1B41 JUMP JUMPDEST SWAP2 POP POP PUSH2 0xB36 JUMP JUMPDEST POP PUSH2 0x101C JUMP JUMPDEST PUSH0 PUSH1 0x3 SWAP1 POP JUMPDEST PUSH0 DUP2 GT ISZERO PUSH2 0x101A JUMPI PUSH0 DUP1 PUSH1 0x1 DUP1 DUP5 PUSH2 0xDCB SWAP2 SWAP1 PUSH2 0x1B0E JUMP JUMPDEST PUSH1 0x3 DUP2 LT PUSH2 0xDDC JUMPI PUSH2 0xDDB PUSH2 0x19B2 JUMP JUMPDEST JUMPDEST ADD PUSH0 SWAP1 SLOAD SWAP1 PUSH2 0x100 EXP SWAP1 DIV PUSH20 0xFFFFFFFFFFFFFFFFFFFFFFFFFFFFFFFFFFFFFFFF AND PUSH20 0xFFFFFFFFFFFFFFFFFFFFFFFFFFFFFFFFFFFFFFFF AND PUSH20 0xFFFFFFFFFFFFFFFFFFFFFFFFFFFFFFFFFFFFFFFF AND DUP2 MSTORE PUSH1 0x20 ADD SWAP1 DUP2 MSTORE PUSH1 0x20 ADD PUSH0 KECCAK256 SLOAD PUSH0 DUP1 CALLER PUSH20 0xFFFFFFFFFFFFFFFFFFFFFFFFFFFFFFFFFFFFFFFF AND PUSH20 0xFFFFFFFFFFFFFFFFFFFFFFFFFFFFFFFFFFFFFFFF AND DUP2 MSTORE PUSH1 0x20 ADD SWAP1 DUP2 MSTORE PUSH1 0x20 ADD PUSH0 KECCAK256 SLOAD GT ISZERO PUSH2 0xFA9 JUMPI PUSH1 0x1 DUP2 PUSH2 0xE87 SWAP2 SWAP1 PUSH2 0x1B0E JUMP JUMPDEST SWAP2 POP PUSH0 PUSH1 0x2 SWAP1 POP JUMPDEST PUSH1 0x1 DUP3 PUSH2 0xE9C SWAP2 SWAP1 PUSH2 0x1B0E JUMP JUMPDEST DUP2 GT ISZERO PUSH2 0xF48 JUMPI PUSH1 0x1 DUP1 DUP3 PUSH2 0xEB1 SWAP2 SWAP1 PUSH2 0x1B0E JUMP JUMPDEST PUSH1 0x3 DUP2 LT PUSH2 0xEC2 JUMPI PUSH2 0xEC1 PUSH2 0x19B2 JUMP JUMPDEST JUMPDEST ADD PUSH0 SWAP1 SLOAD SWAP1 PUSH2 0x100 EXP SWAP1 DIV PUSH20 0xFFFFFFFFFFFFFFFFFFFFFFFFFFFFFFFFFFFFFFFF AND PUSH1 0x1 DUP3 PUSH1 0x3 DUP2 LT PUSH2 0xEF7 JUMPI PUSH2 0xEF6 PUSH2 0x19B2 JUMP JUMPDEST JUMPDEST ADD PUSH0 PUSH2 0x100 EXP DUP2 SLOAD DUP2 PUSH20 0xFFFFFFFFFFFFFFFFFFFFFFFFFFFFFFFFFFFFFFFF MUL NOT AND SWAP1 DUP4 PUSH20 0xFFFFFFFFFFFFFFFFFFFFFFFFFFFFFFFFFFFFFFFF AND MUL OR SWAP1 SSTORE POP DUP1 DUP1 PUSH2 0xF40 SWAP1 PUSH2 0x1B41 JUMP JUMPDEST SWAP2 POP POP PUSH2 0xE8F JUMP JUMPDEST POP PUSH0 DUP3 SUB PUSH2 0xFA4 JUMPI CALLER PUSH1 0x1 DUP4 PUSH1 0x3 DUP2 LT PUSH2 0xF65 JUMPI PUSH2 0xF64 PUSH2 0x19B2 JUMP JUMPDEST JUMPDEST ADD PUSH0 PUSH2 0x100 EXP DUP2 SLOAD DUP2 PUSH20 0xFFFFFFFFFFFFFFFFFFFFFFFFFFFFFFFFFFFFFFFF MUL NOT AND SWAP1 DUP4 PUSH20 0xFFFFFFFFFFFFFFFFFFFFFFFFFFFFFFFFFFFFFFFF AND MUL OR SWAP1 SSTORE POP JUMPDEST PUSH2 0x1007 JUMP JUMPDEST PUSH2 0x309 DUP3 EQ PUSH2 0x1006 JUMPI CALLER PUSH1 0x1 DUP4 PUSH1 0x3 DUP2 LT PUSH2 0xFC7 JUMPI PUSH2 0xFC6 PUSH2 0x19B2 JUMP JUMPDEST JUMPDEST ADD PUSH0 PUSH2 0x100 EXP DUP2 SLOAD DUP2 PUSH20 0xFFFFFFFFFFFFFFFFFFFFFFFFFFFFFFFFFFFFFFFF MUL NOT AND SWAP1 DUP4 PUSH20 0xFFFFFFFFFFFFFFFFFFFFFFFFFFFFFFFFFFFFFFFF AND MUL OR SWAP1 SSTORE POP JUMPDEST JUMPDEST DUP1 DUP1 PUSH2 0x1012 SWAP1 PUSH2 0x1B41 JUMP JUMPDEST SWAP2 POP POP PUSH2 0xDB3 JUMP JUMPDEST POP JUMPDEST POP POP POP JUMP JUMPDEST PUSH0 PUSH2 0x102A PUSH2 0x15E4 JUMP JUMPDEST SWAP1 POP PUSH0 DUP1 PUSH2 0x309 SWAP1 POP PUSH2 0x3E7 DUP4 EQ PUSH2 0x12D6 JUMPI PUSH1 0x4 DUP4 PUSH2 0x1049 SWAP2 SWAP1 PUSH2 0x1931 JUMP JUMPDEST SWAP2 POP PUSH0 PUSH1 0x3 DUP4 PUSH2 0x1059 SWAP2 SWAP1 PUSH2 0x1B0E JUMP JUMPDEST SWAP1 POP JUMPDEST PUSH1 0x1 DUP2 GT ISZERO PUSH2 0x12D0 JUMPI PUSH0 DUP5 EQ PUSH2 0x12BD JUMPI PUSH1 0x5 PUSH0 PUSH1 0x6 PUSH1 0x2 DUP5 PUSH2 0x107E SWAP2 SWAP1 PUSH2 0x1B0E JUMP JUMPDEST PUSH1 0x3 DUP2 LT PUSH2 0x108F JUMPI PUSH2 0x108E PUSH2 0x19B2 JUMP JUMPDEST JUMPDEST ADD PUSH0 SWAP1 SLOAD SWAP1 PUSH2 0x100 EXP SWAP1 DIV PUSH20 0xFFFFFFFFFFFFFFFFFFFFFFFFFFFFFFFFFFFFFFFF AND PUSH20 0xFFFFFFFFFFFFFFFFFFFFFFFFFFFFFFFFFFFFFFFF AND PUSH20 0xFFFFFFFFFFFFFFFFFFFFFFFFFFFFFFFFFFFFFFFF AND DUP2 MSTORE PUSH1 0x20 ADD SWAP1 DUP2 MSTORE PUSH1 0x20 ADD PUSH0 KECCAK256 SLOAD PUSH1 0x5 PUSH0 CALLER PUSH20 0xFFFFFFFFFFFFFFFFFFFFFFFFFFFFFFFFFFFFFFFF AND PUSH20 0xFFFFFFFFFFFFFFFFFFFFFFFFFFFFFFFFFFFFFFFF AND DUP2 MSTORE PUSH1 0x20 ADD SWAP1 DUP2 MSTORE PUSH1 0x20 ADD PUSH0 KECCAK256 SLOAD GT ISZERO PUSH2 0x125E JUMPI PUSH1 0x2 DUP2 PUSH2 0x113B SWAP2 SWAP1 PUSH2 0x1B0E JUMP JUMPDEST SWAP2 POP PUSH0 PUSH1 0x2 SWAP1 POP JUMPDEST PUSH1 0x2 DUP3 PUSH2 0x1150 SWAP2 SWAP1 PUSH2 0x1B0E JUMP JUMPDEST DUP2 GT ISZERO PUSH2 0x11FD JUMPI PUSH1 0x6 PUSH1 0x1 DUP3 PUSH2 0x1166 SWAP2 SWAP1 PUSH2 0x1B0E JUMP JUMPDEST PUSH1 0x3 DUP2 LT PUSH2 0x1177 JUMPI PUSH2 0x1176 PUSH2 0x19B2 JUMP JUMPDEST JUMPDEST ADD PUSH0 SWAP1 SLOAD SWAP1 PUSH2 0x100 EXP SWAP1 DIV PUSH20 0xFFFFFFFFFFFFFFFFFFFFFFFFFFFFFFFFFFFFFFFF AND PUSH1 0x6 DUP3 PUSH1 0x3 DUP2 LT PUSH2 0x11AC JUMPI PUSH2 0x11AB PUSH2 0x19B2 JUMP JUMPDEST JUMPDEST ADD PUSH0 PUSH2 0x100 EXP DUP2 SLOAD DUP2 PUSH20 0xFFFFFFFFFFFFFFFFFFFFFFFFFFFFFFFFFFFFFFFF MUL NOT AND SWAP1 DUP4 PUSH20 0xFFFFFFFFFFFFFFFFFFFFFFFFFFFFFFFFFFFFFFFF AND MUL OR SWAP1 SSTORE POP DUP1 DUP1 PUSH2 0x11F5 SWAP1 PUSH2 0x1B41 JUMP JUMPDEST SWAP2 POP POP PUSH2 0x1143 JUMP JUMPDEST POP PUSH0 DUP3 SUB PUSH2 0x1259 JUMPI CALLER PUSH1 0x6 DUP4 PUSH1 0x3 DUP2 LT PUSH2 0x121A JUMPI PUSH2 0x1219 PUSH2 0x19B2 JUMP JUMPDEST JUMPDEST ADD PUSH0 PUSH2 0x100 EXP DUP2 SLOAD DUP2 PUSH20 0xFFFFFFFFFFFFFFFFFFFFFFFFFFFFFFFFFFFFFFFF MUL NOT AND SWAP1 DUP4 PUSH20 0xFFFFFFFFFFFFFFFFFFFFFFFFFFFFFFFFFFFFFFFF AND MUL OR SWAP1 SSTORE POP JUMPDEST PUSH2 0x12BC JUMP JUMPDEST PUSH2 0x309 DUP3 EQ PUSH2 0x12BB JUMPI CALLER PUSH1 0x6 DUP4 PUSH1 0x3 DUP2 LT PUSH2 0x127C JUMPI PUSH2 0x127B PUSH2 0x19B2 JUMP JUMPDEST JUMPDEST ADD PUSH0 PUSH2 0x100 EXP DUP2 SLOAD DUP2 PUSH20 0xFFFFFFFFFFFFFFFFFFFFFFFFFFFFFFFFFFFFFFFF MUL NOT AND SWAP1 DUP4 PUSH20 0xFFFFFFFFFFFFFFFFFFFFFFFFFFFFFFFFFFFFFFFF AND MUL OR SWAP1 SSTORE POP JUMPDEST JUMPDEST JUMPDEST DUP1 DUP1 PUSH2 0x12C8 SWAP1 PUSH2 0x1B41 JUMP JUMPDEST SWAP2 POP POP PUSH2 0x105C JUMP JUMPDEST POP PUSH2 0x1549 JUMP JUMPDEST PUSH0 PUSH1 0x3 SWAP1 POP JUMPDEST PUSH0 DUP2 GT ISZERO PUSH2 0x1547 JUMPI PUSH1 0x5 PUSH0 PUSH1 0x6 PUSH1 0x1 DUP5 PUSH2 0x12F6 SWAP2 SWAP1 PUSH2 0x1B0E JUMP JUMPDEST PUSH1 0x3 DUP2 LT PUSH2 0x1307 JUMPI PUSH2 0x1306 PUSH2 0x19B2 JUMP JUMPDEST JUMPDEST ADD PUSH0 SWAP1 SLOAD SWAP1 PUSH2 0x100 EXP SWAP1 DIV PUSH20 0xFFFFFFFFFFFFFFFFFFFFFFFFFFFFFFFFFFFFFFFF AND PUSH20 0xFFFFFFFFFFFFFFFFFFFFFFFFFFFFFFFFFFFFFFFF AND PUSH20 0xFFFFFFFFFFFFFFFFFFFFFFFFFFFFFFFFFFFFFFFF AND DUP2 MSTORE PUSH1 0x20 ADD SWAP1 DUP2 MSTORE PUSH1 0x20 ADD PUSH0 KECCAK256 SLOAD PUSH1 0x5 PUSH0 CALLER PUSH20 0xFFFFFFFFFFFFFFFFFFFFFFFFFFFFFFFFFFFFFFFF AND PUSH20 0xFFFFFFFFFFFFFFFFFFFFFFFFFFFFFFFFFFFFFFFF AND DUP2 MSTORE PUSH1 0x20 ADD SWAP1 DUP2 MSTORE PUSH1 0x20 ADD PUSH0 KECCAK256 SLOAD GT ISZERO PUSH2 0x14D6 JUMPI PUSH1 0x1 DUP2 PUSH2 0x13B3 SWAP2 SWAP1 PUSH2 0x1B0E JUMP JUMPDEST SWAP2 POP PUSH0 PUSH1 0x2 SWAP1 POP JUMPDEST PUSH1 0x1 DUP3 PUSH2 0x13C8 SWAP2 SWAP1 PUSH2 0x1B0E JUMP JUMPDEST DUP2 GT ISZERO PUSH2 0x1475 JUMPI PUSH1 0x6 PUSH1 0x1 DUP3 PUSH2 0x13DE SWAP2 SWAP1 PUSH2 0x1B0E JUMP JUMPDEST PUSH1 0x3 DUP2 LT PUSH2 0x13EF JUMPI PUSH2 0x13EE PUSH2 0x19B2 JUMP JUMPDEST JUMPDEST ADD PUSH0 SWAP1 SLOAD SWAP1 PUSH2 0x100 EXP SWAP1 DIV PUSH20 0xFFFFFFFFFFFFFFFFFFFFFFFFFFFFFFFFFFFFFFFF AND PUSH1 0x6 DUP3 PUSH1 0x3 DUP2 LT PUSH2 0x1424 JUMPI PUSH2 0x1423 PUSH2 0x19B2 JUMP JUMPDEST JUMPDEST ADD PUSH0 PUSH2 0x100 EXP DUP2 SLOAD DUP2 PUSH20 0xFFFFFFFFFFFFFFFFFFFFFFFFFFFFFFFFFFFFFFFF MUL NOT AND SWAP1 DUP4 PUSH20 0xFFFFFFFFFFFFFFFFFFFFFFFFFFFFFFFFFFFFFFFF AND MUL OR SWAP1 SSTORE POP DUP1 DUP1 PUSH2 0x146D SWAP1 PUSH2 0x1B41 JUMP JUMPDEST SWAP2 POP POP PUSH2 0x13BB JUMP JUMPDEST POP PUSH0 DUP3 SUB PUSH2 0x14D1 JUMPI CALLER PUSH1 0x6 DUP4 PUSH1 0x3 DUP2 LT PUSH2 0x1492 JUMPI PUSH2 0x1491 PUSH2 0x19B2 JUMP JUMPDEST JUMPDEST ADD PUSH0 PUSH2 0x100 EXP DUP2 SLOAD DUP2 PUSH20 0xFFFFFFFFFFFFFFFFFFFFFFFFFFFFFFFFFFFFFFFF MUL NOT AND SWAP1 DUP4 PUSH20 0xFFFFFFFFFFFFFFFFFFFFFFFFFFFFFFFFFFFFFFFF AND MUL OR SWAP1 SSTORE POP JUMPDEST PUSH2 0x1534 JUMP JUMPDEST PUSH2 0x309 DUP3 EQ PUSH2 0x1533 JUMPI CALLER PUSH1 0x6 DUP4 PUSH1 0x3 DUP2 LT PUSH2 0x14F4 JUMPI PUSH2 0x14F3 PUSH2 0x19B2 JUMP JUMPDEST JUMPDEST ADD PUSH0 PUSH2 0x100 EXP DUP2 SLOAD DUP2 PUSH20 0xFFFFFFFFFFFFFFFFFFFFFFFFFFFFFFFFFFFFFFFF MUL NOT AND SWAP1 DUP4 PUSH20 0xFFFFFFFFFFFFFFFFFFFFFFFFFFFFFFFFFFFFFFFF AND MUL OR SWAP1 SSTORE POP JUMPDEST JUMPDEST DUP1 DUP1 PUSH2 0x153F SWAP1 PUSH2 0x1B41 JUMP JUMPDEST SWAP2 POP POP PUSH2 0x12DC JUMP JUMPDEST POP JUMPDEST POP POP POP JUMP JUMPDEST PUSH0 DUP1 PUSH2 0x3E7 SWAP1 POP PUSH0 JUMPDEST PUSH1 0x3 DUP2 LT ISZERO PUSH2 0x15DC JUMPI CALLER PUSH20 0xFFFFFFFFFFFFFFFFFFFFFFFFFFFFFFFFFFFFFFFF AND PUSH1 0x1 DUP3 PUSH1 0x3 DUP2 LT PUSH2 0x158B JUMPI PUSH2 0x158A PUSH2 0x19B2 JUMP JUMPDEST JUMPDEST ADD PUSH0 SWAP1 SLOAD SWAP1 PUSH2 0x100 EXP SWAP1 DIV PUSH20 0xFFFFFFFFFFFFFFFFFFFFFFFFFFFFFFFFFFFFFFFF AND PUSH20 0xFFFFFFFFFFFFFFFFFFFFFFFFFFFFFFFFFFFFFFFF AND SUB PUSH2 0x15CF JUMPI DUP1 SWAP2 POP PUSH2 0x15DC JUMP JUMPDEST DUP1 DUP1 PUSH1 0x1 ADD SWAP2 POP POP PUSH2 0x1557 JUMP JUMPDEST POP DUP1 SWAP2 POP POP SWAP1 JUMP JUMPDEST PUSH0 DUP1 PUSH2 0x3E7 SWAP1 POP PUSH0 JUMPDEST PUSH1 0x3 DUP2 LT ISZERO PUSH2 0x1672 JUMPI CALLER PUSH20 0xFFFFFFFFFFFFFFFFFFFFFFFFFFFFFFFFFFFFFFFF AND PUSH1 0x6 DUP3 PUSH1 0x3 DUP2 LT PUSH2 0x1621 JUMPI PUSH2 0x1620 PUSH2 0x19B2 JUMP JUMPDEST JUMPDEST ADD PUSH0 SWAP1 SLOAD SWAP1 PUSH2 0x100 EXP SWAP1 DIV PUSH20 0xFFFFFFFFFFFFFFFFFFFFFFFFFFFFFFFFFFFFFFFF AND PUSH20 0xFFFFFFFFFFFFFFFFFFFFFFFFFFFFFFFFFFFFFFFF AND SUB PUSH2 0x1665 JUMPI DUP1 SWAP2 POP PUSH2 0x1672 JUMP JUMPDEST DUP1 DUP1 PUSH1 0x1 ADD SWAP2 POP POP PUSH2 0x15ED JUMP JUMPDEST POP DUP1 SWAP2 POP POP SWAP1 JUMP JUMPDEST PUSH0 DUP1 REVERT JUMPDEST PUSH0 PUSH20 0xFFFFFFFFFFFFFFFFFFFFFFFFFFFFFFFFFFFFFFFF DUP3 AND SWAP1 POP SWAP2 SWAP1 POP JUMP JUMPDEST PUSH0 PUSH2 0x16A7 DUP3 PUSH2 0x167E JUMP JUMPDEST SWAP1 POP SWAP2 SWAP1 POP JUMP JUMPDEST PUSH2 0x16B7 DUP2 PUSH2 0x169D JUMP JUMPDEST DUP2 EQ PUSH2 0x16C1 JUMPI PUSH0 DUP1 REVERT JUMPDEST POP JUMP JUMPDEST PUSH0 DUP2 CALLDATALOAD SWAP1 POP PUSH2 0x16D2 DUP2 PUSH2 0x16AE JUMP JUMPDEST SWAP3 SWAP2 POP POP JUMP JUMPDEST PUSH0 DUP2 SWAP1 POP SWAP2 SWAP1 POP JUMP JUMPDEST PUSH2 0x16EA DUP2 PUSH2 0x16D8 JUMP JUMPDEST DUP2 EQ PUSH2 0x16F4 JUMPI PUSH0 DUP1 REVERT JUMPDEST POP JUMP JUMPDEST PUSH0 DUP2 CALLDATALOAD SWAP1 POP PUSH2 0x1705 DUP2 PUSH2 0x16E1 JUMP JUMPDEST SWAP3 SWAP2 POP POP JUMP JUMPDEST PUSH0 DUP1 PUSH1 0x40 DUP4 DUP6 SUB SLT ISZERO PUSH2 0x1721 JUMPI PUSH2 0x1720 PUSH2 0x167A JUMP JUMPDEST JUMPDEST PUSH0 PUSH2 0x172E DUP6 DUP3 DUP7 ADD PUSH2 0x16C4 JUMP JUMPDEST SWAP3 POP POP PUSH1 0x20 PUSH2 0x173F DUP6 DUP3 DUP7 ADD PUSH2 0x16F7 JUMP JUMPDEST SWAP2 POP POP SWAP3 POP SWAP3 SWAP1 POP JUMP JUMPDEST PUSH0 DUP2 ISZERO ISZERO SWAP1 POP SWAP2 SWAP1 POP JUMP JUMPDEST PUSH2 0x175D DUP2 PUSH2 0x1749 JUMP JUMPDEST DUP3 MSTORE POP POP JUMP JUMPDEST PUSH0 PUSH1 0x20 DUP3 ADD SWAP1 POP PUSH2 0x1776 PUSH0 DUP4 ADD DUP5 PUSH2 0x1754 JUMP JUMPDEST SWAP3 SWAP2 POP POP JUMP JUMPDEST PUSH2 0x1785 DUP2 PUSH2 0x169D JUMP JUMPDEST DUP3 MSTORE POP POP JUMP JUMPDEST PUSH0 PUSH1 0x60 DUP3 ADD SWAP1 POP PUSH2 0x179E PUSH0 DUP4 ADD DUP7 PUSH2 0x177C JUMP JUMPDEST PUSH2 0x17AB PUSH1 0x20 DUP4 ADD DUP6 PUSH2 0x177C JUMP JUMPDEST PUSH2 0x17B8 PUSH1 0x40 DUP4 ADD DUP5 PUSH2 0x177C JUMP JUMPDEST SWAP5 SWAP4 POP POP POP POP JUMP JUMPDEST PUSH0 PUSH1 0x20 DUP3 DUP5 SUB SLT ISZERO PUSH2 0x17D5 JUMPI PUSH2 0x17D4 PUSH2 0x167A JUMP JUMPDEST JUMPDEST PUSH0 PUSH2 0x17E2 DUP5 DUP3 DUP6 ADD PUSH2 0x16C4 JUMP JUMPDEST SWAP2 POP POP SWAP3 SWAP2 POP POP JUMP JUMPDEST PUSH2 0x17F4 DUP2 PUSH2 0x16D8 JUMP JUMPDEST DUP3 MSTORE POP POP JUMP JUMPDEST PUSH0 PUSH1 0x20 DUP3 ADD SWAP1 POP PUSH2 0x180D PUSH0 DUP4 ADD DUP5 PUSH2 0x17EB JUMP JUMPDEST SWAP3 SWAP2 POP POP JUMP JUMPDEST PUSH0 DUP2 SWAP1 POP SWAP2 SWAP1 POP JUMP JUMPDEST PUSH0 PUSH2 0x1836 PUSH2 0x1831 PUSH2 0x182C DUP5 PUSH2 0x167E JUMP JUMPDEST PUSH2 0x1813 JUMP JUMPDEST PUSH2 0x167E JUMP JUMPDEST SWAP1 POP SWAP2 SWAP1 POP JUMP JUMPDEST PUSH0 PUSH2 0x1847 DUP3 PUSH2 0x181C JUMP JUMPDEST SWAP1 POP SWAP2 SWAP1 POP JUMP JUMPDEST PUSH0 PUSH2 0x1858 DUP3 PUSH2 0x183D JUMP JUMPDEST SWAP1 POP SWAP2 SWAP1 POP JUMP JUMPDEST PUSH2 0x1868 DUP2 PUSH2 0x184E JUMP JUMPDEST DUP3 MSTORE POP POP JUMP JUMPDEST PUSH0 PUSH1 0x20 DUP3 ADD SWAP1 POP PUSH2 0x1881 PUSH0 DUP4 ADD DUP5 PUSH2 0x185F JUMP JUMPDEST SWAP3 SWAP2 POP POP JUMP JUMPDEST PUSH0 PUSH1 0x20 DUP3 ADD SWAP1 POP PUSH2 0x189A PUSH0 DUP4 ADD DUP5 PUSH2 0x177C JUMP JUMPDEST SWAP3 SWAP2 POP POP JUMP JUMPDEST PUSH0 PUSH1 0x20 DUP3 DUP5 SUB SLT ISZERO PUSH2 0x18B5 JUMPI PUSH2 0x18B4 PUSH2 0x167A JUMP JUMPDEST JUMPDEST PUSH0 PUSH2 0x18C2 DUP5 DUP3 DUP6 ADD PUSH2 0x16F7 JUMP JUMPDEST SWAP2 POP POP SWAP3 SWAP2 POP POP JUMP JUMPDEST PUSH0 PUSH2 0x18D5 DUP3 PUSH2 0x183D JUMP JUMPDEST SWAP1 POP SWAP2 SWAP1 POP JUMP JUMPDEST PUSH2 0x18E5 DUP2 PUSH2 0x18CB JUMP JUMPDEST DUP3 MSTORE POP POP JUMP JUMPDEST PUSH0 PUSH1 0x20 DUP3 ADD SWAP1 POP PUSH2 0x18FE PUSH0 DUP4 ADD DUP5 PUSH2 0x18DC JUMP JUMPDEST SWAP3 SWAP2 POP POP JUMP JUMPDEST PUSH32 0x4E487B7100000000000000000000000000000000000000000000000000000000 PUSH0 MSTORE PUSH1 0x11 PUSH1 0x4 MSTORE PUSH1 0x24 PUSH0 REVERT JUMPDEST PUSH0 PUSH2 0x193B DUP3 PUSH2 0x16D8 JUMP JUMPDEST SWAP2 POP PUSH2 0x1946 DUP4 PUSH2 0x16D8 JUMP JUMPDEST SWAP3 POP DUP3 DUP3 ADD SWAP1 POP DUP1 DUP3 GT ISZERO PUSH2 0x195E JUMPI PUSH2 0x195D PUSH2 0x1904 JUMP JUMPDEST JUMPDEST SWAP3 SWAP2 POP POP JUMP JUMPDEST PUSH0 PUSH1 0x40 DUP3 ADD SWAP1 POP PUSH2 0x1977 PUSH0 DUP4 ADD DUP6 PUSH2 0x177C JUMP JUMPDEST PUSH2 0x1984 PUSH1 0x20 DUP4 ADD DUP5 PUSH2 0x177C JUMP JUMPDEST SWAP4 SWAP3 POP POP POP JUMP JUMPDEST PUSH0 PUSH1 0x40 DUP3 ADD SWAP1 POP PUSH2 0x199E PUSH0 DUP4 ADD DUP6 PUSH2 0x177C JUMP JUMPDEST PUSH2 0x19AB PUSH1 0x20 DUP4 ADD DUP5 PUSH2 0x17EB JUMP JUMPDEST SWAP4 SWAP3 POP POP POP JUMP JUMPDEST PUSH32 0x4E487B7100000000000000000000000000000000000000000000000000000000 PUSH0 MSTORE PUSH1 0x32 PUSH1 0x4 MSTORE PUSH1 0x24 PUSH0 REVERT JUMPDEST PUSH0 PUSH1 0x80 DUP3 ADD SWAP1 POP PUSH2 0x19F2 PUSH0 DUP4 ADD DUP8 PUSH2 0x18DC JUMP JUMPDEST PUSH2 0x19FF PUSH1 0x20 DUP4 ADD DUP7 PUSH2 0x177C JUMP JUMPDEST PUSH2 0x1A0C PUSH1 0x40 DUP4 ADD DUP6 PUSH2 0x177C JUMP JUMPDEST PUSH2 0x1A19 PUSH1 0x60 DUP4 ADD DUP5 PUSH2 0x17EB JUMP JUMPDEST SWAP6 SWAP5 POP POP POP POP POP JUMP JUMPDEST PUSH0 DUP3 DUP3 MSTORE PUSH1 0x20 DUP3 ADD SWAP1 POP SWAP3 SWAP2 POP POP JUMP JUMPDEST PUSH32 0x4F6E6C79206F776E65722063616E2063616C6C00000000000000000000000000 PUSH0 DUP3 ADD MSTORE POP JUMP JUMPDEST PUSH0 PUSH2 0x1A66 PUSH1 0x13 DUP4 PUSH2 0x1A22 JUMP JUMPDEST SWAP2 POP PUSH2 0x1A71 DUP3 PUSH2 0x1A32 JUMP JUMPDEST PUSH1 0x20 DUP3 ADD SWAP1 POP SWAP2 SWAP1 POP JUMP JUMPDEST PUSH0 PUSH1 0x20 DUP3 ADD SWAP1 POP DUP2 DUP2 SUB PUSH0 DUP4 ADD MSTORE PUSH2 0x1A93 DUP2 PUSH2 0x1A5A JUMP JUMPDEST SWAP1 POP SWAP2 SWAP1 POP JUMP JUMPDEST PUSH0 DUP2 MLOAD SWAP1 POP PUSH2 0x1AA8 DUP2 PUSH2 0x16E1 JUMP JUMPDEST SWAP3 SWAP2 POP POP JUMP JUMPDEST PUSH0 PUSH1 0x20 DUP3 DUP5 SUB SLT ISZERO PUSH2 0x1AC3 JUMPI PUSH2 0x1AC2 PUSH2 0x167A JUMP JUMPDEST JUMPDEST PUSH0 PUSH2 0x1AD0 DUP5 DUP3 DUP6 ADD PUSH2 0x1A9A JUMP JUMPDEST SWAP2 POP POP SWAP3 SWAP2 POP POP JUMP JUMPDEST PUSH0 PUSH1 0x60 DUP3 ADD SWAP1 POP PUSH2 0x1AEC PUSH0 DUP4 ADD DUP7 PUSH2 0x18DC JUMP JUMPDEST PUSH2 0x1AF9 PUSH1 0x20 DUP4 ADD DUP6 PUSH2 0x177C JUMP JUMPDEST PUSH2 0x1B06 PUSH1 0x40 DUP4 ADD DUP5 PUSH2 0x17EB JUMP JUMPDEST SWAP5 SWAP4 POP POP POP POP JUMP JUMPDEST PUSH0 PUSH2 0x1B18 DUP3 PUSH2 0x16D8 JUMP JUMPDEST SWAP2 POP PUSH2 0x1B23 DUP4 PUSH2 0x16D8 JUMP JUMPDEST SWAP3 POP DUP3 DUP3 SUB SWAP1 POP DUP2 DUP2 GT ISZERO PUSH2 0x1B3B JUMPI PUSH2 0x1B3A PUSH2 0x1904 JUMP JUMPDEST JUMPDEST SWAP3 SWAP2 POP POP JUMP JUMPDEST PUSH0 PUSH2 0x1B4B DUP3 PUSH2 0x16D8 JUMP JUMPDEST SWAP2 POP PUSH0 DUP3 SUB PUSH2 0x1B5D JUMPI PUSH2 0x1B5C PUSH2 0x1904 JUMP JUMPDEST JUMPDEST PUSH1 0x1 DUP3 SUB SWAP1 POP SWAP2 SWAP1 POP JUMP INVALID LOG2 PUSH5 0x6970667358 0x22 SLT KECCAK256 CHAINID SIGNEXTEND CREATE DUP11 DUP8 PUSH28 0x9E2CA706A669FBF85613FAF97B71A7D79083C35D7C5CAC5D3EF26473 PUSH16 0x6C634300081600330000000000000000 "
				},
				"gasEstimates": {
					"creation": {
						"codeDepositCost": "1414000",
						"executionCost": "infinite",
						"totalCost": "infinite"
					},
					"external": {
						"depositETH()": "infinite",
						"depositToken(uint256)": "infinite",
						"getETHBalance(address)": "2896",
						"getETHTopThreeAccount()": "infinite",
						"getTokenBalance(address)": "2874",
						"getTokenTopThreeAccount()": "infinite",
						"iERC20Token()": "infinite",
						"iGTT()": "infinite",
						"owner()": "2575",
						"tokenAddr()": "infinite",
						"tokensReceived(address,uint256)": "infinite",
						"withdrawETH()": "infinite",
						"withdrawToken()": "infinite"
					},
					"internal": {
						"_checkTokenRankMembership()": "infinite",
						"_handleRankWhenDepositToken()": "infinite"
					}
				},
				"methodIdentifiers": {
					"depositETH()": "f6326fb3",
					"depositToken(uint256)": "6215be77",
					"getETHBalance(address)": "3bb66a7b",
					"getETHTopThreeAccount()": "2b7e8faf",
					"getTokenBalance(address)": "3aecd0e3",
					"getTokenTopThreeAccount()": "b254b80a",
					"iERC20Token()": "7251e8c2",
					"iGTT()": "4d3f3cf6",
					"owner()": "8da5cb5b",
					"tokenAddr()": "5fbe4d1d",
					"tokensReceived(address,uint256)": "24a756d1",
					"withdrawETH()": "e086e5ec",
					"withdrawToken()": "ca628c78"
				}
			},
			"storageLayout": {
				"storage": [
					{
						"astId": 5,
						"contract": "04-Camps/08-UpChain_Camp_3_OpenSpace/0115_ERC777TokenBank/contracts/TokenBank.sol:TokenBank",
						"label": "ETHBalance",
						"offset": 0,
						"slot": "0",
						"type": "t_mapping(t_address,t_uint256)"
					},
					{
						"astId": 9,
						"contract": "04-Camps/08-UpChain_Camp_3_OpenSpace/0115_ERC777TokenBank/contracts/TokenBank.sol:TokenBank",
						"label": "rank",
						"offset": 0,
						"slot": "1",
						"type": "t_array(t_address)3_storage"
					},
					{
						"astId": 11,
						"contract": "04-Camps/08-UpChain_Camp_3_OpenSpace/0115_ERC777TokenBank/contracts/TokenBank.sol:TokenBank",
						"label": "owner",
						"offset": 0,
						"slot": "4",
						"type": "t_address"
					},
					{
						"astId": 400,
						"contract": "04-Camps/08-UpChain_Camp_3_OpenSpace/0115_ERC777TokenBank/contracts/TokenBank.sol:TokenBank",
						"label": "tokenBalance",
						"offset": 0,
						"slot": "5",
						"type": "t_mapping(t_address,t_uint256)"
					},
					{
						"astId": 404,
						"contract": "04-Camps/08-UpChain_Camp_3_OpenSpace/0115_ERC777TokenBank/contracts/TokenBank.sol:TokenBank",
						"label": "tokenRank",
						"offset": 0,
						"slot": "6",
						"type": "t_array(t_address)3_storage"
					}
				],
				"types": {
					"t_address": {
						"encoding": "inplace",
						"label": "address",
						"numberOfBytes": "20"
					},
					"t_array(t_address)3_storage": {
						"base": "t_address",
						"encoding": "inplace",
						"label": "address[3]",
						"numberOfBytes": "96"
					},
					"t_mapping(t_address,t_uint256)": {
						"encoding": "mapping",
						"key": "t_address",
						"label": "mapping(address => uint256)",
						"numberOfBytes": "32",
						"value": "t_uint256"
					},
					"t_uint256": {
						"encoding": "inplace",
						"label": "uint256",
						"numberOfBytes": "32"
					}
				}
			},
			"userdoc": {
				"kind": "user",
				"methods": {},
				"version": 1
			}
		}
	}
}