{
	"04-Camps/08-UpChain_Camp_3_OpenSpace/0115_ERC777TokenBank/contracts/Bank.sol": {
		"Bank": {
			"abi": [
				{
					"inputs": [],
					"stateMutability": "nonpayable",
					"type": "constructor"
				},
				{
					"inputs": [],
					"name": "depositETH",
					"outputs": [],
					"stateMutability": "payable",
					"type": "function"
				},
				{
					"inputs": [
						{
							"internalType": "address",
							"name": "_account",
							"type": "address"
						}
					],
					"name": "getETHBalance",
					"outputs": [
						{
							"internalType": "uint256",
							"name": "",
							"type": "uint256"
						}
					],
					"stateMutability": "view",
					"type": "function"
				},
				{
					"inputs": [],
					"name": "getETHTopThreeAccount",
					"outputs": [
						{
							"internalType": "address",
							"name": "",
							"type": "address"
						},
						{
							"internalType": "address",
							"name": "",
							"type": "address"
						},
						{
							"internalType": "address",
							"name": "",
							"type": "address"
						}
					],
					"stateMutability": "view",
					"type": "function"
				},
				{
					"inputs": [],
					"name": "owner",
					"outputs": [
						{
							"internalType": "address",
							"name": "",
							"type": "address"
						}
					],
					"stateMutability": "view",
					"type": "function"
				},
				{
					"inputs": [],
					"name": "withdrawETH",
					"outputs": [],
					"stateMutability": "nonpayable",
					"type": "function"
				},
				{
					"stateMutability": "payable",
					"type": "receive"
				}
			],
			"devdoc": {
				"kind": "dev",
				"methods": {},
				"version": 1
			},
			"evm": {
				"assembly": "    /* \"04-Camps/08-UpChain_Camp_3_OpenSpace/0115_ERC777TokenBank/contracts/Bank.sol\":57:3349  contract Bank {... */\n  mstore(0x40, 0x80)\n    /* \"04-Camps/08-UpChain_Camp_3_OpenSpace/0115_ERC777TokenBank/contracts/Bank.sol\":392:441  constructor() {... */\n  callvalue\n  dup1\n  iszero\n  tag_1\n  jumpi\n  0x00\n  dup1\n  revert\ntag_1:\n  pop\n    /* \"04-Camps/08-UpChain_Camp_3_OpenSpace/0115_ERC777TokenBank/contracts/Bank.sol\":424:434  msg.sender */\n  caller\n    /* \"04-Camps/08-UpChain_Camp_3_OpenSpace/0115_ERC777TokenBank/contracts/Bank.sol\":416:421  owner */\n  0x04\n  0x00\n    /* \"04-Camps/08-UpChain_Camp_3_OpenSpace/0115_ERC777TokenBank/contracts/Bank.sol\":416:434  owner = msg.sender */\n  0x0100\n  exp\n  dup2\n  sload\n  dup2\n  0xffffffffffffffffffffffffffffffffffffffff\n  mul\n  not\n  and\n  swap1\n  dup4\n  0xffffffffffffffffffffffffffffffffffffffff\n  and\n  mul\n  or\n  swap1\n  sstore\n  pop\n    /* \"04-Camps/08-UpChain_Camp_3_OpenSpace/0115_ERC777TokenBank/contracts/Bank.sol\":57:3349  contract Bank {... */\n  dataSize(sub_0)\n  dup1\n  dataOffset(sub_0)\n  0x00\n  codecopy\n  0x00\n  return\nstop\n\nsub_0: assembly {\n        /* \"04-Camps/08-UpChain_Camp_3_OpenSpace/0115_ERC777TokenBank/contracts/Bank.sol\":57:3349  contract Bank {... */\n      mstore(0x40, 0x80)\n      jumpi(tag_1, lt(calldatasize, 0x04))\n      shr(0xe0, calldataload(0x00))\n      dup1\n      0x2b7e8faf\n      eq\n      tag_3\n      jumpi\n      dup1\n      0x3bb66a7b\n      eq\n      tag_4\n      jumpi\n      dup1\n      0x8da5cb5b\n      eq\n      tag_5\n      jumpi\n      dup1\n      0xe086e5ec\n      eq\n      tag_6\n      jumpi\n      dup1\n      0xf6326fb3\n      eq\n      tag_7\n      jumpi\n      jump(tag_2)\n    tag_1:\n      jumpi(tag_2, calldatasize)\n        /* \"04-Camps/08-UpChain_Camp_3_OpenSpace/0115_ERC777TokenBank/contracts/Bank.sol\":730:742  depositETH() */\n      tag_10\n        /* \"04-Camps/08-UpChain_Camp_3_OpenSpace/0115_ERC777TokenBank/contracts/Bank.sol\":730:740  depositETH */\n      tag_11\n        /* \"04-Camps/08-UpChain_Camp_3_OpenSpace/0115_ERC777TokenBank/contracts/Bank.sol\":730:742  depositETH() */\n      jump\t// in\n    tag_10:\n        /* \"04-Camps/08-UpChain_Camp_3_OpenSpace/0115_ERC777TokenBank/contracts/Bank.sol\":57:3349  contract Bank {... */\n      stop\n    tag_2:\n      0x00\n      dup1\n      revert\n        /* \"04-Camps/08-UpChain_Camp_3_OpenSpace/0115_ERC777TokenBank/contracts/Bank.sol\":990:1150  function getETHTopThreeAccount()... */\n    tag_3:\n      callvalue\n      dup1\n      iszero\n      tag_12\n      jumpi\n      0x00\n      dup1\n      revert\n    tag_12:\n      pop\n      tag_13\n      tag_14\n      jump\t// in\n    tag_13:\n      mload(0x40)\n      tag_15\n      swap4\n      swap3\n      swap2\n      swap1\n      tag_16\n      jump\t// in\n    tag_15:\n      mload(0x40)\n      dup1\n      swap2\n      sub\n      swap1\n      return\n        /* \"04-Camps/08-UpChain_Camp_3_OpenSpace/0115_ERC777TokenBank/contracts/Bank.sol\":864:984  function getETHBalance(address _account) public view virtual returns (uint) {... */\n    tag_4:\n      callvalue\n      dup1\n      iszero\n      tag_17\n      jumpi\n      0x00\n      dup1\n      revert\n    tag_17:\n      pop\n      tag_18\n      0x04\n      dup1\n      calldatasize\n      sub\n      dup2\n      add\n      swap1\n      tag_19\n      swap2\n      swap1\n      tag_20\n      jump\t// in\n    tag_19:\n      tag_21\n      jump\t// in\n    tag_18:\n      mload(0x40)\n      tag_22\n      swap2\n      swap1\n      tag_23\n      jump\t// in\n    tag_22:\n      mload(0x40)\n      dup1\n      swap2\n      sub\n      swap1\n      return\n        /* \"04-Camps/08-UpChain_Camp_3_OpenSpace/0115_ERC777TokenBank/contracts/Bank.sol\":365:385  address public owner */\n    tag_5:\n      callvalue\n      dup1\n      iszero\n      tag_24\n      jumpi\n      0x00\n      dup1\n      revert\n    tag_24:\n      pop\n      tag_25\n      tag_26\n      jump\t// in\n    tag_25:\n      mload(0x40)\n      tag_27\n      swap2\n      swap1\n      tag_28\n      jump\t// in\n    tag_27:\n      mload(0x40)\n      dup1\n      swap2\n      sub\n      swap1\n      return\n        /* \"04-Camps/08-UpChain_Camp_3_OpenSpace/0115_ERC777TokenBank/contracts/Bank.sol\":755:858  function withdrawETH() public onlyOwner {... */\n    tag_6:\n      callvalue\n      dup1\n      iszero\n      tag_29\n      jumpi\n      0x00\n      dup1\n      revert\n    tag_29:\n      pop\n      tag_30\n      tag_31\n      jump\t// in\n    tag_30:\n      stop\n        /* \"04-Camps/08-UpChain_Camp_3_OpenSpace/0115_ERC777TokenBank/contracts/Bank.sol\":553:679  function depositETH() public payable {... */\n    tag_7:\n      tag_32\n      tag_11\n      jump\t// in\n    tag_32:\n      stop\n    tag_11:\n        /* \"04-Camps/08-UpChain_Camp_3_OpenSpace/0115_ERC777TokenBank/contracts/Bank.sol\":626:635  msg.value */\n      callvalue\n        /* \"04-Camps/08-UpChain_Camp_3_OpenSpace/0115_ERC777TokenBank/contracts/Bank.sol\":600:610  ETHBalance */\n      0x00\n        /* \"04-Camps/08-UpChain_Camp_3_OpenSpace/0115_ERC777TokenBank/contracts/Bank.sol\":600:622  ETHBalance[msg.sender] */\n      dup1\n        /* \"04-Camps/08-UpChain_Camp_3_OpenSpace/0115_ERC777TokenBank/contracts/Bank.sol\":611:621  msg.sender */\n      caller\n        /* \"04-Camps/08-UpChain_Camp_3_OpenSpace/0115_ERC777TokenBank/contracts/Bank.sol\":600:622  ETHBalance[msg.sender] */\n      0xffffffffffffffffffffffffffffffffffffffff\n      and\n      0xffffffffffffffffffffffffffffffffffffffff\n      and\n      dup2\n      mstore\n      0x20\n      add\n      swap1\n      dup2\n      mstore\n      0x20\n      add\n      0x00\n      keccak256\n      0x00\n        /* \"04-Camps/08-UpChain_Camp_3_OpenSpace/0115_ERC777TokenBank/contracts/Bank.sol\":600:635  ETHBalance[msg.sender] += msg.value */\n      dup3\n      dup3\n      sload\n      tag_34\n      swap2\n      swap1\n      tag_35\n      jump\t// in\n    tag_34:\n      swap3\n      pop\n      pop\n      dup2\n      swap1\n      sstore\n      pop\n        /* \"04-Camps/08-UpChain_Camp_3_OpenSpace/0115_ERC777TokenBank/contracts/Bank.sol\":645:672  _handleRankWhenDepositETH() */\n      tag_36\n        /* \"04-Camps/08-UpChain_Camp_3_OpenSpace/0115_ERC777TokenBank/contracts/Bank.sol\":645:670  _handleRankWhenDepositETH */\n      tag_37\n        /* \"04-Camps/08-UpChain_Camp_3_OpenSpace/0115_ERC777TokenBank/contracts/Bank.sol\":645:672  _handleRankWhenDepositETH() */\n      jump\t// in\n    tag_36:\n        /* \"04-Camps/08-UpChain_Camp_3_OpenSpace/0115_ERC777TokenBank/contracts/Bank.sol\":553:679  function depositETH() public payable {... */\n      jump\t// out\n        /* \"04-Camps/08-UpChain_Camp_3_OpenSpace/0115_ERC777TokenBank/contracts/Bank.sol\":990:1150  function getETHTopThreeAccount()... */\n    tag_14:\n        /* \"04-Camps/08-UpChain_Camp_3_OpenSpace/0115_ERC777TokenBank/contracts/Bank.sol\":1068:1075  address */\n      0x00\n        /* \"04-Camps/08-UpChain_Camp_3_OpenSpace/0115_ERC777TokenBank/contracts/Bank.sol\":1077:1084  address */\n      dup1\n        /* \"04-Camps/08-UpChain_Camp_3_OpenSpace/0115_ERC777TokenBank/contracts/Bank.sol\":1086:1093  address */\n      0x00\n        /* \"04-Camps/08-UpChain_Camp_3_OpenSpace/0115_ERC777TokenBank/contracts/Bank.sol\":1117:1121  rank */\n      0x01\n        /* \"04-Camps/08-UpChain_Camp_3_OpenSpace/0115_ERC777TokenBank/contracts/Bank.sol\":1122:1123  0 */\n      0x00\n        /* \"04-Camps/08-UpChain_Camp_3_OpenSpace/0115_ERC777TokenBank/contracts/Bank.sol\":1117:1124  rank[0] */\n      0x03\n      dup2\n      lt\n      tag_39\n      jumpi\n      tag_40\n      tag_41\n      jump\t// in\n    tag_40:\n    tag_39:\n      add\n      0x00\n      swap1\n      sload\n      swap1\n      0x0100\n      exp\n      swap1\n      div\n      0xffffffffffffffffffffffffffffffffffffffff\n      and\n        /* \"04-Camps/08-UpChain_Camp_3_OpenSpace/0115_ERC777TokenBank/contracts/Bank.sol\":1126:1130  rank */\n      0x01\n        /* \"04-Camps/08-UpChain_Camp_3_OpenSpace/0115_ERC777TokenBank/contracts/Bank.sol\":1131:1132  1 */\n      dup1\n        /* \"04-Camps/08-UpChain_Camp_3_OpenSpace/0115_ERC777TokenBank/contracts/Bank.sol\":1126:1133  rank[1] */\n      0x03\n      dup2\n      lt\n      tag_43\n      jumpi\n      tag_44\n      tag_41\n      jump\t// in\n    tag_44:\n    tag_43:\n      add\n      0x00\n      swap1\n      sload\n      swap1\n      0x0100\n      exp\n      swap1\n      div\n      0xffffffffffffffffffffffffffffffffffffffff\n      and\n        /* \"04-Camps/08-UpChain_Camp_3_OpenSpace/0115_ERC777TokenBank/contracts/Bank.sol\":1135:1139  rank */\n      0x01\n        /* \"04-Camps/08-UpChain_Camp_3_OpenSpace/0115_ERC777TokenBank/contracts/Bank.sol\":1140:1141  2 */\n      0x02\n        /* \"04-Camps/08-UpChain_Camp_3_OpenSpace/0115_ERC777TokenBank/contracts/Bank.sol\":1135:1142  rank[2] */\n      0x03\n      dup2\n      lt\n      tag_46\n      jumpi\n      tag_47\n      tag_41\n      jump\t// in\n    tag_47:\n    tag_46:\n      add\n      0x00\n      swap1\n      sload\n      swap1\n      0x0100\n      exp\n      swap1\n      div\n      0xffffffffffffffffffffffffffffffffffffffff\n      and\n        /* \"04-Camps/08-UpChain_Camp_3_OpenSpace/0115_ERC777TokenBank/contracts/Bank.sol\":1109:1143  return (rank[0], rank[1], rank[2]) */\n      swap3\n      pop\n      swap3\n      pop\n      swap3\n      pop\n        /* \"04-Camps/08-UpChain_Camp_3_OpenSpace/0115_ERC777TokenBank/contracts/Bank.sol\":990:1150  function getETHTopThreeAccount()... */\n      swap1\n      swap2\n      swap3\n      jump\t// out\n        /* \"04-Camps/08-UpChain_Camp_3_OpenSpace/0115_ERC777TokenBank/contracts/Bank.sol\":864:984  function getETHBalance(address _account) public view virtual returns (uint) {... */\n    tag_21:\n        /* \"04-Camps/08-UpChain_Camp_3_OpenSpace/0115_ERC777TokenBank/contracts/Bank.sol\":934:938  uint */\n      0x00\n        /* \"04-Camps/08-UpChain_Camp_3_OpenSpace/0115_ERC777TokenBank/contracts/Bank.sol\":957:967  ETHBalance */\n      dup1\n        /* \"04-Camps/08-UpChain_Camp_3_OpenSpace/0115_ERC777TokenBank/contracts/Bank.sol\":957:977  ETHBalance[_account] */\n      0x00\n        /* \"04-Camps/08-UpChain_Camp_3_OpenSpace/0115_ERC777TokenBank/contracts/Bank.sol\":968:976  _account */\n      dup4\n        /* \"04-Camps/08-UpChain_Camp_3_OpenSpace/0115_ERC777TokenBank/contracts/Bank.sol\":957:977  ETHBalance[_account] */\n      0xffffffffffffffffffffffffffffffffffffffff\n      and\n      0xffffffffffffffffffffffffffffffffffffffff\n      and\n      dup2\n      mstore\n      0x20\n      add\n      swap1\n      dup2\n      mstore\n      0x20\n      add\n      0x00\n      keccak256\n      sload\n        /* \"04-Camps/08-UpChain_Camp_3_OpenSpace/0115_ERC777TokenBank/contracts/Bank.sol\":950:977  return ETHBalance[_account] */\n      swap1\n      pop\n        /* \"04-Camps/08-UpChain_Camp_3_OpenSpace/0115_ERC777TokenBank/contracts/Bank.sol\":864:984  function getETHBalance(address _account) public view virtual returns (uint) {... */\n      swap2\n      swap1\n      pop\n      jump\t// out\n        /* \"04-Camps/08-UpChain_Camp_3_OpenSpace/0115_ERC777TokenBank/contracts/Bank.sol\":365:385  address public owner */\n    tag_26:\n      0x04\n      0x00\n      swap1\n      sload\n      swap1\n      0x0100\n      exp\n      swap1\n      div\n      0xffffffffffffffffffffffffffffffffffffffff\n      and\n      dup2\n      jump\t// out\n        /* \"04-Camps/08-UpChain_Camp_3_OpenSpace/0115_ERC777TokenBank/contracts/Bank.sol\":755:858  function withdrawETH() public onlyOwner {... */\n    tag_31:\n        /* \"04-Camps/08-UpChain_Camp_3_OpenSpace/0115_ERC777TokenBank/contracts/Bank.sol\":500:505  owner */\n      0x04\n      0x00\n      swap1\n      sload\n      swap1\n      0x0100\n      exp\n      swap1\n      div\n      0xffffffffffffffffffffffffffffffffffffffff\n      and\n        /* \"04-Camps/08-UpChain_Camp_3_OpenSpace/0115_ERC777TokenBank/contracts/Bank.sol\":486:505  msg.sender == owner */\n      0xffffffffffffffffffffffffffffffffffffffff\n      and\n        /* \"04-Camps/08-UpChain_Camp_3_OpenSpace/0115_ERC777TokenBank/contracts/Bank.sol\":486:496  msg.sender */\n      caller\n        /* \"04-Camps/08-UpChain_Camp_3_OpenSpace/0115_ERC777TokenBank/contracts/Bank.sol\":486:505  msg.sender == owner */\n      0xffffffffffffffffffffffffffffffffffffffff\n      and\n      eq\n        /* \"04-Camps/08-UpChain_Camp_3_OpenSpace/0115_ERC777TokenBank/contracts/Bank.sol\":478:529  require(msg.sender == owner, \"Only owner can call\") */\n      tag_51\n      jumpi\n      mload(0x40)\n      0x08c379a000000000000000000000000000000000000000000000000000000000\n      dup2\n      mstore\n      0x04\n      add\n      tag_52\n      swap1\n      tag_53\n      jump\t// in\n    tag_52:\n      mload(0x40)\n      dup1\n      swap2\n      sub\n      swap1\n      revert\n    tag_51:\n        /* \"04-Camps/08-UpChain_Camp_3_OpenSpace/0115_ERC777TokenBank/contracts/Bank.sol\":813:818  owner */\n      0x04\n      0x00\n      swap1\n      sload\n      swap1\n      0x0100\n      exp\n      swap1\n      div\n      0xffffffffffffffffffffffffffffffffffffffff\n      and\n        /* \"04-Camps/08-UpChain_Camp_3_OpenSpace/0115_ERC777TokenBank/contracts/Bank.sol\":805:828  payable(owner).transfer */\n      0xffffffffffffffffffffffffffffffffffffffff\n      and\n        /* \"04-Camps/08-UpChain_Camp_3_OpenSpace/0115_ERC777TokenBank/contracts/Bank.sol\":805:851  payable(owner).transfer(address(this).balance) */\n      0x08fc\n        /* \"04-Camps/08-UpChain_Camp_3_OpenSpace/0115_ERC777TokenBank/contracts/Bank.sol\":829:850  address(this).balance */\n      selfbalance\n        /* \"04-Camps/08-UpChain_Camp_3_OpenSpace/0115_ERC777TokenBank/contracts/Bank.sol\":805:851  payable(owner).transfer(address(this).balance) */\n      swap1\n      dup2\n      iszero\n      mul\n      swap1\n      mload(0x40)\n      0x00\n      mload(0x40)\n      dup1\n      dup4\n      sub\n      dup2\n      dup6\n      dup9\n      dup9\n      call\n      swap4\n      pop\n      pop\n      pop\n      pop\n      iszero\n      dup1\n      iszero\n      tag_56\n      jumpi\n      returndatasize\n      0x00\n      dup1\n      returndatacopy\n      revert(0x00, returndatasize)\n    tag_56:\n      pop\n        /* \"04-Camps/08-UpChain_Camp_3_OpenSpace/0115_ERC777TokenBank/contracts/Bank.sol\":755:858  function withdrawETH() public onlyOwner {... */\n      jump\t// out\n        /* \"04-Camps/08-UpChain_Camp_3_OpenSpace/0115_ERC777TokenBank/contracts/Bank.sol\":1156:3068  function _handleRankWhenDepositETH() internal {... */\n    tag_37:\n        /* \"04-Camps/08-UpChain_Camp_3_OpenSpace/0115_ERC777TokenBank/contracts/Bank.sol\":1212:1232  uint membershipIndex */\n      0x00\n        /* \"04-Camps/08-UpChain_Camp_3_OpenSpace/0115_ERC777TokenBank/contracts/Bank.sol\":1235:1260  _checkETHRankMembership() */\n      tag_58\n        /* \"04-Camps/08-UpChain_Camp_3_OpenSpace/0115_ERC777TokenBank/contracts/Bank.sol\":1235:1258  _checkETHRankMembership */\n      tag_59\n        /* \"04-Camps/08-UpChain_Camp_3_OpenSpace/0115_ERC777TokenBank/contracts/Bank.sol\":1235:1260  _checkETHRankMembership() */\n      jump\t// in\n    tag_58:\n        /* \"04-Camps/08-UpChain_Camp_3_OpenSpace/0115_ERC777TokenBank/contracts/Bank.sol\":1212:1260  uint membershipIndex = _checkETHRankMembership() */\n      swap1\n      pop\n        /* \"04-Camps/08-UpChain_Camp_3_OpenSpace/0115_ERC777TokenBank/contracts/Bank.sol\":1270:1289  uint convertedIndex */\n      0x00\n        /* \"04-Camps/08-UpChain_Camp_3_OpenSpace/0115_ERC777TokenBank/contracts/Bank.sol\":1299:1315  uint indexRecord */\n      dup1\n        /* \"04-Camps/08-UpChain_Camp_3_OpenSpace/0115_ERC777TokenBank/contracts/Bank.sol\":1318:1321  777 */\n      0x0309\n        /* \"04-Camps/08-UpChain_Camp_3_OpenSpace/0115_ERC777TokenBank/contracts/Bank.sol\":1299:1321  uint indexRecord = 777 */\n      swap1\n      pop\n        /* \"04-Camps/08-UpChain_Camp_3_OpenSpace/0115_ERC777TokenBank/contracts/Bank.sol\":1354:1357  999 */\n      0x03e7\n        /* \"04-Camps/08-UpChain_Camp_3_OpenSpace/0115_ERC777TokenBank/contracts/Bank.sol\":1335:1350  membershipIndex */\n      dup4\n        /* \"04-Camps/08-UpChain_Camp_3_OpenSpace/0115_ERC777TokenBank/contracts/Bank.sol\":1335:1357  membershipIndex != 999 */\n      eq\n        /* \"04-Camps/08-UpChain_Camp_3_OpenSpace/0115_ERC777TokenBank/contracts/Bank.sol\":1331:3062  if (membershipIndex != 999) {... */\n      tag_60\n      jumpi\n        /* \"04-Camps/08-UpChain_Camp_3_OpenSpace/0115_ERC777TokenBank/contracts/Bank.sol\":1475:1476  4 */\n      0x04\n        /* \"04-Camps/08-UpChain_Camp_3_OpenSpace/0115_ERC777TokenBank/contracts/Bank.sol\":1457:1472  membershipIndex */\n      dup4\n        /* \"04-Camps/08-UpChain_Camp_3_OpenSpace/0115_ERC777TokenBank/contracts/Bank.sol\":1457:1476  membershipIndex + 4 */\n      tag_61\n      swap2\n      swap1\n      tag_35\n      jump\t// in\n    tag_61:\n        /* \"04-Camps/08-UpChain_Camp_3_OpenSpace/0115_ERC777TokenBank/contracts/Bank.sol\":1440:1476  convertedIndex = membershipIndex + 4 */\n      swap2\n      pop\n        /* \"04-Camps/08-UpChain_Camp_3_OpenSpace/0115_ERC777TokenBank/contracts/Bank.sol\":1495:1501  uint i */\n      0x00\n        /* \"04-Camps/08-UpChain_Camp_3_OpenSpace/0115_ERC777TokenBank/contracts/Bank.sol\":1521:1522  3 */\n      0x03\n        /* \"04-Camps/08-UpChain_Camp_3_OpenSpace/0115_ERC777TokenBank/contracts/Bank.sol\":1504:1518  convertedIndex */\n      dup4\n        /* \"04-Camps/08-UpChain_Camp_3_OpenSpace/0115_ERC777TokenBank/contracts/Bank.sol\":1504:1522  convertedIndex - 3 */\n      tag_65\n      swap2\n      swap1\n      tag_66\n      jump\t// in\n    tag_65:\n        /* \"04-Camps/08-UpChain_Camp_3_OpenSpace/0115_ERC777TokenBank/contracts/Bank.sol\":1495:1522  uint i = convertedIndex - 3 */\n      swap1\n      pop\n        /* \"04-Camps/08-UpChain_Camp_3_OpenSpace/0115_ERC777TokenBank/contracts/Bank.sol\":1490:2236  for (uint i = convertedIndex - 3; i > 1; i--) {... */\n    tag_62:\n        /* \"04-Camps/08-UpChain_Camp_3_OpenSpace/0115_ERC777TokenBank/contracts/Bank.sol\":1528:1529  1 */\n      0x01\n        /* \"04-Camps/08-UpChain_Camp_3_OpenSpace/0115_ERC777TokenBank/contracts/Bank.sol\":1524:1525  i */\n      dup2\n        /* \"04-Camps/08-UpChain_Camp_3_OpenSpace/0115_ERC777TokenBank/contracts/Bank.sol\":1524:1529  i > 1 */\n      gt\n        /* \"04-Camps/08-UpChain_Camp_3_OpenSpace/0115_ERC777TokenBank/contracts/Bank.sol\":1490:2236  for (uint i = convertedIndex - 3; i > 1; i--) {... */\n      iszero\n      tag_63\n      jumpi\n        /* \"04-Camps/08-UpChain_Camp_3_OpenSpace/0115_ERC777TokenBank/contracts/Bank.sol\":1577:1578  0 */\n      0x00\n        /* \"04-Camps/08-UpChain_Camp_3_OpenSpace/0115_ERC777TokenBank/contracts/Bank.sol\":1558:1573  membershipIndex */\n      dup5\n        /* \"04-Camps/08-UpChain_Camp_3_OpenSpace/0115_ERC777TokenBank/contracts/Bank.sol\":1558:1578  membershipIndex != 0 */\n      eq\n        /* \"04-Camps/08-UpChain_Camp_3_OpenSpace/0115_ERC777TokenBank/contracts/Bank.sol\":1554:2222  if (membershipIndex != 0) {... */\n      tag_67\n      jumpi\n        /* \"04-Camps/08-UpChain_Camp_3_OpenSpace/0115_ERC777TokenBank/contracts/Bank.sol\":1631:1641  ETHBalance */\n      0x00\n        /* \"04-Camps/08-UpChain_Camp_3_OpenSpace/0115_ERC777TokenBank/contracts/Bank.sol\":1631:1654  ETHBalance[rank[i - 2]] */\n      dup1\n        /* \"04-Camps/08-UpChain_Camp_3_OpenSpace/0115_ERC777TokenBank/contracts/Bank.sol\":1642:1646  rank */\n      0x01\n        /* \"04-Camps/08-UpChain_Camp_3_OpenSpace/0115_ERC777TokenBank/contracts/Bank.sol\":1651:1652  2 */\n      0x02\n        /* \"04-Camps/08-UpChain_Camp_3_OpenSpace/0115_ERC777TokenBank/contracts/Bank.sol\":1647:1648  i */\n      dup5\n        /* \"04-Camps/08-UpChain_Camp_3_OpenSpace/0115_ERC777TokenBank/contracts/Bank.sol\":1647:1652  i - 2 */\n      tag_68\n      swap2\n      swap1\n      tag_66\n      jump\t// in\n    tag_68:\n        /* \"04-Camps/08-UpChain_Camp_3_OpenSpace/0115_ERC777TokenBank/contracts/Bank.sol\":1642:1653  rank[i - 2] */\n      0x03\n      dup2\n      lt\n      tag_69\n      jumpi\n      tag_70\n      tag_41\n      jump\t// in\n    tag_70:\n    tag_69:\n      add\n      0x00\n      swap1\n      sload\n      swap1\n      0x0100\n      exp\n      swap1\n      div\n      0xffffffffffffffffffffffffffffffffffffffff\n      and\n        /* \"04-Camps/08-UpChain_Camp_3_OpenSpace/0115_ERC777TokenBank/contracts/Bank.sol\":1631:1654  ETHBalance[rank[i - 2]] */\n      0xffffffffffffffffffffffffffffffffffffffff\n      and\n      0xffffffffffffffffffffffffffffffffffffffff\n      and\n      dup2\n      mstore\n      0x20\n      add\n      swap1\n      dup2\n      mstore\n      0x20\n      add\n      0x00\n      keccak256\n      sload\n        /* \"04-Camps/08-UpChain_Camp_3_OpenSpace/0115_ERC777TokenBank/contracts/Bank.sol\":1606:1616  ETHBalance */\n      0x00\n        /* \"04-Camps/08-UpChain_Camp_3_OpenSpace/0115_ERC777TokenBank/contracts/Bank.sol\":1606:1628  ETHBalance[msg.sender] */\n      dup1\n        /* \"04-Camps/08-UpChain_Camp_3_OpenSpace/0115_ERC777TokenBank/contracts/Bank.sol\":1617:1627  msg.sender */\n      caller\n        /* \"04-Camps/08-UpChain_Camp_3_OpenSpace/0115_ERC777TokenBank/contracts/Bank.sol\":1606:1628  ETHBalance[msg.sender] */\n      0xffffffffffffffffffffffffffffffffffffffff\n      and\n      0xffffffffffffffffffffffffffffffffffffffff\n      and\n      dup2\n      mstore\n      0x20\n      add\n      swap1\n      dup2\n      mstore\n      0x20\n      add\n      0x00\n      keccak256\n      sload\n        /* \"04-Camps/08-UpChain_Camp_3_OpenSpace/0115_ERC777TokenBank/contracts/Bank.sol\":1606:1654  ETHBalance[msg.sender] > ETHBalance[rank[i - 2]] */\n      gt\n        /* \"04-Camps/08-UpChain_Camp_3_OpenSpace/0115_ERC777TokenBank/contracts/Bank.sol\":1602:2204  if (ETHBalance[msg.sender] > ETHBalance[rank[i - 2]]) {... */\n      iszero\n      tag_72\n      jumpi\n        /* \"04-Camps/08-UpChain_Camp_3_OpenSpace/0115_ERC777TokenBank/contracts/Bank.sol\":1700:1701  2 */\n      0x02\n        /* \"04-Camps/08-UpChain_Camp_3_OpenSpace/0115_ERC777TokenBank/contracts/Bank.sol\":1696:1697  i */\n      dup2\n        /* \"04-Camps/08-UpChain_Camp_3_OpenSpace/0115_ERC777TokenBank/contracts/Bank.sol\":1696:1701  i - 2 */\n      tag_73\n      swap2\n      swap1\n      tag_66\n      jump\t// in\n    tag_73:\n        /* \"04-Camps/08-UpChain_Camp_3_OpenSpace/0115_ERC777TokenBank/contracts/Bank.sol\":1682:1701  indexRecord = i - 2 */\n      swap2\n      pop\n        /* \"04-Camps/08-UpChain_Camp_3_OpenSpace/0115_ERC777TokenBank/contracts/Bank.sol\":1732:1738  uint j */\n      0x00\n        /* \"04-Camps/08-UpChain_Camp_3_OpenSpace/0115_ERC777TokenBank/contracts/Bank.sol\":1741:1742  2 */\n      0x02\n        /* \"04-Camps/08-UpChain_Camp_3_OpenSpace/0115_ERC777TokenBank/contracts/Bank.sol\":1732:1742  uint j = 2 */\n      swap1\n      pop\n        /* \"04-Camps/08-UpChain_Camp_3_OpenSpace/0115_ERC777TokenBank/contracts/Bank.sol\":1727:1838  for (uint j = 2; j > i - 2; j--) {... */\n    tag_74:\n        /* \"04-Camps/08-UpChain_Camp_3_OpenSpace/0115_ERC777TokenBank/contracts/Bank.sol\":1752:1753  2 */\n      0x02\n        /* \"04-Camps/08-UpChain_Camp_3_OpenSpace/0115_ERC777TokenBank/contracts/Bank.sol\":1748:1749  i */\n      dup3\n        /* \"04-Camps/08-UpChain_Camp_3_OpenSpace/0115_ERC777TokenBank/contracts/Bank.sol\":1748:1753  i - 2 */\n      tag_77\n      swap2\n      swap1\n      tag_66\n      jump\t// in\n    tag_77:\n        /* \"04-Camps/08-UpChain_Camp_3_OpenSpace/0115_ERC777TokenBank/contracts/Bank.sol\":1744:1745  j */\n      dup2\n        /* \"04-Camps/08-UpChain_Camp_3_OpenSpace/0115_ERC777TokenBank/contracts/Bank.sol\":1744:1753  j > i - 2 */\n      gt\n        /* \"04-Camps/08-UpChain_Camp_3_OpenSpace/0115_ERC777TokenBank/contracts/Bank.sol\":1727:1838  for (uint j = 2; j > i - 2; j--) {... */\n      iszero\n      tag_75\n      jumpi\n        /* \"04-Camps/08-UpChain_Camp_3_OpenSpace/0115_ERC777TokenBank/contracts/Bank.sol\":1800:1804  rank */\n      0x01\n        /* \"04-Camps/08-UpChain_Camp_3_OpenSpace/0115_ERC777TokenBank/contracts/Bank.sol\":1809:1810  1 */\n      dup1\n        /* \"04-Camps/08-UpChain_Camp_3_OpenSpace/0115_ERC777TokenBank/contracts/Bank.sol\":1805:1806  j */\n      dup3\n        /* \"04-Camps/08-UpChain_Camp_3_OpenSpace/0115_ERC777TokenBank/contracts/Bank.sol\":1805:1810  j - 1 */\n      tag_78\n      swap2\n      swap1\n      tag_66\n      jump\t// in\n    tag_78:\n        /* \"04-Camps/08-UpChain_Camp_3_OpenSpace/0115_ERC777TokenBank/contracts/Bank.sol\":1800:1811  rank[j - 1] */\n      0x03\n      dup2\n      lt\n      tag_79\n      jumpi\n      tag_80\n      tag_41\n      jump\t// in\n    tag_80:\n    tag_79:\n      add\n      0x00\n      swap1\n      sload\n      swap1\n      0x0100\n      exp\n      swap1\n      div\n      0xffffffffffffffffffffffffffffffffffffffff\n      and\n        /* \"04-Camps/08-UpChain_Camp_3_OpenSpace/0115_ERC777TokenBank/contracts/Bank.sol\":1790:1794  rank */\n      0x01\n        /* \"04-Camps/08-UpChain_Camp_3_OpenSpace/0115_ERC777TokenBank/contracts/Bank.sol\":1795:1796  j */\n      dup3\n        /* \"04-Camps/08-UpChain_Camp_3_OpenSpace/0115_ERC777TokenBank/contracts/Bank.sol\":1790:1797  rank[j] */\n      0x03\n      dup2\n      lt\n      tag_82\n      jumpi\n      tag_83\n      tag_41\n      jump\t// in\n    tag_83:\n    tag_82:\n      add\n      0x00\n        /* \"04-Camps/08-UpChain_Camp_3_OpenSpace/0115_ERC777TokenBank/contracts/Bank.sol\":1790:1811  rank[j] = rank[j - 1] */\n      0x0100\n      exp\n      dup2\n      sload\n      dup2\n      0xffffffffffffffffffffffffffffffffffffffff\n      mul\n      not\n      and\n      swap1\n      dup4\n      0xffffffffffffffffffffffffffffffffffffffff\n      and\n      mul\n      or\n      swap1\n      sstore\n      pop\n        /* \"04-Camps/08-UpChain_Camp_3_OpenSpace/0115_ERC777TokenBank/contracts/Bank.sol\":1755:1758  j-- */\n      dup1\n      dup1\n      tag_85\n      swap1\n      tag_86\n      jump\t// in\n    tag_85:\n      swap2\n      pop\n      pop\n        /* \"04-Camps/08-UpChain_Camp_3_OpenSpace/0115_ERC777TokenBank/contracts/Bank.sol\":1727:1838  for (uint j = 2; j > i - 2; j--) {... */\n      jump(tag_74)\n    tag_75:\n      pop\n        /* \"04-Camps/08-UpChain_Camp_3_OpenSpace/0115_ERC777TokenBank/contracts/Bank.sol\":1927:1928  0 */\n      0x00\n        /* \"04-Camps/08-UpChain_Camp_3_OpenSpace/0115_ERC777TokenBank/contracts/Bank.sol\":1912:1923  indexRecord */\n      dup3\n        /* \"04-Camps/08-UpChain_Camp_3_OpenSpace/0115_ERC777TokenBank/contracts/Bank.sol\":1912:1928  indexRecord == 0 */\n      sub\n        /* \"04-Camps/08-UpChain_Camp_3_OpenSpace/0115_ERC777TokenBank/contracts/Bank.sol\":1908:2017  if (indexRecord == 0) {... */\n      tag_87\n      jumpi\n        /* \"04-Camps/08-UpChain_Camp_3_OpenSpace/0115_ERC777TokenBank/contracts/Bank.sol\":1980:1990  msg.sender */\n      caller\n        /* \"04-Camps/08-UpChain_Camp_3_OpenSpace/0115_ERC777TokenBank/contracts/Bank.sol\":1960:1964  rank */\n      0x01\n        /* \"04-Camps/08-UpChain_Camp_3_OpenSpace/0115_ERC777TokenBank/contracts/Bank.sol\":1965:1976  indexRecord */\n      dup4\n        /* \"04-Camps/08-UpChain_Camp_3_OpenSpace/0115_ERC777TokenBank/contracts/Bank.sol\":1960:1977  rank[indexRecord] */\n      0x03\n      dup2\n      lt\n      tag_88\n      jumpi\n      tag_89\n      tag_41\n      jump\t// in\n    tag_89:\n    tag_88:\n      add\n      0x00\n        /* \"04-Camps/08-UpChain_Camp_3_OpenSpace/0115_ERC777TokenBank/contracts/Bank.sol\":1960:1990  rank[indexRecord] = msg.sender */\n      0x0100\n      exp\n      dup2\n      sload\n      dup2\n      0xffffffffffffffffffffffffffffffffffffffff\n      mul\n      not\n      and\n      swap1\n      dup4\n      0xffffffffffffffffffffffffffffffffffffffff\n      and\n      mul\n      or\n      swap1\n      sstore\n      pop\n        /* \"04-Camps/08-UpChain_Camp_3_OpenSpace/0115_ERC777TokenBank/contracts/Bank.sol\":1908:2017  if (indexRecord == 0) {... */\n    tag_87:\n        /* \"04-Camps/08-UpChain_Camp_3_OpenSpace/0115_ERC777TokenBank/contracts/Bank.sol\":1602:2204  if (ETHBalance[msg.sender] > ETHBalance[rank[i - 2]]) {... */\n      jump(tag_91)\n    tag_72:\n        /* \"04-Camps/08-UpChain_Camp_3_OpenSpace/0115_ERC777TokenBank/contracts/Bank.sol\":2090:2093  777 */\n      0x0309\n        /* \"04-Camps/08-UpChain_Camp_3_OpenSpace/0115_ERC777TokenBank/contracts/Bank.sol\":2075:2086  indexRecord */\n      dup3\n        /* \"04-Camps/08-UpChain_Camp_3_OpenSpace/0115_ERC777TokenBank/contracts/Bank.sol\":2075:2093  indexRecord != 777 */\n      eq\n        /* \"04-Camps/08-UpChain_Camp_3_OpenSpace/0115_ERC777TokenBank/contracts/Bank.sol\":2071:2182  if (indexRecord != 777) {... */\n      tag_92\n      jumpi\n        /* \"04-Camps/08-UpChain_Camp_3_OpenSpace/0115_ERC777TokenBank/contracts/Bank.sol\":2145:2155  msg.sender */\n      caller\n        /* \"04-Camps/08-UpChain_Camp_3_OpenSpace/0115_ERC777TokenBank/contracts/Bank.sol\":2125:2129  rank */\n      0x01\n        /* \"04-Camps/08-UpChain_Camp_3_OpenSpace/0115_ERC777TokenBank/contracts/Bank.sol\":2130:2141  indexRecord */\n      dup4\n        /* \"04-Camps/08-UpChain_Camp_3_OpenSpace/0115_ERC777TokenBank/contracts/Bank.sol\":2125:2142  rank[indexRecord] */\n      0x03\n      dup2\n      lt\n      tag_93\n      jumpi\n      tag_94\n      tag_41\n      jump\t// in\n    tag_94:\n    tag_93:\n      add\n      0x00\n        /* \"04-Camps/08-UpChain_Camp_3_OpenSpace/0115_ERC777TokenBank/contracts/Bank.sol\":2125:2155  rank[indexRecord] = msg.sender */\n      0x0100\n      exp\n      dup2\n      sload\n      dup2\n      0xffffffffffffffffffffffffffffffffffffffff\n      mul\n      not\n      and\n      swap1\n      dup4\n      0xffffffffffffffffffffffffffffffffffffffff\n      and\n      mul\n      or\n      swap1\n      sstore\n      pop\n        /* \"04-Camps/08-UpChain_Camp_3_OpenSpace/0115_ERC777TokenBank/contracts/Bank.sol\":2071:2182  if (indexRecord != 777) {... */\n    tag_92:\n        /* \"04-Camps/08-UpChain_Camp_3_OpenSpace/0115_ERC777TokenBank/contracts/Bank.sol\":1602:2204  if (ETHBalance[msg.sender] > ETHBalance[rank[i - 2]]) {... */\n    tag_91:\n        /* \"04-Camps/08-UpChain_Camp_3_OpenSpace/0115_ERC777TokenBank/contracts/Bank.sol\":1554:2222  if (membershipIndex != 0) {... */\n    tag_67:\n        /* \"04-Camps/08-UpChain_Camp_3_OpenSpace/0115_ERC777TokenBank/contracts/Bank.sol\":1531:1534  i-- */\n      dup1\n      dup1\n      tag_96\n      swap1\n      tag_86\n      jump\t// in\n    tag_96:\n      swap2\n      pop\n      pop\n        /* \"04-Camps/08-UpChain_Camp_3_OpenSpace/0115_ERC777TokenBank/contracts/Bank.sol\":1490:2236  for (uint i = convertedIndex - 3; i > 1; i--) {... */\n      jump(tag_62)\n    tag_63:\n      pop\n        /* \"04-Camps/08-UpChain_Camp_3_OpenSpace/0115_ERC777TokenBank/contracts/Bank.sol\":1331:3062  if (membershipIndex != 999) {... */\n      jump(tag_97)\n    tag_60:\n        /* \"04-Camps/08-UpChain_Camp_3_OpenSpace/0115_ERC777TokenBank/contracts/Bank.sol\":2334:2340  uint i */\n      0x00\n        /* \"04-Camps/08-UpChain_Camp_3_OpenSpace/0115_ERC777TokenBank/contracts/Bank.sol\":2343:2344  3 */\n      0x03\n        /* \"04-Camps/08-UpChain_Camp_3_OpenSpace/0115_ERC777TokenBank/contracts/Bank.sol\":2334:2344  uint i = 3 */\n      swap1\n      pop\n        /* \"04-Camps/08-UpChain_Camp_3_OpenSpace/0115_ERC777TokenBank/contracts/Bank.sol\":2329:3052  for (uint i = 3; i > 0; i--) {... */\n    tag_98:\n        /* \"04-Camps/08-UpChain_Camp_3_OpenSpace/0115_ERC777TokenBank/contracts/Bank.sol\":2350:2351  0 */\n      0x00\n        /* \"04-Camps/08-UpChain_Camp_3_OpenSpace/0115_ERC777TokenBank/contracts/Bank.sol\":2346:2347  i */\n      dup2\n        /* \"04-Camps/08-UpChain_Camp_3_OpenSpace/0115_ERC777TokenBank/contracts/Bank.sol\":2346:2351  i > 0 */\n      gt\n        /* \"04-Camps/08-UpChain_Camp_3_OpenSpace/0115_ERC777TokenBank/contracts/Bank.sol\":2329:3052  for (uint i = 3; i > 0; i--) {... */\n      iszero\n      tag_99\n      jumpi\n        /* \"04-Camps/08-UpChain_Camp_3_OpenSpace/0115_ERC777TokenBank/contracts/Bank.sol\":2405:2415  ETHBalance */\n      0x00\n        /* \"04-Camps/08-UpChain_Camp_3_OpenSpace/0115_ERC777TokenBank/contracts/Bank.sol\":2405:2428  ETHBalance[rank[i - 1]] */\n      dup1\n        /* \"04-Camps/08-UpChain_Camp_3_OpenSpace/0115_ERC777TokenBank/contracts/Bank.sol\":2416:2420  rank */\n      0x01\n        /* \"04-Camps/08-UpChain_Camp_3_OpenSpace/0115_ERC777TokenBank/contracts/Bank.sol\":2425:2426  1 */\n      dup1\n        /* \"04-Camps/08-UpChain_Camp_3_OpenSpace/0115_ERC777TokenBank/contracts/Bank.sol\":2421:2422  i */\n      dup5\n        /* \"04-Camps/08-UpChain_Camp_3_OpenSpace/0115_ERC777TokenBank/contracts/Bank.sol\":2421:2426  i - 1 */\n      tag_101\n      swap2\n      swap1\n      tag_66\n      jump\t// in\n    tag_101:\n        /* \"04-Camps/08-UpChain_Camp_3_OpenSpace/0115_ERC777TokenBank/contracts/Bank.sol\":2416:2427  rank[i - 1] */\n      0x03\n      dup2\n      lt\n      tag_102\n      jumpi\n      tag_103\n      tag_41\n      jump\t// in\n    tag_103:\n    tag_102:\n      add\n      0x00\n      swap1\n      sload\n      swap1\n      0x0100\n      exp\n      swap1\n      div\n      0xffffffffffffffffffffffffffffffffffffffff\n      and\n        /* \"04-Camps/08-UpChain_Camp_3_OpenSpace/0115_ERC777TokenBank/contracts/Bank.sol\":2405:2428  ETHBalance[rank[i - 1]] */\n      0xffffffffffffffffffffffffffffffffffffffff\n      and\n      0xffffffffffffffffffffffffffffffffffffffff\n      and\n      dup2\n      mstore\n      0x20\n      add\n      swap1\n      dup2\n      mstore\n      0x20\n      add\n      0x00\n      keccak256\n      sload\n        /* \"04-Camps/08-UpChain_Camp_3_OpenSpace/0115_ERC777TokenBank/contracts/Bank.sol\":2380:2390  ETHBalance */\n      0x00\n        /* \"04-Camps/08-UpChain_Camp_3_OpenSpace/0115_ERC777TokenBank/contracts/Bank.sol\":2380:2402  ETHBalance[msg.sender] */\n      dup1\n        /* \"04-Camps/08-UpChain_Camp_3_OpenSpace/0115_ERC777TokenBank/contracts/Bank.sol\":2391:2401  msg.sender */\n      caller\n        /* \"04-Camps/08-UpChain_Camp_3_OpenSpace/0115_ERC777TokenBank/contracts/Bank.sol\":2380:2402  ETHBalance[msg.sender] */\n      0xffffffffffffffffffffffffffffffffffffffff\n      and\n      0xffffffffffffffffffffffffffffffffffffffff\n      and\n      dup2\n      mstore\n      0x20\n      add\n      swap1\n      dup2\n      mstore\n      0x20\n      add\n      0x00\n      keccak256\n      sload\n        /* \"04-Camps/08-UpChain_Camp_3_OpenSpace/0115_ERC777TokenBank/contracts/Bank.sol\":2380:2428  ETHBalance[msg.sender] > ETHBalance[rank[i - 1]] */\n      gt\n        /* \"04-Camps/08-UpChain_Camp_3_OpenSpace/0115_ERC777TokenBank/contracts/Bank.sol\":2376:3038  if (ETHBalance[msg.sender] > ETHBalance[rank[i - 1]]) {... */\n      iszero\n      tag_105\n      jumpi\n        /* \"04-Camps/08-UpChain_Camp_3_OpenSpace/0115_ERC777TokenBank/contracts/Bank.sol\":2470:2471  1 */\n      0x01\n        /* \"04-Camps/08-UpChain_Camp_3_OpenSpace/0115_ERC777TokenBank/contracts/Bank.sol\":2466:2467  i */\n      dup2\n        /* \"04-Camps/08-UpChain_Camp_3_OpenSpace/0115_ERC777TokenBank/contracts/Bank.sol\":2466:2471  i - 1 */\n      tag_106\n      swap2\n      swap1\n      tag_66\n      jump\t// in\n    tag_106:\n        /* \"04-Camps/08-UpChain_Camp_3_OpenSpace/0115_ERC777TokenBank/contracts/Bank.sol\":2452:2471  indexRecord = i - 1 */\n      swap2\n      pop\n        /* \"04-Camps/08-UpChain_Camp_3_OpenSpace/0115_ERC777TokenBank/contracts/Bank.sol\":2610:2616  uint j */\n      0x00\n        /* \"04-Camps/08-UpChain_Camp_3_OpenSpace/0115_ERC777TokenBank/contracts/Bank.sol\":2619:2620  2 */\n      0x02\n        /* \"04-Camps/08-UpChain_Camp_3_OpenSpace/0115_ERC777TokenBank/contracts/Bank.sol\":2610:2620  uint j = 2 */\n      swap1\n      pop\n        /* \"04-Camps/08-UpChain_Camp_3_OpenSpace/0115_ERC777TokenBank/contracts/Bank.sol\":2605:2708  for (uint j = 2; j > i - 1; j--) {... */\n    tag_107:\n        /* \"04-Camps/08-UpChain_Camp_3_OpenSpace/0115_ERC777TokenBank/contracts/Bank.sol\":2630:2631  1 */\n      0x01\n        /* \"04-Camps/08-UpChain_Camp_3_OpenSpace/0115_ERC777TokenBank/contracts/Bank.sol\":2626:2627  i */\n      dup3\n        /* \"04-Camps/08-UpChain_Camp_3_OpenSpace/0115_ERC777TokenBank/contracts/Bank.sol\":2626:2631  i - 1 */\n      tag_110\n      swap2\n      swap1\n      tag_66\n      jump\t// in\n    tag_110:\n        /* \"04-Camps/08-UpChain_Camp_3_OpenSpace/0115_ERC777TokenBank/contracts/Bank.sol\":2622:2623  j */\n      dup2\n        /* \"04-Camps/08-UpChain_Camp_3_OpenSpace/0115_ERC777TokenBank/contracts/Bank.sol\":2622:2631  j > i - 1 */\n      gt\n        /* \"04-Camps/08-UpChain_Camp_3_OpenSpace/0115_ERC777TokenBank/contracts/Bank.sol\":2605:2708  for (uint j = 2; j > i - 1; j--) {... */\n      iszero\n      tag_108\n      jumpi\n        /* \"04-Camps/08-UpChain_Camp_3_OpenSpace/0115_ERC777TokenBank/contracts/Bank.sol\":2674:2678  rank */\n      0x01\n        /* \"04-Camps/08-UpChain_Camp_3_OpenSpace/0115_ERC777TokenBank/contracts/Bank.sol\":2683:2684  1 */\n      dup1\n        /* \"04-Camps/08-UpChain_Camp_3_OpenSpace/0115_ERC777TokenBank/contracts/Bank.sol\":2679:2680  j */\n      dup3\n        /* \"04-Camps/08-UpChain_Camp_3_OpenSpace/0115_ERC777TokenBank/contracts/Bank.sol\":2679:2684  j - 1 */\n      tag_111\n      swap2\n      swap1\n      tag_66\n      jump\t// in\n    tag_111:\n        /* \"04-Camps/08-UpChain_Camp_3_OpenSpace/0115_ERC777TokenBank/contracts/Bank.sol\":2674:2685  rank[j - 1] */\n      0x03\n      dup2\n      lt\n      tag_112\n      jumpi\n      tag_113\n      tag_41\n      jump\t// in\n    tag_113:\n    tag_112:\n      add\n      0x00\n      swap1\n      sload\n      swap1\n      0x0100\n      exp\n      swap1\n      div\n      0xffffffffffffffffffffffffffffffffffffffff\n      and\n        /* \"04-Camps/08-UpChain_Camp_3_OpenSpace/0115_ERC777TokenBank/contracts/Bank.sol\":2664:2668  rank */\n      0x01\n        /* \"04-Camps/08-UpChain_Camp_3_OpenSpace/0115_ERC777TokenBank/contracts/Bank.sol\":2669:2670  j */\n      dup3\n        /* \"04-Camps/08-UpChain_Camp_3_OpenSpace/0115_ERC777TokenBank/contracts/Bank.sol\":2664:2671  rank[j] */\n      0x03\n      dup2\n      lt\n      tag_115\n      jumpi\n      tag_116\n      tag_41\n      jump\t// in\n    tag_116:\n    tag_115:\n      add\n      0x00\n        /* \"04-Camps/08-UpChain_Camp_3_OpenSpace/0115_ERC777TokenBank/contracts/Bank.sol\":2664:2685  rank[j] = rank[j - 1] */\n      0x0100\n      exp\n      dup2\n      sload\n      dup2\n      0xffffffffffffffffffffffffffffffffffffffff\n      mul\n      not\n      and\n      swap1\n      dup4\n      0xffffffffffffffffffffffffffffffffffffffff\n      and\n      mul\n      or\n      swap1\n      sstore\n      pop\n        /* \"04-Camps/08-UpChain_Camp_3_OpenSpace/0115_ERC777TokenBank/contracts/Bank.sol\":2633:2636  j-- */\n      dup1\n      dup1\n      tag_118\n      swap1\n      tag_86\n      jump\t// in\n    tag_118:\n      swap2\n      pop\n      pop\n        /* \"04-Camps/08-UpChain_Camp_3_OpenSpace/0115_ERC777TokenBank/contracts/Bank.sol\":2605:2708  for (uint j = 2; j > i - 1; j--) {... */\n      jump(tag_107)\n    tag_108:\n      pop\n        /* \"04-Camps/08-UpChain_Camp_3_OpenSpace/0115_ERC777TokenBank/contracts/Bank.sol\":2789:2790  0 */\n      0x00\n        /* \"04-Camps/08-UpChain_Camp_3_OpenSpace/0115_ERC777TokenBank/contracts/Bank.sol\":2774:2785  indexRecord */\n      dup3\n        /* \"04-Camps/08-UpChain_Camp_3_OpenSpace/0115_ERC777TokenBank/contracts/Bank.sol\":2774:2790  indexRecord == 0 */\n      sub\n        /* \"04-Camps/08-UpChain_Camp_3_OpenSpace/0115_ERC777TokenBank/contracts/Bank.sol\":2770:2871  if (indexRecord == 0) {... */\n      tag_119\n      jumpi\n        /* \"04-Camps/08-UpChain_Camp_3_OpenSpace/0115_ERC777TokenBank/contracts/Bank.sol\":2838:2848  msg.sender */\n      caller\n        /* \"04-Camps/08-UpChain_Camp_3_OpenSpace/0115_ERC777TokenBank/contracts/Bank.sol\":2818:2822  rank */\n      0x01\n        /* \"04-Camps/08-UpChain_Camp_3_OpenSpace/0115_ERC777TokenBank/contracts/Bank.sol\":2823:2834  indexRecord */\n      dup4\n        /* \"04-Camps/08-UpChain_Camp_3_OpenSpace/0115_ERC777TokenBank/contracts/Bank.sol\":2818:2835  rank[indexRecord] */\n      0x03\n      dup2\n      lt\n      tag_120\n      jumpi\n      tag_121\n      tag_41\n      jump\t// in\n    tag_121:\n    tag_120:\n      add\n      0x00\n        /* \"04-Camps/08-UpChain_Camp_3_OpenSpace/0115_ERC777TokenBank/contracts/Bank.sol\":2818:2848  rank[indexRecord] = msg.sender */\n      0x0100\n      exp\n      dup2\n      sload\n      dup2\n      0xffffffffffffffffffffffffffffffffffffffff\n      mul\n      not\n      and\n      swap1\n      dup4\n      0xffffffffffffffffffffffffffffffffffffffff\n      and\n      mul\n      or\n      swap1\n      sstore\n      pop\n        /* \"04-Camps/08-UpChain_Camp_3_OpenSpace/0115_ERC777TokenBank/contracts/Bank.sol\":2770:2871  if (indexRecord == 0) {... */\n    tag_119:\n        /* \"04-Camps/08-UpChain_Camp_3_OpenSpace/0115_ERC777TokenBank/contracts/Bank.sol\":2376:3038  if (ETHBalance[msg.sender] > ETHBalance[rank[i - 1]]) {... */\n      jump(tag_123)\n    tag_105:\n        /* \"04-Camps/08-UpChain_Camp_3_OpenSpace/0115_ERC777TokenBank/contracts/Bank.sol\":2936:2939  777 */\n      0x0309\n        /* \"04-Camps/08-UpChain_Camp_3_OpenSpace/0115_ERC777TokenBank/contracts/Bank.sol\":2921:2932  indexRecord */\n      dup3\n        /* \"04-Camps/08-UpChain_Camp_3_OpenSpace/0115_ERC777TokenBank/contracts/Bank.sol\":2921:2939  indexRecord != 777 */\n      eq\n        /* \"04-Camps/08-UpChain_Camp_3_OpenSpace/0115_ERC777TokenBank/contracts/Bank.sol\":2917:3020  if (indexRecord != 777) {... */\n      tag_124\n      jumpi\n        /* \"04-Camps/08-UpChain_Camp_3_OpenSpace/0115_ERC777TokenBank/contracts/Bank.sol\":2987:2997  msg.sender */\n      caller\n        /* \"04-Camps/08-UpChain_Camp_3_OpenSpace/0115_ERC777TokenBank/contracts/Bank.sol\":2967:2971  rank */\n      0x01\n        /* \"04-Camps/08-UpChain_Camp_3_OpenSpace/0115_ERC777TokenBank/contracts/Bank.sol\":2972:2983  indexRecord */\n      dup4\n        /* \"04-Camps/08-UpChain_Camp_3_OpenSpace/0115_ERC777TokenBank/contracts/Bank.sol\":2967:2984  rank[indexRecord] */\n      0x03\n      dup2\n      lt\n      tag_125\n      jumpi\n      tag_126\n      tag_41\n      jump\t// in\n    tag_126:\n    tag_125:\n      add\n      0x00\n        /* \"04-Camps/08-UpChain_Camp_3_OpenSpace/0115_ERC777TokenBank/contracts/Bank.sol\":2967:2997  rank[indexRecord] = msg.sender */\n      0x0100\n      exp\n      dup2\n      sload\n      dup2\n      0xffffffffffffffffffffffffffffffffffffffff\n      mul\n      not\n      and\n      swap1\n      dup4\n      0xffffffffffffffffffffffffffffffffffffffff\n      and\n      mul\n      or\n      swap1\n      sstore\n      pop\n        /* \"04-Camps/08-UpChain_Camp_3_OpenSpace/0115_ERC777TokenBank/contracts/Bank.sol\":2917:3020  if (indexRecord != 777) {... */\n    tag_124:\n        /* \"04-Camps/08-UpChain_Camp_3_OpenSpace/0115_ERC777TokenBank/contracts/Bank.sol\":2376:3038  if (ETHBalance[msg.sender] > ETHBalance[rank[i - 1]]) {... */\n    tag_123:\n        /* \"04-Camps/08-UpChain_Camp_3_OpenSpace/0115_ERC777TokenBank/contracts/Bank.sol\":2353:2356  i-- */\n      dup1\n      dup1\n      tag_128\n      swap1\n      tag_86\n      jump\t// in\n    tag_128:\n      swap2\n      pop\n      pop\n        /* \"04-Camps/08-UpChain_Camp_3_OpenSpace/0115_ERC777TokenBank/contracts/Bank.sol\":2329:3052  for (uint i = 3; i > 0; i--) {... */\n      jump(tag_98)\n    tag_99:\n      pop\n        /* \"04-Camps/08-UpChain_Camp_3_OpenSpace/0115_ERC777TokenBank/contracts/Bank.sol\":1331:3062  if (membershipIndex != 999) {... */\n    tag_97:\n        /* \"04-Camps/08-UpChain_Camp_3_OpenSpace/0115_ERC777TokenBank/contracts/Bank.sol\":1202:3068  {... */\n      pop\n      pop\n      pop\n        /* \"04-Camps/08-UpChain_Camp_3_OpenSpace/0115_ERC777TokenBank/contracts/Bank.sol\":1156:3068  function _handleRankWhenDepositETH() internal {... */\n      jump\t// out\n        /* \"04-Camps/08-UpChain_Camp_3_OpenSpace/0115_ERC777TokenBank/contracts/Bank.sol\":3074:3347  function _checkETHRankMembership() internal view returns (uint) {... */\n    tag_59:\n        /* \"04-Camps/08-UpChain_Camp_3_OpenSpace/0115_ERC777TokenBank/contracts/Bank.sol\":3132:3136  uint */\n      0x00\n        /* \"04-Camps/08-UpChain_Camp_3_OpenSpace/0115_ERC777TokenBank/contracts/Bank.sol\":3148:3158  uint index */\n      dup1\n        /* \"04-Camps/08-UpChain_Camp_3_OpenSpace/0115_ERC777TokenBank/contracts/Bank.sol\":3161:3164  999 */\n      0x03e7\n        /* \"04-Camps/08-UpChain_Camp_3_OpenSpace/0115_ERC777TokenBank/contracts/Bank.sol\":3148:3164  uint index = 999 */\n      swap1\n      pop\n        /* \"04-Camps/08-UpChain_Camp_3_OpenSpace/0115_ERC777TokenBank/contracts/Bank.sol\":3179:3185  uint i */\n      0x00\n        /* \"04-Camps/08-UpChain_Camp_3_OpenSpace/0115_ERC777TokenBank/contracts/Bank.sol\":3174:3319  for (uint i = 0; i < 3; i++) {... */\n    tag_130:\n        /* \"04-Camps/08-UpChain_Camp_3_OpenSpace/0115_ERC777TokenBank/contracts/Bank.sol\":3195:3196  3 */\n      0x03\n        /* \"04-Camps/08-UpChain_Camp_3_OpenSpace/0115_ERC777TokenBank/contracts/Bank.sol\":3191:3192  i */\n      dup2\n        /* \"04-Camps/08-UpChain_Camp_3_OpenSpace/0115_ERC777TokenBank/contracts/Bank.sol\":3191:3196  i < 3 */\n      lt\n        /* \"04-Camps/08-UpChain_Camp_3_OpenSpace/0115_ERC777TokenBank/contracts/Bank.sol\":3174:3319  for (uint i = 0; i < 3; i++) {... */\n      iszero\n      tag_131\n      jumpi\n        /* \"04-Camps/08-UpChain_Camp_3_OpenSpace/0115_ERC777TokenBank/contracts/Bank.sol\":3232:3242  msg.sender */\n      caller\n        /* \"04-Camps/08-UpChain_Camp_3_OpenSpace/0115_ERC777TokenBank/contracts/Bank.sol\":3221:3242  rank[i] == msg.sender */\n      0xffffffffffffffffffffffffffffffffffffffff\n      and\n        /* \"04-Camps/08-UpChain_Camp_3_OpenSpace/0115_ERC777TokenBank/contracts/Bank.sol\":3221:3225  rank */\n      0x01\n        /* \"04-Camps/08-UpChain_Camp_3_OpenSpace/0115_ERC777TokenBank/contracts/Bank.sol\":3226:3227  i */\n      dup3\n        /* \"04-Camps/08-UpChain_Camp_3_OpenSpace/0115_ERC777TokenBank/contracts/Bank.sol\":3221:3228  rank[i] */\n      0x03\n      dup2\n      lt\n      tag_133\n      jumpi\n      tag_134\n      tag_41\n      jump\t// in\n    tag_134:\n    tag_133:\n      add\n      0x00\n      swap1\n      sload\n      swap1\n      0x0100\n      exp\n      swap1\n      div\n      0xffffffffffffffffffffffffffffffffffffffff\n      and\n        /* \"04-Camps/08-UpChain_Camp_3_OpenSpace/0115_ERC777TokenBank/contracts/Bank.sol\":3221:3242  rank[i] == msg.sender */\n      0xffffffffffffffffffffffffffffffffffffffff\n      and\n      sub\n        /* \"04-Camps/08-UpChain_Camp_3_OpenSpace/0115_ERC777TokenBank/contracts/Bank.sol\":3217:3309  if (rank[i] == msg.sender) {... */\n      tag_136\n      jumpi\n        /* \"04-Camps/08-UpChain_Camp_3_OpenSpace/0115_ERC777TokenBank/contracts/Bank.sol\":3270:3271  i */\n      dup1\n        /* \"04-Camps/08-UpChain_Camp_3_OpenSpace/0115_ERC777TokenBank/contracts/Bank.sol\":3262:3271  index = i */\n      swap2\n      pop\n        /* \"04-Camps/08-UpChain_Camp_3_OpenSpace/0115_ERC777TokenBank/contracts/Bank.sol\":3289:3294  break */\n      jump(tag_131)\n        /* \"04-Camps/08-UpChain_Camp_3_OpenSpace/0115_ERC777TokenBank/contracts/Bank.sol\":3217:3309  if (rank[i] == msg.sender) {... */\n    tag_136:\n        /* \"04-Camps/08-UpChain_Camp_3_OpenSpace/0115_ERC777TokenBank/contracts/Bank.sol\":3198:3201  i++ */\n      dup1\n      dup1\n      0x01\n      add\n      swap2\n      pop\n      pop\n        /* \"04-Camps/08-UpChain_Camp_3_OpenSpace/0115_ERC777TokenBank/contracts/Bank.sol\":3174:3319  for (uint i = 0; i < 3; i++) {... */\n      jump(tag_130)\n    tag_131:\n      pop\n        /* \"04-Camps/08-UpChain_Camp_3_OpenSpace/0115_ERC777TokenBank/contracts/Bank.sol\":3335:3340  index */\n      dup1\n        /* \"04-Camps/08-UpChain_Camp_3_OpenSpace/0115_ERC777TokenBank/contracts/Bank.sol\":3328:3340  return index */\n      swap2\n      pop\n      pop\n        /* \"04-Camps/08-UpChain_Camp_3_OpenSpace/0115_ERC777TokenBank/contracts/Bank.sol\":3074:3347  function _checkETHRankMembership() internal view returns (uint) {... */\n      swap1\n      jump\t// out\n        /* \"#utility.yul\":7:133   */\n    tag_137:\n        /* \"#utility.yul\":44:51   */\n      0x00\n        /* \"#utility.yul\":84:126   */\n      0xffffffffffffffffffffffffffffffffffffffff\n        /* \"#utility.yul\":77:82   */\n      dup3\n        /* \"#utility.yul\":73:127   */\n      and\n        /* \"#utility.yul\":62:127   */\n      swap1\n      pop\n        /* \"#utility.yul\":7:133   */\n      swap2\n      swap1\n      pop\n      jump\t// out\n        /* \"#utility.yul\":139:235   */\n    tag_138:\n        /* \"#utility.yul\":176:183   */\n      0x00\n        /* \"#utility.yul\":205:229   */\n      tag_154\n        /* \"#utility.yul\":223:228   */\n      dup3\n        /* \"#utility.yul\":205:229   */\n      tag_137\n      jump\t// in\n    tag_154:\n        /* \"#utility.yul\":194:229   */\n      swap1\n      pop\n        /* \"#utility.yul\":139:235   */\n      swap2\n      swap1\n      pop\n      jump\t// out\n        /* \"#utility.yul\":241:359   */\n    tag_139:\n        /* \"#utility.yul\":328:352   */\n      tag_156\n        /* \"#utility.yul\":346:351   */\n      dup2\n        /* \"#utility.yul\":328:352   */\n      tag_138\n      jump\t// in\n    tag_156:\n        /* \"#utility.yul\":323:326   */\n      dup3\n        /* \"#utility.yul\":316:353   */\n      mstore\n        /* \"#utility.yul\":241:359   */\n      pop\n      pop\n      jump\t// out\n        /* \"#utility.yul\":365:807   */\n    tag_16:\n        /* \"#utility.yul\":514:518   */\n      0x00\n        /* \"#utility.yul\":552:554   */\n      0x60\n        /* \"#utility.yul\":541:550   */\n      dup3\n        /* \"#utility.yul\":537:555   */\n      add\n        /* \"#utility.yul\":529:555   */\n      swap1\n      pop\n        /* \"#utility.yul\":565:636   */\n      tag_158\n        /* \"#utility.yul\":633:634   */\n      0x00\n        /* \"#utility.yul\":622:631   */\n      dup4\n        /* \"#utility.yul\":618:635   */\n      add\n        /* \"#utility.yul\":609:615   */\n      dup7\n        /* \"#utility.yul\":565:636   */\n      tag_139\n      jump\t// in\n    tag_158:\n        /* \"#utility.yul\":646:718   */\n      tag_159\n        /* \"#utility.yul\":714:716   */\n      0x20\n        /* \"#utility.yul\":703:712   */\n      dup4\n        /* \"#utility.yul\":699:717   */\n      add\n        /* \"#utility.yul\":690:696   */\n      dup6\n        /* \"#utility.yul\":646:718   */\n      tag_139\n      jump\t// in\n    tag_159:\n        /* \"#utility.yul\":728:800   */\n      tag_160\n        /* \"#utility.yul\":796:798   */\n      0x40\n        /* \"#utility.yul\":785:794   */\n      dup4\n        /* \"#utility.yul\":781:799   */\n      add\n        /* \"#utility.yul\":772:778   */\n      dup5\n        /* \"#utility.yul\":728:800   */\n      tag_139\n      jump\t// in\n    tag_160:\n        /* \"#utility.yul\":365:807   */\n      swap5\n      swap4\n      pop\n      pop\n      pop\n      pop\n      jump\t// out\n        /* \"#utility.yul\":894:1011   */\n    tag_141:\n        /* \"#utility.yul\":1003:1004   */\n      0x00\n        /* \"#utility.yul\":1000:1001   */\n      dup1\n        /* \"#utility.yul\":993:1005   */\n      revert\n        /* \"#utility.yul\":1140:1262   */\n    tag_143:\n        /* \"#utility.yul\":1213:1237   */\n      tag_165\n        /* \"#utility.yul\":1231:1236   */\n      dup2\n        /* \"#utility.yul\":1213:1237   */\n      tag_138\n      jump\t// in\n    tag_165:\n        /* \"#utility.yul\":1206:1211   */\n      dup2\n        /* \"#utility.yul\":1203:1238   */\n      eq\n        /* \"#utility.yul\":1193:1256   */\n      tag_166\n      jumpi\n        /* \"#utility.yul\":1252:1253   */\n      0x00\n        /* \"#utility.yul\":1249:1250   */\n      dup1\n        /* \"#utility.yul\":1242:1254   */\n      revert\n        /* \"#utility.yul\":1193:1256   */\n    tag_166:\n        /* \"#utility.yul\":1140:1262   */\n      pop\n      jump\t// out\n        /* \"#utility.yul\":1268:1407   */\n    tag_144:\n        /* \"#utility.yul\":1314:1319   */\n      0x00\n        /* \"#utility.yul\":1352:1358   */\n      dup2\n        /* \"#utility.yul\":1339:1359   */\n      calldataload\n        /* \"#utility.yul\":1330:1359   */\n      swap1\n      pop\n        /* \"#utility.yul\":1368:1401   */\n      tag_168\n        /* \"#utility.yul\":1395:1400   */\n      dup2\n        /* \"#utility.yul\":1368:1401   */\n      tag_143\n      jump\t// in\n    tag_168:\n        /* \"#utility.yul\":1268:1407   */\n      swap3\n      swap2\n      pop\n      pop\n      jump\t// out\n        /* \"#utility.yul\":1413:1742   */\n    tag_20:\n        /* \"#utility.yul\":1472:1478   */\n      0x00\n        /* \"#utility.yul\":1521:1523   */\n      0x20\n        /* \"#utility.yul\":1509:1518   */\n      dup3\n        /* \"#utility.yul\":1500:1507   */\n      dup5\n        /* \"#utility.yul\":1496:1519   */\n      sub\n        /* \"#utility.yul\":1492:1524   */\n      slt\n        /* \"#utility.yul\":1489:1608   */\n      iszero\n      tag_170\n      jumpi\n        /* \"#utility.yul\":1527:1606   */\n      tag_171\n      tag_141\n      jump\t// in\n    tag_171:\n        /* \"#utility.yul\":1489:1608   */\n    tag_170:\n        /* \"#utility.yul\":1647:1648   */\n      0x00\n        /* \"#utility.yul\":1672:1725   */\n      tag_172\n        /* \"#utility.yul\":1717:1724   */\n      dup5\n        /* \"#utility.yul\":1708:1714   */\n      dup3\n        /* \"#utility.yul\":1697:1706   */\n      dup6\n        /* \"#utility.yul\":1693:1715   */\n      add\n        /* \"#utility.yul\":1672:1725   */\n      tag_144\n      jump\t// in\n    tag_172:\n        /* \"#utility.yul\":1662:1725   */\n      swap2\n      pop\n        /* \"#utility.yul\":1618:1735   */\n      pop\n        /* \"#utility.yul\":1413:1742   */\n      swap3\n      swap2\n      pop\n      pop\n      jump\t// out\n        /* \"#utility.yul\":1748:1825   */\n    tag_145:\n        /* \"#utility.yul\":1785:1792   */\n      0x00\n        /* \"#utility.yul\":1814:1819   */\n      dup2\n        /* \"#utility.yul\":1803:1819   */\n      swap1\n      pop\n        /* \"#utility.yul\":1748:1825   */\n      swap2\n      swap1\n      pop\n      jump\t// out\n        /* \"#utility.yul\":1831:1949   */\n    tag_146:\n        /* \"#utility.yul\":1918:1942   */\n      tag_175\n        /* \"#utility.yul\":1936:1941   */\n      dup2\n        /* \"#utility.yul\":1918:1942   */\n      tag_145\n      jump\t// in\n    tag_175:\n        /* \"#utility.yul\":1913:1916   */\n      dup3\n        /* \"#utility.yul\":1906:1943   */\n      mstore\n        /* \"#utility.yul\":1831:1949   */\n      pop\n      pop\n      jump\t// out\n        /* \"#utility.yul\":1955:2177   */\n    tag_23:\n        /* \"#utility.yul\":2048:2052   */\n      0x00\n        /* \"#utility.yul\":2086:2088   */\n      0x20\n        /* \"#utility.yul\":2075:2084   */\n      dup3\n        /* \"#utility.yul\":2071:2089   */\n      add\n        /* \"#utility.yul\":2063:2089   */\n      swap1\n      pop\n        /* \"#utility.yul\":2099:2170   */\n      tag_177\n        /* \"#utility.yul\":2167:2168   */\n      0x00\n        /* \"#utility.yul\":2156:2165   */\n      dup4\n        /* \"#utility.yul\":2152:2169   */\n      add\n        /* \"#utility.yul\":2143:2149   */\n      dup5\n        /* \"#utility.yul\":2099:2170   */\n      tag_146\n      jump\t// in\n    tag_177:\n        /* \"#utility.yul\":1955:2177   */\n      swap3\n      swap2\n      pop\n      pop\n      jump\t// out\n        /* \"#utility.yul\":2183:2405   */\n    tag_28:\n        /* \"#utility.yul\":2276:2280   */\n      0x00\n        /* \"#utility.yul\":2314:2316   */\n      0x20\n        /* \"#utility.yul\":2303:2312   */\n      dup3\n        /* \"#utility.yul\":2299:2317   */\n      add\n        /* \"#utility.yul\":2291:2317   */\n      swap1\n      pop\n        /* \"#utility.yul\":2327:2398   */\n      tag_179\n        /* \"#utility.yul\":2395:2396   */\n      0x00\n        /* \"#utility.yul\":2384:2393   */\n      dup4\n        /* \"#utility.yul\":2380:2397   */\n      add\n        /* \"#utility.yul\":2371:2377   */\n      dup5\n        /* \"#utility.yul\":2327:2398   */\n      tag_139\n      jump\t// in\n    tag_179:\n        /* \"#utility.yul\":2183:2405   */\n      swap3\n      swap2\n      pop\n      pop\n      jump\t// out\n        /* \"#utility.yul\":2411:2591   */\n    tag_147:\n        /* \"#utility.yul\":2459:2536   */\n      0x4e487b7100000000000000000000000000000000000000000000000000000000\n        /* \"#utility.yul\":2456:2457   */\n      0x00\n        /* \"#utility.yul\":2449:2537   */\n      mstore\n        /* \"#utility.yul\":2556:2560   */\n      0x11\n        /* \"#utility.yul\":2553:2554   */\n      0x04\n        /* \"#utility.yul\":2546:2561   */\n      mstore\n        /* \"#utility.yul\":2580:2584   */\n      0x24\n        /* \"#utility.yul\":2577:2578   */\n      0x00\n        /* \"#utility.yul\":2570:2585   */\n      revert\n        /* \"#utility.yul\":2597:2788   */\n    tag_35:\n        /* \"#utility.yul\":2637:2640   */\n      0x00\n        /* \"#utility.yul\":2656:2676   */\n      tag_182\n        /* \"#utility.yul\":2674:2675   */\n      dup3\n        /* \"#utility.yul\":2656:2676   */\n      tag_145\n      jump\t// in\n    tag_182:\n        /* \"#utility.yul\":2651:2676   */\n      swap2\n      pop\n        /* \"#utility.yul\":2690:2710   */\n      tag_183\n        /* \"#utility.yul\":2708:2709   */\n      dup4\n        /* \"#utility.yul\":2690:2710   */\n      tag_145\n      jump\t// in\n    tag_183:\n        /* \"#utility.yul\":2685:2710   */\n      swap3\n      pop\n        /* \"#utility.yul\":2733:2734   */\n      dup3\n        /* \"#utility.yul\":2730:2731   */\n      dup3\n        /* \"#utility.yul\":2726:2735   */\n      add\n        /* \"#utility.yul\":2719:2735   */\n      swap1\n      pop\n        /* \"#utility.yul\":2754:2757   */\n      dup1\n        /* \"#utility.yul\":2751:2752   */\n      dup3\n        /* \"#utility.yul\":2748:2758   */\n      gt\n        /* \"#utility.yul\":2745:2781   */\n      iszero\n      tag_184\n      jumpi\n        /* \"#utility.yul\":2761:2779   */\n      tag_185\n      tag_147\n      jump\t// in\n    tag_185:\n        /* \"#utility.yul\":2745:2781   */\n    tag_184:\n        /* \"#utility.yul\":2597:2788   */\n      swap3\n      swap2\n      pop\n      pop\n      jump\t// out\n        /* \"#utility.yul\":2794:2974   */\n    tag_41:\n        /* \"#utility.yul\":2842:2919   */\n      0x4e487b7100000000000000000000000000000000000000000000000000000000\n        /* \"#utility.yul\":2839:2840   */\n      0x00\n        /* \"#utility.yul\":2832:2920   */\n      mstore\n        /* \"#utility.yul\":2939:2943   */\n      0x32\n        /* \"#utility.yul\":2936:2937   */\n      0x04\n        /* \"#utility.yul\":2929:2944   */\n      mstore\n        /* \"#utility.yul\":2963:2967   */\n      0x24\n        /* \"#utility.yul\":2960:2961   */\n      0x00\n        /* \"#utility.yul\":2953:2968   */\n      revert\n        /* \"#utility.yul\":2980:3149   */\n    tag_148:\n        /* \"#utility.yul\":3064:3075   */\n      0x00\n        /* \"#utility.yul\":3098:3104   */\n      dup3\n        /* \"#utility.yul\":3093:3096   */\n      dup3\n        /* \"#utility.yul\":3086:3105   */\n      mstore\n        /* \"#utility.yul\":3138:3142   */\n      0x20\n        /* \"#utility.yul\":3133:3136   */\n      dup3\n        /* \"#utility.yul\":3129:3143   */\n      add\n        /* \"#utility.yul\":3114:3143   */\n      swap1\n      pop\n        /* \"#utility.yul\":2980:3149   */\n      swap3\n      swap2\n      pop\n      pop\n      jump\t// out\n        /* \"#utility.yul\":3155:3324   */\n    tag_149:\n        /* \"#utility.yul\":3295:3316   */\n      0x4f6e6c79206f776e65722063616e2063616c6c00000000000000000000000000\n        /* \"#utility.yul\":3291:3292   */\n      0x00\n        /* \"#utility.yul\":3283:3289   */\n      dup3\n        /* \"#utility.yul\":3279:3293   */\n      add\n        /* \"#utility.yul\":3272:3317   */\n      mstore\n        /* \"#utility.yul\":3155:3324   */\n      pop\n      jump\t// out\n        /* \"#utility.yul\":3330:3696   */\n    tag_150:\n        /* \"#utility.yul\":3472:3475   */\n      0x00\n        /* \"#utility.yul\":3493:3560   */\n      tag_190\n        /* \"#utility.yul\":3557:3559   */\n      0x13\n        /* \"#utility.yul\":3552:3555   */\n      dup4\n        /* \"#utility.yul\":3493:3560   */\n      tag_148\n      jump\t// in\n    tag_190:\n        /* \"#utility.yul\":3486:3560   */\n      swap2\n      pop\n        /* \"#utility.yul\":3569:3662   */\n      tag_191\n        /* \"#utility.yul\":3658:3661   */\n      dup3\n        /* \"#utility.yul\":3569:3662   */\n      tag_149\n      jump\t// in\n    tag_191:\n        /* \"#utility.yul\":3687:3689   */\n      0x20\n        /* \"#utility.yul\":3682:3685   */\n      dup3\n        /* \"#utility.yul\":3678:3690   */\n      add\n        /* \"#utility.yul\":3671:3690   */\n      swap1\n      pop\n        /* \"#utility.yul\":3330:3696   */\n      swap2\n      swap1\n      pop\n      jump\t// out\n        /* \"#utility.yul\":3702:4121   */\n    tag_53:\n        /* \"#utility.yul\":3868:3872   */\n      0x00\n        /* \"#utility.yul\":3906:3908   */\n      0x20\n        /* \"#utility.yul\":3895:3904   */\n      dup3\n        /* \"#utility.yul\":3891:3909   */\n      add\n        /* \"#utility.yul\":3883:3909   */\n      swap1\n      pop\n        /* \"#utility.yul\":3955:3964   */\n      dup2\n        /* \"#utility.yul\":3949:3953   */\n      dup2\n        /* \"#utility.yul\":3945:3965   */\n      sub\n        /* \"#utility.yul\":3941:3942   */\n      0x00\n        /* \"#utility.yul\":3930:3939   */\n      dup4\n        /* \"#utility.yul\":3926:3943   */\n      add\n        /* \"#utility.yul\":3919:3966   */\n      mstore\n        /* \"#utility.yul\":3983:4114   */\n      tag_193\n        /* \"#utility.yul\":4109:4113   */\n      dup2\n        /* \"#utility.yul\":3983:4114   */\n      tag_150\n      jump\t// in\n    tag_193:\n        /* \"#utility.yul\":3975:4114   */\n      swap1\n      pop\n        /* \"#utility.yul\":3702:4121   */\n      swap2\n      swap1\n      pop\n      jump\t// out\n        /* \"#utility.yul\":4127:4321   */\n    tag_66:\n        /* \"#utility.yul\":4167:4171   */\n      0x00\n        /* \"#utility.yul\":4187:4207   */\n      tag_195\n        /* \"#utility.yul\":4205:4206   */\n      dup3\n        /* \"#utility.yul\":4187:4207   */\n      tag_145\n      jump\t// in\n    tag_195:\n        /* \"#utility.yul\":4182:4207   */\n      swap2\n      pop\n        /* \"#utility.yul\":4221:4241   */\n      tag_196\n        /* \"#utility.yul\":4239:4240   */\n      dup4\n        /* \"#utility.yul\":4221:4241   */\n      tag_145\n      jump\t// in\n    tag_196:\n        /* \"#utility.yul\":4216:4241   */\n      swap3\n      pop\n        /* \"#utility.yul\":4265:4266   */\n      dup3\n        /* \"#utility.yul\":4262:4263   */\n      dup3\n        /* \"#utility.yul\":4258:4267   */\n      sub\n        /* \"#utility.yul\":4250:4267   */\n      swap1\n      pop\n        /* \"#utility.yul\":4289:4290   */\n      dup2\n        /* \"#utility.yul\":4283:4287   */\n      dup2\n        /* \"#utility.yul\":4280:4291   */\n      gt\n        /* \"#utility.yul\":4277:4314   */\n      iszero\n      tag_197\n      jumpi\n        /* \"#utility.yul\":4294:4312   */\n      tag_198\n      tag_147\n      jump\t// in\n    tag_198:\n        /* \"#utility.yul\":4277:4314   */\n    tag_197:\n        /* \"#utility.yul\":4127:4321   */\n      swap3\n      swap2\n      pop\n      pop\n      jump\t// out\n        /* \"#utility.yul\":4327:4498   */\n    tag_86:\n        /* \"#utility.yul\":4366:4369   */\n      0x00\n        /* \"#utility.yul\":4389:4413   */\n      tag_200\n        /* \"#utility.yul\":4407:4412   */\n      dup3\n        /* \"#utility.yul\":4389:4413   */\n      tag_145\n      jump\t// in\n    tag_200:\n        /* \"#utility.yul\":4380:4413   */\n      swap2\n      pop\n        /* \"#utility.yul\":4435:4439   */\n      0x00\n        /* \"#utility.yul\":4428:4433   */\n      dup3\n        /* \"#utility.yul\":4425:4440   */\n      sub\n        /* \"#utility.yul\":4422:4463   */\n      tag_201\n      jumpi\n        /* \"#utility.yul\":4443:4461   */\n      tag_202\n      tag_147\n      jump\t// in\n    tag_202:\n        /* \"#utility.yul\":4422:4463   */\n    tag_201:\n        /* \"#utility.yul\":4490:4491   */\n      0x01\n        /* \"#utility.yul\":4483:4488   */\n      dup3\n        /* \"#utility.yul\":4479:4492   */\n      sub\n        /* \"#utility.yul\":4472:4492   */\n      swap1\n      pop\n        /* \"#utility.yul\":4327:4498   */\n      swap2\n      swap1\n      pop\n      jump\t// out\n\n    auxdata: 0xa26469706673582212200917aeb3870714b4e4a38c14bbb2d18fd39cf165060fbcf8a25508b87b26d85d64736f6c63430008160033\n}\n",
				"bytecode": {
					"linkReferences": {},
					"object": "608060405234801561000f575f80fd5b503360045f6101000a81548173ffffffffffffffffffffffffffffffffffffffff021916908373ffffffffffffffffffffffffffffffffffffffff160217905550610be48061005d5f395ff3fe60806040526004361061004d575f3560e01c80632b7e8faf146100605780633bb66a7b1461008c5780638da5cb5b146100c8578063e086e5ec146100f2578063f6326fb3146101085761005c565b3661005c5761005a610112565b005b5f80fd5b34801561006b575f80fd5b5061007461016e565b60405161008393929190610977565b60405180910390f35b348015610097575f80fd5b506100b260048036038101906100ad91906109da565b61021c565b6040516100bf9190610a1d565b60405180910390f35b3480156100d3575f80fd5b506100dc610261565b6040516100e99190610a36565b60405180910390f35b3480156100fd575f80fd5b50610106610286565b005b610110610112565b005b345f803373ffffffffffffffffffffffffffffffffffffffff1673ffffffffffffffffffffffffffffffffffffffff1681526020019081526020015f205f82825461015d9190610a7c565b9250508190555061016c61037c565b565b5f805f60015f6003811061018557610184610aaf565b5b015f9054906101000a900473ffffffffffffffffffffffffffffffffffffffff16600180600381106101ba576101b9610aaf565b5b015f9054906101000a900473ffffffffffffffffffffffffffffffffffffffff1660016002600381106101f0576101ef610aaf565b5b015f9054906101000a900473ffffffffffffffffffffffffffffffffffffffff16925092509250909192565b5f805f8373ffffffffffffffffffffffffffffffffffffffff1673ffffffffffffffffffffffffffffffffffffffff1681526020019081526020015f20549050919050565b60045f9054906101000a900473ffffffffffffffffffffffffffffffffffffffff1681565b60045f9054906101000a900473ffffffffffffffffffffffffffffffffffffffff1673ffffffffffffffffffffffffffffffffffffffff163373ffffffffffffffffffffffffffffffffffffffff1614610315576040517f08c379a000000000000000000000000000000000000000000000000000000000815260040161030c90610b36565b60405180910390fd5b60045f9054906101000a900473ffffffffffffffffffffffffffffffffffffffff1673ffffffffffffffffffffffffffffffffffffffff166108fc4790811502906040515f60405180830381858888f19350505050158015610379573d5f803e3d5ffd5b50565b5f6103856108a2565b90505f8061030990506103e7831461062e576004836103a49190610a7c565b91505f6003836103b49190610b54565b90505b6001811115610628575f8414610615575f8060016002846103d89190610b54565b600381106103e9576103e8610aaf565b5b015f9054906101000a900473ffffffffffffffffffffffffffffffffffffffff1673ffffffffffffffffffffffffffffffffffffffff1673ffffffffffffffffffffffffffffffffffffffff1681526020019081526020015f20545f803373ffffffffffffffffffffffffffffffffffffffff1673ffffffffffffffffffffffffffffffffffffffff1681526020019081526020015f205411156105b6576002816104949190610b54565b91505f600290505b6002826104a99190610b54565b81111561055557600180826104be9190610b54565b600381106104cf576104ce610aaf565b5b015f9054906101000a900473ffffffffffffffffffffffffffffffffffffffff166001826003811061050457610503610aaf565b5b015f6101000a81548173ffffffffffffffffffffffffffffffffffffffff021916908373ffffffffffffffffffffffffffffffffffffffff160217905550808061054d90610b87565b91505061049c565b505f82036105b157336001836003811061057257610571610aaf565b5b015f6101000a81548173ffffffffffffffffffffffffffffffffffffffff021916908373ffffffffffffffffffffffffffffffffffffffff1602179055505b610614565b61030982146106135733600183600381106105d4576105d3610aaf565b5b015f6101000a81548173ffffffffffffffffffffffffffffffffffffffff021916908373ffffffffffffffffffffffffffffffffffffffff1602179055505b5b5b808061062090610b87565b9150506103b7565b5061089d565b5f600390505b5f81111561089b575f806001808461064c9190610b54565b6003811061065d5761065c610aaf565b5b015f9054906101000a900473ffffffffffffffffffffffffffffffffffffffff1673ffffffffffffffffffffffffffffffffffffffff1673ffffffffffffffffffffffffffffffffffffffff1681526020019081526020015f20545f803373ffffffffffffffffffffffffffffffffffffffff1673ffffffffffffffffffffffffffffffffffffffff1681526020019081526020015f2054111561082a576001816107089190610b54565b91505f600290505b60018261071d9190610b54565b8111156107c957600180826107329190610b54565b6003811061074357610742610aaf565b5b015f9054906101000a900473ffffffffffffffffffffffffffffffffffffffff166001826003811061077857610777610aaf565b5b015f6101000a81548173ffffffffffffffffffffffffffffffffffffffff021916908373ffffffffffffffffffffffffffffffffffffffff16021790555080806107c190610b87565b915050610710565b505f82036108255733600183600381106107e6576107e5610aaf565b5b015f6101000a81548173ffffffffffffffffffffffffffffffffffffffff021916908373ffffffffffffffffffffffffffffffffffffffff1602179055505b610888565b610309821461088757336001836003811061084857610847610aaf565b5b015f6101000a81548173ffffffffffffffffffffffffffffffffffffffff021916908373ffffffffffffffffffffffffffffffffffffffff1602179055505b5b808061089390610b87565b915050610634565b505b505050565b5f806103e790505f5b6003811015610930573373ffffffffffffffffffffffffffffffffffffffff16600182600381106108df576108de610aaf565b5b015f9054906101000a900473ffffffffffffffffffffffffffffffffffffffff1673ffffffffffffffffffffffffffffffffffffffff160361092357809150610930565b80806001019150506108ab565b508091505090565b5f73ffffffffffffffffffffffffffffffffffffffff82169050919050565b5f61096182610938565b9050919050565b61097181610957565b82525050565b5f60608201905061098a5f830186610968565b6109976020830185610968565b6109a46040830184610968565b949350505050565b5f80fd5b6109b981610957565b81146109c3575f80fd5b50565b5f813590506109d4816109b0565b92915050565b5f602082840312156109ef576109ee6109ac565b5b5f6109fc848285016109c6565b91505092915050565b5f819050919050565b610a1781610a05565b82525050565b5f602082019050610a305f830184610a0e565b92915050565b5f602082019050610a495f830184610968565b92915050565b7f4e487b71000000000000000000000000000000000000000000000000000000005f52601160045260245ffd5b5f610a8682610a05565b9150610a9183610a05565b9250828201905080821115610aa957610aa8610a4f565b5b92915050565b7f4e487b71000000000000000000000000000000000000000000000000000000005f52603260045260245ffd5b5f82825260208201905092915050565b7f4f6e6c79206f776e65722063616e2063616c6c000000000000000000000000005f82015250565b5f610b20601383610adc565b9150610b2b82610aec565b602082019050919050565b5f6020820190508181035f830152610b4d81610b14565b9050919050565b5f610b5e82610a05565b9150610b6983610a05565b9250828203905081811115610b8157610b80610a4f565b5b92915050565b5f610b9182610a05565b91505f8203610ba357610ba2610a4f565b5b60018203905091905056fea26469706673582212200917aeb3870714b4e4a38c14bbb2d18fd39cf165060fbcf8a25508b87b26d85d64736f6c63430008160033",
					"opcodes": "PUSH1 0x80 PUSH1 0x40 MSTORE CALLVALUE DUP1 ISZERO PUSH2 0xF JUMPI PUSH0 DUP1 REVERT JUMPDEST POP CALLER PUSH1 0x4 PUSH0 PUSH2 0x100 EXP DUP2 SLOAD DUP2 PUSH20 0xFFFFFFFFFFFFFFFFFFFFFFFFFFFFFFFFFFFFFFFF MUL NOT AND SWAP1 DUP4 PUSH20 0xFFFFFFFFFFFFFFFFFFFFFFFFFFFFFFFFFFFFFFFF AND MUL OR SWAP1 SSTORE POP PUSH2 0xBE4 DUP1 PUSH2 0x5D PUSH0 CODECOPY PUSH0 RETURN INVALID PUSH1 0x80 PUSH1 0x40 MSTORE PUSH1 0x4 CALLDATASIZE LT PUSH2 0x4D JUMPI PUSH0 CALLDATALOAD PUSH1 0xE0 SHR DUP1 PUSH4 0x2B7E8FAF EQ PUSH2 0x60 JUMPI DUP1 PUSH4 0x3BB66A7B EQ PUSH2 0x8C JUMPI DUP1 PUSH4 0x8DA5CB5B EQ PUSH2 0xC8 JUMPI DUP1 PUSH4 0xE086E5EC EQ PUSH2 0xF2 JUMPI DUP1 PUSH4 0xF6326FB3 EQ PUSH2 0x108 JUMPI PUSH2 0x5C JUMP JUMPDEST CALLDATASIZE PUSH2 0x5C JUMPI PUSH2 0x5A PUSH2 0x112 JUMP JUMPDEST STOP JUMPDEST PUSH0 DUP1 REVERT JUMPDEST CALLVALUE DUP1 ISZERO PUSH2 0x6B JUMPI PUSH0 DUP1 REVERT JUMPDEST POP PUSH2 0x74 PUSH2 0x16E JUMP JUMPDEST PUSH1 0x40 MLOAD PUSH2 0x83 SWAP4 SWAP3 SWAP2 SWAP1 PUSH2 0x977 JUMP JUMPDEST PUSH1 0x40 MLOAD DUP1 SWAP2 SUB SWAP1 RETURN JUMPDEST CALLVALUE DUP1 ISZERO PUSH2 0x97 JUMPI PUSH0 DUP1 REVERT JUMPDEST POP PUSH2 0xB2 PUSH1 0x4 DUP1 CALLDATASIZE SUB DUP2 ADD SWAP1 PUSH2 0xAD SWAP2 SWAP1 PUSH2 0x9DA JUMP JUMPDEST PUSH2 0x21C JUMP JUMPDEST PUSH1 0x40 MLOAD PUSH2 0xBF SWAP2 SWAP1 PUSH2 0xA1D JUMP JUMPDEST PUSH1 0x40 MLOAD DUP1 SWAP2 SUB SWAP1 RETURN JUMPDEST CALLVALUE DUP1 ISZERO PUSH2 0xD3 JUMPI PUSH0 DUP1 REVERT JUMPDEST POP PUSH2 0xDC PUSH2 0x261 JUMP JUMPDEST PUSH1 0x40 MLOAD PUSH2 0xE9 SWAP2 SWAP1 PUSH2 0xA36 JUMP JUMPDEST PUSH1 0x40 MLOAD DUP1 SWAP2 SUB SWAP1 RETURN JUMPDEST CALLVALUE DUP1 ISZERO PUSH2 0xFD JUMPI PUSH0 DUP1 REVERT JUMPDEST POP PUSH2 0x106 PUSH2 0x286 JUMP JUMPDEST STOP JUMPDEST PUSH2 0x110 PUSH2 0x112 JUMP JUMPDEST STOP JUMPDEST CALLVALUE PUSH0 DUP1 CALLER PUSH20 0xFFFFFFFFFFFFFFFFFFFFFFFFFFFFFFFFFFFFFFFF AND PUSH20 0xFFFFFFFFFFFFFFFFFFFFFFFFFFFFFFFFFFFFFFFF AND DUP2 MSTORE PUSH1 0x20 ADD SWAP1 DUP2 MSTORE PUSH1 0x20 ADD PUSH0 KECCAK256 PUSH0 DUP3 DUP3 SLOAD PUSH2 0x15D SWAP2 SWAP1 PUSH2 0xA7C JUMP JUMPDEST SWAP3 POP POP DUP2 SWAP1 SSTORE POP PUSH2 0x16C PUSH2 0x37C JUMP JUMPDEST JUMP JUMPDEST PUSH0 DUP1 PUSH0 PUSH1 0x1 PUSH0 PUSH1 0x3 DUP2 LT PUSH2 0x185 JUMPI PUSH2 0x184 PUSH2 0xAAF JUMP JUMPDEST JUMPDEST ADD PUSH0 SWAP1 SLOAD SWAP1 PUSH2 0x100 EXP SWAP1 DIV PUSH20 0xFFFFFFFFFFFFFFFFFFFFFFFFFFFFFFFFFFFFFFFF AND PUSH1 0x1 DUP1 PUSH1 0x3 DUP2 LT PUSH2 0x1BA JUMPI PUSH2 0x1B9 PUSH2 0xAAF JUMP JUMPDEST JUMPDEST ADD PUSH0 SWAP1 SLOAD SWAP1 PUSH2 0x100 EXP SWAP1 DIV PUSH20 0xFFFFFFFFFFFFFFFFFFFFFFFFFFFFFFFFFFFFFFFF AND PUSH1 0x1 PUSH1 0x2 PUSH1 0x3 DUP2 LT PUSH2 0x1F0 JUMPI PUSH2 0x1EF PUSH2 0xAAF JUMP JUMPDEST JUMPDEST ADD PUSH0 SWAP1 SLOAD SWAP1 PUSH2 0x100 EXP SWAP1 DIV PUSH20 0xFFFFFFFFFFFFFFFFFFFFFFFFFFFFFFFFFFFFFFFF AND SWAP3 POP SWAP3 POP SWAP3 POP SWAP1 SWAP2 SWAP3 JUMP JUMPDEST PUSH0 DUP1 PUSH0 DUP4 PUSH20 0xFFFFFFFFFFFFFFFFFFFFFFFFFFFFFFFFFFFFFFFF AND PUSH20 0xFFFFFFFFFFFFFFFFFFFFFFFFFFFFFFFFFFFFFFFF AND DUP2 MSTORE PUSH1 0x20 ADD SWAP1 DUP2 MSTORE PUSH1 0x20 ADD PUSH0 KECCAK256 SLOAD SWAP1 POP SWAP2 SWAP1 POP JUMP JUMPDEST PUSH1 0x4 PUSH0 SWAP1 SLOAD SWAP1 PUSH2 0x100 EXP SWAP1 DIV PUSH20 0xFFFFFFFFFFFFFFFFFFFFFFFFFFFFFFFFFFFFFFFF AND DUP2 JUMP JUMPDEST PUSH1 0x4 PUSH0 SWAP1 SLOAD SWAP1 PUSH2 0x100 EXP SWAP1 DIV PUSH20 0xFFFFFFFFFFFFFFFFFFFFFFFFFFFFFFFFFFFFFFFF AND PUSH20 0xFFFFFFFFFFFFFFFFFFFFFFFFFFFFFFFFFFFFFFFF AND CALLER PUSH20 0xFFFFFFFFFFFFFFFFFFFFFFFFFFFFFFFFFFFFFFFF AND EQ PUSH2 0x315 JUMPI PUSH1 0x40 MLOAD PUSH32 0x8C379A000000000000000000000000000000000000000000000000000000000 DUP2 MSTORE PUSH1 0x4 ADD PUSH2 0x30C SWAP1 PUSH2 0xB36 JUMP JUMPDEST PUSH1 0x40 MLOAD DUP1 SWAP2 SUB SWAP1 REVERT JUMPDEST PUSH1 0x4 PUSH0 SWAP1 SLOAD SWAP1 PUSH2 0x100 EXP SWAP1 DIV PUSH20 0xFFFFFFFFFFFFFFFFFFFFFFFFFFFFFFFFFFFFFFFF AND PUSH20 0xFFFFFFFFFFFFFFFFFFFFFFFFFFFFFFFFFFFFFFFF AND PUSH2 0x8FC SELFBALANCE SWAP1 DUP2 ISZERO MUL SWAP1 PUSH1 0x40 MLOAD PUSH0 PUSH1 0x40 MLOAD DUP1 DUP4 SUB DUP2 DUP6 DUP9 DUP9 CALL SWAP4 POP POP POP POP ISZERO DUP1 ISZERO PUSH2 0x379 JUMPI RETURNDATASIZE PUSH0 DUP1 RETURNDATACOPY RETURNDATASIZE PUSH0 REVERT JUMPDEST POP JUMP JUMPDEST PUSH0 PUSH2 0x385 PUSH2 0x8A2 JUMP JUMPDEST SWAP1 POP PUSH0 DUP1 PUSH2 0x309 SWAP1 POP PUSH2 0x3E7 DUP4 EQ PUSH2 0x62E JUMPI PUSH1 0x4 DUP4 PUSH2 0x3A4 SWAP2 SWAP1 PUSH2 0xA7C JUMP JUMPDEST SWAP2 POP PUSH0 PUSH1 0x3 DUP4 PUSH2 0x3B4 SWAP2 SWAP1 PUSH2 0xB54 JUMP JUMPDEST SWAP1 POP JUMPDEST PUSH1 0x1 DUP2 GT ISZERO PUSH2 0x628 JUMPI PUSH0 DUP5 EQ PUSH2 0x615 JUMPI PUSH0 DUP1 PUSH1 0x1 PUSH1 0x2 DUP5 PUSH2 0x3D8 SWAP2 SWAP1 PUSH2 0xB54 JUMP JUMPDEST PUSH1 0x3 DUP2 LT PUSH2 0x3E9 JUMPI PUSH2 0x3E8 PUSH2 0xAAF JUMP JUMPDEST JUMPDEST ADD PUSH0 SWAP1 SLOAD SWAP1 PUSH2 0x100 EXP SWAP1 DIV PUSH20 0xFFFFFFFFFFFFFFFFFFFFFFFFFFFFFFFFFFFFFFFF AND PUSH20 0xFFFFFFFFFFFFFFFFFFFFFFFFFFFFFFFFFFFFFFFF AND PUSH20 0xFFFFFFFFFFFFFFFFFFFFFFFFFFFFFFFFFFFFFFFF AND DUP2 MSTORE PUSH1 0x20 ADD SWAP1 DUP2 MSTORE PUSH1 0x20 ADD PUSH0 KECCAK256 SLOAD PUSH0 DUP1 CALLER PUSH20 0xFFFFFFFFFFFFFFFFFFFFFFFFFFFFFFFFFFFFFFFF AND PUSH20 0xFFFFFFFFFFFFFFFFFFFFFFFFFFFFFFFFFFFFFFFF AND DUP2 MSTORE PUSH1 0x20 ADD SWAP1 DUP2 MSTORE PUSH1 0x20 ADD PUSH0 KECCAK256 SLOAD GT ISZERO PUSH2 0x5B6 JUMPI PUSH1 0x2 DUP2 PUSH2 0x494 SWAP2 SWAP1 PUSH2 0xB54 JUMP JUMPDEST SWAP2 POP PUSH0 PUSH1 0x2 SWAP1 POP JUMPDEST PUSH1 0x2 DUP3 PUSH2 0x4A9 SWAP2 SWAP1 PUSH2 0xB54 JUMP JUMPDEST DUP2 GT ISZERO PUSH2 0x555 JUMPI PUSH1 0x1 DUP1 DUP3 PUSH2 0x4BE SWAP2 SWAP1 PUSH2 0xB54 JUMP JUMPDEST PUSH1 0x3 DUP2 LT PUSH2 0x4CF JUMPI PUSH2 0x4CE PUSH2 0xAAF JUMP JUMPDEST JUMPDEST ADD PUSH0 SWAP1 SLOAD SWAP1 PUSH2 0x100 EXP SWAP1 DIV PUSH20 0xFFFFFFFFFFFFFFFFFFFFFFFFFFFFFFFFFFFFFFFF AND PUSH1 0x1 DUP3 PUSH1 0x3 DUP2 LT PUSH2 0x504 JUMPI PUSH2 0x503 PUSH2 0xAAF JUMP JUMPDEST JUMPDEST ADD PUSH0 PUSH2 0x100 EXP DUP2 SLOAD DUP2 PUSH20 0xFFFFFFFFFFFFFFFFFFFFFFFFFFFFFFFFFFFFFFFF MUL NOT AND SWAP1 DUP4 PUSH20 0xFFFFFFFFFFFFFFFFFFFFFFFFFFFFFFFFFFFFFFFF AND MUL OR SWAP1 SSTORE POP DUP1 DUP1 PUSH2 0x54D SWAP1 PUSH2 0xB87 JUMP JUMPDEST SWAP2 POP POP PUSH2 0x49C JUMP JUMPDEST POP PUSH0 DUP3 SUB PUSH2 0x5B1 JUMPI CALLER PUSH1 0x1 DUP4 PUSH1 0x3 DUP2 LT PUSH2 0x572 JUMPI PUSH2 0x571 PUSH2 0xAAF JUMP JUMPDEST JUMPDEST ADD PUSH0 PUSH2 0x100 EXP DUP2 SLOAD DUP2 PUSH20 0xFFFFFFFFFFFFFFFFFFFFFFFFFFFFFFFFFFFFFFFF MUL NOT AND SWAP1 DUP4 PUSH20 0xFFFFFFFFFFFFFFFFFFFFFFFFFFFFFFFFFFFFFFFF AND MUL OR SWAP1 SSTORE POP JUMPDEST PUSH2 0x614 JUMP JUMPDEST PUSH2 0x309 DUP3 EQ PUSH2 0x613 JUMPI CALLER PUSH1 0x1 DUP4 PUSH1 0x3 DUP2 LT PUSH2 0x5D4 JUMPI PUSH2 0x5D3 PUSH2 0xAAF JUMP JUMPDEST JUMPDEST ADD PUSH0 PUSH2 0x100 EXP DUP2 SLOAD DUP2 PUSH20 0xFFFFFFFFFFFFFFFFFFFFFFFFFFFFFFFFFFFFFFFF MUL NOT AND SWAP1 DUP4 PUSH20 0xFFFFFFFFFFFFFFFFFFFFFFFFFFFFFFFFFFFFFFFF AND MUL OR SWAP1 SSTORE POP JUMPDEST JUMPDEST JUMPDEST DUP1 DUP1 PUSH2 0x620 SWAP1 PUSH2 0xB87 JUMP JUMPDEST SWAP2 POP POP PUSH2 0x3B7 JUMP JUMPDEST POP PUSH2 0x89D JUMP JUMPDEST PUSH0 PUSH1 0x3 SWAP1 POP JUMPDEST PUSH0 DUP2 GT ISZERO PUSH2 0x89B JUMPI PUSH0 DUP1 PUSH1 0x1 DUP1 DUP5 PUSH2 0x64C SWAP2 SWAP1 PUSH2 0xB54 JUMP JUMPDEST PUSH1 0x3 DUP2 LT PUSH2 0x65D JUMPI PUSH2 0x65C PUSH2 0xAAF JUMP JUMPDEST JUMPDEST ADD PUSH0 SWAP1 SLOAD SWAP1 PUSH2 0x100 EXP SWAP1 DIV PUSH20 0xFFFFFFFFFFFFFFFFFFFFFFFFFFFFFFFFFFFFFFFF AND PUSH20 0xFFFFFFFFFFFFFFFFFFFFFFFFFFFFFFFFFFFFFFFF AND PUSH20 0xFFFFFFFFFFFFFFFFFFFFFFFFFFFFFFFFFFFFFFFF AND DUP2 MSTORE PUSH1 0x20 ADD SWAP1 DUP2 MSTORE PUSH1 0x20 ADD PUSH0 KECCAK256 SLOAD PUSH0 DUP1 CALLER PUSH20 0xFFFFFFFFFFFFFFFFFFFFFFFFFFFFFFFFFFFFFFFF AND PUSH20 0xFFFFFFFFFFFFFFFFFFFFFFFFFFFFFFFFFFFFFFFF AND DUP2 MSTORE PUSH1 0x20 ADD SWAP1 DUP2 MSTORE PUSH1 0x20 ADD PUSH0 KECCAK256 SLOAD GT ISZERO PUSH2 0x82A JUMPI PUSH1 0x1 DUP2 PUSH2 0x708 SWAP2 SWAP1 PUSH2 0xB54 JUMP JUMPDEST SWAP2 POP PUSH0 PUSH1 0x2 SWAP1 POP JUMPDEST PUSH1 0x1 DUP3 PUSH2 0x71D SWAP2 SWAP1 PUSH2 0xB54 JUMP JUMPDEST DUP2 GT ISZERO PUSH2 0x7C9 JUMPI PUSH1 0x1 DUP1 DUP3 PUSH2 0x732 SWAP2 SWAP1 PUSH2 0xB54 JUMP JUMPDEST PUSH1 0x3 DUP2 LT PUSH2 0x743 JUMPI PUSH2 0x742 PUSH2 0xAAF JUMP JUMPDEST JUMPDEST ADD PUSH0 SWAP1 SLOAD SWAP1 PUSH2 0x100 EXP SWAP1 DIV PUSH20 0xFFFFFFFFFFFFFFFFFFFFFFFFFFFFFFFFFFFFFFFF AND PUSH1 0x1 DUP3 PUSH1 0x3 DUP2 LT PUSH2 0x778 JUMPI PUSH2 0x777 PUSH2 0xAAF JUMP JUMPDEST JUMPDEST ADD PUSH0 PUSH2 0x100 EXP DUP2 SLOAD DUP2 PUSH20 0xFFFFFFFFFFFFFFFFFFFFFFFFFFFFFFFFFFFFFFFF MUL NOT AND SWAP1 DUP4 PUSH20 0xFFFFFFFFFFFFFFFFFFFFFFFFFFFFFFFFFFFFFFFF AND MUL OR SWAP1 SSTORE POP DUP1 DUP1 PUSH2 0x7C1 SWAP1 PUSH2 0xB87 JUMP JUMPDEST SWAP2 POP POP PUSH2 0x710 JUMP JUMPDEST POP PUSH0 DUP3 SUB PUSH2 0x825 JUMPI CALLER PUSH1 0x1 DUP4 PUSH1 0x3 DUP2 LT PUSH2 0x7E6 JUMPI PUSH2 0x7E5 PUSH2 0xAAF JUMP JUMPDEST JUMPDEST ADD PUSH0 PUSH2 0x100 EXP DUP2 SLOAD DUP2 PUSH20 0xFFFFFFFFFFFFFFFFFFFFFFFFFFFFFFFFFFFFFFFF MUL NOT AND SWAP1 DUP4 PUSH20 0xFFFFFFFFFFFFFFFFFFFFFFFFFFFFFFFFFFFFFFFF AND MUL OR SWAP1 SSTORE POP JUMPDEST PUSH2 0x888 JUMP JUMPDEST PUSH2 0x309 DUP3 EQ PUSH2 0x887 JUMPI CALLER PUSH1 0x1 DUP4 PUSH1 0x3 DUP2 LT PUSH2 0x848 JUMPI PUSH2 0x847 PUSH2 0xAAF JUMP JUMPDEST JUMPDEST ADD PUSH0 PUSH2 0x100 EXP DUP2 SLOAD DUP2 PUSH20 0xFFFFFFFFFFFFFFFFFFFFFFFFFFFFFFFFFFFFFFFF MUL NOT AND SWAP1 DUP4 PUSH20 0xFFFFFFFFFFFFFFFFFFFFFFFFFFFFFFFFFFFFFFFF AND MUL OR SWAP1 SSTORE POP JUMPDEST JUMPDEST DUP1 DUP1 PUSH2 0x893 SWAP1 PUSH2 0xB87 JUMP JUMPDEST SWAP2 POP POP PUSH2 0x634 JUMP JUMPDEST POP JUMPDEST POP POP POP JUMP JUMPDEST PUSH0 DUP1 PUSH2 0x3E7 SWAP1 POP PUSH0 JUMPDEST PUSH1 0x3 DUP2 LT ISZERO PUSH2 0x930 JUMPI CALLER PUSH20 0xFFFFFFFFFFFFFFFFFFFFFFFFFFFFFFFFFFFFFFFF AND PUSH1 0x1 DUP3 PUSH1 0x3 DUP2 LT PUSH2 0x8DF JUMPI PUSH2 0x8DE PUSH2 0xAAF JUMP JUMPDEST JUMPDEST ADD PUSH0 SWAP1 SLOAD SWAP1 PUSH2 0x100 EXP SWAP1 DIV PUSH20 0xFFFFFFFFFFFFFFFFFFFFFFFFFFFFFFFFFFFFFFFF AND PUSH20 0xFFFFFFFFFFFFFFFFFFFFFFFFFFFFFFFFFFFFFFFF AND SUB PUSH2 0x923 JUMPI DUP1 SWAP2 POP PUSH2 0x930 JUMP JUMPDEST DUP1 DUP1 PUSH1 0x1 ADD SWAP2 POP POP PUSH2 0x8AB JUMP JUMPDEST POP DUP1 SWAP2 POP POP SWAP1 JUMP JUMPDEST PUSH0 PUSH20 0xFFFFFFFFFFFFFFFFFFFFFFFFFFFFFFFFFFFFFFFF DUP3 AND SWAP1 POP SWAP2 SWAP1 POP JUMP JUMPDEST PUSH0 PUSH2 0x961 DUP3 PUSH2 0x938 JUMP JUMPDEST SWAP1 POP SWAP2 SWAP1 POP JUMP JUMPDEST PUSH2 0x971 DUP2 PUSH2 0x957 JUMP JUMPDEST DUP3 MSTORE POP POP JUMP JUMPDEST PUSH0 PUSH1 0x60 DUP3 ADD SWAP1 POP PUSH2 0x98A PUSH0 DUP4 ADD DUP7 PUSH2 0x968 JUMP JUMPDEST PUSH2 0x997 PUSH1 0x20 DUP4 ADD DUP6 PUSH2 0x968 JUMP JUMPDEST PUSH2 0x9A4 PUSH1 0x40 DUP4 ADD DUP5 PUSH2 0x968 JUMP JUMPDEST SWAP5 SWAP4 POP POP POP POP JUMP JUMPDEST PUSH0 DUP1 REVERT JUMPDEST PUSH2 0x9B9 DUP2 PUSH2 0x957 JUMP JUMPDEST DUP2 EQ PUSH2 0x9C3 JUMPI PUSH0 DUP1 REVERT JUMPDEST POP JUMP JUMPDEST PUSH0 DUP2 CALLDATALOAD SWAP1 POP PUSH2 0x9D4 DUP2 PUSH2 0x9B0 JUMP JUMPDEST SWAP3 SWAP2 POP POP JUMP JUMPDEST PUSH0 PUSH1 0x20 DUP3 DUP5 SUB SLT ISZERO PUSH2 0x9EF JUMPI PUSH2 0x9EE PUSH2 0x9AC JUMP JUMPDEST JUMPDEST PUSH0 PUSH2 0x9FC DUP5 DUP3 DUP6 ADD PUSH2 0x9C6 JUMP JUMPDEST SWAP2 POP POP SWAP3 SWAP2 POP POP JUMP JUMPDEST PUSH0 DUP2 SWAP1 POP SWAP2 SWAP1 POP JUMP JUMPDEST PUSH2 0xA17 DUP2 PUSH2 0xA05 JUMP JUMPDEST DUP3 MSTORE POP POP JUMP JUMPDEST PUSH0 PUSH1 0x20 DUP3 ADD SWAP1 POP PUSH2 0xA30 PUSH0 DUP4 ADD DUP5 PUSH2 0xA0E JUMP JUMPDEST SWAP3 SWAP2 POP POP JUMP JUMPDEST PUSH0 PUSH1 0x20 DUP3 ADD SWAP1 POP PUSH2 0xA49 PUSH0 DUP4 ADD DUP5 PUSH2 0x968 JUMP JUMPDEST SWAP3 SWAP2 POP POP JUMP JUMPDEST PUSH32 0x4E487B7100000000000000000000000000000000000000000000000000000000 PUSH0 MSTORE PUSH1 0x11 PUSH1 0x4 MSTORE PUSH1 0x24 PUSH0 REVERT JUMPDEST PUSH0 PUSH2 0xA86 DUP3 PUSH2 0xA05 JUMP JUMPDEST SWAP2 POP PUSH2 0xA91 DUP4 PUSH2 0xA05 JUMP JUMPDEST SWAP3 POP DUP3 DUP3 ADD SWAP1 POP DUP1 DUP3 GT ISZERO PUSH2 0xAA9 JUMPI PUSH2 0xAA8 PUSH2 0xA4F JUMP JUMPDEST JUMPDEST SWAP3 SWAP2 POP POP JUMP JUMPDEST PUSH32 0x4E487B7100000000000000000000000000000000000000000000000000000000 PUSH0 MSTORE PUSH1 0x32 PUSH1 0x4 MSTORE PUSH1 0x24 PUSH0 REVERT JUMPDEST PUSH0 DUP3 DUP3 MSTORE PUSH1 0x20 DUP3 ADD SWAP1 POP SWAP3 SWAP2 POP POP JUMP JUMPDEST PUSH32 0x4F6E6C79206F776E65722063616E2063616C6C00000000000000000000000000 PUSH0 DUP3 ADD MSTORE POP JUMP JUMPDEST PUSH0 PUSH2 0xB20 PUSH1 0x13 DUP4 PUSH2 0xADC JUMP JUMPDEST SWAP2 POP PUSH2 0xB2B DUP3 PUSH2 0xAEC JUMP JUMPDEST PUSH1 0x20 DUP3 ADD SWAP1 POP SWAP2 SWAP1 POP JUMP JUMPDEST PUSH0 PUSH1 0x20 DUP3 ADD SWAP1 POP DUP2 DUP2 SUB PUSH0 DUP4 ADD MSTORE PUSH2 0xB4D DUP2 PUSH2 0xB14 JUMP JUMPDEST SWAP1 POP SWAP2 SWAP1 POP JUMP JUMPDEST PUSH0 PUSH2 0xB5E DUP3 PUSH2 0xA05 JUMP JUMPDEST SWAP2 POP PUSH2 0xB69 DUP4 PUSH2 0xA05 JUMP JUMPDEST SWAP3 POP DUP3 DUP3 SUB SWAP1 POP DUP2 DUP2 GT ISZERO PUSH2 0xB81 JUMPI PUSH2 0xB80 PUSH2 0xA4F JUMP JUMPDEST JUMPDEST SWAP3 SWAP2 POP POP JUMP JUMPDEST PUSH0 PUSH2 0xB91 DUP3 PUSH2 0xA05 JUMP JUMPDEST SWAP2 POP PUSH0 DUP3 SUB PUSH2 0xBA3 JUMPI PUSH2 0xBA2 PUSH2 0xA4F JUMP JUMPDEST JUMPDEST PUSH1 0x1 DUP3 SUB SWAP1 POP SWAP2 SWAP1 POP JUMP INVALID LOG2 PUSH5 0x6970667358 0x22 SLT KECCAK256 MULMOD OR 0xAE 0xB3 DUP8 SMOD EQ 0xB4 0xE4 LOG3 DUP13 EQ 0xBB 0xB2 0xD1 DUP16 0xD3 SWAP13 CALL PUSH6 0x60FBCF8A255 ADDMOD 0xB8 PUSH28 0x26D85D64736F6C634300081600330000000000000000000000000000 "
				},
				"gasEstimates": {
					"creation": {
						"codeDepositCost": "608800",
						"executionCost": "24908",
						"totalCost": "633708"
					},
					"external": {
						"depositETH()": "infinite",
						"getETHBalance(address)": "2829",
						"getETHTopThreeAccount()": "infinite",
						"owner()": "2530",
						"withdrawETH()": "infinite"
					},
					"internal": {
						"_checkETHRankMembership()": "infinite",
						"_handleRankWhenDepositETH()": "infinite"
					}
				},
				"methodIdentifiers": {
					"depositETH()": "f6326fb3",
					"getETHBalance(address)": "3bb66a7b",
					"getETHTopThreeAccount()": "2b7e8faf",
					"owner()": "8da5cb5b",
					"withdrawETH()": "e086e5ec"
				}
			},
			"storageLayout": {
				"storage": [
					{
						"astId": 5,
						"contract": "04-Camps/08-UpChain_Camp_3_OpenSpace/0115_ERC777TokenBank/contracts/Bank.sol:Bank",
						"label": "ETHBalance",
						"offset": 0,
						"slot": "0",
						"type": "t_mapping(t_address,t_uint256)"
					},
					{
						"astId": 9,
						"contract": "04-Camps/08-UpChain_Camp_3_OpenSpace/0115_ERC777TokenBank/contracts/Bank.sol:Bank",
						"label": "rank",
						"offset": 0,
						"slot": "1",
						"type": "t_array(t_address)3_storage"
					},
					{
						"astId": 11,
						"contract": "04-Camps/08-UpChain_Camp_3_OpenSpace/0115_ERC777TokenBank/contracts/Bank.sol:Bank",
						"label": "owner",
						"offset": 0,
						"slot": "4",
						"type": "t_address"
					}
				],
				"types": {
					"t_address": {
						"encoding": "inplace",
						"label": "address",
						"numberOfBytes": "20"
					},
					"t_array(t_address)3_storage": {
						"base": "t_address",
						"encoding": "inplace",
						"label": "address[3]",
						"numberOfBytes": "96"
					},
					"t_mapping(t_address,t_uint256)": {
						"encoding": "mapping",
						"key": "t_address",
						"label": "mapping(address => uint256)",
						"numberOfBytes": "32",
						"value": "t_uint256"
					},
					"t_uint256": {
						"encoding": "inplace",
						"label": "uint256",
						"numberOfBytes": "32"
					}
				}
			},
			"userdoc": {
				"kind": "user",
				"methods": {},
				"version": 1
			}
		}
	}
}