{
	"04-Camps/08-UpChain_Camp_3_OpenSpace/0115_ERC721Token/contracts/NFTMarket.sol": {
		"NFTMarket": {
			"abi": [
				{
					"inputs": [
						{
							"internalType": "address",
							"name": "_tokenAddr",
							"type": "address"
						}
					],
					"stateMutability": "nonpayable",
					"type": "constructor"
				},
				{
					"inputs": [
						{
							"internalType": "uint256",
							"name": "bidAmount",
							"type": "uint256"
						},
						{
							"internalType": "uint256",
							"name": "priceAmount",
							"type": "uint256"
						}
					],
					"name": "BidLessThanPrice",
					"type": "error"
				},
				{
					"inputs": [],
					"name": "NotOnSale",
					"type": "error"
				},
				{
					"inputs": [],
					"name": "NotOwner",
					"type": "error"
				},
				{
					"inputs": [],
					"name": "ZeroPrice",
					"type": "error"
				},
				{
					"inputs": [
						{
							"internalType": "uint256",
							"name": "withdrawAmount",
							"type": "uint256"
						},
						{
							"internalType": "uint256",
							"name": "balanceAmount",
							"type": "uint256"
						}
					],
					"name": "withdrawalExceedBalance",
					"type": "error"
				},
				{
					"inputs": [
						{
							"internalType": "address",
							"name": "_nftAddr",
							"type": "address"
						},
						{
							"internalType": "uint256",
							"name": "_tokenId",
							"type": "uint256"
						},
						{
							"internalType": "uint256",
							"name": "_bid",
							"type": "uint256"
						}
					],
					"name": "buy",
					"outputs": [],
					"stateMutability": "nonpayable",
					"type": "function"
				},
				{
					"inputs": [
						{
							"internalType": "address",
							"name": "_nftAddr",
							"type": "address"
						},
						{
							"internalType": "uint256",
							"name": "_tokenId",
							"type": "uint256"
						}
					],
					"name": "delist",
					"outputs": [],
					"stateMutability": "nonpayable",
					"type": "function"
				},
				{
					"inputs": [],
					"name": "getBalance",
					"outputs": [
						{
							"internalType": "uint256",
							"name": "",
							"type": "uint256"
						}
					],
					"stateMutability": "view",
					"type": "function"
				},
				{
					"inputs": [
						{
							"internalType": "address",
							"name": "_nftAddr",
							"type": "address"
						},
						{
							"internalType": "uint256",
							"name": "_tokenId",
							"type": "uint256"
						}
					],
					"name": "getOwner",
					"outputs": [
						{
							"internalType": "address",
							"name": "",
							"type": "address"
						}
					],
					"stateMutability": "view",
					"type": "function"
				},
				{
					"inputs": [
						{
							"internalType": "address",
							"name": "_nftAddr",
							"type": "address"
						},
						{
							"internalType": "uint256",
							"name": "_tokenId",
							"type": "uint256"
						}
					],
					"name": "getPrice",
					"outputs": [
						{
							"internalType": "uint256",
							"name": "",
							"type": "uint256"
						}
					],
					"stateMutability": "view",
					"type": "function"
				},
				{
					"inputs": [
						{
							"internalType": "address",
							"name": "_nftAddr",
							"type": "address"
						},
						{
							"internalType": "uint256",
							"name": "_tokenId",
							"type": "uint256"
						},
						{
							"internalType": "uint256",
							"name": "_price",
							"type": "uint256"
						}
					],
					"name": "list",
					"outputs": [],
					"stateMutability": "nonpayable",
					"type": "function"
				},
				{
					"inputs": [
						{
							"internalType": "address",
							"name": "operator",
							"type": "address"
						},
						{
							"internalType": "address",
							"name": "from",
							"type": "address"
						},
						{
							"internalType": "uint256",
							"name": "tokenId",
							"type": "uint256"
						},
						{
							"internalType": "bytes",
							"name": "data",
							"type": "bytes"
						}
					],
					"name": "onERC721Received",
					"outputs": [
						{
							"internalType": "bytes4",
							"name": "",
							"type": "bytes4"
						}
					],
					"stateMutability": "nonpayable",
					"type": "function"
				},
				{
					"inputs": [
						{
							"internalType": "address",
							"name": "",
							"type": "address"
						},
						{
							"internalType": "uint256",
							"name": "",
							"type": "uint256"
						}
					],
					"name": "onSale",
					"outputs": [
						{
							"internalType": "bool",
							"name": "",
							"type": "bool"
						}
					],
					"stateMutability": "view",
					"type": "function"
				},
				{
					"inputs": [],
					"name": "tokenAddr",
					"outputs": [
						{
							"internalType": "address",
							"name": "",
							"type": "address"
						}
					],
					"stateMutability": "view",
					"type": "function"
				},
				{
					"inputs": [
						{
							"internalType": "uint256",
							"name": "_value",
							"type": "uint256"
						}
					],
					"name": "withdrawBalance",
					"outputs": [],
					"stateMutability": "nonpayable",
					"type": "function"
				}
			],
			"devdoc": {
				"kind": "dev",
				"methods": {
					"onERC721Received(address,address,uint256,bytes)": {
						"details": "Whenever an {IERC721} `tokenId` token is transferred to this contract via {IERC721-safeTransferFrom} by `operator` from `from`, this function is called. It must return its Solidity selector to confirm the token transfer. If any other value is returned or the interface is not implemented by the recipient, the transfer will be reverted. The selector can be obtained in Solidity with `IERC721Receiver.onERC721Received.selector`."
					}
				},
				"version": 1
			},
			"evm": {
				"assembly": "    /* \"04-Camps/08-UpChain_Camp_3_OpenSpace/0115_ERC721Token/contracts/NFTMarket.sol\":296:4250  contract NFTMarket is IERC721Receiver {... */\n  mstore(0x40, 0xa0)\n    /* \"04-Camps/08-UpChain_Camp_3_OpenSpace/0115_ERC721Token/contracts/NFTMarket.sol\":929:1000  constructor(address _tokenAddr) {... */\n  callvalue\n  dup1\n  iszero\n  tag_1\n  jumpi\n  0x00\n  dup1\n  revert\ntag_1:\n  pop\n  mload(0x40)\n  sub(codesize, bytecodeSize)\n  dup1\n  bytecodeSize\n  dup4\n  codecopy\n  dup2\n  dup2\n  add\n  0x40\n  mstore\n  dup2\n  add\n  swap1\n  tag_2\n  swap2\n  swap1\n  tag_3\n  jump\t// in\ntag_2:\n    /* \"04-Camps/08-UpChain_Camp_3_OpenSpace/0115_ERC721Token/contracts/NFTMarket.sol\":983:993  _tokenAddr */\n  dup1\n    /* \"04-Camps/08-UpChain_Camp_3_OpenSpace/0115_ERC721Token/contracts/NFTMarket.sol\":971:993  tokenAddr = _tokenAddr */\n  0xffffffffffffffffffffffffffffffffffffffff\n  and\n  0x80\n  dup2\n  0xffffffffffffffffffffffffffffffffffffffff\n  and\n  dup2\n  mstore\n  pop\n  pop\n    /* \"04-Camps/08-UpChain_Camp_3_OpenSpace/0115_ERC721Token/contracts/NFTMarket.sol\":929:1000  constructor(address _tokenAddr) {... */\n  pop\n    /* \"04-Camps/08-UpChain_Camp_3_OpenSpace/0115_ERC721Token/contracts/NFTMarket.sol\":296:4250  contract NFTMarket is IERC721Receiver {... */\n  jump(tag_6)\n    /* \"#utility.yul\":88:205   */\ntag_8:\n    /* \"#utility.yul\":197:198   */\n  0x00\n    /* \"#utility.yul\":194:195   */\n  dup1\n    /* \"#utility.yul\":187:199   */\n  revert\n    /* \"#utility.yul\":334:460   */\ntag_10:\n    /* \"#utility.yul\":371:378   */\n  0x00\n    /* \"#utility.yul\":411:453   */\n  0xffffffffffffffffffffffffffffffffffffffff\n    /* \"#utility.yul\":404:409   */\n  dup3\n    /* \"#utility.yul\":400:454   */\n  and\n    /* \"#utility.yul\":389:454   */\n  swap1\n  pop\n    /* \"#utility.yul\":334:460   */\n  swap2\n  swap1\n  pop\n  jump\t// out\n    /* \"#utility.yul\":466:562   */\ntag_11:\n    /* \"#utility.yul\":503:510   */\n  0x00\n    /* \"#utility.yul\":532:556   */\n  tag_20\n    /* \"#utility.yul\":550:555   */\n  dup3\n    /* \"#utility.yul\":532:556   */\n  tag_10\n  jump\t// in\ntag_20:\n    /* \"#utility.yul\":521:556   */\n  swap1\n  pop\n    /* \"#utility.yul\":466:562   */\n  swap2\n  swap1\n  pop\n  jump\t// out\n    /* \"#utility.yul\":568:690   */\ntag_12:\n    /* \"#utility.yul\":641:665   */\n  tag_22\n    /* \"#utility.yul\":659:664   */\n  dup2\n    /* \"#utility.yul\":641:665   */\n  tag_11\n  jump\t// in\ntag_22:\n    /* \"#utility.yul\":634:639   */\n  dup2\n    /* \"#utility.yul\":631:666   */\n  eq\n    /* \"#utility.yul\":621:684   */\n  tag_23\n  jumpi\n    /* \"#utility.yul\":680:681   */\n  0x00\n    /* \"#utility.yul\":677:678   */\n  dup1\n    /* \"#utility.yul\":670:682   */\n  revert\n    /* \"#utility.yul\":621:684   */\ntag_23:\n    /* \"#utility.yul\":568:690   */\n  pop\n  jump\t// out\n    /* \"#utility.yul\":696:839   */\ntag_13:\n    /* \"#utility.yul\":753:758   */\n  0x00\n    /* \"#utility.yul\":784:790   */\n  dup2\n    /* \"#utility.yul\":778:791   */\n  mload\n    /* \"#utility.yul\":769:791   */\n  swap1\n  pop\n    /* \"#utility.yul\":800:833   */\n  tag_25\n    /* \"#utility.yul\":827:832   */\n  dup2\n    /* \"#utility.yul\":800:833   */\n  tag_12\n  jump\t// in\ntag_25:\n    /* \"#utility.yul\":696:839   */\n  swap3\n  swap2\n  pop\n  pop\n  jump\t// out\n    /* \"#utility.yul\":845:1196   */\ntag_3:\n    /* \"#utility.yul\":915:921   */\n  0x00\n    /* \"#utility.yul\":964:966   */\n  0x20\n    /* \"#utility.yul\":952:961   */\n  dup3\n    /* \"#utility.yul\":943:950   */\n  dup5\n    /* \"#utility.yul\":939:962   */\n  sub\n    /* \"#utility.yul\":935:967   */\n  slt\n    /* \"#utility.yul\":932:1051   */\n  iszero\n  tag_27\n  jumpi\n    /* \"#utility.yul\":970:1049   */\n  tag_28\n  tag_8\n  jump\t// in\ntag_28:\n    /* \"#utility.yul\":932:1051   */\ntag_27:\n    /* \"#utility.yul\":1090:1091   */\n  0x00\n    /* \"#utility.yul\":1115:1179   */\n  tag_29\n    /* \"#utility.yul\":1171:1178   */\n  dup5\n    /* \"#utility.yul\":1162:1168   */\n  dup3\n    /* \"#utility.yul\":1151:1160   */\n  dup6\n    /* \"#utility.yul\":1147:1169   */\n  add\n    /* \"#utility.yul\":1115:1179   */\n  tag_13\n  jump\t// in\ntag_29:\n    /* \"#utility.yul\":1105:1179   */\n  swap2\n  pop\n    /* \"#utility.yul\":1061:1189   */\n  pop\n    /* \"#utility.yul\":845:1196   */\n  swap3\n  swap2\n  pop\n  pop\n  jump\t// out\n    /* \"04-Camps/08-UpChain_Camp_3_OpenSpace/0115_ERC721Token/contracts/NFTMarket.sol\":296:4250  contract NFTMarket is IERC721Receiver {... */\ntag_6:\n  mload(0x80)\n  codecopy(0x00, dataOffset(sub_0), dataSize(sub_0))\n  0x00\n  assignImmutable(\"0x939eb54753ed0cc7e2272bfb34cbe098308c93936ed54d79078f76ade0b2e789\")\n  return(0x00, dataSize(sub_0))\nstop\n\nsub_0: assembly {\n        /* \"04-Camps/08-UpChain_Camp_3_OpenSpace/0115_ERC721Token/contracts/NFTMarket.sol\":296:4250  contract NFTMarket is IERC721Receiver {... */\n      mstore(0x40, 0x80)\n      callvalue\n      dup1\n      iszero\n      tag_1\n      jumpi\n      0x00\n      dup1\n      revert\n    tag_1:\n      pop\n      jumpi(tag_2, lt(calldatasize, 0x04))\n      shr(0xe0, calldataload(0x00))\n      dup1\n      0x5fbe4d1d\n      gt\n      tag_13\n      jumpi\n      dup1\n      0x5fbe4d1d\n      eq\n      tag_8\n      jumpi\n      dup1\n      0xa59ac6dd\n      eq\n      tag_9\n      jumpi\n      dup1\n      0xda76d5cd\n      eq\n      tag_10\n      jumpi\n      dup1\n      0xdda342bb\n      eq\n      tag_11\n      jumpi\n      dup1\n      0xf074258e\n      eq\n      tag_12\n      jumpi\n      jump(tag_2)\n    tag_13:\n      dup1\n      0x0f9cb829\n      eq\n      tag_3\n      jumpi\n      dup1\n      0x12065fe0\n      eq\n      tag_4\n      jumpi\n      dup1\n      0x150b7a02\n      eq\n      tag_5\n      jumpi\n      dup1\n      0x2f634a90\n      eq\n      tag_6\n      jumpi\n      dup1\n      0x449e815d\n      eq\n      tag_7\n      jumpi\n    tag_2:\n      0x00\n      dup1\n      revert\n        /* \"04-Camps/08-UpChain_Camp_3_OpenSpace/0115_ERC721Token/contracts/NFTMarket.sol\":487:542  mapping(address => mapping(uint => bool)) public onSale */\n    tag_3:\n      tag_14\n      0x04\n      dup1\n      calldatasize\n      sub\n      dup2\n      add\n      swap1\n      tag_15\n      swap2\n      swap1\n      tag_16\n      jump\t// in\n    tag_15:\n      tag_17\n      jump\t// in\n    tag_14:\n      mload(0x40)\n      tag_18\n      swap2\n      swap1\n      tag_19\n      jump\t// in\n    tag_18:\n      mload(0x40)\n      dup1\n      swap2\n      sub\n      swap1\n      return\n        /* \"04-Camps/08-UpChain_Camp_3_OpenSpace/0115_ERC721Token/contracts/NFTMarket.sol\":3662:3756  function getBalance() external view returns (uint) {... */\n    tag_4:\n      tag_20\n      tag_21\n      jump\t// in\n    tag_20:\n      mload(0x40)\n      tag_22\n      swap2\n      swap1\n      tag_23\n      jump\t// in\n    tag_22:\n      mload(0x40)\n      dup1\n      swap2\n      sub\n      swap1\n      return\n        /* \"04-Camps/08-UpChain_Camp_3_OpenSpace/0115_ERC721Token/contracts/NFTMarket.sol\":1006:1229  function onERC721Received(... */\n    tag_5:\n      tag_24\n      0x04\n      dup1\n      calldatasize\n      sub\n      dup2\n      add\n      swap1\n      tag_25\n      swap2\n      swap1\n      tag_26\n      jump\t// in\n    tag_25:\n      tag_27\n      jump\t// in\n    tag_24:\n      mload(0x40)\n      tag_28\n      swap2\n      swap1\n      tag_29\n      jump\t// in\n    tag_28:\n      mload(0x40)\n      dup1\n      swap2\n      sub\n      swap1\n      return\n        /* \"04-Camps/08-UpChain_Camp_3_OpenSpace/0115_ERC721Token/contracts/NFTMarket.sol\":3762:3926  function getOwner(... */\n    tag_6:\n      tag_30\n      0x04\n      dup1\n      calldatasize\n      sub\n      dup2\n      add\n      swap1\n      tag_31\n      swap2\n      swap1\n      tag_16\n      jump\t// in\n    tag_31:\n      tag_32\n      jump\t// in\n    tag_30:\n      mload(0x40)\n      tag_33\n      swap2\n      swap1\n      tag_34\n      jump\t// in\n    tag_33:\n      mload(0x40)\n      dup1\n      swap2\n      sub\n      swap1\n      return\n        /* \"04-Camps/08-UpChain_Camp_3_OpenSpace/0115_ERC721Token/contracts/NFTMarket.sol\":3505:3656  function getPrice(... */\n    tag_7:\n      tag_35\n      0x04\n      dup1\n      calldatasize\n      sub\n      dup2\n      add\n      swap1\n      tag_36\n      swap2\n      swap1\n      tag_16\n      jump\t// in\n    tag_36:\n      tag_37\n      jump\t// in\n    tag_35:\n      mload(0x40)\n      tag_38\n      swap2\n      swap1\n      tag_23\n      jump\t// in\n    tag_38:\n      mload(0x40)\n      dup1\n      swap2\n      sub\n      swap1\n      return\n        /* \"04-Camps/08-UpChain_Camp_3_OpenSpace/0115_ERC721Token/contracts/NFTMarket.sol\":447:481  address public immutable tokenAddr */\n    tag_8:\n      tag_39\n      tag_40\n      jump\t// in\n    tag_39:\n      mload(0x40)\n      tag_41\n      swap2\n      swap1\n      tag_34\n      jump\t// in\n    tag_41:\n      mload(0x40)\n      dup1\n      swap2\n      sub\n      swap1\n      return\n        /* \"04-Camps/08-UpChain_Camp_3_OpenSpace/0115_ERC721Token/contracts/NFTMarket.sol\":2692:3499  function buy(address _nftAddr, uint _tokenId, uint _bid) external {... */\n    tag_9:\n      tag_42\n      0x04\n      dup1\n      calldatasize\n      sub\n      dup2\n      add\n      swap1\n      tag_43\n      swap2\n      swap1\n      tag_44\n      jump\t// in\n    tag_43:\n      tag_45\n      jump\t// in\n    tag_42:\n      stop\n        /* \"04-Camps/08-UpChain_Camp_3_OpenSpace/0115_ERC721Token/contracts/NFTMarket.sol\":3932:4248  function withdrawBalance(uint _value) external {... */\n    tag_10:\n      tag_46\n      0x04\n      dup1\n      calldatasize\n      sub\n      dup2\n      add\n      swap1\n      tag_47\n      swap2\n      swap1\n      tag_48\n      jump\t// in\n    tag_47:\n      tag_49\n      jump\t// in\n    tag_46:\n      stop\n        /* \"04-Camps/08-UpChain_Camp_3_OpenSpace/0115_ERC721Token/contracts/NFTMarket.sol\":1347:1984  function list(address _nftAddr, uint _tokenId, uint _price) external {... */\n    tag_11:\n      tag_50\n      0x04\n      dup1\n      calldatasize\n      sub\n      dup2\n      add\n      swap1\n      tag_51\n      swap2\n      swap1\n      tag_44\n      jump\t// in\n    tag_51:\n      tag_52\n      jump\t// in\n    tag_50:\n      stop\n        /* \"04-Camps/08-UpChain_Camp_3_OpenSpace/0115_ERC721Token/contracts/NFTMarket.sol\":1990:2596  function delist(address _nftAddr, uint256 _tokenId) external {... */\n    tag_12:\n      tag_53\n      0x04\n      dup1\n      calldatasize\n      sub\n      dup2\n      add\n      swap1\n      tag_54\n      swap2\n      swap1\n      tag_16\n      jump\t// in\n    tag_54:\n      tag_55\n      jump\t// in\n    tag_53:\n      stop\n        /* \"04-Camps/08-UpChain_Camp_3_OpenSpace/0115_ERC721Token/contracts/NFTMarket.sol\":487:542  mapping(address => mapping(uint => bool)) public onSale */\n    tag_17:\n      mstore(0x20, 0x02)\n      dup2\n      0x00\n      mstore\n      mstore(0x20, keccak256(0x00, 0x40))\n      dup1\n      0x00\n      mstore\n      keccak256(0x00, 0x40)\n      0x00\n      swap2\n      pop\n      swap2\n      pop\n      swap1\n      sload\n      swap1\n      0x0100\n      exp\n      swap1\n      div\n      0xff\n      and\n      dup2\n      jump\t// out\n        /* \"04-Camps/08-UpChain_Camp_3_OpenSpace/0115_ERC721Token/contracts/NFTMarket.sol\":3662:3756  function getBalance() external view returns (uint) {... */\n    tag_21:\n        /* \"04-Camps/08-UpChain_Camp_3_OpenSpace/0115_ERC721Token/contracts/NFTMarket.sol\":3707:3711  uint */\n      0x00\n        /* \"04-Camps/08-UpChain_Camp_3_OpenSpace/0115_ERC721Token/contracts/NFTMarket.sol\":3730:3737  balance */\n      0x01\n        /* \"04-Camps/08-UpChain_Camp_3_OpenSpace/0115_ERC721Token/contracts/NFTMarket.sol\":3730:3749  balance[msg.sender] */\n      0x00\n        /* \"04-Camps/08-UpChain_Camp_3_OpenSpace/0115_ERC721Token/contracts/NFTMarket.sol\":3738:3748  msg.sender */\n      caller\n        /* \"04-Camps/08-UpChain_Camp_3_OpenSpace/0115_ERC721Token/contracts/NFTMarket.sol\":3730:3749  balance[msg.sender] */\n      0xffffffffffffffffffffffffffffffffffffffff\n      and\n      0xffffffffffffffffffffffffffffffffffffffff\n      and\n      dup2\n      mstore\n      0x20\n      add\n      swap1\n      dup2\n      mstore\n      0x20\n      add\n      0x00\n      keccak256\n      sload\n        /* \"04-Camps/08-UpChain_Camp_3_OpenSpace/0115_ERC721Token/contracts/NFTMarket.sol\":3723:3749  return balance[msg.sender] */\n      swap1\n      pop\n        /* \"04-Camps/08-UpChain_Camp_3_OpenSpace/0115_ERC721Token/contracts/NFTMarket.sol\":3662:3756  function getBalance() external view returns (uint) {... */\n      swap1\n      jump\t// out\n        /* \"04-Camps/08-UpChain_Camp_3_OpenSpace/0115_ERC721Token/contracts/NFTMarket.sol\":1006:1229  function onERC721Received(... */\n    tag_27:\n        /* \"04-Camps/08-UpChain_Camp_3_OpenSpace/0115_ERC721Token/contracts/NFTMarket.sol\":1167:1173  bytes4 */\n      0x00\n        /* \"04-Camps/08-UpChain_Camp_3_OpenSpace/0115_ERC721Token/contracts/NFTMarket.sol\":1192:1222  this.onERC721Received.selector */\n      shl(0xe0, 0x150b7a02)\n        /* \"04-Camps/08-UpChain_Camp_3_OpenSpace/0115_ERC721Token/contracts/NFTMarket.sol\":1185:1222  return this.onERC721Received.selector */\n      swap1\n      pop\n        /* \"04-Camps/08-UpChain_Camp_3_OpenSpace/0115_ERC721Token/contracts/NFTMarket.sol\":1006:1229  function onERC721Received(... */\n      swap6\n      swap5\n      pop\n      pop\n      pop\n      pop\n      pop\n      jump\t// out\n        /* \"04-Camps/08-UpChain_Camp_3_OpenSpace/0115_ERC721Token/contracts/NFTMarket.sol\":3762:3926  function getOwner(... */\n    tag_32:\n        /* \"04-Camps/08-UpChain_Camp_3_OpenSpace/0115_ERC721Token/contracts/NFTMarket.sol\":3858:3865  address */\n      0x00\n        /* \"04-Camps/08-UpChain_Camp_3_OpenSpace/0115_ERC721Token/contracts/NFTMarket.sol\":3892:3900  _nftAddr */\n      dup3\n        /* \"04-Camps/08-UpChain_Camp_3_OpenSpace/0115_ERC721Token/contracts/NFTMarket.sol\":3884:3909  IERC721(_nftAddr).ownerOf */\n      0xffffffffffffffffffffffffffffffffffffffff\n      and\n      0x6352211e\n        /* \"04-Camps/08-UpChain_Camp_3_OpenSpace/0115_ERC721Token/contracts/NFTMarket.sol\":3910:3918  _tokenId */\n      dup4\n        /* \"04-Camps/08-UpChain_Camp_3_OpenSpace/0115_ERC721Token/contracts/NFTMarket.sol\":3884:3919  IERC721(_nftAddr).ownerOf(_tokenId) */\n      mload(0x40)\n      dup3\n      0xffffffff\n      and\n      0xe0\n      shl\n      dup2\n      mstore\n      0x04\n      add\n      tag_59\n      swap2\n      swap1\n      tag_23\n      jump\t// in\n    tag_59:\n      0x20\n      mload(0x40)\n      dup1\n      dup4\n      sub\n      dup2\n      dup7\n      gas\n      staticcall\n      iszero\n      dup1\n      iszero\n      tag_61\n      jumpi\n      returndatasize\n      0x00\n      dup1\n      returndatacopy\n      revert(0x00, returndatasize)\n    tag_61:\n      pop\n      pop\n      pop\n      pop\n      mload(0x40)\n      returndatasize\n      not(0x1f)\n      0x1f\n      dup3\n      add\n      and\n      dup3\n      add\n      dup1\n      0x40\n      mstore\n      pop\n      dup2\n      add\n      swap1\n      tag_62\n      swap2\n      swap1\n      tag_63\n      jump\t// in\n    tag_62:\n        /* \"04-Camps/08-UpChain_Camp_3_OpenSpace/0115_ERC721Token/contracts/NFTMarket.sol\":3877:3919  return IERC721(_nftAddr).ownerOf(_tokenId) */\n      swap1\n      pop\n        /* \"04-Camps/08-UpChain_Camp_3_OpenSpace/0115_ERC721Token/contracts/NFTMarket.sol\":3762:3926  function getOwner(... */\n      swap3\n      swap2\n      pop\n      pop\n      jump\t// out\n        /* \"04-Camps/08-UpChain_Camp_3_OpenSpace/0115_ERC721Token/contracts/NFTMarket.sol\":3505:3656  function getPrice(... */\n    tag_37:\n        /* \"04-Camps/08-UpChain_Camp_3_OpenSpace/0115_ERC721Token/contracts/NFTMarket.sol\":3601:3605  uint */\n      0x00\n        /* \"04-Camps/08-UpChain_Camp_3_OpenSpace/0115_ERC721Token/contracts/NFTMarket.sol\":3624:3629  price */\n      dup1\n        /* \"04-Camps/08-UpChain_Camp_3_OpenSpace/0115_ERC721Token/contracts/NFTMarket.sol\":3624:3639  price[_nftAddr] */\n      0x00\n        /* \"04-Camps/08-UpChain_Camp_3_OpenSpace/0115_ERC721Token/contracts/NFTMarket.sol\":3630:3638  _nftAddr */\n      dup5\n        /* \"04-Camps/08-UpChain_Camp_3_OpenSpace/0115_ERC721Token/contracts/NFTMarket.sol\":3624:3639  price[_nftAddr] */\n      0xffffffffffffffffffffffffffffffffffffffff\n      and\n      0xffffffffffffffffffffffffffffffffffffffff\n      and\n      dup2\n      mstore\n      0x20\n      add\n      swap1\n      dup2\n      mstore\n      0x20\n      add\n      0x00\n      keccak256\n        /* \"04-Camps/08-UpChain_Camp_3_OpenSpace/0115_ERC721Token/contracts/NFTMarket.sol\":3624:3649  price[_nftAddr][_tokenId] */\n      0x00\n        /* \"04-Camps/08-UpChain_Camp_3_OpenSpace/0115_ERC721Token/contracts/NFTMarket.sol\":3640:3648  _tokenId */\n      dup4\n        /* \"04-Camps/08-UpChain_Camp_3_OpenSpace/0115_ERC721Token/contracts/NFTMarket.sol\":3624:3649  price[_nftAddr][_tokenId] */\n      dup2\n      mstore\n      0x20\n      add\n      swap1\n      dup2\n      mstore\n      0x20\n      add\n      0x00\n      keccak256\n      sload\n        /* \"04-Camps/08-UpChain_Camp_3_OpenSpace/0115_ERC721Token/contracts/NFTMarket.sol\":3617:3649  return price[_nftAddr][_tokenId] */\n      swap1\n      pop\n        /* \"04-Camps/08-UpChain_Camp_3_OpenSpace/0115_ERC721Token/contracts/NFTMarket.sol\":3505:3656  function getPrice(... */\n      swap3\n      swap2\n      pop\n      pop\n      jump\t// out\n        /* \"04-Camps/08-UpChain_Camp_3_OpenSpace/0115_ERC721Token/contracts/NFTMarket.sol\":447:481  address public immutable tokenAddr */\n    tag_40:\n      immutable(\"0x939eb54753ed0cc7e2272bfb34cbe098308c93936ed54d79078f76ade0b2e789\")\n      dup2\n      jump\t// out\n        /* \"04-Camps/08-UpChain_Camp_3_OpenSpace/0115_ERC721Token/contracts/NFTMarket.sol\":2692:3499  function buy(address _nftAddr, uint _tokenId, uint _bid) external {... */\n    tag_45:\n        /* \"04-Camps/08-UpChain_Camp_3_OpenSpace/0115_ERC721Token/contracts/NFTMarket.sol\":2802:2806  true */\n      0x01\n        /* \"04-Camps/08-UpChain_Camp_3_OpenSpace/0115_ERC721Token/contracts/NFTMarket.sol\":2772:2806  onSale[_nftAddr][_tokenId] != true */\n      iszero\n      iszero\n        /* \"04-Camps/08-UpChain_Camp_3_OpenSpace/0115_ERC721Token/contracts/NFTMarket.sol\":2772:2778  onSale */\n      0x02\n        /* \"04-Camps/08-UpChain_Camp_3_OpenSpace/0115_ERC721Token/contracts/NFTMarket.sol\":2772:2788  onSale[_nftAddr] */\n      0x00\n        /* \"04-Camps/08-UpChain_Camp_3_OpenSpace/0115_ERC721Token/contracts/NFTMarket.sol\":2779:2787  _nftAddr */\n      dup6\n        /* \"04-Camps/08-UpChain_Camp_3_OpenSpace/0115_ERC721Token/contracts/NFTMarket.sol\":2772:2788  onSale[_nftAddr] */\n      0xffffffffffffffffffffffffffffffffffffffff\n      and\n      0xffffffffffffffffffffffffffffffffffffffff\n      and\n      dup2\n      mstore\n      0x20\n      add\n      swap1\n      dup2\n      mstore\n      0x20\n      add\n      0x00\n      keccak256\n        /* \"04-Camps/08-UpChain_Camp_3_OpenSpace/0115_ERC721Token/contracts/NFTMarket.sol\":2772:2798  onSale[_nftAddr][_tokenId] */\n      0x00\n        /* \"04-Camps/08-UpChain_Camp_3_OpenSpace/0115_ERC721Token/contracts/NFTMarket.sol\":2789:2797  _tokenId */\n      dup5\n        /* \"04-Camps/08-UpChain_Camp_3_OpenSpace/0115_ERC721Token/contracts/NFTMarket.sol\":2772:2798  onSale[_nftAddr][_tokenId] */\n      dup2\n      mstore\n      0x20\n      add\n      swap1\n      dup2\n      mstore\n      0x20\n      add\n      0x00\n      keccak256\n      0x00\n      swap1\n      sload\n      swap1\n      0x0100\n      exp\n      swap1\n      div\n      0xff\n      and\n        /* \"04-Camps/08-UpChain_Camp_3_OpenSpace/0115_ERC721Token/contracts/NFTMarket.sol\":2772:2806  onSale[_nftAddr][_tokenId] != true */\n      iszero\n      iszero\n      eq\n        /* \"04-Camps/08-UpChain_Camp_3_OpenSpace/0115_ERC721Token/contracts/NFTMarket.sol\":2768:2826  if (onSale[_nftAddr][_tokenId] != true) revert NotOnSale() */\n      tag_66\n      jumpi\n        /* \"04-Camps/08-UpChain_Camp_3_OpenSpace/0115_ERC721Token/contracts/NFTMarket.sol\":2815:2826  NotOnSale() */\n      mload(0x40)\n      0xc6b0e90b00000000000000000000000000000000000000000000000000000000\n      dup2\n      mstore\n      0x04\n      add\n      mload(0x40)\n      dup1\n      swap2\n      sub\n      swap1\n      revert\n        /* \"04-Camps/08-UpChain_Camp_3_OpenSpace/0115_ERC721Token/contracts/NFTMarket.sol\":2768:2826  if (onSale[_nftAddr][_tokenId] != true) revert NotOnSale() */\n    tag_66:\n        /* \"04-Camps/08-UpChain_Camp_3_OpenSpace/0115_ERC721Token/contracts/NFTMarket.sol\":2847:2852  price */\n      0x00\n        /* \"04-Camps/08-UpChain_Camp_3_OpenSpace/0115_ERC721Token/contracts/NFTMarket.sol\":2847:2862  price[_nftAddr] */\n      dup1\n        /* \"04-Camps/08-UpChain_Camp_3_OpenSpace/0115_ERC721Token/contracts/NFTMarket.sol\":2853:2861  _nftAddr */\n      dup5\n        /* \"04-Camps/08-UpChain_Camp_3_OpenSpace/0115_ERC721Token/contracts/NFTMarket.sol\":2847:2862  price[_nftAddr] */\n      0xffffffffffffffffffffffffffffffffffffffff\n      and\n      0xffffffffffffffffffffffffffffffffffffffff\n      and\n      dup2\n      mstore\n      0x20\n      add\n      swap1\n      dup2\n      mstore\n      0x20\n      add\n      0x00\n      keccak256\n        /* \"04-Camps/08-UpChain_Camp_3_OpenSpace/0115_ERC721Token/contracts/NFTMarket.sol\":2847:2872  price[_nftAddr][_tokenId] */\n      0x00\n        /* \"04-Camps/08-UpChain_Camp_3_OpenSpace/0115_ERC721Token/contracts/NFTMarket.sol\":2863:2871  _tokenId */\n      dup4\n        /* \"04-Camps/08-UpChain_Camp_3_OpenSpace/0115_ERC721Token/contracts/NFTMarket.sol\":2847:2872  price[_nftAddr][_tokenId] */\n      dup2\n      mstore\n      0x20\n      add\n      swap1\n      dup2\n      mstore\n      0x20\n      add\n      0x00\n      keccak256\n      sload\n        /* \"04-Camps/08-UpChain_Camp_3_OpenSpace/0115_ERC721Token/contracts/NFTMarket.sol\":2840:2844  _bid */\n      dup2\n        /* \"04-Camps/08-UpChain_Camp_3_OpenSpace/0115_ERC721Token/contracts/NFTMarket.sol\":2840:2872  _bid < price[_nftAddr][_tokenId] */\n      lt\n        /* \"04-Camps/08-UpChain_Camp_3_OpenSpace/0115_ERC721Token/contracts/NFTMarket.sol\":2836:2930  if (_bid < price[_nftAddr][_tokenId]) revert BidLessThanPrice(_bid, price[_nftAddr][_tokenId]) */\n      iszero\n      tag_67\n      jumpi\n        /* \"04-Camps/08-UpChain_Camp_3_OpenSpace/0115_ERC721Token/contracts/NFTMarket.sol\":2898:2902  _bid */\n      dup1\n        /* \"04-Camps/08-UpChain_Camp_3_OpenSpace/0115_ERC721Token/contracts/NFTMarket.sol\":2904:2909  price */\n      0x00\n        /* \"04-Camps/08-UpChain_Camp_3_OpenSpace/0115_ERC721Token/contracts/NFTMarket.sol\":2904:2919  price[_nftAddr] */\n      dup1\n        /* \"04-Camps/08-UpChain_Camp_3_OpenSpace/0115_ERC721Token/contracts/NFTMarket.sol\":2910:2918  _nftAddr */\n      dup6\n        /* \"04-Camps/08-UpChain_Camp_3_OpenSpace/0115_ERC721Token/contracts/NFTMarket.sol\":2904:2919  price[_nftAddr] */\n      0xffffffffffffffffffffffffffffffffffffffff\n      and\n      0xffffffffffffffffffffffffffffffffffffffff\n      and\n      dup2\n      mstore\n      0x20\n      add\n      swap1\n      dup2\n      mstore\n      0x20\n      add\n      0x00\n      keccak256\n        /* \"04-Camps/08-UpChain_Camp_3_OpenSpace/0115_ERC721Token/contracts/NFTMarket.sol\":2904:2929  price[_nftAddr][_tokenId] */\n      0x00\n        /* \"04-Camps/08-UpChain_Camp_3_OpenSpace/0115_ERC721Token/contracts/NFTMarket.sol\":2920:2928  _tokenId */\n      dup5\n        /* \"04-Camps/08-UpChain_Camp_3_OpenSpace/0115_ERC721Token/contracts/NFTMarket.sol\":2904:2929  price[_nftAddr][_tokenId] */\n      dup2\n      mstore\n      0x20\n      add\n      swap1\n      dup2\n      mstore\n      0x20\n      add\n      0x00\n      keccak256\n      sload\n        /* \"04-Camps/08-UpChain_Camp_3_OpenSpace/0115_ERC721Token/contracts/NFTMarket.sol\":2881:2930  BidLessThanPrice(_bid, price[_nftAddr][_tokenId]) */\n      mload(0x40)\n      0x090bde1300000000000000000000000000000000000000000000000000000000\n      dup2\n      mstore\n      0x04\n      add\n      tag_68\n      swap3\n      swap2\n      swap1\n      tag_69\n      jump\t// in\n    tag_68:\n      mload(0x40)\n      dup1\n      swap2\n      sub\n      swap1\n      revert\n        /* \"04-Camps/08-UpChain_Camp_3_OpenSpace/0115_ERC721Token/contracts/NFTMarket.sol\":2836:2930  if (_bid < price[_nftAddr][_tokenId]) revert BidLessThanPrice(_bid, price[_nftAddr][_tokenId]) */\n    tag_67:\n        /* \"04-Camps/08-UpChain_Camp_3_OpenSpace/0115_ERC721Token/contracts/NFTMarket.sol\":2983:2991  _nftAddr */\n      dup3\n        /* \"04-Camps/08-UpChain_Camp_3_OpenSpace/0115_ERC721Token/contracts/NFTMarket.sol\":2975:3004  IERC721(_nftAddr).getApproved */\n      0xffffffffffffffffffffffffffffffffffffffff\n      and\n      0x081812fc\n        /* \"04-Camps/08-UpChain_Camp_3_OpenSpace/0115_ERC721Token/contracts/NFTMarket.sol\":3005:3013  _tokenId */\n      dup4\n        /* \"04-Camps/08-UpChain_Camp_3_OpenSpace/0115_ERC721Token/contracts/NFTMarket.sol\":2975:3014  IERC721(_nftAddr).getApproved(_tokenId) */\n      mload(0x40)\n      dup3\n      0xffffffff\n      and\n      0xe0\n      shl\n      dup2\n      mstore\n      0x04\n      add\n      tag_70\n      swap2\n      swap1\n      tag_23\n      jump\t// in\n    tag_70:\n      0x20\n      mload(0x40)\n      dup1\n      dup4\n      sub\n      dup2\n      dup7\n      gas\n      staticcall\n      iszero\n      dup1\n      iszero\n      tag_72\n      jumpi\n      returndatasize\n      0x00\n      dup1\n      returndatacopy\n      revert(0x00, returndatasize)\n    tag_72:\n      pop\n      pop\n      pop\n      pop\n      mload(0x40)\n      returndatasize\n      not(0x1f)\n      0x1f\n      dup3\n      add\n      and\n      dup3\n      add\n      dup1\n      0x40\n      mstore\n      pop\n      dup2\n      add\n      swap1\n      tag_73\n      swap2\n      swap1\n      tag_63\n      jump\t// in\n    tag_73:\n        /* \"04-Camps/08-UpChain_Camp_3_OpenSpace/0115_ERC721Token/contracts/NFTMarket.sol\":2961:3014  msg.sender != IERC721(_nftAddr).getApproved(_tokenId) */\n      0xffffffffffffffffffffffffffffffffffffffff\n      and\n        /* \"04-Camps/08-UpChain_Camp_3_OpenSpace/0115_ERC721Token/contracts/NFTMarket.sol\":2961:2971  msg.sender */\n      caller\n        /* \"04-Camps/08-UpChain_Camp_3_OpenSpace/0115_ERC721Token/contracts/NFTMarket.sol\":2961:3014  msg.sender != IERC721(_nftAddr).getApproved(_tokenId) */\n      0xffffffffffffffffffffffffffffffffffffffff\n      and\n      sub\n        /* \"04-Camps/08-UpChain_Camp_3_OpenSpace/0115_ERC721Token/contracts/NFTMarket.sol\":2940:3057  require(... */\n      tag_74\n      jumpi\n      mload(0x40)\n      0x08c379a000000000000000000000000000000000000000000000000000000000\n      dup2\n      mstore\n      0x04\n      add\n      tag_75\n      swap1\n      tag_76\n      jump\t// in\n    tag_75:\n      mload(0x40)\n      dup1\n      swap2\n      sub\n      swap1\n      revert\n    tag_74:\n        /* \"04-Camps/08-UpChain_Camp_3_OpenSpace/0115_ERC721Token/contracts/NFTMarket.sol\":3067:3080  bool _success */\n      0x00\n        /* \"04-Camps/08-UpChain_Camp_3_OpenSpace/0115_ERC721Token/contracts/NFTMarket.sol\":3090:3099  tokenAddr */\n      immutable(\"0x939eb54753ed0cc7e2272bfb34cbe098308c93936ed54d79078f76ade0b2e789\")\n        /* \"04-Camps/08-UpChain_Camp_3_OpenSpace/0115_ERC721Token/contracts/NFTMarket.sol\":3083:3113  IERC20(tokenAddr).transferFrom */\n      0xffffffffffffffffffffffffffffffffffffffff\n      and\n      0x23b872dd\n        /* \"04-Camps/08-UpChain_Camp_3_OpenSpace/0115_ERC721Token/contracts/NFTMarket.sol\":3127:3137  msg.sender */\n      caller\n        /* \"04-Camps/08-UpChain_Camp_3_OpenSpace/0115_ERC721Token/contracts/NFTMarket.sol\":3159:3163  this */\n      address\n        /* \"04-Camps/08-UpChain_Camp_3_OpenSpace/0115_ERC721Token/contracts/NFTMarket.sol\":3178:3182  _bid */\n      dup6\n        /* \"04-Camps/08-UpChain_Camp_3_OpenSpace/0115_ERC721Token/contracts/NFTMarket.sol\":3083:3192  IERC20(tokenAddr).transferFrom(... */\n      mload(0x40)\n      dup5\n      0xffffffff\n      and\n      0xe0\n      shl\n      dup2\n      mstore\n      0x04\n      add\n      tag_77\n      swap4\n      swap3\n      swap2\n      swap1\n      tag_78\n      jump\t// in\n    tag_77:\n      0x20\n      mload(0x40)\n      dup1\n      dup4\n      sub\n      dup2\n      0x00\n      dup8\n      gas\n      call\n      iszero\n      dup1\n      iszero\n      tag_80\n      jumpi\n      returndatasize\n      0x00\n      dup1\n      returndatacopy\n      revert(0x00, returndatasize)\n    tag_80:\n      pop\n      pop\n      pop\n      pop\n      mload(0x40)\n      returndatasize\n      not(0x1f)\n      0x1f\n      dup3\n      add\n      and\n      dup3\n      add\n      dup1\n      0x40\n      mstore\n      pop\n      dup2\n      add\n      swap1\n      tag_81\n      swap2\n      swap1\n      tag_82\n      jump\t// in\n    tag_81:\n        /* \"04-Camps/08-UpChain_Camp_3_OpenSpace/0115_ERC721Token/contracts/NFTMarket.sol\":3067:3192  bool _success = IERC20(tokenAddr).transferFrom(... */\n      swap1\n      pop\n        /* \"04-Camps/08-UpChain_Camp_3_OpenSpace/0115_ERC721Token/contracts/NFTMarket.sol\":3210:3218  _success */\n      dup1\n        /* \"04-Camps/08-UpChain_Camp_3_OpenSpace/0115_ERC721Token/contracts/NFTMarket.sol\":3202:3263  require(_success, \"Fail to buy or Allowance is insufficient\") */\n      tag_83\n      jumpi\n      mload(0x40)\n      0x08c379a000000000000000000000000000000000000000000000000000000000\n      dup2\n      mstore\n      0x04\n      add\n      tag_84\n      swap1\n      tag_85\n      jump\t// in\n    tag_84:\n      mload(0x40)\n      dup1\n      swap2\n      sub\n      swap1\n      revert\n    tag_83:\n        /* \"04-Camps/08-UpChain_Camp_3_OpenSpace/0115_ERC721Token/contracts/NFTMarket.sol\":3325:3329  _bid */\n      dup2\n        /* \"04-Camps/08-UpChain_Camp_3_OpenSpace/0115_ERC721Token/contracts/NFTMarket.sol\":3273:3280  balance */\n      0x01\n        /* \"04-Camps/08-UpChain_Camp_3_OpenSpace/0115_ERC721Token/contracts/NFTMarket.sol\":3273:3321  balance[IERC721(_nftAddr).getApproved(_tokenId)] */\n      0x00\n        /* \"04-Camps/08-UpChain_Camp_3_OpenSpace/0115_ERC721Token/contracts/NFTMarket.sol\":3289:3297  _nftAddr */\n      dup7\n        /* \"04-Camps/08-UpChain_Camp_3_OpenSpace/0115_ERC721Token/contracts/NFTMarket.sol\":3281:3310  IERC721(_nftAddr).getApproved */\n      0xffffffffffffffffffffffffffffffffffffffff\n      and\n      0x081812fc\n        /* \"04-Camps/08-UpChain_Camp_3_OpenSpace/0115_ERC721Token/contracts/NFTMarket.sol\":3311:3319  _tokenId */\n      dup8\n        /* \"04-Camps/08-UpChain_Camp_3_OpenSpace/0115_ERC721Token/contracts/NFTMarket.sol\":3281:3320  IERC721(_nftAddr).getApproved(_tokenId) */\n      mload(0x40)\n      dup3\n      0xffffffff\n      and\n      0xe0\n      shl\n      dup2\n      mstore\n      0x04\n      add\n      tag_86\n      swap2\n      swap1\n      tag_23\n      jump\t// in\n    tag_86:\n      0x20\n      mload(0x40)\n      dup1\n      dup4\n      sub\n      dup2\n      dup7\n      gas\n      staticcall\n      iszero\n      dup1\n      iszero\n      tag_88\n      jumpi\n      returndatasize\n      0x00\n      dup1\n      returndatacopy\n      revert(0x00, returndatasize)\n    tag_88:\n      pop\n      pop\n      pop\n      pop\n      mload(0x40)\n      returndatasize\n      not(0x1f)\n      0x1f\n      dup3\n      add\n      and\n      dup3\n      add\n      dup1\n      0x40\n      mstore\n      pop\n      dup2\n      add\n      swap1\n      tag_89\n      swap2\n      swap1\n      tag_63\n      jump\t// in\n    tag_89:\n        /* \"04-Camps/08-UpChain_Camp_3_OpenSpace/0115_ERC721Token/contracts/NFTMarket.sol\":3273:3321  balance[IERC721(_nftAddr).getApproved(_tokenId)] */\n      0xffffffffffffffffffffffffffffffffffffffff\n      and\n      0xffffffffffffffffffffffffffffffffffffffff\n      and\n      dup2\n      mstore\n      0x20\n      add\n      swap1\n      dup2\n      mstore\n      0x20\n      add\n      0x00\n      keccak256\n      0x00\n        /* \"04-Camps/08-UpChain_Camp_3_OpenSpace/0115_ERC721Token/contracts/NFTMarket.sol\":3273:3329  balance[IERC721(_nftAddr).getApproved(_tokenId)] += _bid */\n      dup3\n      dup3\n      sload\n      tag_90\n      swap2\n      swap1\n      tag_91\n      jump\t// in\n    tag_90:\n      swap3\n      pop\n      pop\n      dup2\n      swap1\n      sstore\n      pop\n        /* \"04-Camps/08-UpChain_Camp_3_OpenSpace/0115_ERC721Token/contracts/NFTMarket.sol\":3347:3355  _nftAddr */\n      dup4\n        /* \"04-Camps/08-UpChain_Camp_3_OpenSpace/0115_ERC721Token/contracts/NFTMarket.sol\":3339:3369  IERC721(_nftAddr).transferFrom */\n      0xffffffffffffffffffffffffffffffffffffffff\n      and\n      0x23b872dd\n        /* \"04-Camps/08-UpChain_Camp_3_OpenSpace/0115_ERC721Token/contracts/NFTMarket.sol\":3378:3382  this */\n      address\n        /* \"04-Camps/08-UpChain_Camp_3_OpenSpace/0115_ERC721Token/contracts/NFTMarket.sol\":3385:3395  msg.sender */\n      caller\n        /* \"04-Camps/08-UpChain_Camp_3_OpenSpace/0115_ERC721Token/contracts/NFTMarket.sol\":3397:3405  _tokenId */\n      dup7\n        /* \"04-Camps/08-UpChain_Camp_3_OpenSpace/0115_ERC721Token/contracts/NFTMarket.sol\":3339:3406  IERC721(_nftAddr).transferFrom(address(this), msg.sender, _tokenId) */\n      mload(0x40)\n      dup5\n      0xffffffff\n      and\n      0xe0\n      shl\n      dup2\n      mstore\n      0x04\n      add\n      tag_92\n      swap4\n      swap3\n      swap2\n      swap1\n      tag_78\n      jump\t// in\n    tag_92:\n      0x00\n      mload(0x40)\n      dup1\n      dup4\n      sub\n      dup2\n      0x00\n      dup8\n      dup1\n      extcodesize\n      iszero\n      dup1\n      iszero\n      tag_93\n      jumpi\n      0x00\n      dup1\n      revert\n    tag_93:\n      pop\n      gas\n      call\n      iszero\n      dup1\n      iszero\n      tag_95\n      jumpi\n      returndatasize\n      0x00\n      dup1\n      returndatacopy\n      revert(0x00, returndatasize)\n    tag_95:\n      pop\n      pop\n      pop\n      pop\n        /* \"04-Camps/08-UpChain_Camp_3_OpenSpace/0115_ERC721Token/contracts/NFTMarket.sol\":3423:3428  price */\n      0x00\n        /* \"04-Camps/08-UpChain_Camp_3_OpenSpace/0115_ERC721Token/contracts/NFTMarket.sol\":3423:3438  price[_nftAddr] */\n      dup1\n        /* \"04-Camps/08-UpChain_Camp_3_OpenSpace/0115_ERC721Token/contracts/NFTMarket.sol\":3429:3437  _nftAddr */\n      dup6\n        /* \"04-Camps/08-UpChain_Camp_3_OpenSpace/0115_ERC721Token/contracts/NFTMarket.sol\":3423:3438  price[_nftAddr] */\n      0xffffffffffffffffffffffffffffffffffffffff\n      and\n      0xffffffffffffffffffffffffffffffffffffffff\n      and\n      dup2\n      mstore\n      0x20\n      add\n      swap1\n      dup2\n      mstore\n      0x20\n      add\n      0x00\n      keccak256\n        /* \"04-Camps/08-UpChain_Camp_3_OpenSpace/0115_ERC721Token/contracts/NFTMarket.sol\":3423:3448  price[_nftAddr][_tokenId] */\n      0x00\n        /* \"04-Camps/08-UpChain_Camp_3_OpenSpace/0115_ERC721Token/contracts/NFTMarket.sol\":3439:3447  _tokenId */\n      dup5\n        /* \"04-Camps/08-UpChain_Camp_3_OpenSpace/0115_ERC721Token/contracts/NFTMarket.sol\":3423:3448  price[_nftAddr][_tokenId] */\n      dup2\n      mstore\n      0x20\n      add\n      swap1\n      dup2\n      mstore\n      0x20\n      add\n      0x00\n      keccak256\n        /* \"04-Camps/08-UpChain_Camp_3_OpenSpace/0115_ERC721Token/contracts/NFTMarket.sol\":3416:3448  delete price[_nftAddr][_tokenId] */\n      0x00\n      swap1\n      sstore\n        /* \"04-Camps/08-UpChain_Camp_3_OpenSpace/0115_ERC721Token/contracts/NFTMarket.sol\":3487:3492  false */\n      0x00\n        /* \"04-Camps/08-UpChain_Camp_3_OpenSpace/0115_ERC721Token/contracts/NFTMarket.sol\":3458:3464  onSale */\n      0x02\n        /* \"04-Camps/08-UpChain_Camp_3_OpenSpace/0115_ERC721Token/contracts/NFTMarket.sol\":3458:3474  onSale[_nftAddr] */\n      0x00\n        /* \"04-Camps/08-UpChain_Camp_3_OpenSpace/0115_ERC721Token/contracts/NFTMarket.sol\":3465:3473  _nftAddr */\n      dup7\n        /* \"04-Camps/08-UpChain_Camp_3_OpenSpace/0115_ERC721Token/contracts/NFTMarket.sol\":3458:3474  onSale[_nftAddr] */\n      0xffffffffffffffffffffffffffffffffffffffff\n      and\n      0xffffffffffffffffffffffffffffffffffffffff\n      and\n      dup2\n      mstore\n      0x20\n      add\n      swap1\n      dup2\n      mstore\n      0x20\n      add\n      0x00\n      keccak256\n        /* \"04-Camps/08-UpChain_Camp_3_OpenSpace/0115_ERC721Token/contracts/NFTMarket.sol\":3458:3484  onSale[_nftAddr][_tokenId] */\n      0x00\n        /* \"04-Camps/08-UpChain_Camp_3_OpenSpace/0115_ERC721Token/contracts/NFTMarket.sol\":3475:3483  _tokenId */\n      dup6\n        /* \"04-Camps/08-UpChain_Camp_3_OpenSpace/0115_ERC721Token/contracts/NFTMarket.sol\":3458:3484  onSale[_nftAddr][_tokenId] */\n      dup2\n      mstore\n      0x20\n      add\n      swap1\n      dup2\n      mstore\n      0x20\n      add\n      0x00\n      keccak256\n      0x00\n        /* \"04-Camps/08-UpChain_Camp_3_OpenSpace/0115_ERC721Token/contracts/NFTMarket.sol\":3458:3492  onSale[_nftAddr][_tokenId] = false */\n      0x0100\n      exp\n      dup2\n      sload\n      dup2\n      0xff\n      mul\n      not\n      and\n      swap1\n      dup4\n      iszero\n      iszero\n      mul\n      or\n      swap1\n      sstore\n      pop\n        /* \"04-Camps/08-UpChain_Camp_3_OpenSpace/0115_ERC721Token/contracts/NFTMarket.sol\":2758:3499  {... */\n      pop\n        /* \"04-Camps/08-UpChain_Camp_3_OpenSpace/0115_ERC721Token/contracts/NFTMarket.sol\":2692:3499  function buy(address _nftAddr, uint _tokenId, uint _bid) external {... */\n      pop\n      pop\n      pop\n      jump\t// out\n        /* \"04-Camps/08-UpChain_Camp_3_OpenSpace/0115_ERC721Token/contracts/NFTMarket.sol\":3932:4248  function withdrawBalance(uint _value) external {... */\n    tag_49:\n        /* \"04-Camps/08-UpChain_Camp_3_OpenSpace/0115_ERC721Token/contracts/NFTMarket.sol\":4002:4009  balance */\n      0x01\n        /* \"04-Camps/08-UpChain_Camp_3_OpenSpace/0115_ERC721Token/contracts/NFTMarket.sol\":4002:4021  balance[msg.sender] */\n      0x00\n        /* \"04-Camps/08-UpChain_Camp_3_OpenSpace/0115_ERC721Token/contracts/NFTMarket.sol\":4010:4020  msg.sender */\n      caller\n        /* \"04-Camps/08-UpChain_Camp_3_OpenSpace/0115_ERC721Token/contracts/NFTMarket.sol\":4002:4021  balance[msg.sender] */\n      0xffffffffffffffffffffffffffffffffffffffff\n      and\n      0xffffffffffffffffffffffffffffffffffffffff\n      and\n      dup2\n      mstore\n      0x20\n      add\n      swap1\n      dup2\n      mstore\n      0x20\n      add\n      0x00\n      keccak256\n      sload\n        /* \"04-Camps/08-UpChain_Camp_3_OpenSpace/0115_ERC721Token/contracts/NFTMarket.sol\":3993:3999  _value */\n      dup2\n        /* \"04-Camps/08-UpChain_Camp_3_OpenSpace/0115_ERC721Token/contracts/NFTMarket.sol\":3993:4021  _value > balance[msg.sender] */\n      gt\n        /* \"04-Camps/08-UpChain_Camp_3_OpenSpace/0115_ERC721Token/contracts/NFTMarket.sol\":3989:4082  if (_value > balance[msg.sender]) revert withdrawalExceedBalance(_value, balance[msg.sender]) */\n      iszero\n      tag_97\n      jumpi\n        /* \"04-Camps/08-UpChain_Camp_3_OpenSpace/0115_ERC721Token/contracts/NFTMarket.sol\":4054:4060  _value */\n      dup1\n        /* \"04-Camps/08-UpChain_Camp_3_OpenSpace/0115_ERC721Token/contracts/NFTMarket.sol\":4062:4069  balance */\n      0x01\n        /* \"04-Camps/08-UpChain_Camp_3_OpenSpace/0115_ERC721Token/contracts/NFTMarket.sol\":4062:4081  balance[msg.sender] */\n      0x00\n        /* \"04-Camps/08-UpChain_Camp_3_OpenSpace/0115_ERC721Token/contracts/NFTMarket.sol\":4070:4080  msg.sender */\n      caller\n        /* \"04-Camps/08-UpChain_Camp_3_OpenSpace/0115_ERC721Token/contracts/NFTMarket.sol\":4062:4081  balance[msg.sender] */\n      0xffffffffffffffffffffffffffffffffffffffff\n      and\n      0xffffffffffffffffffffffffffffffffffffffff\n      and\n      dup2\n      mstore\n      0x20\n      add\n      swap1\n      dup2\n      mstore\n      0x20\n      add\n      0x00\n      keccak256\n      sload\n        /* \"04-Camps/08-UpChain_Camp_3_OpenSpace/0115_ERC721Token/contracts/NFTMarket.sol\":4030:4082  withdrawalExceedBalance(_value, balance[msg.sender]) */\n      mload(0x40)\n      0x1e6b7c1d00000000000000000000000000000000000000000000000000000000\n      dup2\n      mstore\n      0x04\n      add\n      tag_98\n      swap3\n      swap2\n      swap1\n      tag_69\n      jump\t// in\n    tag_98:\n      mload(0x40)\n      dup1\n      swap2\n      sub\n      swap1\n      revert\n        /* \"04-Camps/08-UpChain_Camp_3_OpenSpace/0115_ERC721Token/contracts/NFTMarket.sol\":3989:4082  if (_value > balance[msg.sender]) revert withdrawalExceedBalance(_value, balance[msg.sender]) */\n    tag_97:\n        /* \"04-Camps/08-UpChain_Camp_3_OpenSpace/0115_ERC721Token/contracts/NFTMarket.sol\":4092:4105  bool _success */\n      0x00\n        /* \"04-Camps/08-UpChain_Camp_3_OpenSpace/0115_ERC721Token/contracts/NFTMarket.sol\":4115:4124  tokenAddr */\n      immutable(\"0x939eb54753ed0cc7e2272bfb34cbe098308c93936ed54d79078f76ade0b2e789\")\n        /* \"04-Camps/08-UpChain_Camp_3_OpenSpace/0115_ERC721Token/contracts/NFTMarket.sol\":4108:4134  IERC20(tokenAddr).transfer */\n      0xffffffffffffffffffffffffffffffffffffffff\n      and\n      0xa9059cbb\n        /* \"04-Camps/08-UpChain_Camp_3_OpenSpace/0115_ERC721Token/contracts/NFTMarket.sol\":4135:4145  msg.sender */\n      caller\n        /* \"04-Camps/08-UpChain_Camp_3_OpenSpace/0115_ERC721Token/contracts/NFTMarket.sol\":4147:4153  _value */\n      dup5\n        /* \"04-Camps/08-UpChain_Camp_3_OpenSpace/0115_ERC721Token/contracts/NFTMarket.sol\":4108:4154  IERC20(tokenAddr).transfer(msg.sender, _value) */\n      mload(0x40)\n      dup4\n      0xffffffff\n      and\n      0xe0\n      shl\n      dup2\n      mstore\n      0x04\n      add\n      tag_99\n      swap3\n      swap2\n      swap1\n      tag_100\n      jump\t// in\n    tag_99:\n      0x20\n      mload(0x40)\n      dup1\n      dup4\n      sub\n      dup2\n      0x00\n      dup8\n      gas\n      call\n      iszero\n      dup1\n      iszero\n      tag_102\n      jumpi\n      returndatasize\n      0x00\n      dup1\n      returndatacopy\n      revert(0x00, returndatasize)\n    tag_102:\n      pop\n      pop\n      pop\n      pop\n      mload(0x40)\n      returndatasize\n      not(0x1f)\n      0x1f\n      dup3\n      add\n      and\n      dup3\n      add\n      dup1\n      0x40\n      mstore\n      pop\n      dup2\n      add\n      swap1\n      tag_103\n      swap2\n      swap1\n      tag_82\n      jump\t// in\n    tag_103:\n        /* \"04-Camps/08-UpChain_Camp_3_OpenSpace/0115_ERC721Token/contracts/NFTMarket.sol\":4092:4154  bool _success = IERC20(tokenAddr).transfer(msg.sender, _value) */\n      swap1\n      pop\n        /* \"04-Camps/08-UpChain_Camp_3_OpenSpace/0115_ERC721Token/contracts/NFTMarket.sol\":4172:4180  _success */\n      dup1\n        /* \"04-Camps/08-UpChain_Camp_3_OpenSpace/0115_ERC721Token/contracts/NFTMarket.sol\":4164:4202  require(_success, \"withdrawal failed\") */\n      tag_104\n      jumpi\n      mload(0x40)\n      0x08c379a000000000000000000000000000000000000000000000000000000000\n      dup2\n      mstore\n      0x04\n      add\n      tag_105\n      swap1\n      tag_106\n      jump\t// in\n    tag_105:\n      mload(0x40)\n      dup1\n      swap2\n      sub\n      swap1\n      revert\n    tag_104:\n        /* \"04-Camps/08-UpChain_Camp_3_OpenSpace/0115_ERC721Token/contracts/NFTMarket.sol\":4235:4241  _value */\n      dup2\n        /* \"04-Camps/08-UpChain_Camp_3_OpenSpace/0115_ERC721Token/contracts/NFTMarket.sol\":4212:4219  balance */\n      0x01\n        /* \"04-Camps/08-UpChain_Camp_3_OpenSpace/0115_ERC721Token/contracts/NFTMarket.sol\":4212:4231  balance[msg.sender] */\n      0x00\n        /* \"04-Camps/08-UpChain_Camp_3_OpenSpace/0115_ERC721Token/contracts/NFTMarket.sol\":4220:4230  msg.sender */\n      caller\n        /* \"04-Camps/08-UpChain_Camp_3_OpenSpace/0115_ERC721Token/contracts/NFTMarket.sol\":4212:4231  balance[msg.sender] */\n      0xffffffffffffffffffffffffffffffffffffffff\n      and\n      0xffffffffffffffffffffffffffffffffffffffff\n      and\n      dup2\n      mstore\n      0x20\n      add\n      swap1\n      dup2\n      mstore\n      0x20\n      add\n      0x00\n      keccak256\n      0x00\n        /* \"04-Camps/08-UpChain_Camp_3_OpenSpace/0115_ERC721Token/contracts/NFTMarket.sol\":4212:4241  balance[msg.sender] -= _value */\n      dup3\n      dup3\n      sload\n      tag_107\n      swap2\n      swap1\n      tag_108\n      jump\t// in\n    tag_107:\n      swap3\n      pop\n      pop\n      dup2\n      swap1\n      sstore\n      pop\n        /* \"04-Camps/08-UpChain_Camp_3_OpenSpace/0115_ERC721Token/contracts/NFTMarket.sol\":3979:4248  {... */\n      pop\n        /* \"04-Camps/08-UpChain_Camp_3_OpenSpace/0115_ERC721Token/contracts/NFTMarket.sol\":3932:4248  function withdrawBalance(uint _value) external {... */\n      pop\n      jump\t// out\n        /* \"04-Camps/08-UpChain_Camp_3_OpenSpace/0115_ERC721Token/contracts/NFTMarket.sol\":1347:1984  function list(address _nftAddr, uint _tokenId, uint _price) external {... */\n    tag_52:\n        /* \"04-Camps/08-UpChain_Camp_3_OpenSpace/0115_ERC721Token/contracts/NFTMarket.sol\":1452:1460  _nftAddr */\n      dup3\n        /* \"04-Camps/08-UpChain_Camp_3_OpenSpace/0115_ERC721Token/contracts/NFTMarket.sol\":1444:1469  IERC721(_nftAddr).ownerOf */\n      0xffffffffffffffffffffffffffffffffffffffff\n      and\n      0x6352211e\n        /* \"04-Camps/08-UpChain_Camp_3_OpenSpace/0115_ERC721Token/contracts/NFTMarket.sol\":1470:1478  _tokenId */\n      dup4\n        /* \"04-Camps/08-UpChain_Camp_3_OpenSpace/0115_ERC721Token/contracts/NFTMarket.sol\":1444:1479  IERC721(_nftAddr).ownerOf(_tokenId) */\n      mload(0x40)\n      dup3\n      0xffffffff\n      and\n      0xe0\n      shl\n      dup2\n      mstore\n      0x04\n      add\n      tag_110\n      swap2\n      swap1\n      tag_23\n      jump\t// in\n    tag_110:\n      0x20\n      mload(0x40)\n      dup1\n      dup4\n      sub\n      dup2\n      dup7\n      gas\n      staticcall\n      iszero\n      dup1\n      iszero\n      tag_112\n      jumpi\n      returndatasize\n      0x00\n      dup1\n      returndatacopy\n      revert(0x00, returndatasize)\n    tag_112:\n      pop\n      pop\n      pop\n      pop\n      mload(0x40)\n      returndatasize\n      not(0x1f)\n      0x1f\n      dup3\n      add\n      and\n      dup3\n      add\n      dup1\n      0x40\n      mstore\n      pop\n      dup2\n      add\n      swap1\n      tag_113\n      swap2\n      swap1\n      tag_63\n      jump\t// in\n    tag_113:\n        /* \"04-Camps/08-UpChain_Camp_3_OpenSpace/0115_ERC721Token/contracts/NFTMarket.sol\":1430:1479  msg.sender != IERC721(_nftAddr).ownerOf(_tokenId) */\n      0xffffffffffffffffffffffffffffffffffffffff\n      and\n        /* \"04-Camps/08-UpChain_Camp_3_OpenSpace/0115_ERC721Token/contracts/NFTMarket.sol\":1430:1440  msg.sender */\n      caller\n        /* \"04-Camps/08-UpChain_Camp_3_OpenSpace/0115_ERC721Token/contracts/NFTMarket.sol\":1430:1479  msg.sender != IERC721(_nftAddr).ownerOf(_tokenId) */\n      0xffffffffffffffffffffffffffffffffffffffff\n      and\n      eq\n        /* \"04-Camps/08-UpChain_Camp_3_OpenSpace/0115_ERC721Token/contracts/NFTMarket.sol\":1426:1510  if (msg.sender != IERC721(_nftAddr).ownerOf(_tokenId))... */\n      tag_114\n      jumpi\n        /* \"04-Camps/08-UpChain_Camp_3_OpenSpace/0115_ERC721Token/contracts/NFTMarket.sol\":1500:1510  NotOwner() */\n      mload(0x40)\n      0x30cd747100000000000000000000000000000000000000000000000000000000\n      dup2\n      mstore\n      0x04\n      add\n      mload(0x40)\n      dup1\n      swap2\n      sub\n      swap1\n      revert\n        /* \"04-Camps/08-UpChain_Camp_3_OpenSpace/0115_ERC721Token/contracts/NFTMarket.sol\":1426:1510  if (msg.sender != IERC721(_nftAddr).ownerOf(_tokenId))... */\n    tag_114:\n        /* \"04-Camps/08-UpChain_Camp_3_OpenSpace/0115_ERC721Token/contracts/NFTMarket.sol\":1534:1535  0 */\n      0x00\n        /* \"04-Camps/08-UpChain_Camp_3_OpenSpace/0115_ERC721Token/contracts/NFTMarket.sol\":1524:1530  _price */\n      dup2\n        /* \"04-Camps/08-UpChain_Camp_3_OpenSpace/0115_ERC721Token/contracts/NFTMarket.sol\":1524:1535  _price == 0 */\n      sub\n        /* \"04-Camps/08-UpChain_Camp_3_OpenSpace/0115_ERC721Token/contracts/NFTMarket.sol\":1520:1555  if (_price == 0) revert ZeroPrice() */\n      tag_115\n      jumpi\n        /* \"04-Camps/08-UpChain_Camp_3_OpenSpace/0115_ERC721Token/contracts/NFTMarket.sol\":1544:1555  ZeroPrice() */\n      mload(0x40)\n      0x4dfba02300000000000000000000000000000000000000000000000000000000\n      dup2\n      mstore\n      0x04\n      add\n      mload(0x40)\n      dup1\n      swap2\n      sub\n      swap1\n      revert\n        /* \"04-Camps/08-UpChain_Camp_3_OpenSpace/0115_ERC721Token/contracts/NFTMarket.sol\":1520:1555  if (_price == 0) revert ZeroPrice() */\n    tag_115:\n        /* \"04-Camps/08-UpChain_Camp_3_OpenSpace/0115_ERC721Token/contracts/NFTMarket.sol\":1616:1621  false */\n      0x00\n        /* \"04-Camps/08-UpChain_Camp_3_OpenSpace/0115_ERC721Token/contracts/NFTMarket.sol\":1586:1621  onSale[_nftAddr][_tokenId] == false */\n      iszero\n      iszero\n        /* \"04-Camps/08-UpChain_Camp_3_OpenSpace/0115_ERC721Token/contracts/NFTMarket.sol\":1586:1592  onSale */\n      0x02\n        /* \"04-Camps/08-UpChain_Camp_3_OpenSpace/0115_ERC721Token/contracts/NFTMarket.sol\":1586:1602  onSale[_nftAddr] */\n      0x00\n        /* \"04-Camps/08-UpChain_Camp_3_OpenSpace/0115_ERC721Token/contracts/NFTMarket.sol\":1593:1601  _nftAddr */\n      dup6\n        /* \"04-Camps/08-UpChain_Camp_3_OpenSpace/0115_ERC721Token/contracts/NFTMarket.sol\":1586:1602  onSale[_nftAddr] */\n      0xffffffffffffffffffffffffffffffffffffffff\n      and\n      0xffffffffffffffffffffffffffffffffffffffff\n      and\n      dup2\n      mstore\n      0x20\n      add\n      swap1\n      dup2\n      mstore\n      0x20\n      add\n      0x00\n      keccak256\n        /* \"04-Camps/08-UpChain_Camp_3_OpenSpace/0115_ERC721Token/contracts/NFTMarket.sol\":1586:1612  onSale[_nftAddr][_tokenId] */\n      0x00\n        /* \"04-Camps/08-UpChain_Camp_3_OpenSpace/0115_ERC721Token/contracts/NFTMarket.sol\":1603:1611  _tokenId */\n      dup5\n        /* \"04-Camps/08-UpChain_Camp_3_OpenSpace/0115_ERC721Token/contracts/NFTMarket.sol\":1586:1612  onSale[_nftAddr][_tokenId] */\n      dup2\n      mstore\n      0x20\n      add\n      swap1\n      dup2\n      mstore\n      0x20\n      add\n      0x00\n      keccak256\n      0x00\n      swap1\n      sload\n      swap1\n      0x0100\n      exp\n      swap1\n      div\n      0xff\n      and\n        /* \"04-Camps/08-UpChain_Camp_3_OpenSpace/0115_ERC721Token/contracts/NFTMarket.sol\":1586:1621  onSale[_nftAddr][_tokenId] == false */\n      iszero\n      iszero\n      eq\n        /* \"04-Camps/08-UpChain_Camp_3_OpenSpace/0115_ERC721Token/contracts/NFTMarket.sol\":1565:1673  require(... */\n      tag_116\n      jumpi\n      mload(0x40)\n      0x08c379a000000000000000000000000000000000000000000000000000000000\n      dup2\n      mstore\n      0x04\n      add\n      tag_117\n      swap1\n      tag_118\n      jump\t// in\n    tag_117:\n      mload(0x40)\n      dup1\n      swap2\n      sub\n      swap1\n      revert\n    tag_116:\n        /* \"04-Camps/08-UpChain_Camp_3_OpenSpace/0115_ERC721Token/contracts/NFTMarket.sol\":1691:1699  _nftAddr */\n      dup3\n        /* \"04-Camps/08-UpChain_Camp_3_OpenSpace/0115_ERC721Token/contracts/NFTMarket.sol\":1683:1717  IERC721(_nftAddr).safeTransferFrom */\n      0xffffffffffffffffffffffffffffffffffffffff\n      and\n      0xb88d4fde\n        /* \"04-Camps/08-UpChain_Camp_3_OpenSpace/0115_ERC721Token/contracts/NFTMarket.sol\":1731:1741  msg.sender */\n      caller\n        /* \"04-Camps/08-UpChain_Camp_3_OpenSpace/0115_ERC721Token/contracts/NFTMarket.sol\":1763:1767  this */\n      address\n        /* \"04-Camps/08-UpChain_Camp_3_OpenSpace/0115_ERC721Token/contracts/NFTMarket.sol\":1782:1790  _tokenId */\n      dup6\n        /* \"04-Camps/08-UpChain_Camp_3_OpenSpace/0115_ERC721Token/contracts/NFTMarket.sol\":1683:1833  IERC721(_nftAddr).safeTransferFrom(... */\n      mload(0x40)\n      dup5\n      0xffffffff\n      and\n      0xe0\n      shl\n      dup2\n      mstore\n      0x04\n      add\n      tag_119\n      swap4\n      swap3\n      swap2\n      swap1\n      tag_120\n      jump\t// in\n    tag_119:\n      0x00\n      mload(0x40)\n      dup1\n      dup4\n      sub\n      dup2\n      0x00\n      dup8\n      dup1\n      extcodesize\n      iszero\n      dup1\n      iszero\n      tag_121\n      jumpi\n      0x00\n      dup1\n      revert\n    tag_121:\n      pop\n      gas\n      call\n      iszero\n      dup1\n      iszero\n      tag_123\n      jumpi\n      returndatasize\n      0x00\n      dup1\n      returndatacopy\n      revert(0x00, returndatasize)\n    tag_123:\n      pop\n      pop\n      pop\n      pop\n        /* \"04-Camps/08-UpChain_Camp_3_OpenSpace/0115_ERC721Token/contracts/NFTMarket.sol\":1851:1859  _nftAddr */\n      dup3\n        /* \"04-Camps/08-UpChain_Camp_3_OpenSpace/0115_ERC721Token/contracts/NFTMarket.sol\":1843:1868  IERC721(_nftAddr).approve */\n      0xffffffffffffffffffffffffffffffffffffffff\n      and\n      0x095ea7b3\n        /* \"04-Camps/08-UpChain_Camp_3_OpenSpace/0115_ERC721Token/contracts/NFTMarket.sol\":1869:1879  msg.sender */\n      caller\n        /* \"04-Camps/08-UpChain_Camp_3_OpenSpace/0115_ERC721Token/contracts/NFTMarket.sol\":1881:1889  _tokenId */\n      dup5\n        /* \"04-Camps/08-UpChain_Camp_3_OpenSpace/0115_ERC721Token/contracts/NFTMarket.sol\":1843:1890  IERC721(_nftAddr).approve(msg.sender, _tokenId) */\n      mload(0x40)\n      dup4\n      0xffffffff\n      and\n      0xe0\n      shl\n      dup2\n      mstore\n      0x04\n      add\n      tag_124\n      swap3\n      swap2\n      swap1\n      tag_100\n      jump\t// in\n    tag_124:\n      0x00\n      mload(0x40)\n      dup1\n      dup4\n      sub\n      dup2\n      0x00\n      dup8\n      dup1\n      extcodesize\n      iszero\n      dup1\n      iszero\n      tag_125\n      jumpi\n      0x00\n      dup1\n      revert\n    tag_125:\n      pop\n      gas\n      call\n      iszero\n      dup1\n      iszero\n      tag_127\n      jumpi\n      returndatasize\n      0x00\n      dup1\n      returndatacopy\n      revert(0x00, returndatasize)\n    tag_127:\n      pop\n      pop\n      pop\n      pop\n        /* \"04-Camps/08-UpChain_Camp_3_OpenSpace/0115_ERC721Token/contracts/NFTMarket.sol\":1928:1934  _price */\n      dup1\n        /* \"04-Camps/08-UpChain_Camp_3_OpenSpace/0115_ERC721Token/contracts/NFTMarket.sol\":1900:1905  price */\n      0x00\n        /* \"04-Camps/08-UpChain_Camp_3_OpenSpace/0115_ERC721Token/contracts/NFTMarket.sol\":1900:1915  price[_nftAddr] */\n      dup1\n        /* \"04-Camps/08-UpChain_Camp_3_OpenSpace/0115_ERC721Token/contracts/NFTMarket.sol\":1906:1914  _nftAddr */\n      dup6\n        /* \"04-Camps/08-UpChain_Camp_3_OpenSpace/0115_ERC721Token/contracts/NFTMarket.sol\":1900:1915  price[_nftAddr] */\n      0xffffffffffffffffffffffffffffffffffffffff\n      and\n      0xffffffffffffffffffffffffffffffffffffffff\n      and\n      dup2\n      mstore\n      0x20\n      add\n      swap1\n      dup2\n      mstore\n      0x20\n      add\n      0x00\n      keccak256\n        /* \"04-Camps/08-UpChain_Camp_3_OpenSpace/0115_ERC721Token/contracts/NFTMarket.sol\":1900:1925  price[_nftAddr][_tokenId] */\n      0x00\n        /* \"04-Camps/08-UpChain_Camp_3_OpenSpace/0115_ERC721Token/contracts/NFTMarket.sol\":1916:1924  _tokenId */\n      dup5\n        /* \"04-Camps/08-UpChain_Camp_3_OpenSpace/0115_ERC721Token/contracts/NFTMarket.sol\":1900:1925  price[_nftAddr][_tokenId] */\n      dup2\n      mstore\n      0x20\n      add\n      swap1\n      dup2\n      mstore\n      0x20\n      add\n      0x00\n      keccak256\n        /* \"04-Camps/08-UpChain_Camp_3_OpenSpace/0115_ERC721Token/contracts/NFTMarket.sol\":1900:1934  price[_nftAddr][_tokenId] = _price */\n      dup2\n      swap1\n      sstore\n      pop\n        /* \"04-Camps/08-UpChain_Camp_3_OpenSpace/0115_ERC721Token/contracts/NFTMarket.sol\":1973:1977  true */\n      0x01\n        /* \"04-Camps/08-UpChain_Camp_3_OpenSpace/0115_ERC721Token/contracts/NFTMarket.sol\":1944:1950  onSale */\n      0x02\n        /* \"04-Camps/08-UpChain_Camp_3_OpenSpace/0115_ERC721Token/contracts/NFTMarket.sol\":1944:1960  onSale[_nftAddr] */\n      0x00\n        /* \"04-Camps/08-UpChain_Camp_3_OpenSpace/0115_ERC721Token/contracts/NFTMarket.sol\":1951:1959  _nftAddr */\n      dup6\n        /* \"04-Camps/08-UpChain_Camp_3_OpenSpace/0115_ERC721Token/contracts/NFTMarket.sol\":1944:1960  onSale[_nftAddr] */\n      0xffffffffffffffffffffffffffffffffffffffff\n      and\n      0xffffffffffffffffffffffffffffffffffffffff\n      and\n      dup2\n      mstore\n      0x20\n      add\n      swap1\n      dup2\n      mstore\n      0x20\n      add\n      0x00\n      keccak256\n        /* \"04-Camps/08-UpChain_Camp_3_OpenSpace/0115_ERC721Token/contracts/NFTMarket.sol\":1944:1970  onSale[_nftAddr][_tokenId] */\n      0x00\n        /* \"04-Camps/08-UpChain_Camp_3_OpenSpace/0115_ERC721Token/contracts/NFTMarket.sol\":1961:1969  _tokenId */\n      dup5\n        /* \"04-Camps/08-UpChain_Camp_3_OpenSpace/0115_ERC721Token/contracts/NFTMarket.sol\":1944:1970  onSale[_nftAddr][_tokenId] */\n      dup2\n      mstore\n      0x20\n      add\n      swap1\n      dup2\n      mstore\n      0x20\n      add\n      0x00\n      keccak256\n      0x00\n        /* \"04-Camps/08-UpChain_Camp_3_OpenSpace/0115_ERC721Token/contracts/NFTMarket.sol\":1944:1977  onSale[_nftAddr][_tokenId] = true */\n      0x0100\n      exp\n      dup2\n      sload\n      dup2\n      0xff\n      mul\n      not\n      and\n      swap1\n      dup4\n      iszero\n      iszero\n      mul\n      or\n      swap1\n      sstore\n      pop\n        /* \"04-Camps/08-UpChain_Camp_3_OpenSpace/0115_ERC721Token/contracts/NFTMarket.sol\":1347:1984  function list(address _nftAddr, uint _tokenId, uint _price) external {... */\n      pop\n      pop\n      pop\n      jump\t// out\n        /* \"04-Camps/08-UpChain_Camp_3_OpenSpace/0115_ERC721Token/contracts/NFTMarket.sol\":1990:2596  function delist(address _nftAddr, uint256 _tokenId) external {... */\n    tag_55:\n        /* \"04-Camps/08-UpChain_Camp_3_OpenSpace/0115_ERC721Token/contracts/NFTMarket.sol\":2204:2214  msg.sender */\n      caller\n        /* \"04-Camps/08-UpChain_Camp_3_OpenSpace/0115_ERC721Token/contracts/NFTMarket.sol\":2161:2214  IERC721(_nftAddr).getApproved(_tokenId) == msg.sender */\n      0xffffffffffffffffffffffffffffffffffffffff\n      and\n        /* \"04-Camps/08-UpChain_Camp_3_OpenSpace/0115_ERC721Token/contracts/NFTMarket.sol\":2169:2177  _nftAddr */\n      dup3\n        /* \"04-Camps/08-UpChain_Camp_3_OpenSpace/0115_ERC721Token/contracts/NFTMarket.sol\":2161:2190  IERC721(_nftAddr).getApproved */\n      0xffffffffffffffffffffffffffffffffffffffff\n      and\n      0x081812fc\n        /* \"04-Camps/08-UpChain_Camp_3_OpenSpace/0115_ERC721Token/contracts/NFTMarket.sol\":2191:2199  _tokenId */\n      dup4\n        /* \"04-Camps/08-UpChain_Camp_3_OpenSpace/0115_ERC721Token/contracts/NFTMarket.sol\":2161:2200  IERC721(_nftAddr).getApproved(_tokenId) */\n      mload(0x40)\n      dup3\n      0xffffffff\n      and\n      0xe0\n      shl\n      dup2\n      mstore\n      0x04\n      add\n      tag_129\n      swap2\n      swap1\n      tag_23\n      jump\t// in\n    tag_129:\n      0x20\n      mload(0x40)\n      dup1\n      dup4\n      sub\n      dup2\n      dup7\n      gas\n      staticcall\n      iszero\n      dup1\n      iszero\n      tag_131\n      jumpi\n      returndatasize\n      0x00\n      dup1\n      returndatacopy\n      revert(0x00, returndatasize)\n    tag_131:\n      pop\n      pop\n      pop\n      pop\n      mload(0x40)\n      returndatasize\n      not(0x1f)\n      0x1f\n      dup3\n      add\n      and\n      dup3\n      add\n      dup1\n      0x40\n      mstore\n      pop\n      dup2\n      add\n      swap1\n      tag_132\n      swap2\n      swap1\n      tag_63\n      jump\t// in\n    tag_132:\n        /* \"04-Camps/08-UpChain_Camp_3_OpenSpace/0115_ERC721Token/contracts/NFTMarket.sol\":2161:2214  IERC721(_nftAddr).getApproved(_tokenId) == msg.sender */\n      0xffffffffffffffffffffffffffffffffffffffff\n      and\n      eq\n        /* \"04-Camps/08-UpChain_Camp_3_OpenSpace/0115_ERC721Token/contracts/NFTMarket.sol\":2140:2273  require(... */\n      tag_133\n      jumpi\n      mload(0x40)\n      0x08c379a000000000000000000000000000000000000000000000000000000000\n      dup2\n      mstore\n      0x04\n      add\n      tag_134\n      swap1\n      tag_135\n      jump\t// in\n    tag_134:\n      mload(0x40)\n      dup1\n      swap2\n      sub\n      swap1\n      revert\n    tag_133:\n        /* \"04-Camps/08-UpChain_Camp_3_OpenSpace/0115_ERC721Token/contracts/NFTMarket.sol\":2317:2321  true */\n      0x01\n        /* \"04-Camps/08-UpChain_Camp_3_OpenSpace/0115_ERC721Token/contracts/NFTMarket.sol\":2287:2321  onSale[_nftAddr][_tokenId] != true */\n      iszero\n      iszero\n        /* \"04-Camps/08-UpChain_Camp_3_OpenSpace/0115_ERC721Token/contracts/NFTMarket.sol\":2287:2293  onSale */\n      0x02\n        /* \"04-Camps/08-UpChain_Camp_3_OpenSpace/0115_ERC721Token/contracts/NFTMarket.sol\":2287:2303  onSale[_nftAddr] */\n      0x00\n        /* \"04-Camps/08-UpChain_Camp_3_OpenSpace/0115_ERC721Token/contracts/NFTMarket.sol\":2294:2302  _nftAddr */\n      dup5\n        /* \"04-Camps/08-UpChain_Camp_3_OpenSpace/0115_ERC721Token/contracts/NFTMarket.sol\":2287:2303  onSale[_nftAddr] */\n      0xffffffffffffffffffffffffffffffffffffffff\n      and\n      0xffffffffffffffffffffffffffffffffffffffff\n      and\n      dup2\n      mstore\n      0x20\n      add\n      swap1\n      dup2\n      mstore\n      0x20\n      add\n      0x00\n      keccak256\n        /* \"04-Camps/08-UpChain_Camp_3_OpenSpace/0115_ERC721Token/contracts/NFTMarket.sol\":2287:2313  onSale[_nftAddr][_tokenId] */\n      0x00\n        /* \"04-Camps/08-UpChain_Camp_3_OpenSpace/0115_ERC721Token/contracts/NFTMarket.sol\":2304:2312  _tokenId */\n      dup4\n        /* \"04-Camps/08-UpChain_Camp_3_OpenSpace/0115_ERC721Token/contracts/NFTMarket.sol\":2287:2313  onSale[_nftAddr][_tokenId] */\n      dup2\n      mstore\n      0x20\n      add\n      swap1\n      dup2\n      mstore\n      0x20\n      add\n      0x00\n      keccak256\n      0x00\n      swap1\n      sload\n      swap1\n      0x0100\n      exp\n      swap1\n      div\n      0xff\n      and\n        /* \"04-Camps/08-UpChain_Camp_3_OpenSpace/0115_ERC721Token/contracts/NFTMarket.sol\":2287:2321  onSale[_nftAddr][_tokenId] != true */\n      iszero\n      iszero\n      eq\n        /* \"04-Camps/08-UpChain_Camp_3_OpenSpace/0115_ERC721Token/contracts/NFTMarket.sol\":2283:2341  if (onSale[_nftAddr][_tokenId] != true) revert NotOnSale() */\n      tag_136\n      jumpi\n        /* \"04-Camps/08-UpChain_Camp_3_OpenSpace/0115_ERC721Token/contracts/NFTMarket.sol\":2330:2341  NotOnSale() */\n      mload(0x40)\n      0xc6b0e90b00000000000000000000000000000000000000000000000000000000\n      dup2\n      mstore\n      0x04\n      add\n      mload(0x40)\n      dup1\n      swap2\n      sub\n      swap1\n      revert\n        /* \"04-Camps/08-UpChain_Camp_3_OpenSpace/0115_ERC721Token/contracts/NFTMarket.sol\":2283:2341  if (onSale[_nftAddr][_tokenId] != true) revert NotOnSale() */\n    tag_136:\n        /* \"04-Camps/08-UpChain_Camp_3_OpenSpace/0115_ERC721Token/contracts/NFTMarket.sol\":2359:2367  _nftAddr */\n      dup2\n        /* \"04-Camps/08-UpChain_Camp_3_OpenSpace/0115_ERC721Token/contracts/NFTMarket.sol\":2351:2385  IERC721(_nftAddr).safeTransferFrom */\n      0xffffffffffffffffffffffffffffffffffffffff\n      and\n      0xb88d4fde\n        /* \"04-Camps/08-UpChain_Camp_3_OpenSpace/0115_ERC721Token/contracts/NFTMarket.sol\":2407:2411  this */\n      address\n        /* \"04-Camps/08-UpChain_Camp_3_OpenSpace/0115_ERC721Token/contracts/NFTMarket.sol\":2426:2436  msg.sender */\n      caller\n        /* \"04-Camps/08-UpChain_Camp_3_OpenSpace/0115_ERC721Token/contracts/NFTMarket.sol\":2450:2458  _tokenId */\n      dup5\n        /* \"04-Camps/08-UpChain_Camp_3_OpenSpace/0115_ERC721Token/contracts/NFTMarket.sol\":2351:2503  IERC721(_nftAddr).safeTransferFrom(... */\n      mload(0x40)\n      dup5\n      0xffffffff\n      and\n      0xe0\n      shl\n      dup2\n      mstore\n      0x04\n      add\n      tag_137\n      swap4\n      swap3\n      swap2\n      swap1\n      tag_138\n      jump\t// in\n    tag_137:\n      0x00\n      mload(0x40)\n      dup1\n      dup4\n      sub\n      dup2\n      0x00\n      dup8\n      dup1\n      extcodesize\n      iszero\n      dup1\n      iszero\n      tag_139\n      jumpi\n      0x00\n      dup1\n      revert\n    tag_139:\n      pop\n      gas\n      call\n      iszero\n      dup1\n      iszero\n      tag_141\n      jumpi\n      returndatasize\n      0x00\n      dup1\n      returndatacopy\n      revert(0x00, returndatasize)\n    tag_141:\n      pop\n      pop\n      pop\n      pop\n        /* \"04-Camps/08-UpChain_Camp_3_OpenSpace/0115_ERC721Token/contracts/NFTMarket.sol\":2520:2525  price */\n      0x00\n        /* \"04-Camps/08-UpChain_Camp_3_OpenSpace/0115_ERC721Token/contracts/NFTMarket.sol\":2520:2535  price[_nftAddr] */\n      dup1\n        /* \"04-Camps/08-UpChain_Camp_3_OpenSpace/0115_ERC721Token/contracts/NFTMarket.sol\":2526:2534  _nftAddr */\n      dup4\n        /* \"04-Camps/08-UpChain_Camp_3_OpenSpace/0115_ERC721Token/contracts/NFTMarket.sol\":2520:2535  price[_nftAddr] */\n      0xffffffffffffffffffffffffffffffffffffffff\n      and\n      0xffffffffffffffffffffffffffffffffffffffff\n      and\n      dup2\n      mstore\n      0x20\n      add\n      swap1\n      dup2\n      mstore\n      0x20\n      add\n      0x00\n      keccak256\n        /* \"04-Camps/08-UpChain_Camp_3_OpenSpace/0115_ERC721Token/contracts/NFTMarket.sol\":2520:2545  price[_nftAddr][_tokenId] */\n      0x00\n        /* \"04-Camps/08-UpChain_Camp_3_OpenSpace/0115_ERC721Token/contracts/NFTMarket.sol\":2536:2544  _tokenId */\n      dup3\n        /* \"04-Camps/08-UpChain_Camp_3_OpenSpace/0115_ERC721Token/contracts/NFTMarket.sol\":2520:2545  price[_nftAddr][_tokenId] */\n      dup2\n      mstore\n      0x20\n      add\n      swap1\n      dup2\n      mstore\n      0x20\n      add\n      0x00\n      keccak256\n        /* \"04-Camps/08-UpChain_Camp_3_OpenSpace/0115_ERC721Token/contracts/NFTMarket.sol\":2513:2545  delete price[_nftAddr][_tokenId] */\n      0x00\n      swap1\n      sstore\n        /* \"04-Camps/08-UpChain_Camp_3_OpenSpace/0115_ERC721Token/contracts/NFTMarket.sol\":2584:2589  false */\n      0x00\n        /* \"04-Camps/08-UpChain_Camp_3_OpenSpace/0115_ERC721Token/contracts/NFTMarket.sol\":2555:2561  onSale */\n      0x02\n        /* \"04-Camps/08-UpChain_Camp_3_OpenSpace/0115_ERC721Token/contracts/NFTMarket.sol\":2555:2571  onSale[_nftAddr] */\n      0x00\n        /* \"04-Camps/08-UpChain_Camp_3_OpenSpace/0115_ERC721Token/contracts/NFTMarket.sol\":2562:2570  _nftAddr */\n      dup5\n        /* \"04-Camps/08-UpChain_Camp_3_OpenSpace/0115_ERC721Token/contracts/NFTMarket.sol\":2555:2571  onSale[_nftAddr] */\n      0xffffffffffffffffffffffffffffffffffffffff\n      and\n      0xffffffffffffffffffffffffffffffffffffffff\n      and\n      dup2\n      mstore\n      0x20\n      add\n      swap1\n      dup2\n      mstore\n      0x20\n      add\n      0x00\n      keccak256\n        /* \"04-Camps/08-UpChain_Camp_3_OpenSpace/0115_ERC721Token/contracts/NFTMarket.sol\":2555:2581  onSale[_nftAddr][_tokenId] */\n      0x00\n        /* \"04-Camps/08-UpChain_Camp_3_OpenSpace/0115_ERC721Token/contracts/NFTMarket.sol\":2572:2580  _tokenId */\n      dup4\n        /* \"04-Camps/08-UpChain_Camp_3_OpenSpace/0115_ERC721Token/contracts/NFTMarket.sol\":2555:2581  onSale[_nftAddr][_tokenId] */\n      dup2\n      mstore\n      0x20\n      add\n      swap1\n      dup2\n      mstore\n      0x20\n      add\n      0x00\n      keccak256\n      0x00\n        /* \"04-Camps/08-UpChain_Camp_3_OpenSpace/0115_ERC721Token/contracts/NFTMarket.sol\":2555:2589  onSale[_nftAddr][_tokenId] = false */\n      0x0100\n      exp\n      dup2\n      sload\n      dup2\n      0xff\n      mul\n      not\n      and\n      swap1\n      dup4\n      iszero\n      iszero\n      mul\n      or\n      swap1\n      sstore\n      pop\n        /* \"04-Camps/08-UpChain_Camp_3_OpenSpace/0115_ERC721Token/contracts/NFTMarket.sol\":1990:2596  function delist(address _nftAddr, uint256 _tokenId) external {... */\n      pop\n      pop\n      jump\t// out\n        /* \"#utility.yul\":88:205   */\n    tag_143:\n        /* \"#utility.yul\":197:198   */\n      0x00\n        /* \"#utility.yul\":194:195   */\n      dup1\n        /* \"#utility.yul\":187:199   */\n      revert\n        /* \"#utility.yul\":211:328   */\n    tag_144:\n        /* \"#utility.yul\":320:321   */\n      0x00\n        /* \"#utility.yul\":317:318   */\n      dup1\n        /* \"#utility.yul\":310:322   */\n      revert\n        /* \"#utility.yul\":334:460   */\n    tag_145:\n        /* \"#utility.yul\":371:378   */\n      0x00\n        /* \"#utility.yul\":411:453   */\n      0xffffffffffffffffffffffffffffffffffffffff\n        /* \"#utility.yul\":404:409   */\n      dup3\n        /* \"#utility.yul\":400:454   */\n      and\n        /* \"#utility.yul\":389:454   */\n      swap1\n      pop\n        /* \"#utility.yul\":334:460   */\n      swap2\n      swap1\n      pop\n      jump\t// out\n        /* \"#utility.yul\":466:562   */\n    tag_146:\n        /* \"#utility.yul\":503:510   */\n      0x00\n        /* \"#utility.yul\":532:556   */\n      tag_188\n        /* \"#utility.yul\":550:555   */\n      dup3\n        /* \"#utility.yul\":532:556   */\n      tag_145\n      jump\t// in\n    tag_188:\n        /* \"#utility.yul\":521:556   */\n      swap1\n      pop\n        /* \"#utility.yul\":466:562   */\n      swap2\n      swap1\n      pop\n      jump\t// out\n        /* \"#utility.yul\":568:690   */\n    tag_147:\n        /* \"#utility.yul\":641:665   */\n      tag_190\n        /* \"#utility.yul\":659:664   */\n      dup2\n        /* \"#utility.yul\":641:665   */\n      tag_146\n      jump\t// in\n    tag_190:\n        /* \"#utility.yul\":634:639   */\n      dup2\n        /* \"#utility.yul\":631:666   */\n      eq\n        /* \"#utility.yul\":621:684   */\n      tag_191\n      jumpi\n        /* \"#utility.yul\":680:681   */\n      0x00\n        /* \"#utility.yul\":677:678   */\n      dup1\n        /* \"#utility.yul\":670:682   */\n      revert\n        /* \"#utility.yul\":621:684   */\n    tag_191:\n        /* \"#utility.yul\":568:690   */\n      pop\n      jump\t// out\n        /* \"#utility.yul\":696:835   */\n    tag_148:\n        /* \"#utility.yul\":742:747   */\n      0x00\n        /* \"#utility.yul\":780:786   */\n      dup2\n        /* \"#utility.yul\":767:787   */\n      calldataload\n        /* \"#utility.yul\":758:787   */\n      swap1\n      pop\n        /* \"#utility.yul\":796:829   */\n      tag_193\n        /* \"#utility.yul\":823:828   */\n      dup2\n        /* \"#utility.yul\":796:829   */\n      tag_147\n      jump\t// in\n    tag_193:\n        /* \"#utility.yul\":696:835   */\n      swap3\n      swap2\n      pop\n      pop\n      jump\t// out\n        /* \"#utility.yul\":841:918   */\n    tag_149:\n        /* \"#utility.yul\":878:885   */\n      0x00\n        /* \"#utility.yul\":907:912   */\n      dup2\n        /* \"#utility.yul\":896:912   */\n      swap1\n      pop\n        /* \"#utility.yul\":841:918   */\n      swap2\n      swap1\n      pop\n      jump\t// out\n        /* \"#utility.yul\":924:1046   */\n    tag_150:\n        /* \"#utility.yul\":997:1021   */\n      tag_196\n        /* \"#utility.yul\":1015:1020   */\n      dup2\n        /* \"#utility.yul\":997:1021   */\n      tag_149\n      jump\t// in\n    tag_196:\n        /* \"#utility.yul\":990:995   */\n      dup2\n        /* \"#utility.yul\":987:1022   */\n      eq\n        /* \"#utility.yul\":977:1040   */\n      tag_197\n      jumpi\n        /* \"#utility.yul\":1036:1037   */\n      0x00\n        /* \"#utility.yul\":1033:1034   */\n      dup1\n        /* \"#utility.yul\":1026:1038   */\n      revert\n        /* \"#utility.yul\":977:1040   */\n    tag_197:\n        /* \"#utility.yul\":924:1046   */\n      pop\n      jump\t// out\n        /* \"#utility.yul\":1052:1191   */\n    tag_151:\n        /* \"#utility.yul\":1098:1103   */\n      0x00\n        /* \"#utility.yul\":1136:1142   */\n      dup2\n        /* \"#utility.yul\":1123:1143   */\n      calldataload\n        /* \"#utility.yul\":1114:1143   */\n      swap1\n      pop\n        /* \"#utility.yul\":1152:1185   */\n      tag_199\n        /* \"#utility.yul\":1179:1184   */\n      dup2\n        /* \"#utility.yul\":1152:1185   */\n      tag_150\n      jump\t// in\n    tag_199:\n        /* \"#utility.yul\":1052:1191   */\n      swap3\n      swap2\n      pop\n      pop\n      jump\t// out\n        /* \"#utility.yul\":1197:1671   */\n    tag_16:\n        /* \"#utility.yul\":1265:1271   */\n      0x00\n        /* \"#utility.yul\":1273:1279   */\n      dup1\n        /* \"#utility.yul\":1322:1324   */\n      0x40\n        /* \"#utility.yul\":1310:1319   */\n      dup4\n        /* \"#utility.yul\":1301:1308   */\n      dup6\n        /* \"#utility.yul\":1297:1320   */\n      sub\n        /* \"#utility.yul\":1293:1325   */\n      slt\n        /* \"#utility.yul\":1290:1409   */\n      iszero\n      tag_201\n      jumpi\n        /* \"#utility.yul\":1328:1407   */\n      tag_202\n      tag_143\n      jump\t// in\n    tag_202:\n        /* \"#utility.yul\":1290:1409   */\n    tag_201:\n        /* \"#utility.yul\":1448:1449   */\n      0x00\n        /* \"#utility.yul\":1473:1526   */\n      tag_203\n        /* \"#utility.yul\":1518:1525   */\n      dup6\n        /* \"#utility.yul\":1509:1515   */\n      dup3\n        /* \"#utility.yul\":1498:1507   */\n      dup7\n        /* \"#utility.yul\":1494:1516   */\n      add\n        /* \"#utility.yul\":1473:1526   */\n      tag_148\n      jump\t// in\n    tag_203:\n        /* \"#utility.yul\":1463:1526   */\n      swap3\n      pop\n        /* \"#utility.yul\":1419:1536   */\n      pop\n        /* \"#utility.yul\":1575:1577   */\n      0x20\n        /* \"#utility.yul\":1601:1654   */\n      tag_204\n        /* \"#utility.yul\":1646:1653   */\n      dup6\n        /* \"#utility.yul\":1637:1643   */\n      dup3\n        /* \"#utility.yul\":1626:1635   */\n      dup7\n        /* \"#utility.yul\":1622:1644   */\n      add\n        /* \"#utility.yul\":1601:1654   */\n      tag_151\n      jump\t// in\n    tag_204:\n        /* \"#utility.yul\":1591:1654   */\n      swap2\n      pop\n        /* \"#utility.yul\":1546:1664   */\n      pop\n        /* \"#utility.yul\":1197:1671   */\n      swap3\n      pop\n      swap3\n      swap1\n      pop\n      jump\t// out\n        /* \"#utility.yul\":1677:1767   */\n    tag_152:\n        /* \"#utility.yul\":1711:1718   */\n      0x00\n        /* \"#utility.yul\":1754:1759   */\n      dup2\n        /* \"#utility.yul\":1747:1760   */\n      iszero\n        /* \"#utility.yul\":1740:1761   */\n      iszero\n        /* \"#utility.yul\":1729:1761   */\n      swap1\n      pop\n        /* \"#utility.yul\":1677:1767   */\n      swap2\n      swap1\n      pop\n      jump\t// out\n        /* \"#utility.yul\":1773:1882   */\n    tag_153:\n        /* \"#utility.yul\":1854:1875   */\n      tag_207\n        /* \"#utility.yul\":1869:1874   */\n      dup2\n        /* \"#utility.yul\":1854:1875   */\n      tag_152\n      jump\t// in\n    tag_207:\n        /* \"#utility.yul\":1849:1852   */\n      dup3\n        /* \"#utility.yul\":1842:1876   */\n      mstore\n        /* \"#utility.yul\":1773:1882   */\n      pop\n      pop\n      jump\t// out\n        /* \"#utility.yul\":1888:2098   */\n    tag_19:\n        /* \"#utility.yul\":1975:1979   */\n      0x00\n        /* \"#utility.yul\":2013:2015   */\n      0x20\n        /* \"#utility.yul\":2002:2011   */\n      dup3\n        /* \"#utility.yul\":1998:2016   */\n      add\n        /* \"#utility.yul\":1990:2016   */\n      swap1\n      pop\n        /* \"#utility.yul\":2026:2091   */\n      tag_209\n        /* \"#utility.yul\":2088:2089   */\n      0x00\n        /* \"#utility.yul\":2077:2086   */\n      dup4\n        /* \"#utility.yul\":2073:2090   */\n      add\n        /* \"#utility.yul\":2064:2070   */\n      dup5\n        /* \"#utility.yul\":2026:2091   */\n      tag_153\n      jump\t// in\n    tag_209:\n        /* \"#utility.yul\":1888:2098   */\n      swap3\n      swap2\n      pop\n      pop\n      jump\t// out\n        /* \"#utility.yul\":2104:2222   */\n    tag_154:\n        /* \"#utility.yul\":2191:2215   */\n      tag_211\n        /* \"#utility.yul\":2209:2214   */\n      dup2\n        /* \"#utility.yul\":2191:2215   */\n      tag_149\n      jump\t// in\n    tag_211:\n        /* \"#utility.yul\":2186:2189   */\n      dup3\n        /* \"#utility.yul\":2179:2216   */\n      mstore\n        /* \"#utility.yul\":2104:2222   */\n      pop\n      pop\n      jump\t// out\n        /* \"#utility.yul\":2228:2450   */\n    tag_23:\n        /* \"#utility.yul\":2321:2325   */\n      0x00\n        /* \"#utility.yul\":2359:2361   */\n      0x20\n        /* \"#utility.yul\":2348:2357   */\n      dup3\n        /* \"#utility.yul\":2344:2362   */\n      add\n        /* \"#utility.yul\":2336:2362   */\n      swap1\n      pop\n        /* \"#utility.yul\":2372:2443   */\n      tag_213\n        /* \"#utility.yul\":2440:2441   */\n      0x00\n        /* \"#utility.yul\":2429:2438   */\n      dup4\n        /* \"#utility.yul\":2425:2442   */\n      add\n        /* \"#utility.yul\":2416:2422   */\n      dup5\n        /* \"#utility.yul\":2372:2443   */\n      tag_154\n      jump\t// in\n    tag_213:\n        /* \"#utility.yul\":2228:2450   */\n      swap3\n      swap2\n      pop\n      pop\n      jump\t// out\n        /* \"#utility.yul\":2456:2573   */\n    tag_155:\n        /* \"#utility.yul\":2565:2566   */\n      0x00\n        /* \"#utility.yul\":2562:2563   */\n      dup1\n        /* \"#utility.yul\":2555:2567   */\n      revert\n        /* \"#utility.yul\":2579:2696   */\n    tag_156:\n        /* \"#utility.yul\":2688:2689   */\n      0x00\n        /* \"#utility.yul\":2685:2686   */\n      dup1\n        /* \"#utility.yul\":2678:2690   */\n      revert\n        /* \"#utility.yul\":2702:2819   */\n    tag_157:\n        /* \"#utility.yul\":2811:2812   */\n      0x00\n        /* \"#utility.yul\":2808:2809   */\n      dup1\n        /* \"#utility.yul\":2801:2813   */\n      revert\n        /* \"#utility.yul\":2838:3390   */\n    tag_158:\n        /* \"#utility.yul\":2895:2903   */\n      0x00\n        /* \"#utility.yul\":2905:2911   */\n      dup1\n        /* \"#utility.yul\":2955:2958   */\n      dup4\n        /* \"#utility.yul\":2948:2952   */\n      0x1f\n        /* \"#utility.yul\":2940:2946   */\n      dup5\n        /* \"#utility.yul\":2936:2953   */\n      add\n        /* \"#utility.yul\":2932:2959   */\n      slt\n        /* \"#utility.yul\":2922:3044   */\n      tag_218\n      jumpi\n        /* \"#utility.yul\":2963:3042   */\n      tag_219\n      tag_155\n      jump\t// in\n    tag_219:\n        /* \"#utility.yul\":2922:3044   */\n    tag_218:\n        /* \"#utility.yul\":3076:3082   */\n      dup3\n        /* \"#utility.yul\":3063:3083   */\n      calldataload\n        /* \"#utility.yul\":3053:3083   */\n      swap1\n      pop\n        /* \"#utility.yul\":3106:3124   */\n      0xffffffffffffffff\n        /* \"#utility.yul\":3098:3104   */\n      dup2\n        /* \"#utility.yul\":3095:3125   */\n      gt\n        /* \"#utility.yul\":3092:3209   */\n      iszero\n      tag_220\n      jumpi\n        /* \"#utility.yul\":3128:3207   */\n      tag_221\n      tag_156\n      jump\t// in\n    tag_221:\n        /* \"#utility.yul\":3092:3209   */\n    tag_220:\n        /* \"#utility.yul\":3242:3246   */\n      0x20\n        /* \"#utility.yul\":3234:3240   */\n      dup4\n        /* \"#utility.yul\":3230:3247   */\n      add\n        /* \"#utility.yul\":3218:3247   */\n      swap2\n      pop\n        /* \"#utility.yul\":3296:3299   */\n      dup4\n        /* \"#utility.yul\":3288:3292   */\n      0x01\n        /* \"#utility.yul\":3280:3286   */\n      dup3\n        /* \"#utility.yul\":3276:3293   */\n      mul\n        /* \"#utility.yul\":3266:3274   */\n      dup4\n        /* \"#utility.yul\":3262:3294   */\n      add\n        /* \"#utility.yul\":3259:3300   */\n      gt\n        /* \"#utility.yul\":3256:3384   */\n      iszero\n      tag_222\n      jumpi\n        /* \"#utility.yul\":3303:3382   */\n      tag_223\n      tag_157\n      jump\t// in\n    tag_223:\n        /* \"#utility.yul\":3256:3384   */\n    tag_222:\n        /* \"#utility.yul\":2838:3390   */\n      swap3\n      pop\n      swap3\n      swap1\n      pop\n      jump\t// out\n        /* \"#utility.yul\":3396:4359   */\n    tag_26:\n        /* \"#utility.yul\":3493:3499   */\n      0x00\n        /* \"#utility.yul\":3501:3507   */\n      dup1\n        /* \"#utility.yul\":3509:3515   */\n      0x00\n        /* \"#utility.yul\":3517:3523   */\n      dup1\n        /* \"#utility.yul\":3525:3531   */\n      0x00\n        /* \"#utility.yul\":3574:3577   */\n      0x80\n        /* \"#utility.yul\":3562:3571   */\n      dup7\n        /* \"#utility.yul\":3553:3560   */\n      dup9\n        /* \"#utility.yul\":3549:3572   */\n      sub\n        /* \"#utility.yul\":3545:3578   */\n      slt\n        /* \"#utility.yul\":3542:3662   */\n      iszero\n      tag_225\n      jumpi\n        /* \"#utility.yul\":3581:3660   */\n      tag_226\n      tag_143\n      jump\t// in\n    tag_226:\n        /* \"#utility.yul\":3542:3662   */\n    tag_225:\n        /* \"#utility.yul\":3701:3702   */\n      0x00\n        /* \"#utility.yul\":3726:3779   */\n      tag_227\n        /* \"#utility.yul\":3771:3778   */\n      dup9\n        /* \"#utility.yul\":3762:3768   */\n      dup3\n        /* \"#utility.yul\":3751:3760   */\n      dup10\n        /* \"#utility.yul\":3747:3769   */\n      add\n        /* \"#utility.yul\":3726:3779   */\n      tag_148\n      jump\t// in\n    tag_227:\n        /* \"#utility.yul\":3716:3779   */\n      swap6\n      pop\n        /* \"#utility.yul\":3672:3789   */\n      pop\n        /* \"#utility.yul\":3828:3830   */\n      0x20\n        /* \"#utility.yul\":3854:3907   */\n      tag_228\n        /* \"#utility.yul\":3899:3906   */\n      dup9\n        /* \"#utility.yul\":3890:3896   */\n      dup3\n        /* \"#utility.yul\":3879:3888   */\n      dup10\n        /* \"#utility.yul\":3875:3897   */\n      add\n        /* \"#utility.yul\":3854:3907   */\n      tag_148\n      jump\t// in\n    tag_228:\n        /* \"#utility.yul\":3844:3907   */\n      swap5\n      pop\n        /* \"#utility.yul\":3799:3917   */\n      pop\n        /* \"#utility.yul\":3956:3958   */\n      0x40\n        /* \"#utility.yul\":3982:4035   */\n      tag_229\n        /* \"#utility.yul\":4027:4034   */\n      dup9\n        /* \"#utility.yul\":4018:4024   */\n      dup3\n        /* \"#utility.yul\":4007:4016   */\n      dup10\n        /* \"#utility.yul\":4003:4025   */\n      add\n        /* \"#utility.yul\":3982:4035   */\n      tag_151\n      jump\t// in\n    tag_229:\n        /* \"#utility.yul\":3972:4035   */\n      swap4\n      pop\n        /* \"#utility.yul\":3927:4045   */\n      pop\n        /* \"#utility.yul\":4112:4114   */\n      0x60\n        /* \"#utility.yul\":4101:4110   */\n      dup7\n        /* \"#utility.yul\":4097:4115   */\n      add\n        /* \"#utility.yul\":4084:4116   */\n      calldataload\n        /* \"#utility.yul\":4143:4161   */\n      0xffffffffffffffff\n        /* \"#utility.yul\":4135:4141   */\n      dup2\n        /* \"#utility.yul\":4132:4162   */\n      gt\n        /* \"#utility.yul\":4129:4246   */\n      iszero\n      tag_230\n      jumpi\n        /* \"#utility.yul\":4165:4244   */\n      tag_231\n      tag_144\n      jump\t// in\n    tag_231:\n        /* \"#utility.yul\":4129:4246   */\n    tag_230:\n        /* \"#utility.yul\":4278:4342   */\n      tag_232\n        /* \"#utility.yul\":4334:4341   */\n      dup9\n        /* \"#utility.yul\":4325:4331   */\n      dup3\n        /* \"#utility.yul\":4314:4323   */\n      dup10\n        /* \"#utility.yul\":4310:4332   */\n      add\n        /* \"#utility.yul\":4278:4342   */\n      tag_158\n      jump\t// in\n    tag_232:\n        /* \"#utility.yul\":4260:4342   */\n      swap3\n      pop\n      swap3\n      pop\n        /* \"#utility.yul\":4055:4352   */\n      pop\n        /* \"#utility.yul\":3396:4359   */\n      swap3\n      swap6\n      pop\n      swap3\n      swap6\n      swap1\n      swap4\n      pop\n      jump\t// out\n        /* \"#utility.yul\":4365:4514   */\n    tag_159:\n        /* \"#utility.yul\":4401:4408   */\n      0x00\n        /* \"#utility.yul\":4441:4507   */\n      0xffffffff00000000000000000000000000000000000000000000000000000000\n        /* \"#utility.yul\":4434:4439   */\n      dup3\n        /* \"#utility.yul\":4430:4508   */\n      and\n        /* \"#utility.yul\":4419:4508   */\n      swap1\n      pop\n        /* \"#utility.yul\":4365:4514   */\n      swap2\n      swap1\n      pop\n      jump\t// out\n        /* \"#utility.yul\":4520:4635   */\n    tag_160:\n        /* \"#utility.yul\":4605:4628   */\n      tag_235\n        /* \"#utility.yul\":4622:4627   */\n      dup2\n        /* \"#utility.yul\":4605:4628   */\n      tag_159\n      jump\t// in\n    tag_235:\n        /* \"#utility.yul\":4600:4603   */\n      dup3\n        /* \"#utility.yul\":4593:4629   */\n      mstore\n        /* \"#utility.yul\":4520:4635   */\n      pop\n      pop\n      jump\t// out\n        /* \"#utility.yul\":4641:4859   */\n    tag_29:\n        /* \"#utility.yul\":4732:4736   */\n      0x00\n        /* \"#utility.yul\":4770:4772   */\n      0x20\n        /* \"#utility.yul\":4759:4768   */\n      dup3\n        /* \"#utility.yul\":4755:4773   */\n      add\n        /* \"#utility.yul\":4747:4773   */\n      swap1\n      pop\n        /* \"#utility.yul\":4783:4852   */\n      tag_237\n        /* \"#utility.yul\":4849:4850   */\n      0x00\n        /* \"#utility.yul\":4838:4847   */\n      dup4\n        /* \"#utility.yul\":4834:4851   */\n      add\n        /* \"#utility.yul\":4825:4831   */\n      dup5\n        /* \"#utility.yul\":4783:4852   */\n      tag_160\n      jump\t// in\n    tag_237:\n        /* \"#utility.yul\":4641:4859   */\n      swap3\n      swap2\n      pop\n      pop\n      jump\t// out\n        /* \"#utility.yul\":4865:4983   */\n    tag_161:\n        /* \"#utility.yul\":4952:4976   */\n      tag_239\n        /* \"#utility.yul\":4970:4975   */\n      dup2\n        /* \"#utility.yul\":4952:4976   */\n      tag_146\n      jump\t// in\n    tag_239:\n        /* \"#utility.yul\":4947:4950   */\n      dup3\n        /* \"#utility.yul\":4940:4977   */\n      mstore\n        /* \"#utility.yul\":4865:4983   */\n      pop\n      pop\n      jump\t// out\n        /* \"#utility.yul\":4989:5211   */\n    tag_34:\n        /* \"#utility.yul\":5082:5086   */\n      0x00\n        /* \"#utility.yul\":5120:5122   */\n      0x20\n        /* \"#utility.yul\":5109:5118   */\n      dup3\n        /* \"#utility.yul\":5105:5123   */\n      add\n        /* \"#utility.yul\":5097:5123   */\n      swap1\n      pop\n        /* \"#utility.yul\":5133:5204   */\n      tag_241\n        /* \"#utility.yul\":5201:5202   */\n      0x00\n        /* \"#utility.yul\":5190:5199   */\n      dup4\n        /* \"#utility.yul\":5186:5203   */\n      add\n        /* \"#utility.yul\":5177:5183   */\n      dup5\n        /* \"#utility.yul\":5133:5204   */\n      tag_161\n      jump\t// in\n    tag_241:\n        /* \"#utility.yul\":4989:5211   */\n      swap3\n      swap2\n      pop\n      pop\n      jump\t// out\n        /* \"#utility.yul\":5217:5836   */\n    tag_44:\n        /* \"#utility.yul\":5294:5300   */\n      0x00\n        /* \"#utility.yul\":5302:5308   */\n      dup1\n        /* \"#utility.yul\":5310:5316   */\n      0x00\n        /* \"#utility.yul\":5359:5361   */\n      0x60\n        /* \"#utility.yul\":5347:5356   */\n      dup5\n        /* \"#utility.yul\":5338:5345   */\n      dup7\n        /* \"#utility.yul\":5334:5357   */\n      sub\n        /* \"#utility.yul\":5330:5362   */\n      slt\n        /* \"#utility.yul\":5327:5446   */\n      iszero\n      tag_243\n      jumpi\n        /* \"#utility.yul\":5365:5444   */\n      tag_244\n      tag_143\n      jump\t// in\n    tag_244:\n        /* \"#utility.yul\":5327:5446   */\n    tag_243:\n        /* \"#utility.yul\":5485:5486   */\n      0x00\n        /* \"#utility.yul\":5510:5563   */\n      tag_245\n        /* \"#utility.yul\":5555:5562   */\n      dup7\n        /* \"#utility.yul\":5546:5552   */\n      dup3\n        /* \"#utility.yul\":5535:5544   */\n      dup8\n        /* \"#utility.yul\":5531:5553   */\n      add\n        /* \"#utility.yul\":5510:5563   */\n      tag_148\n      jump\t// in\n    tag_245:\n        /* \"#utility.yul\":5500:5563   */\n      swap4\n      pop\n        /* \"#utility.yul\":5456:5573   */\n      pop\n        /* \"#utility.yul\":5612:5614   */\n      0x20\n        /* \"#utility.yul\":5638:5691   */\n      tag_246\n        /* \"#utility.yul\":5683:5690   */\n      dup7\n        /* \"#utility.yul\":5674:5680   */\n      dup3\n        /* \"#utility.yul\":5663:5672   */\n      dup8\n        /* \"#utility.yul\":5659:5681   */\n      add\n        /* \"#utility.yul\":5638:5691   */\n      tag_151\n      jump\t// in\n    tag_246:\n        /* \"#utility.yul\":5628:5691   */\n      swap3\n      pop\n        /* \"#utility.yul\":5583:5701   */\n      pop\n        /* \"#utility.yul\":5740:5742   */\n      0x40\n        /* \"#utility.yul\":5766:5819   */\n      tag_247\n        /* \"#utility.yul\":5811:5818   */\n      dup7\n        /* \"#utility.yul\":5802:5808   */\n      dup3\n        /* \"#utility.yul\":5791:5800   */\n      dup8\n        /* \"#utility.yul\":5787:5809   */\n      add\n        /* \"#utility.yul\":5766:5819   */\n      tag_151\n      jump\t// in\n    tag_247:\n        /* \"#utility.yul\":5756:5819   */\n      swap2\n      pop\n        /* \"#utility.yul\":5711:5829   */\n      pop\n        /* \"#utility.yul\":5217:5836   */\n      swap3\n      pop\n      swap3\n      pop\n      swap3\n      jump\t// out\n        /* \"#utility.yul\":5842:6171   */\n    tag_48:\n        /* \"#utility.yul\":5901:5907   */\n      0x00\n        /* \"#utility.yul\":5950:5952   */\n      0x20\n        /* \"#utility.yul\":5938:5947   */\n      dup3\n        /* \"#utility.yul\":5929:5936   */\n      dup5\n        /* \"#utility.yul\":5925:5948   */\n      sub\n        /* \"#utility.yul\":5921:5953   */\n      slt\n        /* \"#utility.yul\":5918:6037   */\n      iszero\n      tag_249\n      jumpi\n        /* \"#utility.yul\":5956:6035   */\n      tag_250\n      tag_143\n      jump\t// in\n    tag_250:\n        /* \"#utility.yul\":5918:6037   */\n    tag_249:\n        /* \"#utility.yul\":6076:6077   */\n      0x00\n        /* \"#utility.yul\":6101:6154   */\n      tag_251\n        /* \"#utility.yul\":6146:6153   */\n      dup5\n        /* \"#utility.yul\":6137:6143   */\n      dup3\n        /* \"#utility.yul\":6126:6135   */\n      dup6\n        /* \"#utility.yul\":6122:6144   */\n      add\n        /* \"#utility.yul\":6101:6154   */\n      tag_151\n      jump\t// in\n    tag_251:\n        /* \"#utility.yul\":6091:6154   */\n      swap2\n      pop\n        /* \"#utility.yul\":6047:6164   */\n      pop\n        /* \"#utility.yul\":5842:6171   */\n      swap3\n      swap2\n      pop\n      pop\n      jump\t// out\n        /* \"#utility.yul\":6177:6320   */\n    tag_162:\n        /* \"#utility.yul\":6234:6239   */\n      0x00\n        /* \"#utility.yul\":6265:6271   */\n      dup2\n        /* \"#utility.yul\":6259:6272   */\n      mload\n        /* \"#utility.yul\":6250:6272   */\n      swap1\n      pop\n        /* \"#utility.yul\":6281:6314   */\n      tag_253\n        /* \"#utility.yul\":6308:6313   */\n      dup2\n        /* \"#utility.yul\":6281:6314   */\n      tag_147\n      jump\t// in\n    tag_253:\n        /* \"#utility.yul\":6177:6320   */\n      swap3\n      swap2\n      pop\n      pop\n      jump\t// out\n        /* \"#utility.yul\":6326:6677   */\n    tag_63:\n        /* \"#utility.yul\":6396:6402   */\n      0x00\n        /* \"#utility.yul\":6445:6447   */\n      0x20\n        /* \"#utility.yul\":6433:6442   */\n      dup3\n        /* \"#utility.yul\":6424:6431   */\n      dup5\n        /* \"#utility.yul\":6420:6443   */\n      sub\n        /* \"#utility.yul\":6416:6448   */\n      slt\n        /* \"#utility.yul\":6413:6532   */\n      iszero\n      tag_255\n      jumpi\n        /* \"#utility.yul\":6451:6530   */\n      tag_256\n      tag_143\n      jump\t// in\n    tag_256:\n        /* \"#utility.yul\":6413:6532   */\n    tag_255:\n        /* \"#utility.yul\":6571:6572   */\n      0x00\n        /* \"#utility.yul\":6596:6660   */\n      tag_257\n        /* \"#utility.yul\":6652:6659   */\n      dup5\n        /* \"#utility.yul\":6643:6649   */\n      dup3\n        /* \"#utility.yul\":6632:6641   */\n      dup6\n        /* \"#utility.yul\":6628:6650   */\n      add\n        /* \"#utility.yul\":6596:6660   */\n      tag_162\n      jump\t// in\n    tag_257:\n        /* \"#utility.yul\":6586:6660   */\n      swap2\n      pop\n        /* \"#utility.yul\":6542:6670   */\n      pop\n        /* \"#utility.yul\":6326:6677   */\n      swap3\n      swap2\n      pop\n      pop\n      jump\t// out\n        /* \"#utility.yul\":6683:7015   */\n    tag_69:\n        /* \"#utility.yul\":6804:6808   */\n      0x00\n        /* \"#utility.yul\":6842:6844   */\n      0x40\n        /* \"#utility.yul\":6831:6840   */\n      dup3\n        /* \"#utility.yul\":6827:6845   */\n      add\n        /* \"#utility.yul\":6819:6845   */\n      swap1\n      pop\n        /* \"#utility.yul\":6855:6926   */\n      tag_259\n        /* \"#utility.yul\":6923:6924   */\n      0x00\n        /* \"#utility.yul\":6912:6921   */\n      dup4\n        /* \"#utility.yul\":6908:6925   */\n      add\n        /* \"#utility.yul\":6899:6905   */\n      dup6\n        /* \"#utility.yul\":6855:6926   */\n      tag_154\n      jump\t// in\n    tag_259:\n        /* \"#utility.yul\":6936:7008   */\n      tag_260\n        /* \"#utility.yul\":7004:7006   */\n      0x20\n        /* \"#utility.yul\":6993:7002   */\n      dup4\n        /* \"#utility.yul\":6989:7007   */\n      add\n        /* \"#utility.yul\":6980:6986   */\n      dup5\n        /* \"#utility.yul\":6936:7008   */\n      tag_154\n      jump\t// in\n    tag_260:\n        /* \"#utility.yul\":6683:7015   */\n      swap4\n      swap3\n      pop\n      pop\n      pop\n      jump\t// out\n        /* \"#utility.yul\":7021:7190   */\n    tag_163:\n        /* \"#utility.yul\":7105:7116   */\n      0x00\n        /* \"#utility.yul\":7139:7145   */\n      dup3\n        /* \"#utility.yul\":7134:7137   */\n      dup3\n        /* \"#utility.yul\":7127:7146   */\n      mstore\n        /* \"#utility.yul\":7179:7183   */\n      0x20\n        /* \"#utility.yul\":7174:7177   */\n      dup3\n        /* \"#utility.yul\":7170:7184   */\n      add\n        /* \"#utility.yul\":7155:7184   */\n      swap1\n      pop\n        /* \"#utility.yul\":7021:7190   */\n      swap3\n      swap2\n      pop\n      pop\n      jump\t// out\n        /* \"#utility.yul\":7196:7363   */\n    tag_164:\n        /* \"#utility.yul\":7336:7355   */\n      0x4f776e65722063616e6e6f742062757921000000000000000000000000000000\n        /* \"#utility.yul\":7332:7333   */\n      0x00\n        /* \"#utility.yul\":7324:7330   */\n      dup3\n        /* \"#utility.yul\":7320:7334   */\n      add\n        /* \"#utility.yul\":7313:7356   */\n      mstore\n        /* \"#utility.yul\":7196:7363   */\n      pop\n      jump\t// out\n        /* \"#utility.yul\":7369:7735   */\n    tag_165:\n        /* \"#utility.yul\":7511:7514   */\n      0x00\n        /* \"#utility.yul\":7532:7599   */\n      tag_264\n        /* \"#utility.yul\":7596:7598   */\n      0x11\n        /* \"#utility.yul\":7591:7594   */\n      dup4\n        /* \"#utility.yul\":7532:7599   */\n      tag_163\n      jump\t// in\n    tag_264:\n        /* \"#utility.yul\":7525:7599   */\n      swap2\n      pop\n        /* \"#utility.yul\":7608:7701   */\n      tag_265\n        /* \"#utility.yul\":7697:7700   */\n      dup3\n        /* \"#utility.yul\":7608:7701   */\n      tag_164\n      jump\t// in\n    tag_265:\n        /* \"#utility.yul\":7726:7728   */\n      0x20\n        /* \"#utility.yul\":7721:7724   */\n      dup3\n        /* \"#utility.yul\":7717:7729   */\n      add\n        /* \"#utility.yul\":7710:7729   */\n      swap1\n      pop\n        /* \"#utility.yul\":7369:7735   */\n      swap2\n      swap1\n      pop\n      jump\t// out\n        /* \"#utility.yul\":7741:8160   */\n    tag_76:\n        /* \"#utility.yul\":7907:7911   */\n      0x00\n        /* \"#utility.yul\":7945:7947   */\n      0x20\n        /* \"#utility.yul\":7934:7943   */\n      dup3\n        /* \"#utility.yul\":7930:7948   */\n      add\n        /* \"#utility.yul\":7922:7948   */\n      swap1\n      pop\n        /* \"#utility.yul\":7994:8003   */\n      dup2\n        /* \"#utility.yul\":7988:7992   */\n      dup2\n        /* \"#utility.yul\":7984:8004   */\n      sub\n        /* \"#utility.yul\":7980:7981   */\n      0x00\n        /* \"#utility.yul\":7969:7978   */\n      dup4\n        /* \"#utility.yul\":7965:7982   */\n      add\n        /* \"#utility.yul\":7958:8005   */\n      mstore\n        /* \"#utility.yul\":8022:8153   */\n      tag_267\n        /* \"#utility.yul\":8148:8152   */\n      dup2\n        /* \"#utility.yul\":8022:8153   */\n      tag_165\n      jump\t// in\n    tag_267:\n        /* \"#utility.yul\":8014:8153   */\n      swap1\n      pop\n        /* \"#utility.yul\":7741:8160   */\n      swap2\n      swap1\n      pop\n      jump\t// out\n        /* \"#utility.yul\":8166:8608   */\n    tag_78:\n        /* \"#utility.yul\":8315:8319   */\n      0x00\n        /* \"#utility.yul\":8353:8355   */\n      0x60\n        /* \"#utility.yul\":8342:8351   */\n      dup3\n        /* \"#utility.yul\":8338:8356   */\n      add\n        /* \"#utility.yul\":8330:8356   */\n      swap1\n      pop\n        /* \"#utility.yul\":8366:8437   */\n      tag_269\n        /* \"#utility.yul\":8434:8435   */\n      0x00\n        /* \"#utility.yul\":8423:8432   */\n      dup4\n        /* \"#utility.yul\":8419:8436   */\n      add\n        /* \"#utility.yul\":8410:8416   */\n      dup7\n        /* \"#utility.yul\":8366:8437   */\n      tag_161\n      jump\t// in\n    tag_269:\n        /* \"#utility.yul\":8447:8519   */\n      tag_270\n        /* \"#utility.yul\":8515:8517   */\n      0x20\n        /* \"#utility.yul\":8504:8513   */\n      dup4\n        /* \"#utility.yul\":8500:8518   */\n      add\n        /* \"#utility.yul\":8491:8497   */\n      dup6\n        /* \"#utility.yul\":8447:8519   */\n      tag_161\n      jump\t// in\n    tag_270:\n        /* \"#utility.yul\":8529:8601   */\n      tag_271\n        /* \"#utility.yul\":8597:8599   */\n      0x40\n        /* \"#utility.yul\":8586:8595   */\n      dup4\n        /* \"#utility.yul\":8582:8600   */\n      add\n        /* \"#utility.yul\":8573:8579   */\n      dup5\n        /* \"#utility.yul\":8529:8601   */\n      tag_154\n      jump\t// in\n    tag_271:\n        /* \"#utility.yul\":8166:8608   */\n      swap5\n      swap4\n      pop\n      pop\n      pop\n      pop\n      jump\t// out\n        /* \"#utility.yul\":8614:8730   */\n    tag_166:\n        /* \"#utility.yul\":8684:8705   */\n      tag_273\n        /* \"#utility.yul\":8699:8704   */\n      dup2\n        /* \"#utility.yul\":8684:8705   */\n      tag_152\n      jump\t// in\n    tag_273:\n        /* \"#utility.yul\":8677:8682   */\n      dup2\n        /* \"#utility.yul\":8674:8706   */\n      eq\n        /* \"#utility.yul\":8664:8724   */\n      tag_274\n      jumpi\n        /* \"#utility.yul\":8720:8721   */\n      0x00\n        /* \"#utility.yul\":8717:8718   */\n      dup1\n        /* \"#utility.yul\":8710:8722   */\n      revert\n        /* \"#utility.yul\":8664:8724   */\n    tag_274:\n        /* \"#utility.yul\":8614:8730   */\n      pop\n      jump\t// out\n        /* \"#utility.yul\":8736:8873   */\n    tag_167:\n        /* \"#utility.yul\":8790:8795   */\n      0x00\n        /* \"#utility.yul\":8821:8827   */\n      dup2\n        /* \"#utility.yul\":8815:8828   */\n      mload\n        /* \"#utility.yul\":8806:8828   */\n      swap1\n      pop\n        /* \"#utility.yul\":8837:8867   */\n      tag_276\n        /* \"#utility.yul\":8861:8866   */\n      dup2\n        /* \"#utility.yul\":8837:8867   */\n      tag_166\n      jump\t// in\n    tag_276:\n        /* \"#utility.yul\":8736:8873   */\n      swap3\n      swap2\n      pop\n      pop\n      jump\t// out\n        /* \"#utility.yul\":8879:9224   */\n    tag_82:\n        /* \"#utility.yul\":8946:8952   */\n      0x00\n        /* \"#utility.yul\":8995:8997   */\n      0x20\n        /* \"#utility.yul\":8983:8992   */\n      dup3\n        /* \"#utility.yul\":8974:8981   */\n      dup5\n        /* \"#utility.yul\":8970:8993   */\n      sub\n        /* \"#utility.yul\":8966:8998   */\n      slt\n        /* \"#utility.yul\":8963:9082   */\n      iszero\n      tag_278\n      jumpi\n        /* \"#utility.yul\":9001:9080   */\n      tag_279\n      tag_143\n      jump\t// in\n    tag_279:\n        /* \"#utility.yul\":8963:9082   */\n    tag_278:\n        /* \"#utility.yul\":9121:9122   */\n      0x00\n        /* \"#utility.yul\":9146:9207   */\n      tag_280\n        /* \"#utility.yul\":9199:9206   */\n      dup5\n        /* \"#utility.yul\":9190:9196   */\n      dup3\n        /* \"#utility.yul\":9179:9188   */\n      dup6\n        /* \"#utility.yul\":9175:9197   */\n      add\n        /* \"#utility.yul\":9146:9207   */\n      tag_167\n      jump\t// in\n    tag_280:\n        /* \"#utility.yul\":9136:9207   */\n      swap2\n      pop\n        /* \"#utility.yul\":9092:9217   */\n      pop\n        /* \"#utility.yul\":8879:9224   */\n      swap3\n      swap2\n      pop\n      pop\n      jump\t// out\n        /* \"#utility.yul\":9230:9457   */\n    tag_168:\n        /* \"#utility.yul\":9370:9404   */\n      0x4661696c20746f20627579206f7220416c6c6f77616e636520697320696e7375\n        /* \"#utility.yul\":9366:9367   */\n      0x00\n        /* \"#utility.yul\":9358:9364   */\n      dup3\n        /* \"#utility.yul\":9354:9368   */\n      add\n        /* \"#utility.yul\":9347:9405   */\n      mstore\n        /* \"#utility.yul\":9439:9449   */\n      0x6666696369656e74000000000000000000000000000000000000000000000000\n        /* \"#utility.yul\":9434:9436   */\n      0x20\n        /* \"#utility.yul\":9426:9432   */\n      dup3\n        /* \"#utility.yul\":9422:9437   */\n      add\n        /* \"#utility.yul\":9415:9450   */\n      mstore\n        /* \"#utility.yul\":9230:9457   */\n      pop\n      jump\t// out\n        /* \"#utility.yul\":9463:9829   */\n    tag_169:\n        /* \"#utility.yul\":9605:9608   */\n      0x00\n        /* \"#utility.yul\":9626:9693   */\n      tag_283\n        /* \"#utility.yul\":9690:9692   */\n      0x28\n        /* \"#utility.yul\":9685:9688   */\n      dup4\n        /* \"#utility.yul\":9626:9693   */\n      tag_163\n      jump\t// in\n    tag_283:\n        /* \"#utility.yul\":9619:9693   */\n      swap2\n      pop\n        /* \"#utility.yul\":9702:9795   */\n      tag_284\n        /* \"#utility.yul\":9791:9794   */\n      dup3\n        /* \"#utility.yul\":9702:9795   */\n      tag_168\n      jump\t// in\n    tag_284:\n        /* \"#utility.yul\":9820:9822   */\n      0x40\n        /* \"#utility.yul\":9815:9818   */\n      dup3\n        /* \"#utility.yul\":9811:9823   */\n      add\n        /* \"#utility.yul\":9804:9823   */\n      swap1\n      pop\n        /* \"#utility.yul\":9463:9829   */\n      swap2\n      swap1\n      pop\n      jump\t// out\n        /* \"#utility.yul\":9835:10254   */\n    tag_85:\n        /* \"#utility.yul\":10001:10005   */\n      0x00\n        /* \"#utility.yul\":10039:10041   */\n      0x20\n        /* \"#utility.yul\":10028:10037   */\n      dup3\n        /* \"#utility.yul\":10024:10042   */\n      add\n        /* \"#utility.yul\":10016:10042   */\n      swap1\n      pop\n        /* \"#utility.yul\":10088:10097   */\n      dup2\n        /* \"#utility.yul\":10082:10086   */\n      dup2\n        /* \"#utility.yul\":10078:10098   */\n      sub\n        /* \"#utility.yul\":10074:10075   */\n      0x00\n        /* \"#utility.yul\":10063:10072   */\n      dup4\n        /* \"#utility.yul\":10059:10076   */\n      add\n        /* \"#utility.yul\":10052:10099   */\n      mstore\n        /* \"#utility.yul\":10116:10247   */\n      tag_286\n        /* \"#utility.yul\":10242:10246   */\n      dup2\n        /* \"#utility.yul\":10116:10247   */\n      tag_169\n      jump\t// in\n    tag_286:\n        /* \"#utility.yul\":10108:10247   */\n      swap1\n      pop\n        /* \"#utility.yul\":9835:10254   */\n      swap2\n      swap1\n      pop\n      jump\t// out\n        /* \"#utility.yul\":10260:10440   */\n    tag_170:\n        /* \"#utility.yul\":10308:10385   */\n      0x4e487b7100000000000000000000000000000000000000000000000000000000\n        /* \"#utility.yul\":10305:10306   */\n      0x00\n        /* \"#utility.yul\":10298:10386   */\n      mstore\n        /* \"#utility.yul\":10405:10409   */\n      0x11\n        /* \"#utility.yul\":10402:10403   */\n      0x04\n        /* \"#utility.yul\":10395:10410   */\n      mstore\n        /* \"#utility.yul\":10429:10433   */\n      0x24\n        /* \"#utility.yul\":10426:10427   */\n      0x00\n        /* \"#utility.yul\":10419:10434   */\n      revert\n        /* \"#utility.yul\":10446:10637   */\n    tag_91:\n        /* \"#utility.yul\":10486:10489   */\n      0x00\n        /* \"#utility.yul\":10505:10525   */\n      tag_289\n        /* \"#utility.yul\":10523:10524   */\n      dup3\n        /* \"#utility.yul\":10505:10525   */\n      tag_149\n      jump\t// in\n    tag_289:\n        /* \"#utility.yul\":10500:10525   */\n      swap2\n      pop\n        /* \"#utility.yul\":10539:10559   */\n      tag_290\n        /* \"#utility.yul\":10557:10558   */\n      dup4\n        /* \"#utility.yul\":10539:10559   */\n      tag_149\n      jump\t// in\n    tag_290:\n        /* \"#utility.yul\":10534:10559   */\n      swap3\n      pop\n        /* \"#utility.yul\":10582:10583   */\n      dup3\n        /* \"#utility.yul\":10579:10580   */\n      dup3\n        /* \"#utility.yul\":10575:10584   */\n      add\n        /* \"#utility.yul\":10568:10584   */\n      swap1\n      pop\n        /* \"#utility.yul\":10603:10606   */\n      dup1\n        /* \"#utility.yul\":10600:10601   */\n      dup3\n        /* \"#utility.yul\":10597:10607   */\n      gt\n        /* \"#utility.yul\":10594:10630   */\n      iszero\n      tag_291\n      jumpi\n        /* \"#utility.yul\":10610:10628   */\n      tag_292\n      tag_170\n      jump\t// in\n    tag_292:\n        /* \"#utility.yul\":10594:10630   */\n    tag_291:\n        /* \"#utility.yul\":10446:10637   */\n      swap3\n      swap2\n      pop\n      pop\n      jump\t// out\n        /* \"#utility.yul\":10643:10975   */\n    tag_100:\n        /* \"#utility.yul\":10764:10768   */\n      0x00\n        /* \"#utility.yul\":10802:10804   */\n      0x40\n        /* \"#utility.yul\":10791:10800   */\n      dup3\n        /* \"#utility.yul\":10787:10805   */\n      add\n        /* \"#utility.yul\":10779:10805   */\n      swap1\n      pop\n        /* \"#utility.yul\":10815:10886   */\n      tag_294\n        /* \"#utility.yul\":10883:10884   */\n      0x00\n        /* \"#utility.yul\":10872:10881   */\n      dup4\n        /* \"#utility.yul\":10868:10885   */\n      add\n        /* \"#utility.yul\":10859:10865   */\n      dup6\n        /* \"#utility.yul\":10815:10886   */\n      tag_161\n      jump\t// in\n    tag_294:\n        /* \"#utility.yul\":10896:10968   */\n      tag_295\n        /* \"#utility.yul\":10964:10966   */\n      0x20\n        /* \"#utility.yul\":10953:10962   */\n      dup4\n        /* \"#utility.yul\":10949:10967   */\n      add\n        /* \"#utility.yul\":10940:10946   */\n      dup5\n        /* \"#utility.yul\":10896:10968   */\n      tag_154\n      jump\t// in\n    tag_295:\n        /* \"#utility.yul\":10643:10975   */\n      swap4\n      swap3\n      pop\n      pop\n      pop\n      jump\t// out\n        /* \"#utility.yul\":10981:11148   */\n    tag_171:\n        /* \"#utility.yul\":11121:11140   */\n      0x7769746864726177616c206661696c6564000000000000000000000000000000\n        /* \"#utility.yul\":11117:11118   */\n      0x00\n        /* \"#utility.yul\":11109:11115   */\n      dup3\n        /* \"#utility.yul\":11105:11119   */\n      add\n        /* \"#utility.yul\":11098:11141   */\n      mstore\n        /* \"#utility.yul\":10981:11148   */\n      pop\n      jump\t// out\n        /* \"#utility.yul\":11154:11520   */\n    tag_172:\n        /* \"#utility.yul\":11296:11299   */\n      0x00\n        /* \"#utility.yul\":11317:11384   */\n      tag_298\n        /* \"#utility.yul\":11381:11383   */\n      0x11\n        /* \"#utility.yul\":11376:11379   */\n      dup4\n        /* \"#utility.yul\":11317:11384   */\n      tag_163\n      jump\t// in\n    tag_298:\n        /* \"#utility.yul\":11310:11384   */\n      swap2\n      pop\n        /* \"#utility.yul\":11393:11486   */\n      tag_299\n        /* \"#utility.yul\":11482:11485   */\n      dup3\n        /* \"#utility.yul\":11393:11486   */\n      tag_171\n      jump\t// in\n    tag_299:\n        /* \"#utility.yul\":11511:11513   */\n      0x20\n        /* \"#utility.yul\":11506:11509   */\n      dup3\n        /* \"#utility.yul\":11502:11514   */\n      add\n        /* \"#utility.yul\":11495:11514   */\n      swap1\n      pop\n        /* \"#utility.yul\":11154:11520   */\n      swap2\n      swap1\n      pop\n      jump\t// out\n        /* \"#utility.yul\":11526:11945   */\n    tag_106:\n        /* \"#utility.yul\":11692:11696   */\n      0x00\n        /* \"#utility.yul\":11730:11732   */\n      0x20\n        /* \"#utility.yul\":11719:11728   */\n      dup3\n        /* \"#utility.yul\":11715:11733   */\n      add\n        /* \"#utility.yul\":11707:11733   */\n      swap1\n      pop\n        /* \"#utility.yul\":11779:11788   */\n      dup2\n        /* \"#utility.yul\":11773:11777   */\n      dup2\n        /* \"#utility.yul\":11769:11789   */\n      sub\n        /* \"#utility.yul\":11765:11766   */\n      0x00\n        /* \"#utility.yul\":11754:11763   */\n      dup4\n        /* \"#utility.yul\":11750:11767   */\n      add\n        /* \"#utility.yul\":11743:11790   */\n      mstore\n        /* \"#utility.yul\":11807:11938   */\n      tag_301\n        /* \"#utility.yul\":11933:11937   */\n      dup2\n        /* \"#utility.yul\":11807:11938   */\n      tag_172\n      jump\t// in\n    tag_301:\n        /* \"#utility.yul\":11799:11938   */\n      swap1\n      pop\n        /* \"#utility.yul\":11526:11945   */\n      swap2\n      swap1\n      pop\n      jump\t// out\n        /* \"#utility.yul\":11951:12145   */\n    tag_108:\n        /* \"#utility.yul\":11991:11995   */\n      0x00\n        /* \"#utility.yul\":12011:12031   */\n      tag_303\n        /* \"#utility.yul\":12029:12030   */\n      dup3\n        /* \"#utility.yul\":12011:12031   */\n      tag_149\n      jump\t// in\n    tag_303:\n        /* \"#utility.yul\":12006:12031   */\n      swap2\n      pop\n        /* \"#utility.yul\":12045:12065   */\n      tag_304\n        /* \"#utility.yul\":12063:12064   */\n      dup4\n        /* \"#utility.yul\":12045:12065   */\n      tag_149\n      jump\t// in\n    tag_304:\n        /* \"#utility.yul\":12040:12065   */\n      swap3\n      pop\n        /* \"#utility.yul\":12089:12090   */\n      dup3\n        /* \"#utility.yul\":12086:12087   */\n      dup3\n        /* \"#utility.yul\":12082:12091   */\n      sub\n        /* \"#utility.yul\":12074:12091   */\n      swap1\n      pop\n        /* \"#utility.yul\":12113:12114   */\n      dup2\n        /* \"#utility.yul\":12107:12111   */\n      dup2\n        /* \"#utility.yul\":12104:12115   */\n      gt\n        /* \"#utility.yul\":12101:12138   */\n      iszero\n      tag_305\n      jumpi\n        /* \"#utility.yul\":12118:12136   */\n      tag_306\n      tag_170\n      jump\t// in\n    tag_306:\n        /* \"#utility.yul\":12101:12138   */\n    tag_305:\n        /* \"#utility.yul\":11951:12145   */\n      swap3\n      swap2\n      pop\n      pop\n      jump\t// out\n        /* \"#utility.yul\":12151:12327   */\n    tag_173:\n        /* \"#utility.yul\":12291:12319   */\n      0x54686973204e465420697320616c7265616479206c6973746564000000000000\n        /* \"#utility.yul\":12287:12288   */\n      0x00\n        /* \"#utility.yul\":12279:12285   */\n      dup3\n        /* \"#utility.yul\":12275:12289   */\n      add\n        /* \"#utility.yul\":12268:12320   */\n      mstore\n        /* \"#utility.yul\":12151:12327   */\n      pop\n      jump\t// out\n        /* \"#utility.yul\":12333:12699   */\n    tag_174:\n        /* \"#utility.yul\":12475:12478   */\n      0x00\n        /* \"#utility.yul\":12496:12563   */\n      tag_309\n        /* \"#utility.yul\":12560:12562   */\n      0x1a\n        /* \"#utility.yul\":12555:12558   */\n      dup4\n        /* \"#utility.yul\":12496:12563   */\n      tag_163\n      jump\t// in\n    tag_309:\n        /* \"#utility.yul\":12489:12563   */\n      swap2\n      pop\n        /* \"#utility.yul\":12572:12665   */\n      tag_310\n        /* \"#utility.yul\":12661:12664   */\n      dup3\n        /* \"#utility.yul\":12572:12665   */\n      tag_173\n      jump\t// in\n    tag_310:\n        /* \"#utility.yul\":12690:12692   */\n      0x20\n        /* \"#utility.yul\":12685:12688   */\n      dup3\n        /* \"#utility.yul\":12681:12693   */\n      add\n        /* \"#utility.yul\":12674:12693   */\n      swap1\n      pop\n        /* \"#utility.yul\":12333:12699   */\n      swap2\n      swap1\n      pop\n      jump\t// out\n        /* \"#utility.yul\":12705:13124   */\n    tag_118:\n        /* \"#utility.yul\":12871:12875   */\n      0x00\n        /* \"#utility.yul\":12909:12911   */\n      0x20\n        /* \"#utility.yul\":12898:12907   */\n      dup3\n        /* \"#utility.yul\":12894:12912   */\n      add\n        /* \"#utility.yul\":12886:12912   */\n      swap1\n      pop\n        /* \"#utility.yul\":12958:12967   */\n      dup2\n        /* \"#utility.yul\":12952:12956   */\n      dup2\n        /* \"#utility.yul\":12948:12968   */\n      sub\n        /* \"#utility.yul\":12944:12945   */\n      0x00\n        /* \"#utility.yul\":12933:12942   */\n      dup4\n        /* \"#utility.yul\":12929:12946   */\n      add\n        /* \"#utility.yul\":12922:12969   */\n      mstore\n        /* \"#utility.yul\":12986:13117   */\n      tag_312\n        /* \"#utility.yul\":13112:13116   */\n      dup2\n        /* \"#utility.yul\":12986:13117   */\n      tag_174\n      jump\t// in\n    tag_312:\n        /* \"#utility.yul\":12978:13117   */\n      swap1\n      pop\n        /* \"#utility.yul\":12705:13124   */\n      swap2\n      swap1\n      pop\n      jump\t// out\n        /* \"#utility.yul\":13130:13298   */\n    tag_175:\n        /* \"#utility.yul\":13213:13224   */\n      0x00\n        /* \"#utility.yul\":13247:13253   */\n      dup3\n        /* \"#utility.yul\":13242:13245   */\n      dup3\n        /* \"#utility.yul\":13235:13254   */\n      mstore\n        /* \"#utility.yul\":13287:13291   */\n      0x20\n        /* \"#utility.yul\":13282:13285   */\n      dup3\n        /* \"#utility.yul\":13278:13292   */\n      add\n        /* \"#utility.yul\":13263:13292   */\n      swap1\n      pop\n        /* \"#utility.yul\":13130:13298   */\n      swap3\n      swap2\n      pop\n      pop\n      jump\t// out\n        /* \"#utility.yul\":13304:13471   */\n    tag_176:\n        /* \"#utility.yul\":13444:13463   */\n      0x4c697374207375636365737366756c6c79000000000000000000000000000000\n        /* \"#utility.yul\":13440:13441   */\n      0x00\n        /* \"#utility.yul\":13432:13438   */\n      dup3\n        /* \"#utility.yul\":13428:13442   */\n      add\n        /* \"#utility.yul\":13421:13464   */\n      mstore\n        /* \"#utility.yul\":13304:13471   */\n      pop\n      jump\t// out\n        /* \"#utility.yul\":13477:13841   */\n    tag_177:\n        /* \"#utility.yul\":13618:13621   */\n      0x00\n        /* \"#utility.yul\":13639:13705   */\n      tag_316\n        /* \"#utility.yul\":13702:13704   */\n      0x11\n        /* \"#utility.yul\":13697:13700   */\n      dup4\n        /* \"#utility.yul\":13639:13705   */\n      tag_175\n      jump\t// in\n    tag_316:\n        /* \"#utility.yul\":13632:13705   */\n      swap2\n      pop\n        /* \"#utility.yul\":13714:13807   */\n      tag_317\n        /* \"#utility.yul\":13803:13806   */\n      dup3\n        /* \"#utility.yul\":13714:13807   */\n      tag_176\n      jump\t// in\n    tag_317:\n        /* \"#utility.yul\":13832:13834   */\n      0x20\n        /* \"#utility.yul\":13827:13830   */\n      dup3\n        /* \"#utility.yul\":13823:13835   */\n      add\n        /* \"#utility.yul\":13816:13835   */\n      swap1\n      pop\n        /* \"#utility.yul\":13477:13841   */\n      swap2\n      swap1\n      pop\n      jump\t// out\n        /* \"#utility.yul\":13847:14595   */\n    tag_120:\n        /* \"#utility.yul\":14096:14100   */\n      0x00\n        /* \"#utility.yul\":14134:14137   */\n      0x80\n        /* \"#utility.yul\":14123:14132   */\n      dup3\n        /* \"#utility.yul\":14119:14138   */\n      add\n        /* \"#utility.yul\":14111:14138   */\n      swap1\n      pop\n        /* \"#utility.yul\":14148:14219   */\n      tag_319\n        /* \"#utility.yul\":14216:14217   */\n      0x00\n        /* \"#utility.yul\":14205:14214   */\n      dup4\n        /* \"#utility.yul\":14201:14218   */\n      add\n        /* \"#utility.yul\":14192:14198   */\n      dup7\n        /* \"#utility.yul\":14148:14219   */\n      tag_161\n      jump\t// in\n    tag_319:\n        /* \"#utility.yul\":14229:14301   */\n      tag_320\n        /* \"#utility.yul\":14297:14299   */\n      0x20\n        /* \"#utility.yul\":14286:14295   */\n      dup4\n        /* \"#utility.yul\":14282:14300   */\n      add\n        /* \"#utility.yul\":14273:14279   */\n      dup6\n        /* \"#utility.yul\":14229:14301   */\n      tag_161\n      jump\t// in\n    tag_320:\n        /* \"#utility.yul\":14311:14383   */\n      tag_321\n        /* \"#utility.yul\":14379:14381   */\n      0x40\n        /* \"#utility.yul\":14368:14377   */\n      dup4\n        /* \"#utility.yul\":14364:14382   */\n      add\n        /* \"#utility.yul\":14355:14361   */\n      dup5\n        /* \"#utility.yul\":14311:14383   */\n      tag_154\n      jump\t// in\n    tag_321:\n        /* \"#utility.yul\":14430:14439   */\n      dup2\n        /* \"#utility.yul\":14424:14428   */\n      dup2\n        /* \"#utility.yul\":14420:14440   */\n      sub\n        /* \"#utility.yul\":14415:14417   */\n      0x60\n        /* \"#utility.yul\":14404:14413   */\n      dup4\n        /* \"#utility.yul\":14400:14418   */\n      add\n        /* \"#utility.yul\":14393:14441   */\n      mstore\n        /* \"#utility.yul\":14458:14588   */\n      tag_322\n        /* \"#utility.yul\":14583:14587   */\n      dup2\n        /* \"#utility.yul\":14458:14588   */\n      tag_177\n      jump\t// in\n    tag_322:\n        /* \"#utility.yul\":14450:14588   */\n      swap1\n      pop\n        /* \"#utility.yul\":13847:14595   */\n      swap5\n      swap4\n      pop\n      pop\n      pop\n      pop\n      jump\t// out\n        /* \"#utility.yul\":14601:14821   */\n    tag_178:\n        /* \"#utility.yul\":14741:14775   */\n      0x4e6f74206f726967696e616c206f776e6572206f72204e6f74206f6e2073616c\n        /* \"#utility.yul\":14737:14738   */\n      0x00\n        /* \"#utility.yul\":14729:14735   */\n      dup3\n        /* \"#utility.yul\":14725:14739   */\n      add\n        /* \"#utility.yul\":14718:14776   */\n      mstore\n        /* \"#utility.yul\":14810:14813   */\n      0x6500000000000000000000000000000000000000000000000000000000000000\n        /* \"#utility.yul\":14805:14807   */\n      0x20\n        /* \"#utility.yul\":14797:14803   */\n      dup3\n        /* \"#utility.yul\":14793:14808   */\n      add\n        /* \"#utility.yul\":14786:14814   */\n      mstore\n        /* \"#utility.yul\":14601:14821   */\n      pop\n      jump\t// out\n        /* \"#utility.yul\":14827:15193   */\n    tag_179:\n        /* \"#utility.yul\":14969:14972   */\n      0x00\n        /* \"#utility.yul\":14990:15057   */\n      tag_325\n        /* \"#utility.yul\":15054:15056   */\n      0x21\n        /* \"#utility.yul\":15049:15052   */\n      dup4\n        /* \"#utility.yul\":14990:15057   */\n      tag_163\n      jump\t// in\n    tag_325:\n        /* \"#utility.yul\":14983:15057   */\n      swap2\n      pop\n        /* \"#utility.yul\":15066:15159   */\n      tag_326\n        /* \"#utility.yul\":15155:15158   */\n      dup3\n        /* \"#utility.yul\":15066:15159   */\n      tag_178\n      jump\t// in\n    tag_326:\n        /* \"#utility.yul\":15184:15186   */\n      0x40\n        /* \"#utility.yul\":15179:15182   */\n      dup3\n        /* \"#utility.yul\":15175:15187   */\n      add\n        /* \"#utility.yul\":15168:15187   */\n      swap1\n      pop\n        /* \"#utility.yul\":14827:15193   */\n      swap2\n      swap1\n      pop\n      jump\t// out\n        /* \"#utility.yul\":15199:15618   */\n    tag_135:\n        /* \"#utility.yul\":15365:15369   */\n      0x00\n        /* \"#utility.yul\":15403:15405   */\n      0x20\n        /* \"#utility.yul\":15392:15401   */\n      dup3\n        /* \"#utility.yul\":15388:15406   */\n      add\n        /* \"#utility.yul\":15380:15406   */\n      swap1\n      pop\n        /* \"#utility.yul\":15452:15461   */\n      dup2\n        /* \"#utility.yul\":15446:15450   */\n      dup2\n        /* \"#utility.yul\":15442:15462   */\n      sub\n        /* \"#utility.yul\":15438:15439   */\n      0x00\n        /* \"#utility.yul\":15427:15436   */\n      dup4\n        /* \"#utility.yul\":15423:15440   */\n      add\n        /* \"#utility.yul\":15416:15463   */\n      mstore\n        /* \"#utility.yul\":15480:15611   */\n      tag_328\n        /* \"#utility.yul\":15606:15610   */\n      dup2\n        /* \"#utility.yul\":15480:15611   */\n      tag_179\n      jump\t// in\n    tag_328:\n        /* \"#utility.yul\":15472:15611   */\n      swap1\n      pop\n        /* \"#utility.yul\":15199:15618   */\n      swap2\n      swap1\n      pop\n      jump\t// out\n        /* \"#utility.yul\":15624:15793   */\n    tag_180:\n        /* \"#utility.yul\":15764:15785   */\n      0x44656c697374207375636365737366756c6c7900000000000000000000000000\n        /* \"#utility.yul\":15760:15761   */\n      0x00\n        /* \"#utility.yul\":15752:15758   */\n      dup3\n        /* \"#utility.yul\":15748:15762   */\n      add\n        /* \"#utility.yul\":15741:15786   */\n      mstore\n        /* \"#utility.yul\":15624:15793   */\n      pop\n      jump\t// out\n        /* \"#utility.yul\":15799:16163   */\n    tag_181:\n        /* \"#utility.yul\":15940:15943   */\n      0x00\n        /* \"#utility.yul\":15961:16027   */\n      tag_331\n        /* \"#utility.yul\":16024:16026   */\n      0x13\n        /* \"#utility.yul\":16019:16022   */\n      dup4\n        /* \"#utility.yul\":15961:16027   */\n      tag_175\n      jump\t// in\n    tag_331:\n        /* \"#utility.yul\":15954:16027   */\n      swap2\n      pop\n        /* \"#utility.yul\":16036:16129   */\n      tag_332\n        /* \"#utility.yul\":16125:16128   */\n      dup3\n        /* \"#utility.yul\":16036:16129   */\n      tag_180\n      jump\t// in\n    tag_332:\n        /* \"#utility.yul\":16154:16156   */\n      0x20\n        /* \"#utility.yul\":16149:16152   */\n      dup3\n        /* \"#utility.yul\":16145:16157   */\n      add\n        /* \"#utility.yul\":16138:16157   */\n      swap1\n      pop\n        /* \"#utility.yul\":15799:16163   */\n      swap2\n      swap1\n      pop\n      jump\t// out\n        /* \"#utility.yul\":16169:16917   */\n    tag_138:\n        /* \"#utility.yul\":16418:16422   */\n      0x00\n        /* \"#utility.yul\":16456:16459   */\n      0x80\n        /* \"#utility.yul\":16445:16454   */\n      dup3\n        /* \"#utility.yul\":16441:16460   */\n      add\n        /* \"#utility.yul\":16433:16460   */\n      swap1\n      pop\n        /* \"#utility.yul\":16470:16541   */\n      tag_334\n        /* \"#utility.yul\":16538:16539   */\n      0x00\n        /* \"#utility.yul\":16527:16536   */\n      dup4\n        /* \"#utility.yul\":16523:16540   */\n      add\n        /* \"#utility.yul\":16514:16520   */\n      dup7\n        /* \"#utility.yul\":16470:16541   */\n      tag_161\n      jump\t// in\n    tag_334:\n        /* \"#utility.yul\":16551:16623   */\n      tag_335\n        /* \"#utility.yul\":16619:16621   */\n      0x20\n        /* \"#utility.yul\":16608:16617   */\n      dup4\n        /* \"#utility.yul\":16604:16622   */\n      add\n        /* \"#utility.yul\":16595:16601   */\n      dup6\n        /* \"#utility.yul\":16551:16623   */\n      tag_161\n      jump\t// in\n    tag_335:\n        /* \"#utility.yul\":16633:16705   */\n      tag_336\n        /* \"#utility.yul\":16701:16703   */\n      0x40\n        /* \"#utility.yul\":16690:16699   */\n      dup4\n        /* \"#utility.yul\":16686:16704   */\n      add\n        /* \"#utility.yul\":16677:16683   */\n      dup5\n        /* \"#utility.yul\":16633:16705   */\n      tag_154\n      jump\t// in\n    tag_336:\n        /* \"#utility.yul\":16752:16761   */\n      dup2\n        /* \"#utility.yul\":16746:16750   */\n      dup2\n        /* \"#utility.yul\":16742:16762   */\n      sub\n        /* \"#utility.yul\":16737:16739   */\n      0x60\n        /* \"#utility.yul\":16726:16735   */\n      dup4\n        /* \"#utility.yul\":16722:16740   */\n      add\n        /* \"#utility.yul\":16715:16763   */\n      mstore\n        /* \"#utility.yul\":16780:16910   */\n      tag_337\n        /* \"#utility.yul\":16905:16909   */\n      dup2\n        /* \"#utility.yul\":16780:16910   */\n      tag_181\n      jump\t// in\n    tag_337:\n        /* \"#utility.yul\":16772:16910   */\n      swap1\n      pop\n        /* \"#utility.yul\":16169:16917   */\n      swap5\n      swap4\n      pop\n      pop\n      pop\n      pop\n      jump\t// out\n\n    auxdata: 0xa2646970667358221220b30adf3d87df2ac57e5dc058d5074068311ac238fedb2aa2480737b3bb5efd7664736f6c63430008160033\n}\n",
				"bytecode": {
					"linkReferences": {},
					"object": "60a060405234801562000010575f80fd5b5060405162001a2738038062001a278339818101604052810190620000369190620000d6565b8073ffffffffffffffffffffffffffffffffffffffff1660808173ffffffffffffffffffffffffffffffffffffffff16815250505062000106565b5f80fd5b5f73ffffffffffffffffffffffffffffffffffffffff82169050919050565b5f620000a08262000075565b9050919050565b620000b28162000094565b8114620000bd575f80fd5b50565b5f81519050620000d081620000a7565b92915050565b5f60208284031215620000ee57620000ed62000071565b5b5f620000fd84828501620000c0565b91505092915050565b6080516118fa6200012d5f395f8181610366015281816105e3015261096f01526118fa5ff3fe608060405234801561000f575f80fd5b506004361061009c575f3560e01c80635fbe4d1d116100645780635fbe4d1d1461017e578063a59ac6dd1461019c578063da76d5cd146101b8578063dda342bb146101d4578063f074258e146101f05761009c565b80630f9cb829146100a057806312065fe0146100d0578063150b7a02146100ee5780632f634a901461011e578063449e815d1461014e575b5f80fd5b6100ba60048036038101906100b5919061110e565b61020c565b6040516100c79190611166565b60405180910390f35b6100d8610236565b6040516100e5919061118e565b60405180910390f35b61010860048036038101906101039190611208565b61027a565b60405161011591906112c6565b60405180910390f35b6101386004803603810190610133919061110e565b61028e565b60405161014591906112ee565b60405180910390f35b6101686004803603810190610163919061110e565b61030f565b604051610175919061118e565b60405180910390f35b610186610364565b60405161019391906112ee565b60405180910390f35b6101b660048036038101906101b19190611307565b610388565b005b6101d260048036038101906101cd9190611357565b6108ab565b005b6101ee60048036038101906101e99190611307565b610aa1565b005b61020a6004803603810190610205919061110e565b610ddf565b005b6002602052815f5260405f20602052805f5260405f205f915091509054906101000a900460ff1681565b5f60015f3373ffffffffffffffffffffffffffffffffffffffff1673ffffffffffffffffffffffffffffffffffffffff1681526020019081526020015f2054905090565b5f63150b7a0260e01b905095945050505050565b5f8273ffffffffffffffffffffffffffffffffffffffff16636352211e836040518263ffffffff1660e01b81526004016102c8919061118e565b602060405180830381865afa1580156102e3573d5f803e3d5ffd5b505050506040513d601f19601f820116820180604052508101906103079190611396565b905092915050565b5f805f8473ffffffffffffffffffffffffffffffffffffffff1673ffffffffffffffffffffffffffffffffffffffff1681526020019081526020015f205f8381526020019081526020015f2054905092915050565b7f000000000000000000000000000000000000000000000000000000000000000081565b6001151560025f8573ffffffffffffffffffffffffffffffffffffffff1673ffffffffffffffffffffffffffffffffffffffff1681526020019081526020015f205f8481526020019081526020015f205f9054906101000a900460ff1615151461041e576040517fc6b0e90b00000000000000000000000000000000000000000000000000000000815260040160405180910390fd5b5f808473ffffffffffffffffffffffffffffffffffffffff1673ffffffffffffffffffffffffffffffffffffffff1681526020019081526020015f205f8381526020019081526020015f20548110156104fb57805f808573ffffffffffffffffffffffffffffffffffffffff1673ffffffffffffffffffffffffffffffffffffffff1681526020019081526020015f205f8481526020019081526020015f20546040517f090bde130000000000000000000000000000000000000000000000000000000081526004016104f29291906113c1565b60405180910390fd5b8273ffffffffffffffffffffffffffffffffffffffff1663081812fc836040518263ffffffff1660e01b8152600401610534919061118e565b602060405180830381865afa15801561054f573d5f803e3d5ffd5b505050506040513d601f19601f820116820180604052508101906105739190611396565b73ffffffffffffffffffffffffffffffffffffffff163373ffffffffffffffffffffffffffffffffffffffff16036105e0576040517f08c379a00000000000000000000000000000000000000000000000000000000081526004016105d790611442565b60405180910390fd5b5f7f000000000000000000000000000000000000000000000000000000000000000073ffffffffffffffffffffffffffffffffffffffff166323b872dd3330856040518463ffffffff1660e01b815260040161063e93929190611460565b6020604051808303815f875af115801561065a573d5f803e3d5ffd5b505050506040513d601f19601f8201168201806040525081019061067e91906114bf565b9050806106c0576040517f08c379a00000000000000000000000000000000000000000000000000000000081526004016106b79061155a565b60405180910390fd5b8160015f8673ffffffffffffffffffffffffffffffffffffffff1663081812fc876040518263ffffffff1660e01b81526004016106fd919061118e565b602060405180830381865afa158015610718573d5f803e3d5ffd5b505050506040513d601f19601f8201168201806040525081019061073c9190611396565b73ffffffffffffffffffffffffffffffffffffffff1673ffffffffffffffffffffffffffffffffffffffff1681526020019081526020015f205f82825461078391906115a5565b925050819055508373ffffffffffffffffffffffffffffffffffffffff166323b872dd3033866040518463ffffffff1660e01b81526004016107c793929190611460565b5f604051808303815f87803b1580156107de575f80fd5b505af11580156107f0573d5f803e3d5ffd5b505050505f808573ffffffffffffffffffffffffffffffffffffffff1673ffffffffffffffffffffffffffffffffffffffff1681526020019081526020015f205f8481526020019081526020015f205f90555f60025f8673ffffffffffffffffffffffffffffffffffffffff1673ffffffffffffffffffffffffffffffffffffffff1681526020019081526020015f205f8581526020019081526020015f205f6101000a81548160ff02191690831515021790555050505050565b60015f3373ffffffffffffffffffffffffffffffffffffffff1673ffffffffffffffffffffffffffffffffffffffff1681526020019081526020015f205481111561096c578060015f3373ffffffffffffffffffffffffffffffffffffffff1673ffffffffffffffffffffffffffffffffffffffff1681526020019081526020015f20546040517f1e6b7c1d0000000000000000000000000000000000000000000000000000000081526004016109639291906113c1565b60405180910390fd5b5f7f000000000000000000000000000000000000000000000000000000000000000073ffffffffffffffffffffffffffffffffffffffff1663a9059cbb33846040518363ffffffff1660e01b81526004016109c89291906115d8565b6020604051808303815f875af11580156109e4573d5f803e3d5ffd5b505050506040513d601f19601f82011682018060405250810190610a0891906114bf565b905080610a4a576040517f08c379a0000000000000000000000000000000000000000000000000000000008152600401610a4190611649565b60405180910390fd5b8160015f3373ffffffffffffffffffffffffffffffffffffffff1673ffffffffffffffffffffffffffffffffffffffff1681526020019081526020015f205f828254610a969190611667565b925050819055505050565b8273ffffffffffffffffffffffffffffffffffffffff16636352211e836040518263ffffffff1660e01b8152600401610ada919061118e565b602060405180830381865afa158015610af5573d5f803e3d5ffd5b505050506040513d601f19601f82011682018060405250810190610b199190611396565b73ffffffffffffffffffffffffffffffffffffffff163373ffffffffffffffffffffffffffffffffffffffff1614610b7d576040517f30cd747100000000000000000000000000000000000000000000000000000000815260040160405180910390fd5b5f8103610bb6576040517f4dfba02300000000000000000000000000000000000000000000000000000000815260040160405180910390fd5b5f151560025f8573ffffffffffffffffffffffffffffffffffffffff1673ffffffffffffffffffffffffffffffffffffffff1681526020019081526020015f205f8481526020019081526020015f205f9054906101000a900460ff16151514610c54576040517f08c379a0000000000000000000000000000000000000000000000000000000008152600401610c4b906116e4565b60405180910390fd5b8273ffffffffffffffffffffffffffffffffffffffff1663b88d4fde3330856040518463ffffffff1660e01b8152600401610c919392919061175c565b5f604051808303815f87803b158015610ca8575f80fd5b505af1158015610cba573d5f803e3d5ffd5b505050508273ffffffffffffffffffffffffffffffffffffffff1663095ea7b333846040518363ffffffff1660e01b8152600401610cf99291906115d8565b5f604051808303815f87803b158015610d10575f80fd5b505af1158015610d22573d5f803e3d5ffd5b50505050805f808573ffffffffffffffffffffffffffffffffffffffff1673ffffffffffffffffffffffffffffffffffffffff1681526020019081526020015f205f8481526020019081526020015f2081905550600160025f8573ffffffffffffffffffffffffffffffffffffffff1673ffffffffffffffffffffffffffffffffffffffff1681526020019081526020015f205f8481526020019081526020015f205f6101000a81548160ff021916908315150217905550505050565b3373ffffffffffffffffffffffffffffffffffffffff168273ffffffffffffffffffffffffffffffffffffffff1663081812fc836040518263ffffffff1660e01b8152600401610e2f919061118e565b602060405180830381865afa158015610e4a573d5f803e3d5ffd5b505050506040513d601f19601f82011682018060405250810190610e6e9190611396565b73ffffffffffffffffffffffffffffffffffffffff1614610ec4576040517f08c379a0000000000000000000000000000000000000000000000000000000008152600401610ebb90611814565b60405180910390fd5b6001151560025f8473ffffffffffffffffffffffffffffffffffffffff1673ffffffffffffffffffffffffffffffffffffffff1681526020019081526020015f205f8381526020019081526020015f205f9054906101000a900460ff16151514610f5a576040517fc6b0e90b00000000000000000000000000000000000000000000000000000000815260040160405180910390fd5b8173ffffffffffffffffffffffffffffffffffffffff1663b88d4fde3033846040518463ffffffff1660e01b8152600401610f979392919061187c565b5f604051808303815f87803b158015610fae575f80fd5b505af1158015610fc0573d5f803e3d5ffd5b505050505f808373ffffffffffffffffffffffffffffffffffffffff1673ffffffffffffffffffffffffffffffffffffffff1681526020019081526020015f205f8281526020019081526020015f205f90555f60025f8473ffffffffffffffffffffffffffffffffffffffff1673ffffffffffffffffffffffffffffffffffffffff1681526020019081526020015f205f8381526020019081526020015f205f6101000a81548160ff0219169083151502179055505050565b5f80fd5b5f80fd5b5f73ffffffffffffffffffffffffffffffffffffffff82169050919050565b5f6110aa82611081565b9050919050565b6110ba816110a0565b81146110c4575f80fd5b50565b5f813590506110d5816110b1565b92915050565b5f819050919050565b6110ed816110db565b81146110f7575f80fd5b50565b5f81359050611108816110e4565b92915050565b5f806040838503121561112457611123611079565b5b5f611131858286016110c7565b9250506020611142858286016110fa565b9150509250929050565b5f8115159050919050565b6111608161114c565b82525050565b5f6020820190506111795f830184611157565b92915050565b611188816110db565b82525050565b5f6020820190506111a15f83018461117f565b92915050565b5f80fd5b5f80fd5b5f80fd5b5f8083601f8401126111c8576111c76111a7565b5b8235905067ffffffffffffffff8111156111e5576111e46111ab565b5b602083019150836001820283011115611201576112006111af565b5b9250929050565b5f805f805f6080868803121561122157611220611079565b5b5f61122e888289016110c7565b955050602061123f888289016110c7565b9450506040611250888289016110fa565b935050606086013567ffffffffffffffff8111156112715761127061107d565b5b61127d888289016111b3565b92509250509295509295909350565b5f7fffffffff0000000000000000000000000000000000000000000000000000000082169050919050565b6112c08161128c565b82525050565b5f6020820190506112d95f8301846112b7565b92915050565b6112e8816110a0565b82525050565b5f6020820190506113015f8301846112df565b92915050565b5f805f6060848603121561131e5761131d611079565b5b5f61132b868287016110c7565b935050602061133c868287016110fa565b925050604061134d868287016110fa565b9150509250925092565b5f6020828403121561136c5761136b611079565b5b5f611379848285016110fa565b91505092915050565b5f81519050611390816110b1565b92915050565b5f602082840312156113ab576113aa611079565b5b5f6113b884828501611382565b91505092915050565b5f6040820190506113d45f83018561117f565b6113e1602083018461117f565b9392505050565b5f82825260208201905092915050565b7f4f776e65722063616e6e6f7420627579210000000000000000000000000000005f82015250565b5f61142c6011836113e8565b9150611437826113f8565b602082019050919050565b5f6020820190508181035f83015261145981611420565b9050919050565b5f6060820190506114735f8301866112df565b61148060208301856112df565b61148d604083018461117f565b949350505050565b61149e8161114c565b81146114a8575f80fd5b50565b5f815190506114b981611495565b92915050565b5f602082840312156114d4576114d3611079565b5b5f6114e1848285016114ab565b91505092915050565b7f4661696c20746f20627579206f7220416c6c6f77616e636520697320696e73755f8201527f6666696369656e74000000000000000000000000000000000000000000000000602082015250565b5f6115446028836113e8565b915061154f826114ea565b604082019050919050565b5f6020820190508181035f83015261157181611538565b9050919050565b7f4e487b71000000000000000000000000000000000000000000000000000000005f52601160045260245ffd5b5f6115af826110db565b91506115ba836110db565b92508282019050808211156115d2576115d1611578565b5b92915050565b5f6040820190506115eb5f8301856112df565b6115f8602083018461117f565b9392505050565b7f7769746864726177616c206661696c65640000000000000000000000000000005f82015250565b5f6116336011836113e8565b915061163e826115ff565b602082019050919050565b5f6020820190508181035f83015261166081611627565b9050919050565b5f611671826110db565b915061167c836110db565b925082820390508181111561169457611693611578565b5b92915050565b7f54686973204e465420697320616c7265616479206c69737465640000000000005f82015250565b5f6116ce601a836113e8565b91506116d98261169a565b602082019050919050565b5f6020820190508181035f8301526116fb816116c2565b9050919050565b5f82825260208201905092915050565b7f4c697374207375636365737366756c6c790000000000000000000000000000005f82015250565b5f611746601183611702565b915061175182611712565b602082019050919050565b5f60808201905061176f5f8301866112df565b61177c60208301856112df565b611789604083018461117f565b818103606083015261179a8161173a565b9050949350505050565b7f4e6f74206f726967696e616c206f776e6572206f72204e6f74206f6e2073616c5f8201527f6500000000000000000000000000000000000000000000000000000000000000602082015250565b5f6117fe6021836113e8565b9150611809826117a4565b604082019050919050565b5f6020820190508181035f83015261182b816117f2565b9050919050565b7f44656c697374207375636365737366756c6c79000000000000000000000000005f82015250565b5f611866601383611702565b915061187182611832565b602082019050919050565b5f60808201905061188f5f8301866112df565b61189c60208301856112df565b6118a9604083018461117f565b81810360608301526118ba8161185a565b905094935050505056fea2646970667358221220b30adf3d87df2ac57e5dc058d5074068311ac238fedb2aa2480737b3bb5efd7664736f6c63430008160033",
					"opcodes": "PUSH1 0xA0 PUSH1 0x40 MSTORE CALLVALUE DUP1 ISZERO PUSH3 0x10 JUMPI PUSH0 DUP1 REVERT JUMPDEST POP PUSH1 0x40 MLOAD PUSH3 0x1A27 CODESIZE SUB DUP1 PUSH3 0x1A27 DUP4 CODECOPY DUP2 DUP2 ADD PUSH1 0x40 MSTORE DUP2 ADD SWAP1 PUSH3 0x36 SWAP2 SWAP1 PUSH3 0xD6 JUMP JUMPDEST DUP1 PUSH20 0xFFFFFFFFFFFFFFFFFFFFFFFFFFFFFFFFFFFFFFFF AND PUSH1 0x80 DUP2 PUSH20 0xFFFFFFFFFFFFFFFFFFFFFFFFFFFFFFFFFFFFFFFF AND DUP2 MSTORE POP POP POP PUSH3 0x106 JUMP JUMPDEST PUSH0 DUP1 REVERT JUMPDEST PUSH0 PUSH20 0xFFFFFFFFFFFFFFFFFFFFFFFFFFFFFFFFFFFFFFFF DUP3 AND SWAP1 POP SWAP2 SWAP1 POP JUMP JUMPDEST PUSH0 PUSH3 0xA0 DUP3 PUSH3 0x75 JUMP JUMPDEST SWAP1 POP SWAP2 SWAP1 POP JUMP JUMPDEST PUSH3 0xB2 DUP2 PUSH3 0x94 JUMP JUMPDEST DUP2 EQ PUSH3 0xBD JUMPI PUSH0 DUP1 REVERT JUMPDEST POP JUMP JUMPDEST PUSH0 DUP2 MLOAD SWAP1 POP PUSH3 0xD0 DUP2 PUSH3 0xA7 JUMP JUMPDEST SWAP3 SWAP2 POP POP JUMP JUMPDEST PUSH0 PUSH1 0x20 DUP3 DUP5 SUB SLT ISZERO PUSH3 0xEE JUMPI PUSH3 0xED PUSH3 0x71 JUMP JUMPDEST JUMPDEST PUSH0 PUSH3 0xFD DUP5 DUP3 DUP6 ADD PUSH3 0xC0 JUMP JUMPDEST SWAP2 POP POP SWAP3 SWAP2 POP POP JUMP JUMPDEST PUSH1 0x80 MLOAD PUSH2 0x18FA PUSH3 0x12D PUSH0 CODECOPY PUSH0 DUP2 DUP2 PUSH2 0x366 ADD MSTORE DUP2 DUP2 PUSH2 0x5E3 ADD MSTORE PUSH2 0x96F ADD MSTORE PUSH2 0x18FA PUSH0 RETURN INVALID PUSH1 0x80 PUSH1 0x40 MSTORE CALLVALUE DUP1 ISZERO PUSH2 0xF JUMPI PUSH0 DUP1 REVERT JUMPDEST POP PUSH1 0x4 CALLDATASIZE LT PUSH2 0x9C JUMPI PUSH0 CALLDATALOAD PUSH1 0xE0 SHR DUP1 PUSH4 0x5FBE4D1D GT PUSH2 0x64 JUMPI DUP1 PUSH4 0x5FBE4D1D EQ PUSH2 0x17E JUMPI DUP1 PUSH4 0xA59AC6DD EQ PUSH2 0x19C JUMPI DUP1 PUSH4 0xDA76D5CD EQ PUSH2 0x1B8 JUMPI DUP1 PUSH4 0xDDA342BB EQ PUSH2 0x1D4 JUMPI DUP1 PUSH4 0xF074258E EQ PUSH2 0x1F0 JUMPI PUSH2 0x9C JUMP JUMPDEST DUP1 PUSH4 0xF9CB829 EQ PUSH2 0xA0 JUMPI DUP1 PUSH4 0x12065FE0 EQ PUSH2 0xD0 JUMPI DUP1 PUSH4 0x150B7A02 EQ PUSH2 0xEE JUMPI DUP1 PUSH4 0x2F634A90 EQ PUSH2 0x11E JUMPI DUP1 PUSH4 0x449E815D EQ PUSH2 0x14E JUMPI JUMPDEST PUSH0 DUP1 REVERT JUMPDEST PUSH2 0xBA PUSH1 0x4 DUP1 CALLDATASIZE SUB DUP2 ADD SWAP1 PUSH2 0xB5 SWAP2 SWAP1 PUSH2 0x110E JUMP JUMPDEST PUSH2 0x20C JUMP JUMPDEST PUSH1 0x40 MLOAD PUSH2 0xC7 SWAP2 SWAP1 PUSH2 0x1166 JUMP JUMPDEST PUSH1 0x40 MLOAD DUP1 SWAP2 SUB SWAP1 RETURN JUMPDEST PUSH2 0xD8 PUSH2 0x236 JUMP JUMPDEST PUSH1 0x40 MLOAD PUSH2 0xE5 SWAP2 SWAP1 PUSH2 0x118E JUMP JUMPDEST PUSH1 0x40 MLOAD DUP1 SWAP2 SUB SWAP1 RETURN JUMPDEST PUSH2 0x108 PUSH1 0x4 DUP1 CALLDATASIZE SUB DUP2 ADD SWAP1 PUSH2 0x103 SWAP2 SWAP1 PUSH2 0x1208 JUMP JUMPDEST PUSH2 0x27A JUMP JUMPDEST PUSH1 0x40 MLOAD PUSH2 0x115 SWAP2 SWAP1 PUSH2 0x12C6 JUMP JUMPDEST PUSH1 0x40 MLOAD DUP1 SWAP2 SUB SWAP1 RETURN JUMPDEST PUSH2 0x138 PUSH1 0x4 DUP1 CALLDATASIZE SUB DUP2 ADD SWAP1 PUSH2 0x133 SWAP2 SWAP1 PUSH2 0x110E JUMP JUMPDEST PUSH2 0x28E JUMP JUMPDEST PUSH1 0x40 MLOAD PUSH2 0x145 SWAP2 SWAP1 PUSH2 0x12EE JUMP JUMPDEST PUSH1 0x40 MLOAD DUP1 SWAP2 SUB SWAP1 RETURN JUMPDEST PUSH2 0x168 PUSH1 0x4 DUP1 CALLDATASIZE SUB DUP2 ADD SWAP1 PUSH2 0x163 SWAP2 SWAP1 PUSH2 0x110E JUMP JUMPDEST PUSH2 0x30F JUMP JUMPDEST PUSH1 0x40 MLOAD PUSH2 0x175 SWAP2 SWAP1 PUSH2 0x118E JUMP JUMPDEST PUSH1 0x40 MLOAD DUP1 SWAP2 SUB SWAP1 RETURN JUMPDEST PUSH2 0x186 PUSH2 0x364 JUMP JUMPDEST PUSH1 0x40 MLOAD PUSH2 0x193 SWAP2 SWAP1 PUSH2 0x12EE JUMP JUMPDEST PUSH1 0x40 MLOAD DUP1 SWAP2 SUB SWAP1 RETURN JUMPDEST PUSH2 0x1B6 PUSH1 0x4 DUP1 CALLDATASIZE SUB DUP2 ADD SWAP1 PUSH2 0x1B1 SWAP2 SWAP1 PUSH2 0x1307 JUMP JUMPDEST PUSH2 0x388 JUMP JUMPDEST STOP JUMPDEST PUSH2 0x1D2 PUSH1 0x4 DUP1 CALLDATASIZE SUB DUP2 ADD SWAP1 PUSH2 0x1CD SWAP2 SWAP1 PUSH2 0x1357 JUMP JUMPDEST PUSH2 0x8AB JUMP JUMPDEST STOP JUMPDEST PUSH2 0x1EE PUSH1 0x4 DUP1 CALLDATASIZE SUB DUP2 ADD SWAP1 PUSH2 0x1E9 SWAP2 SWAP1 PUSH2 0x1307 JUMP JUMPDEST PUSH2 0xAA1 JUMP JUMPDEST STOP JUMPDEST PUSH2 0x20A PUSH1 0x4 DUP1 CALLDATASIZE SUB DUP2 ADD SWAP1 PUSH2 0x205 SWAP2 SWAP1 PUSH2 0x110E JUMP JUMPDEST PUSH2 0xDDF JUMP JUMPDEST STOP JUMPDEST PUSH1 0x2 PUSH1 0x20 MSTORE DUP2 PUSH0 MSTORE PUSH1 0x40 PUSH0 KECCAK256 PUSH1 0x20 MSTORE DUP1 PUSH0 MSTORE PUSH1 0x40 PUSH0 KECCAK256 PUSH0 SWAP2 POP SWAP2 POP SWAP1 SLOAD SWAP1 PUSH2 0x100 EXP SWAP1 DIV PUSH1 0xFF AND DUP2 JUMP JUMPDEST PUSH0 PUSH1 0x1 PUSH0 CALLER PUSH20 0xFFFFFFFFFFFFFFFFFFFFFFFFFFFFFFFFFFFFFFFF AND PUSH20 0xFFFFFFFFFFFFFFFFFFFFFFFFFFFFFFFFFFFFFFFF AND DUP2 MSTORE PUSH1 0x20 ADD SWAP1 DUP2 MSTORE PUSH1 0x20 ADD PUSH0 KECCAK256 SLOAD SWAP1 POP SWAP1 JUMP JUMPDEST PUSH0 PUSH4 0x150B7A02 PUSH1 0xE0 SHL SWAP1 POP SWAP6 SWAP5 POP POP POP POP POP JUMP JUMPDEST PUSH0 DUP3 PUSH20 0xFFFFFFFFFFFFFFFFFFFFFFFFFFFFFFFFFFFFFFFF AND PUSH4 0x6352211E DUP4 PUSH1 0x40 MLOAD DUP3 PUSH4 0xFFFFFFFF AND PUSH1 0xE0 SHL DUP2 MSTORE PUSH1 0x4 ADD PUSH2 0x2C8 SWAP2 SWAP1 PUSH2 0x118E JUMP JUMPDEST PUSH1 0x20 PUSH1 0x40 MLOAD DUP1 DUP4 SUB DUP2 DUP7 GAS STATICCALL ISZERO DUP1 ISZERO PUSH2 0x2E3 JUMPI RETURNDATASIZE PUSH0 DUP1 RETURNDATACOPY RETURNDATASIZE PUSH0 REVERT JUMPDEST POP POP POP POP PUSH1 0x40 MLOAD RETURNDATASIZE PUSH1 0x1F NOT PUSH1 0x1F DUP3 ADD AND DUP3 ADD DUP1 PUSH1 0x40 MSTORE POP DUP2 ADD SWAP1 PUSH2 0x307 SWAP2 SWAP1 PUSH2 0x1396 JUMP JUMPDEST SWAP1 POP SWAP3 SWAP2 POP POP JUMP JUMPDEST PUSH0 DUP1 PUSH0 DUP5 PUSH20 0xFFFFFFFFFFFFFFFFFFFFFFFFFFFFFFFFFFFFFFFF AND PUSH20 0xFFFFFFFFFFFFFFFFFFFFFFFFFFFFFFFFFFFFFFFF AND DUP2 MSTORE PUSH1 0x20 ADD SWAP1 DUP2 MSTORE PUSH1 0x20 ADD PUSH0 KECCAK256 PUSH0 DUP4 DUP2 MSTORE PUSH1 0x20 ADD SWAP1 DUP2 MSTORE PUSH1 0x20 ADD PUSH0 KECCAK256 SLOAD SWAP1 POP SWAP3 SWAP2 POP POP JUMP JUMPDEST PUSH32 0x0 DUP2 JUMP JUMPDEST PUSH1 0x1 ISZERO ISZERO PUSH1 0x2 PUSH0 DUP6 PUSH20 0xFFFFFFFFFFFFFFFFFFFFFFFFFFFFFFFFFFFFFFFF AND PUSH20 0xFFFFFFFFFFFFFFFFFFFFFFFFFFFFFFFFFFFFFFFF AND DUP2 MSTORE PUSH1 0x20 ADD SWAP1 DUP2 MSTORE PUSH1 0x20 ADD PUSH0 KECCAK256 PUSH0 DUP5 DUP2 MSTORE PUSH1 0x20 ADD SWAP1 DUP2 MSTORE PUSH1 0x20 ADD PUSH0 KECCAK256 PUSH0 SWAP1 SLOAD SWAP1 PUSH2 0x100 EXP SWAP1 DIV PUSH1 0xFF AND ISZERO ISZERO EQ PUSH2 0x41E JUMPI PUSH1 0x40 MLOAD PUSH32 0xC6B0E90B00000000000000000000000000000000000000000000000000000000 DUP2 MSTORE PUSH1 0x4 ADD PUSH1 0x40 MLOAD DUP1 SWAP2 SUB SWAP1 REVERT JUMPDEST PUSH0 DUP1 DUP5 PUSH20 0xFFFFFFFFFFFFFFFFFFFFFFFFFFFFFFFFFFFFFFFF AND PUSH20 0xFFFFFFFFFFFFFFFFFFFFFFFFFFFFFFFFFFFFFFFF AND DUP2 MSTORE PUSH1 0x20 ADD SWAP1 DUP2 MSTORE PUSH1 0x20 ADD PUSH0 KECCAK256 PUSH0 DUP4 DUP2 MSTORE PUSH1 0x20 ADD SWAP1 DUP2 MSTORE PUSH1 0x20 ADD PUSH0 KECCAK256 SLOAD DUP2 LT ISZERO PUSH2 0x4FB JUMPI DUP1 PUSH0 DUP1 DUP6 PUSH20 0xFFFFFFFFFFFFFFFFFFFFFFFFFFFFFFFFFFFFFFFF AND PUSH20 0xFFFFFFFFFFFFFFFFFFFFFFFFFFFFFFFFFFFFFFFF AND DUP2 MSTORE PUSH1 0x20 ADD SWAP1 DUP2 MSTORE PUSH1 0x20 ADD PUSH0 KECCAK256 PUSH0 DUP5 DUP2 MSTORE PUSH1 0x20 ADD SWAP1 DUP2 MSTORE PUSH1 0x20 ADD PUSH0 KECCAK256 SLOAD PUSH1 0x40 MLOAD PUSH32 0x90BDE1300000000000000000000000000000000000000000000000000000000 DUP2 MSTORE PUSH1 0x4 ADD PUSH2 0x4F2 SWAP3 SWAP2 SWAP1 PUSH2 0x13C1 JUMP JUMPDEST PUSH1 0x40 MLOAD DUP1 SWAP2 SUB SWAP1 REVERT JUMPDEST DUP3 PUSH20 0xFFFFFFFFFFFFFFFFFFFFFFFFFFFFFFFFFFFFFFFF AND PUSH4 0x81812FC DUP4 PUSH1 0x40 MLOAD DUP3 PUSH4 0xFFFFFFFF AND PUSH1 0xE0 SHL DUP2 MSTORE PUSH1 0x4 ADD PUSH2 0x534 SWAP2 SWAP1 PUSH2 0x118E JUMP JUMPDEST PUSH1 0x20 PUSH1 0x40 MLOAD DUP1 DUP4 SUB DUP2 DUP7 GAS STATICCALL ISZERO DUP1 ISZERO PUSH2 0x54F JUMPI RETURNDATASIZE PUSH0 DUP1 RETURNDATACOPY RETURNDATASIZE PUSH0 REVERT JUMPDEST POP POP POP POP PUSH1 0x40 MLOAD RETURNDATASIZE PUSH1 0x1F NOT PUSH1 0x1F DUP3 ADD AND DUP3 ADD DUP1 PUSH1 0x40 MSTORE POP DUP2 ADD SWAP1 PUSH2 0x573 SWAP2 SWAP1 PUSH2 0x1396 JUMP JUMPDEST PUSH20 0xFFFFFFFFFFFFFFFFFFFFFFFFFFFFFFFFFFFFFFFF AND CALLER PUSH20 0xFFFFFFFFFFFFFFFFFFFFFFFFFFFFFFFFFFFFFFFF AND SUB PUSH2 0x5E0 JUMPI PUSH1 0x40 MLOAD PUSH32 0x8C379A000000000000000000000000000000000000000000000000000000000 DUP2 MSTORE PUSH1 0x4 ADD PUSH2 0x5D7 SWAP1 PUSH2 0x1442 JUMP JUMPDEST PUSH1 0x40 MLOAD DUP1 SWAP2 SUB SWAP1 REVERT JUMPDEST PUSH0 PUSH32 0x0 PUSH20 0xFFFFFFFFFFFFFFFFFFFFFFFFFFFFFFFFFFFFFFFF AND PUSH4 0x23B872DD CALLER ADDRESS DUP6 PUSH1 0x40 MLOAD DUP5 PUSH4 0xFFFFFFFF AND PUSH1 0xE0 SHL DUP2 MSTORE PUSH1 0x4 ADD PUSH2 0x63E SWAP4 SWAP3 SWAP2 SWAP1 PUSH2 0x1460 JUMP JUMPDEST PUSH1 0x20 PUSH1 0x40 MLOAD DUP1 DUP4 SUB DUP2 PUSH0 DUP8 GAS CALL ISZERO DUP1 ISZERO PUSH2 0x65A JUMPI RETURNDATASIZE PUSH0 DUP1 RETURNDATACOPY RETURNDATASIZE PUSH0 REVERT JUMPDEST POP POP POP POP PUSH1 0x40 MLOAD RETURNDATASIZE PUSH1 0x1F NOT PUSH1 0x1F DUP3 ADD AND DUP3 ADD DUP1 PUSH1 0x40 MSTORE POP DUP2 ADD SWAP1 PUSH2 0x67E SWAP2 SWAP1 PUSH2 0x14BF JUMP JUMPDEST SWAP1 POP DUP1 PUSH2 0x6C0 JUMPI PUSH1 0x40 MLOAD PUSH32 0x8C379A000000000000000000000000000000000000000000000000000000000 DUP2 MSTORE PUSH1 0x4 ADD PUSH2 0x6B7 SWAP1 PUSH2 0x155A JUMP JUMPDEST PUSH1 0x40 MLOAD DUP1 SWAP2 SUB SWAP1 REVERT JUMPDEST DUP2 PUSH1 0x1 PUSH0 DUP7 PUSH20 0xFFFFFFFFFFFFFFFFFFFFFFFFFFFFFFFFFFFFFFFF AND PUSH4 0x81812FC DUP8 PUSH1 0x40 MLOAD DUP3 PUSH4 0xFFFFFFFF AND PUSH1 0xE0 SHL DUP2 MSTORE PUSH1 0x4 ADD PUSH2 0x6FD SWAP2 SWAP1 PUSH2 0x118E JUMP JUMPDEST PUSH1 0x20 PUSH1 0x40 MLOAD DUP1 DUP4 SUB DUP2 DUP7 GAS STATICCALL ISZERO DUP1 ISZERO PUSH2 0x718 JUMPI RETURNDATASIZE PUSH0 DUP1 RETURNDATACOPY RETURNDATASIZE PUSH0 REVERT JUMPDEST POP POP POP POP PUSH1 0x40 MLOAD RETURNDATASIZE PUSH1 0x1F NOT PUSH1 0x1F DUP3 ADD AND DUP3 ADD DUP1 PUSH1 0x40 MSTORE POP DUP2 ADD SWAP1 PUSH2 0x73C SWAP2 SWAP1 PUSH2 0x1396 JUMP JUMPDEST PUSH20 0xFFFFFFFFFFFFFFFFFFFFFFFFFFFFFFFFFFFFFFFF AND PUSH20 0xFFFFFFFFFFFFFFFFFFFFFFFFFFFFFFFFFFFFFFFF AND DUP2 MSTORE PUSH1 0x20 ADD SWAP1 DUP2 MSTORE PUSH1 0x20 ADD PUSH0 KECCAK256 PUSH0 DUP3 DUP3 SLOAD PUSH2 0x783 SWAP2 SWAP1 PUSH2 0x15A5 JUMP JUMPDEST SWAP3 POP POP DUP2 SWAP1 SSTORE POP DUP4 PUSH20 0xFFFFFFFFFFFFFFFFFFFFFFFFFFFFFFFFFFFFFFFF AND PUSH4 0x23B872DD ADDRESS CALLER DUP7 PUSH1 0x40 MLOAD DUP5 PUSH4 0xFFFFFFFF AND PUSH1 0xE0 SHL DUP2 MSTORE PUSH1 0x4 ADD PUSH2 0x7C7 SWAP4 SWAP3 SWAP2 SWAP1 PUSH2 0x1460 JUMP JUMPDEST PUSH0 PUSH1 0x40 MLOAD DUP1 DUP4 SUB DUP2 PUSH0 DUP8 DUP1 EXTCODESIZE ISZERO DUP1 ISZERO PUSH2 0x7DE JUMPI PUSH0 DUP1 REVERT JUMPDEST POP GAS CALL ISZERO DUP1 ISZERO PUSH2 0x7F0 JUMPI RETURNDATASIZE PUSH0 DUP1 RETURNDATACOPY RETURNDATASIZE PUSH0 REVERT JUMPDEST POP POP POP POP PUSH0 DUP1 DUP6 PUSH20 0xFFFFFFFFFFFFFFFFFFFFFFFFFFFFFFFFFFFFFFFF AND PUSH20 0xFFFFFFFFFFFFFFFFFFFFFFFFFFFFFFFFFFFFFFFF AND DUP2 MSTORE PUSH1 0x20 ADD SWAP1 DUP2 MSTORE PUSH1 0x20 ADD PUSH0 KECCAK256 PUSH0 DUP5 DUP2 MSTORE PUSH1 0x20 ADD SWAP1 DUP2 MSTORE PUSH1 0x20 ADD PUSH0 KECCAK256 PUSH0 SWAP1 SSTORE PUSH0 PUSH1 0x2 PUSH0 DUP7 PUSH20 0xFFFFFFFFFFFFFFFFFFFFFFFFFFFFFFFFFFFFFFFF AND PUSH20 0xFFFFFFFFFFFFFFFFFFFFFFFFFFFFFFFFFFFFFFFF AND DUP2 MSTORE PUSH1 0x20 ADD SWAP1 DUP2 MSTORE PUSH1 0x20 ADD PUSH0 KECCAK256 PUSH0 DUP6 DUP2 MSTORE PUSH1 0x20 ADD SWAP1 DUP2 MSTORE PUSH1 0x20 ADD PUSH0 KECCAK256 PUSH0 PUSH2 0x100 EXP DUP2 SLOAD DUP2 PUSH1 0xFF MUL NOT AND SWAP1 DUP4 ISZERO ISZERO MUL OR SWAP1 SSTORE POP POP POP POP POP JUMP JUMPDEST PUSH1 0x1 PUSH0 CALLER PUSH20 0xFFFFFFFFFFFFFFFFFFFFFFFFFFFFFFFFFFFFFFFF AND PUSH20 0xFFFFFFFFFFFFFFFFFFFFFFFFFFFFFFFFFFFFFFFF AND DUP2 MSTORE PUSH1 0x20 ADD SWAP1 DUP2 MSTORE PUSH1 0x20 ADD PUSH0 KECCAK256 SLOAD DUP2 GT ISZERO PUSH2 0x96C JUMPI DUP1 PUSH1 0x1 PUSH0 CALLER PUSH20 0xFFFFFFFFFFFFFFFFFFFFFFFFFFFFFFFFFFFFFFFF AND PUSH20 0xFFFFFFFFFFFFFFFFFFFFFFFFFFFFFFFFFFFFFFFF AND DUP2 MSTORE PUSH1 0x20 ADD SWAP1 DUP2 MSTORE PUSH1 0x20 ADD PUSH0 KECCAK256 SLOAD PUSH1 0x40 MLOAD PUSH32 0x1E6B7C1D00000000000000000000000000000000000000000000000000000000 DUP2 MSTORE PUSH1 0x4 ADD PUSH2 0x963 SWAP3 SWAP2 SWAP1 PUSH2 0x13C1 JUMP JUMPDEST PUSH1 0x40 MLOAD DUP1 SWAP2 SUB SWAP1 REVERT JUMPDEST PUSH0 PUSH32 0x0 PUSH20 0xFFFFFFFFFFFFFFFFFFFFFFFFFFFFFFFFFFFFFFFF AND PUSH4 0xA9059CBB CALLER DUP5 PUSH1 0x40 MLOAD DUP4 PUSH4 0xFFFFFFFF AND PUSH1 0xE0 SHL DUP2 MSTORE PUSH1 0x4 ADD PUSH2 0x9C8 SWAP3 SWAP2 SWAP1 PUSH2 0x15D8 JUMP JUMPDEST PUSH1 0x20 PUSH1 0x40 MLOAD DUP1 DUP4 SUB DUP2 PUSH0 DUP8 GAS CALL ISZERO DUP1 ISZERO PUSH2 0x9E4 JUMPI RETURNDATASIZE PUSH0 DUP1 RETURNDATACOPY RETURNDATASIZE PUSH0 REVERT JUMPDEST POP POP POP POP PUSH1 0x40 MLOAD RETURNDATASIZE PUSH1 0x1F NOT PUSH1 0x1F DUP3 ADD AND DUP3 ADD DUP1 PUSH1 0x40 MSTORE POP DUP2 ADD SWAP1 PUSH2 0xA08 SWAP2 SWAP1 PUSH2 0x14BF JUMP JUMPDEST SWAP1 POP DUP1 PUSH2 0xA4A JUMPI PUSH1 0x40 MLOAD PUSH32 0x8C379A000000000000000000000000000000000000000000000000000000000 DUP2 MSTORE PUSH1 0x4 ADD PUSH2 0xA41 SWAP1 PUSH2 0x1649 JUMP JUMPDEST PUSH1 0x40 MLOAD DUP1 SWAP2 SUB SWAP1 REVERT JUMPDEST DUP2 PUSH1 0x1 PUSH0 CALLER PUSH20 0xFFFFFFFFFFFFFFFFFFFFFFFFFFFFFFFFFFFFFFFF AND PUSH20 0xFFFFFFFFFFFFFFFFFFFFFFFFFFFFFFFFFFFFFFFF AND DUP2 MSTORE PUSH1 0x20 ADD SWAP1 DUP2 MSTORE PUSH1 0x20 ADD PUSH0 KECCAK256 PUSH0 DUP3 DUP3 SLOAD PUSH2 0xA96 SWAP2 SWAP1 PUSH2 0x1667 JUMP JUMPDEST SWAP3 POP POP DUP2 SWAP1 SSTORE POP POP POP JUMP JUMPDEST DUP3 PUSH20 0xFFFFFFFFFFFFFFFFFFFFFFFFFFFFFFFFFFFFFFFF AND PUSH4 0x6352211E DUP4 PUSH1 0x40 MLOAD DUP3 PUSH4 0xFFFFFFFF AND PUSH1 0xE0 SHL DUP2 MSTORE PUSH1 0x4 ADD PUSH2 0xADA SWAP2 SWAP1 PUSH2 0x118E JUMP JUMPDEST PUSH1 0x20 PUSH1 0x40 MLOAD DUP1 DUP4 SUB DUP2 DUP7 GAS STATICCALL ISZERO DUP1 ISZERO PUSH2 0xAF5 JUMPI RETURNDATASIZE PUSH0 DUP1 RETURNDATACOPY RETURNDATASIZE PUSH0 REVERT JUMPDEST POP POP POP POP PUSH1 0x40 MLOAD RETURNDATASIZE PUSH1 0x1F NOT PUSH1 0x1F DUP3 ADD AND DUP3 ADD DUP1 PUSH1 0x40 MSTORE POP DUP2 ADD SWAP1 PUSH2 0xB19 SWAP2 SWAP1 PUSH2 0x1396 JUMP JUMPDEST PUSH20 0xFFFFFFFFFFFFFFFFFFFFFFFFFFFFFFFFFFFFFFFF AND CALLER PUSH20 0xFFFFFFFFFFFFFFFFFFFFFFFFFFFFFFFFFFFFFFFF AND EQ PUSH2 0xB7D JUMPI PUSH1 0x40 MLOAD PUSH32 0x30CD747100000000000000000000000000000000000000000000000000000000 DUP2 MSTORE PUSH1 0x4 ADD PUSH1 0x40 MLOAD DUP1 SWAP2 SUB SWAP1 REVERT JUMPDEST PUSH0 DUP2 SUB PUSH2 0xBB6 JUMPI PUSH1 0x40 MLOAD PUSH32 0x4DFBA02300000000000000000000000000000000000000000000000000000000 DUP2 MSTORE PUSH1 0x4 ADD PUSH1 0x40 MLOAD DUP1 SWAP2 SUB SWAP1 REVERT JUMPDEST PUSH0 ISZERO ISZERO PUSH1 0x2 PUSH0 DUP6 PUSH20 0xFFFFFFFFFFFFFFFFFFFFFFFFFFFFFFFFFFFFFFFF AND PUSH20 0xFFFFFFFFFFFFFFFFFFFFFFFFFFFFFFFFFFFFFFFF AND DUP2 MSTORE PUSH1 0x20 ADD SWAP1 DUP2 MSTORE PUSH1 0x20 ADD PUSH0 KECCAK256 PUSH0 DUP5 DUP2 MSTORE PUSH1 0x20 ADD SWAP1 DUP2 MSTORE PUSH1 0x20 ADD PUSH0 KECCAK256 PUSH0 SWAP1 SLOAD SWAP1 PUSH2 0x100 EXP SWAP1 DIV PUSH1 0xFF AND ISZERO ISZERO EQ PUSH2 0xC54 JUMPI PUSH1 0x40 MLOAD PUSH32 0x8C379A000000000000000000000000000000000000000000000000000000000 DUP2 MSTORE PUSH1 0x4 ADD PUSH2 0xC4B SWAP1 PUSH2 0x16E4 JUMP JUMPDEST PUSH1 0x40 MLOAD DUP1 SWAP2 SUB SWAP1 REVERT JUMPDEST DUP3 PUSH20 0xFFFFFFFFFFFFFFFFFFFFFFFFFFFFFFFFFFFFFFFF AND PUSH4 0xB88D4FDE CALLER ADDRESS DUP6 PUSH1 0x40 MLOAD DUP5 PUSH4 0xFFFFFFFF AND PUSH1 0xE0 SHL DUP2 MSTORE PUSH1 0x4 ADD PUSH2 0xC91 SWAP4 SWAP3 SWAP2 SWAP1 PUSH2 0x175C JUMP JUMPDEST PUSH0 PUSH1 0x40 MLOAD DUP1 DUP4 SUB DUP2 PUSH0 DUP8 DUP1 EXTCODESIZE ISZERO DUP1 ISZERO PUSH2 0xCA8 JUMPI PUSH0 DUP1 REVERT JUMPDEST POP GAS CALL ISZERO DUP1 ISZERO PUSH2 0xCBA JUMPI RETURNDATASIZE PUSH0 DUP1 RETURNDATACOPY RETURNDATASIZE PUSH0 REVERT JUMPDEST POP POP POP POP DUP3 PUSH20 0xFFFFFFFFFFFFFFFFFFFFFFFFFFFFFFFFFFFFFFFF AND PUSH4 0x95EA7B3 CALLER DUP5 PUSH1 0x40 MLOAD DUP4 PUSH4 0xFFFFFFFF AND PUSH1 0xE0 SHL DUP2 MSTORE PUSH1 0x4 ADD PUSH2 0xCF9 SWAP3 SWAP2 SWAP1 PUSH2 0x15D8 JUMP JUMPDEST PUSH0 PUSH1 0x40 MLOAD DUP1 DUP4 SUB DUP2 PUSH0 DUP8 DUP1 EXTCODESIZE ISZERO DUP1 ISZERO PUSH2 0xD10 JUMPI PUSH0 DUP1 REVERT JUMPDEST POP GAS CALL ISZERO DUP1 ISZERO PUSH2 0xD22 JUMPI RETURNDATASIZE PUSH0 DUP1 RETURNDATACOPY RETURNDATASIZE PUSH0 REVERT JUMPDEST POP POP POP POP DUP1 PUSH0 DUP1 DUP6 PUSH20 0xFFFFFFFFFFFFFFFFFFFFFFFFFFFFFFFFFFFFFFFF AND PUSH20 0xFFFFFFFFFFFFFFFFFFFFFFFFFFFFFFFFFFFFFFFF AND DUP2 MSTORE PUSH1 0x20 ADD SWAP1 DUP2 MSTORE PUSH1 0x20 ADD PUSH0 KECCAK256 PUSH0 DUP5 DUP2 MSTORE PUSH1 0x20 ADD SWAP1 DUP2 MSTORE PUSH1 0x20 ADD PUSH0 KECCAK256 DUP2 SWAP1 SSTORE POP PUSH1 0x1 PUSH1 0x2 PUSH0 DUP6 PUSH20 0xFFFFFFFFFFFFFFFFFFFFFFFFFFFFFFFFFFFFFFFF AND PUSH20 0xFFFFFFFFFFFFFFFFFFFFFFFFFFFFFFFFFFFFFFFF AND DUP2 MSTORE PUSH1 0x20 ADD SWAP1 DUP2 MSTORE PUSH1 0x20 ADD PUSH0 KECCAK256 PUSH0 DUP5 DUP2 MSTORE PUSH1 0x20 ADD SWAP1 DUP2 MSTORE PUSH1 0x20 ADD PUSH0 KECCAK256 PUSH0 PUSH2 0x100 EXP DUP2 SLOAD DUP2 PUSH1 0xFF MUL NOT AND SWAP1 DUP4 ISZERO ISZERO MUL OR SWAP1 SSTORE POP POP POP POP JUMP JUMPDEST CALLER PUSH20 0xFFFFFFFFFFFFFFFFFFFFFFFFFFFFFFFFFFFFFFFF AND DUP3 PUSH20 0xFFFFFFFFFFFFFFFFFFFFFFFFFFFFFFFFFFFFFFFF AND PUSH4 0x81812FC DUP4 PUSH1 0x40 MLOAD DUP3 PUSH4 0xFFFFFFFF AND PUSH1 0xE0 SHL DUP2 MSTORE PUSH1 0x4 ADD PUSH2 0xE2F SWAP2 SWAP1 PUSH2 0x118E JUMP JUMPDEST PUSH1 0x20 PUSH1 0x40 MLOAD DUP1 DUP4 SUB DUP2 DUP7 GAS STATICCALL ISZERO DUP1 ISZERO PUSH2 0xE4A JUMPI RETURNDATASIZE PUSH0 DUP1 RETURNDATACOPY RETURNDATASIZE PUSH0 REVERT JUMPDEST POP POP POP POP PUSH1 0x40 MLOAD RETURNDATASIZE PUSH1 0x1F NOT PUSH1 0x1F DUP3 ADD AND DUP3 ADD DUP1 PUSH1 0x40 MSTORE POP DUP2 ADD SWAP1 PUSH2 0xE6E SWAP2 SWAP1 PUSH2 0x1396 JUMP JUMPDEST PUSH20 0xFFFFFFFFFFFFFFFFFFFFFFFFFFFFFFFFFFFFFFFF AND EQ PUSH2 0xEC4 JUMPI PUSH1 0x40 MLOAD PUSH32 0x8C379A000000000000000000000000000000000000000000000000000000000 DUP2 MSTORE PUSH1 0x4 ADD PUSH2 0xEBB SWAP1 PUSH2 0x1814 JUMP JUMPDEST PUSH1 0x40 MLOAD DUP1 SWAP2 SUB SWAP1 REVERT JUMPDEST PUSH1 0x1 ISZERO ISZERO PUSH1 0x2 PUSH0 DUP5 PUSH20 0xFFFFFFFFFFFFFFFFFFFFFFFFFFFFFFFFFFFFFFFF AND PUSH20 0xFFFFFFFFFFFFFFFFFFFFFFFFFFFFFFFFFFFFFFFF AND DUP2 MSTORE PUSH1 0x20 ADD SWAP1 DUP2 MSTORE PUSH1 0x20 ADD PUSH0 KECCAK256 PUSH0 DUP4 DUP2 MSTORE PUSH1 0x20 ADD SWAP1 DUP2 MSTORE PUSH1 0x20 ADD PUSH0 KECCAK256 PUSH0 SWAP1 SLOAD SWAP1 PUSH2 0x100 EXP SWAP1 DIV PUSH1 0xFF AND ISZERO ISZERO EQ PUSH2 0xF5A JUMPI PUSH1 0x40 MLOAD PUSH32 0xC6B0E90B00000000000000000000000000000000000000000000000000000000 DUP2 MSTORE PUSH1 0x4 ADD PUSH1 0x40 MLOAD DUP1 SWAP2 SUB SWAP1 REVERT JUMPDEST DUP2 PUSH20 0xFFFFFFFFFFFFFFFFFFFFFFFFFFFFFFFFFFFFFFFF AND PUSH4 0xB88D4FDE ADDRESS CALLER DUP5 PUSH1 0x40 MLOAD DUP5 PUSH4 0xFFFFFFFF AND PUSH1 0xE0 SHL DUP2 MSTORE PUSH1 0x4 ADD PUSH2 0xF97 SWAP4 SWAP3 SWAP2 SWAP1 PUSH2 0x187C JUMP JUMPDEST PUSH0 PUSH1 0x40 MLOAD DUP1 DUP4 SUB DUP2 PUSH0 DUP8 DUP1 EXTCODESIZE ISZERO DUP1 ISZERO PUSH2 0xFAE JUMPI PUSH0 DUP1 REVERT JUMPDEST POP GAS CALL ISZERO DUP1 ISZERO PUSH2 0xFC0 JUMPI RETURNDATASIZE PUSH0 DUP1 RETURNDATACOPY RETURNDATASIZE PUSH0 REVERT JUMPDEST POP POP POP POP PUSH0 DUP1 DUP4 PUSH20 0xFFFFFFFFFFFFFFFFFFFFFFFFFFFFFFFFFFFFFFFF AND PUSH20 0xFFFFFFFFFFFFFFFFFFFFFFFFFFFFFFFFFFFFFFFF AND DUP2 MSTORE PUSH1 0x20 ADD SWAP1 DUP2 MSTORE PUSH1 0x20 ADD PUSH0 KECCAK256 PUSH0 DUP3 DUP2 MSTORE PUSH1 0x20 ADD SWAP1 DUP2 MSTORE PUSH1 0x20 ADD PUSH0 KECCAK256 PUSH0 SWAP1 SSTORE PUSH0 PUSH1 0x2 PUSH0 DUP5 PUSH20 0xFFFFFFFFFFFFFFFFFFFFFFFFFFFFFFFFFFFFFFFF AND PUSH20 0xFFFFFFFFFFFFFFFFFFFFFFFFFFFFFFFFFFFFFFFF AND DUP2 MSTORE PUSH1 0x20 ADD SWAP1 DUP2 MSTORE PUSH1 0x20 ADD PUSH0 KECCAK256 PUSH0 DUP4 DUP2 MSTORE PUSH1 0x20 ADD SWAP1 DUP2 MSTORE PUSH1 0x20 ADD PUSH0 KECCAK256 PUSH0 PUSH2 0x100 EXP DUP2 SLOAD DUP2 PUSH1 0xFF MUL NOT AND SWAP1 DUP4 ISZERO ISZERO MUL OR SWAP1 SSTORE POP POP POP JUMP JUMPDEST PUSH0 DUP1 REVERT JUMPDEST PUSH0 DUP1 REVERT JUMPDEST PUSH0 PUSH20 0xFFFFFFFFFFFFFFFFFFFFFFFFFFFFFFFFFFFFFFFF DUP3 AND SWAP1 POP SWAP2 SWAP1 POP JUMP JUMPDEST PUSH0 PUSH2 0x10AA DUP3 PUSH2 0x1081 JUMP JUMPDEST SWAP1 POP SWAP2 SWAP1 POP JUMP JUMPDEST PUSH2 0x10BA DUP2 PUSH2 0x10A0 JUMP JUMPDEST DUP2 EQ PUSH2 0x10C4 JUMPI PUSH0 DUP1 REVERT JUMPDEST POP JUMP JUMPDEST PUSH0 DUP2 CALLDATALOAD SWAP1 POP PUSH2 0x10D5 DUP2 PUSH2 0x10B1 JUMP JUMPDEST SWAP3 SWAP2 POP POP JUMP JUMPDEST PUSH0 DUP2 SWAP1 POP SWAP2 SWAP1 POP JUMP JUMPDEST PUSH2 0x10ED DUP2 PUSH2 0x10DB JUMP JUMPDEST DUP2 EQ PUSH2 0x10F7 JUMPI PUSH0 DUP1 REVERT JUMPDEST POP JUMP JUMPDEST PUSH0 DUP2 CALLDATALOAD SWAP1 POP PUSH2 0x1108 DUP2 PUSH2 0x10E4 JUMP JUMPDEST SWAP3 SWAP2 POP POP JUMP JUMPDEST PUSH0 DUP1 PUSH1 0x40 DUP4 DUP6 SUB SLT ISZERO PUSH2 0x1124 JUMPI PUSH2 0x1123 PUSH2 0x1079 JUMP JUMPDEST JUMPDEST PUSH0 PUSH2 0x1131 DUP6 DUP3 DUP7 ADD PUSH2 0x10C7 JUMP JUMPDEST SWAP3 POP POP PUSH1 0x20 PUSH2 0x1142 DUP6 DUP3 DUP7 ADD PUSH2 0x10FA JUMP JUMPDEST SWAP2 POP POP SWAP3 POP SWAP3 SWAP1 POP JUMP JUMPDEST PUSH0 DUP2 ISZERO ISZERO SWAP1 POP SWAP2 SWAP1 POP JUMP JUMPDEST PUSH2 0x1160 DUP2 PUSH2 0x114C JUMP JUMPDEST DUP3 MSTORE POP POP JUMP JUMPDEST PUSH0 PUSH1 0x20 DUP3 ADD SWAP1 POP PUSH2 0x1179 PUSH0 DUP4 ADD DUP5 PUSH2 0x1157 JUMP JUMPDEST SWAP3 SWAP2 POP POP JUMP JUMPDEST PUSH2 0x1188 DUP2 PUSH2 0x10DB JUMP JUMPDEST DUP3 MSTORE POP POP JUMP JUMPDEST PUSH0 PUSH1 0x20 DUP3 ADD SWAP1 POP PUSH2 0x11A1 PUSH0 DUP4 ADD DUP5 PUSH2 0x117F JUMP JUMPDEST SWAP3 SWAP2 POP POP JUMP JUMPDEST PUSH0 DUP1 REVERT JUMPDEST PUSH0 DUP1 REVERT JUMPDEST PUSH0 DUP1 REVERT JUMPDEST PUSH0 DUP1 DUP4 PUSH1 0x1F DUP5 ADD SLT PUSH2 0x11C8 JUMPI PUSH2 0x11C7 PUSH2 0x11A7 JUMP JUMPDEST JUMPDEST DUP3 CALLDATALOAD SWAP1 POP PUSH8 0xFFFFFFFFFFFFFFFF DUP2 GT ISZERO PUSH2 0x11E5 JUMPI PUSH2 0x11E4 PUSH2 0x11AB JUMP JUMPDEST JUMPDEST PUSH1 0x20 DUP4 ADD SWAP2 POP DUP4 PUSH1 0x1 DUP3 MUL DUP4 ADD GT ISZERO PUSH2 0x1201 JUMPI PUSH2 0x1200 PUSH2 0x11AF JUMP JUMPDEST JUMPDEST SWAP3 POP SWAP3 SWAP1 POP JUMP JUMPDEST PUSH0 DUP1 PUSH0 DUP1 PUSH0 PUSH1 0x80 DUP7 DUP9 SUB SLT ISZERO PUSH2 0x1221 JUMPI PUSH2 0x1220 PUSH2 0x1079 JUMP JUMPDEST JUMPDEST PUSH0 PUSH2 0x122E DUP9 DUP3 DUP10 ADD PUSH2 0x10C7 JUMP JUMPDEST SWAP6 POP POP PUSH1 0x20 PUSH2 0x123F DUP9 DUP3 DUP10 ADD PUSH2 0x10C7 JUMP JUMPDEST SWAP5 POP POP PUSH1 0x40 PUSH2 0x1250 DUP9 DUP3 DUP10 ADD PUSH2 0x10FA JUMP JUMPDEST SWAP4 POP POP PUSH1 0x60 DUP7 ADD CALLDATALOAD PUSH8 0xFFFFFFFFFFFFFFFF DUP2 GT ISZERO PUSH2 0x1271 JUMPI PUSH2 0x1270 PUSH2 0x107D JUMP JUMPDEST JUMPDEST PUSH2 0x127D DUP9 DUP3 DUP10 ADD PUSH2 0x11B3 JUMP JUMPDEST SWAP3 POP SWAP3 POP POP SWAP3 SWAP6 POP SWAP3 SWAP6 SWAP1 SWAP4 POP JUMP JUMPDEST PUSH0 PUSH32 0xFFFFFFFF00000000000000000000000000000000000000000000000000000000 DUP3 AND SWAP1 POP SWAP2 SWAP1 POP JUMP JUMPDEST PUSH2 0x12C0 DUP2 PUSH2 0x128C JUMP JUMPDEST DUP3 MSTORE POP POP JUMP JUMPDEST PUSH0 PUSH1 0x20 DUP3 ADD SWAP1 POP PUSH2 0x12D9 PUSH0 DUP4 ADD DUP5 PUSH2 0x12B7 JUMP JUMPDEST SWAP3 SWAP2 POP POP JUMP JUMPDEST PUSH2 0x12E8 DUP2 PUSH2 0x10A0 JUMP JUMPDEST DUP3 MSTORE POP POP JUMP JUMPDEST PUSH0 PUSH1 0x20 DUP3 ADD SWAP1 POP PUSH2 0x1301 PUSH0 DUP4 ADD DUP5 PUSH2 0x12DF JUMP JUMPDEST SWAP3 SWAP2 POP POP JUMP JUMPDEST PUSH0 DUP1 PUSH0 PUSH1 0x60 DUP5 DUP7 SUB SLT ISZERO PUSH2 0x131E JUMPI PUSH2 0x131D PUSH2 0x1079 JUMP JUMPDEST JUMPDEST PUSH0 PUSH2 0x132B DUP7 DUP3 DUP8 ADD PUSH2 0x10C7 JUMP JUMPDEST SWAP4 POP POP PUSH1 0x20 PUSH2 0x133C DUP7 DUP3 DUP8 ADD PUSH2 0x10FA JUMP JUMPDEST SWAP3 POP POP PUSH1 0x40 PUSH2 0x134D DUP7 DUP3 DUP8 ADD PUSH2 0x10FA JUMP JUMPDEST SWAP2 POP POP SWAP3 POP SWAP3 POP SWAP3 JUMP JUMPDEST PUSH0 PUSH1 0x20 DUP3 DUP5 SUB SLT ISZERO PUSH2 0x136C JUMPI PUSH2 0x136B PUSH2 0x1079 JUMP JUMPDEST JUMPDEST PUSH0 PUSH2 0x1379 DUP5 DUP3 DUP6 ADD PUSH2 0x10FA JUMP JUMPDEST SWAP2 POP POP SWAP3 SWAP2 POP POP JUMP JUMPDEST PUSH0 DUP2 MLOAD SWAP1 POP PUSH2 0x1390 DUP2 PUSH2 0x10B1 JUMP JUMPDEST SWAP3 SWAP2 POP POP JUMP JUMPDEST PUSH0 PUSH1 0x20 DUP3 DUP5 SUB SLT ISZERO PUSH2 0x13AB JUMPI PUSH2 0x13AA PUSH2 0x1079 JUMP JUMPDEST JUMPDEST PUSH0 PUSH2 0x13B8 DUP5 DUP3 DUP6 ADD PUSH2 0x1382 JUMP JUMPDEST SWAP2 POP POP SWAP3 SWAP2 POP POP JUMP JUMPDEST PUSH0 PUSH1 0x40 DUP3 ADD SWAP1 POP PUSH2 0x13D4 PUSH0 DUP4 ADD DUP6 PUSH2 0x117F JUMP JUMPDEST PUSH2 0x13E1 PUSH1 0x20 DUP4 ADD DUP5 PUSH2 0x117F JUMP JUMPDEST SWAP4 SWAP3 POP POP POP JUMP JUMPDEST PUSH0 DUP3 DUP3 MSTORE PUSH1 0x20 DUP3 ADD SWAP1 POP SWAP3 SWAP2 POP POP JUMP JUMPDEST PUSH32 0x4F776E65722063616E6E6F742062757921000000000000000000000000000000 PUSH0 DUP3 ADD MSTORE POP JUMP JUMPDEST PUSH0 PUSH2 0x142C PUSH1 0x11 DUP4 PUSH2 0x13E8 JUMP JUMPDEST SWAP2 POP PUSH2 0x1437 DUP3 PUSH2 0x13F8 JUMP JUMPDEST PUSH1 0x20 DUP3 ADD SWAP1 POP SWAP2 SWAP1 POP JUMP JUMPDEST PUSH0 PUSH1 0x20 DUP3 ADD SWAP1 POP DUP2 DUP2 SUB PUSH0 DUP4 ADD MSTORE PUSH2 0x1459 DUP2 PUSH2 0x1420 JUMP JUMPDEST SWAP1 POP SWAP2 SWAP1 POP JUMP JUMPDEST PUSH0 PUSH1 0x60 DUP3 ADD SWAP1 POP PUSH2 0x1473 PUSH0 DUP4 ADD DUP7 PUSH2 0x12DF JUMP JUMPDEST PUSH2 0x1480 PUSH1 0x20 DUP4 ADD DUP6 PUSH2 0x12DF JUMP JUMPDEST PUSH2 0x148D PUSH1 0x40 DUP4 ADD DUP5 PUSH2 0x117F JUMP JUMPDEST SWAP5 SWAP4 POP POP POP POP JUMP JUMPDEST PUSH2 0x149E DUP2 PUSH2 0x114C JUMP JUMPDEST DUP2 EQ PUSH2 0x14A8 JUMPI PUSH0 DUP1 REVERT JUMPDEST POP JUMP JUMPDEST PUSH0 DUP2 MLOAD SWAP1 POP PUSH2 0x14B9 DUP2 PUSH2 0x1495 JUMP JUMPDEST SWAP3 SWAP2 POP POP JUMP JUMPDEST PUSH0 PUSH1 0x20 DUP3 DUP5 SUB SLT ISZERO PUSH2 0x14D4 JUMPI PUSH2 0x14D3 PUSH2 0x1079 JUMP JUMPDEST JUMPDEST PUSH0 PUSH2 0x14E1 DUP5 DUP3 DUP6 ADD PUSH2 0x14AB JUMP JUMPDEST SWAP2 POP POP SWAP3 SWAP2 POP POP JUMP JUMPDEST PUSH32 0x4661696C20746F20627579206F7220416C6C6F77616E636520697320696E7375 PUSH0 DUP3 ADD MSTORE PUSH32 0x6666696369656E74000000000000000000000000000000000000000000000000 PUSH1 0x20 DUP3 ADD MSTORE POP JUMP JUMPDEST PUSH0 PUSH2 0x1544 PUSH1 0x28 DUP4 PUSH2 0x13E8 JUMP JUMPDEST SWAP2 POP PUSH2 0x154F DUP3 PUSH2 0x14EA JUMP JUMPDEST PUSH1 0x40 DUP3 ADD SWAP1 POP SWAP2 SWAP1 POP JUMP JUMPDEST PUSH0 PUSH1 0x20 DUP3 ADD SWAP1 POP DUP2 DUP2 SUB PUSH0 DUP4 ADD MSTORE PUSH2 0x1571 DUP2 PUSH2 0x1538 JUMP JUMPDEST SWAP1 POP SWAP2 SWAP1 POP JUMP JUMPDEST PUSH32 0x4E487B7100000000000000000000000000000000000000000000000000000000 PUSH0 MSTORE PUSH1 0x11 PUSH1 0x4 MSTORE PUSH1 0x24 PUSH0 REVERT JUMPDEST PUSH0 PUSH2 0x15AF DUP3 PUSH2 0x10DB JUMP JUMPDEST SWAP2 POP PUSH2 0x15BA DUP4 PUSH2 0x10DB JUMP JUMPDEST SWAP3 POP DUP3 DUP3 ADD SWAP1 POP DUP1 DUP3 GT ISZERO PUSH2 0x15D2 JUMPI PUSH2 0x15D1 PUSH2 0x1578 JUMP JUMPDEST JUMPDEST SWAP3 SWAP2 POP POP JUMP JUMPDEST PUSH0 PUSH1 0x40 DUP3 ADD SWAP1 POP PUSH2 0x15EB PUSH0 DUP4 ADD DUP6 PUSH2 0x12DF JUMP JUMPDEST PUSH2 0x15F8 PUSH1 0x20 DUP4 ADD DUP5 PUSH2 0x117F JUMP JUMPDEST SWAP4 SWAP3 POP POP POP JUMP JUMPDEST PUSH32 0x7769746864726177616C206661696C6564000000000000000000000000000000 PUSH0 DUP3 ADD MSTORE POP JUMP JUMPDEST PUSH0 PUSH2 0x1633 PUSH1 0x11 DUP4 PUSH2 0x13E8 JUMP JUMPDEST SWAP2 POP PUSH2 0x163E DUP3 PUSH2 0x15FF JUMP JUMPDEST PUSH1 0x20 DUP3 ADD SWAP1 POP SWAP2 SWAP1 POP JUMP JUMPDEST PUSH0 PUSH1 0x20 DUP3 ADD SWAP1 POP DUP2 DUP2 SUB PUSH0 DUP4 ADD MSTORE PUSH2 0x1660 DUP2 PUSH2 0x1627 JUMP JUMPDEST SWAP1 POP SWAP2 SWAP1 POP JUMP JUMPDEST PUSH0 PUSH2 0x1671 DUP3 PUSH2 0x10DB JUMP JUMPDEST SWAP2 POP PUSH2 0x167C DUP4 PUSH2 0x10DB JUMP JUMPDEST SWAP3 POP DUP3 DUP3 SUB SWAP1 POP DUP2 DUP2 GT ISZERO PUSH2 0x1694 JUMPI PUSH2 0x1693 PUSH2 0x1578 JUMP JUMPDEST JUMPDEST SWAP3 SWAP2 POP POP JUMP JUMPDEST PUSH32 0x54686973204E465420697320616C7265616479206C6973746564000000000000 PUSH0 DUP3 ADD MSTORE POP JUMP JUMPDEST PUSH0 PUSH2 0x16CE PUSH1 0x1A DUP4 PUSH2 0x13E8 JUMP JUMPDEST SWAP2 POP PUSH2 0x16D9 DUP3 PUSH2 0x169A JUMP JUMPDEST PUSH1 0x20 DUP3 ADD SWAP1 POP SWAP2 SWAP1 POP JUMP JUMPDEST PUSH0 PUSH1 0x20 DUP3 ADD SWAP1 POP DUP2 DUP2 SUB PUSH0 DUP4 ADD MSTORE PUSH2 0x16FB DUP2 PUSH2 0x16C2 JUMP JUMPDEST SWAP1 POP SWAP2 SWAP1 POP JUMP JUMPDEST PUSH0 DUP3 DUP3 MSTORE PUSH1 0x20 DUP3 ADD SWAP1 POP SWAP3 SWAP2 POP POP JUMP JUMPDEST PUSH32 0x4C697374207375636365737366756C6C79000000000000000000000000000000 PUSH0 DUP3 ADD MSTORE POP JUMP JUMPDEST PUSH0 PUSH2 0x1746 PUSH1 0x11 DUP4 PUSH2 0x1702 JUMP JUMPDEST SWAP2 POP PUSH2 0x1751 DUP3 PUSH2 0x1712 JUMP JUMPDEST PUSH1 0x20 DUP3 ADD SWAP1 POP SWAP2 SWAP1 POP JUMP JUMPDEST PUSH0 PUSH1 0x80 DUP3 ADD SWAP1 POP PUSH2 0x176F PUSH0 DUP4 ADD DUP7 PUSH2 0x12DF JUMP JUMPDEST PUSH2 0x177C PUSH1 0x20 DUP4 ADD DUP6 PUSH2 0x12DF JUMP JUMPDEST PUSH2 0x1789 PUSH1 0x40 DUP4 ADD DUP5 PUSH2 0x117F JUMP JUMPDEST DUP2 DUP2 SUB PUSH1 0x60 DUP4 ADD MSTORE PUSH2 0x179A DUP2 PUSH2 0x173A JUMP JUMPDEST SWAP1 POP SWAP5 SWAP4 POP POP POP POP JUMP JUMPDEST PUSH32 0x4E6F74206F726967696E616C206F776E6572206F72204E6F74206F6E2073616C PUSH0 DUP3 ADD MSTORE PUSH32 0x6500000000000000000000000000000000000000000000000000000000000000 PUSH1 0x20 DUP3 ADD MSTORE POP JUMP JUMPDEST PUSH0 PUSH2 0x17FE PUSH1 0x21 DUP4 PUSH2 0x13E8 JUMP JUMPDEST SWAP2 POP PUSH2 0x1809 DUP3 PUSH2 0x17A4 JUMP JUMPDEST PUSH1 0x40 DUP3 ADD SWAP1 POP SWAP2 SWAP1 POP JUMP JUMPDEST PUSH0 PUSH1 0x20 DUP3 ADD SWAP1 POP DUP2 DUP2 SUB PUSH0 DUP4 ADD MSTORE PUSH2 0x182B DUP2 PUSH2 0x17F2 JUMP JUMPDEST SWAP1 POP SWAP2 SWAP1 POP JUMP JUMPDEST PUSH32 0x44656C697374207375636365737366756C6C7900000000000000000000000000 PUSH0 DUP3 ADD MSTORE POP JUMP JUMPDEST PUSH0 PUSH2 0x1866 PUSH1 0x13 DUP4 PUSH2 0x1702 JUMP JUMPDEST SWAP2 POP PUSH2 0x1871 DUP3 PUSH2 0x1832 JUMP JUMPDEST PUSH1 0x20 DUP3 ADD SWAP1 POP SWAP2 SWAP1 POP JUMP JUMPDEST PUSH0 PUSH1 0x80 DUP3 ADD SWAP1 POP PUSH2 0x188F PUSH0 DUP4 ADD DUP7 PUSH2 0x12DF JUMP JUMPDEST PUSH2 0x189C PUSH1 0x20 DUP4 ADD DUP6 PUSH2 0x12DF JUMP JUMPDEST PUSH2 0x18A9 PUSH1 0x40 DUP4 ADD DUP5 PUSH2 0x117F JUMP JUMPDEST DUP2 DUP2 SUB PUSH1 0x60 DUP4 ADD MSTORE PUSH2 0x18BA DUP2 PUSH2 0x185A JUMP JUMPDEST SWAP1 POP SWAP5 SWAP4 POP POP POP POP JUMP INVALID LOG2 PUSH5 0x6970667358 0x22 SLT KECCAK256 0xB3 EXP 0xDF RETURNDATASIZE DUP8 0xDF 0x2A 0xC5 PUSH31 0x5DC058D5074068311AC238FEDB2AA2480737B3BB5EFD7664736F6C63430008 AND STOP CALLER "
				},
				"gasEstimates": {
					"creation": {
						"codeDepositCost": "1278800",
						"executionCost": "infinite",
						"totalCost": "infinite"
					},
					"external": {
						"buy(address,uint256,uint256)": "infinite",
						"delist(address,uint256)": "infinite",
						"getBalance()": "2542",
						"getOwner(address,uint256)": "infinite",
						"getPrice(address,uint256)": "infinite",
						"list(address,uint256,uint256)": "infinite",
						"onERC721Received(address,address,uint256,bytes)": "infinite",
						"onSale(address,uint256)": "3072",
						"tokenAddr()": "infinite",
						"withdrawBalance(uint256)": "infinite"
					}
				},
				"methodIdentifiers": {
					"buy(address,uint256,uint256)": "a59ac6dd",
					"delist(address,uint256)": "f074258e",
					"getBalance()": "12065fe0",
					"getOwner(address,uint256)": "2f634a90",
					"getPrice(address,uint256)": "449e815d",
					"list(address,uint256,uint256)": "dda342bb",
					"onERC721Received(address,address,uint256,bytes)": "150b7a02",
					"onSale(address,uint256)": "0f9cb829",
					"tokenAddr()": "5fbe4d1d",
					"withdrawBalance(uint256)": "da76d5cd"
				}
			},
			"storageLayout": {
				"storage": [
					{
						"astId": 13,
						"contract": "04-Camps/08-UpChain_Camp_3_OpenSpace/0115_ERC721Token/contracts/NFTMarket.sol:NFTMarket",
						"label": "price",
						"offset": 0,
						"slot": "0",
						"type": "t_mapping(t_address,t_mapping(t_uint256,t_uint256))"
					},
					{
						"astId": 17,
						"contract": "04-Camps/08-UpChain_Camp_3_OpenSpace/0115_ERC721Token/contracts/NFTMarket.sol:NFTMarket",
						"label": "balance",
						"offset": 0,
						"slot": "1",
						"type": "t_mapping(t_address,t_uint256)"
					},
					{
						"astId": 25,
						"contract": "04-Camps/08-UpChain_Camp_3_OpenSpace/0115_ERC721Token/contracts/NFTMarket.sol:NFTMarket",
						"label": "onSale",
						"offset": 0,
						"slot": "2",
						"type": "t_mapping(t_address,t_mapping(t_uint256,t_bool))"
					}
				],
				"types": {
					"t_address": {
						"encoding": "inplace",
						"label": "address",
						"numberOfBytes": "20"
					},
					"t_bool": {
						"encoding": "inplace",
						"label": "bool",
						"numberOfBytes": "1"
					},
					"t_mapping(t_address,t_mapping(t_uint256,t_bool))": {
						"encoding": "mapping",
						"key": "t_address",
						"label": "mapping(address => mapping(uint256 => bool))",
						"numberOfBytes": "32",
						"value": "t_mapping(t_uint256,t_bool)"
					},
					"t_mapping(t_address,t_mapping(t_uint256,t_uint256))": {
						"encoding": "mapping",
						"key": "t_address",
						"label": "mapping(address => mapping(uint256 => uint256))",
						"numberOfBytes": "32",
						"value": "t_mapping(t_uint256,t_uint256)"
					},
					"t_mapping(t_address,t_uint256)": {
						"encoding": "mapping",
						"key": "t_address",
						"label": "mapping(address => uint256)",
						"numberOfBytes": "32",
						"value": "t_uint256"
					},
					"t_mapping(t_uint256,t_bool)": {
						"encoding": "mapping",
						"key": "t_uint256",
						"label": "mapping(uint256 => bool)",
						"numberOfBytes": "32",
						"value": "t_bool"
					},
					"t_mapping(t_uint256,t_uint256)": {
						"encoding": "mapping",
						"key": "t_uint256",
						"label": "mapping(uint256 => uint256)",
						"numberOfBytes": "32",
						"value": "t_uint256"
					},
					"t_uint256": {
						"encoding": "inplace",
						"label": "uint256",
						"numberOfBytes": "32"
					}
				}
			},
			"userdoc": {
				"kind": "user",
				"methods": {},
				"version": 1
			}
		}
	}
}