{
	"data": {
		"bytecode": {
			"linkReferences": {},
			"object": "60e060405234801562000010575f80fd5b5060405162001de838038062001de88339818101604052810190620000369190620001be565b3360045f6101000a81548173ffffffffffffffffffffffffffffffffffffffff021916908373ffffffffffffffffffffffffffffffffffffffff1602179055503360045f6101000a81548173ffffffffffffffffffffffffffffffffffffffff021916908373ffffffffffffffffffffffffffffffffffffffff1602179055508073ffffffffffffffffffffffffffffffffffffffff1660808173ffffffffffffffffffffffffffffffffffffffff16815250508073ffffffffffffffffffffffffffffffffffffffff1660a08173ffffffffffffffffffffffffffffffffffffffff16815250508073ffffffffffffffffffffffffffffffffffffffff1660c08173ffffffffffffffffffffffffffffffffffffffff168152505050620001ee565b5f80fd5b5f73ffffffffffffffffffffffffffffffffffffffff82169050919050565b5f62000188826200015d565b9050919050565b6200019a816200017c565b8114620001a5575f80fd5b50565b5f81519050620001b8816200018f565b92915050565b5f60208284031215620001d657620001d562000159565b5b5f620001e584828501620001a8565b91505092915050565b60805160a05160c051611b9e6200024a5f395f818161064e0152818161071c01526108df01525f81816105ca01528181610612015281816108a3015261092201525f81816103490152818161039d01526105ee0152611b9e5ff3fe6080604052600436106100c5575f3560e01c80636215be771161007e578063b254b80a11610058578063b254b80a14610288578063ca628c78146102b4578063e086e5ec146102ca578063f6326fb3146102e0576100d4565b80636215be771461020c5780637251e8c2146102345780638da5cb5b1461025e576100d4565b806324a756d1146100d85780632b7e8faf146101145780633aecd0e3146101405780633bb66a7b1461017c5780634d3f3cf6146101b85780635fbe4d1d146101e2576100d4565b366100d4576100d26102ea565b005b5f80fd5b3480156100e3575f80fd5b506100fe60048036038101906100f9919061170b565b610346565b60405161010b9190611763565b60405180910390f35b34801561011f575f80fd5b5061012861048f565b6040516101379392919061178b565b60405180910390f35b34801561014b575f80fd5b50610166600480360381019061016191906117c0565b61053d565b60405161017391906117fa565b60405180910390f35b348015610187575f80fd5b506101a2600480360381019061019d91906117c0565b610583565b6040516101af91906117fa565b60405180910390f35b3480156101c3575f80fd5b506101cc6105c8565b6040516101d9919061186e565b60405180910390f35b3480156101ed575f80fd5b506101f66105ec565b6040516102039190611887565b60405180910390f35b348015610217575f80fd5b50610232600480360381019061022d91906118a0565b610610565b005b34801561023f575f80fd5b5061024861071a565b60405161025591906118eb565b60405180910390f35b348015610269575f80fd5b5061027261073e565b60405161027f9190611887565b60405180910390f35b348015610293575f80fd5b5061029c610763565b6040516102ab9392919061178b565b60405180910390f35b3480156102bf575f80fd5b506102c8610812565b005b3480156102d5575f80fd5b506102de610a05565b005b6102e86102ea565b005b345f803373ffffffffffffffffffffffffffffffffffffffff1673ffffffffffffffffffffffffffffffffffffffff1681526020019081526020015f205f8282546103359190611931565b92505081905550610344610afb565b565b5f7f000000000000000000000000000000000000000000000000000000000000000073ffffffffffffffffffffffffffffffffffffffff163373ffffffffffffffffffffffffffffffffffffffff16146103f957337f00000000000000000000000000000000000000000000000000000000000000006040517f093b7d340000000000000000000000000000000000000000000000000000000081526004016103f0929190611964565b60405180910390fd5b8160055f8573ffffffffffffffffffffffffffffffffffffffff1673ffffffffffffffffffffffffffffffffffffffff1681526020019081526020015f205f8282546104459190611931565b925050819055507fcae15051bbb38f81d4d2fb0eeba04c25ec7fc5e1ac9d89d6d68af8d3aab337dc838360405161047d92919061198b565b60405180910390a16001905092915050565b5f805f60015f600381106104a6576104a56119b2565b5b015f9054906101000a900473ffffffffffffffffffffffffffffffffffffffff16600180600381106104db576104da6119b2565b5b015f9054906101000a900473ffffffffffffffffffffffffffffffffffffffff166001600260038110610511576105106119b2565b5b015f9054906101000a900473ffffffffffffffffffffffffffffffffffffffff16925092509250909192565b5f60055f8373ffffffffffffffffffffffffffffffffffffffff1673ffffffffffffffffffffffffffffffffffffffff1681526020019081526020015f20549050919050565b5f805f8373ffffffffffffffffffffffffffffffffffffffff1673ffffffffffffffffffffffffffffffffffffffff1681526020019081526020015f20549050919050565b7f000000000000000000000000000000000000000000000000000000000000000081565b7f000000000000000000000000000000000000000000000000000000000000000081565b7f000000000000000000000000000000000000000000000000000000000000000073ffffffffffffffffffffffffffffffffffffffff1663d9fc4b617f00000000000000000000000000000000000000000000000000000000000000003330856040518563ffffffff1660e01b815260040161068f94939291906119df565b5f604051808303815f87803b1580156106a6575f80fd5b505af11580156106b8573d5f803e3d5ffd5b505050508060055f3373ffffffffffffffffffffffffffffffffffffffff1673ffffffffffffffffffffffffffffffffffffffff1681526020019081526020015f205f8282546107089190611931565b92505081905550610717611021565b50565b7f000000000000000000000000000000000000000000000000000000000000000081565b60045f9054906101000a900473ffffffffffffffffffffffffffffffffffffffff1681565b5f805f60065f6003811061077a576107796119b2565b5b015f9054906101000a900473ffffffffffffffffffffffffffffffffffffffff1660066001600381106107b0576107af6119b2565b5b015f9054906101000a900473ffffffffffffffffffffffffffffffffffffffff1660066002600381106107e6576107e56119b2565b5b015f9054906101000a900473ffffffffffffffffffffffffffffffffffffffff16925092509250909192565b60045f9054906101000a900473ffffffffffffffffffffffffffffffffffffffff1673ffffffffffffffffffffffffffffffffffffffff163373ffffffffffffffffffffffffffffffffffffffff16146108a1576040517f08c379a000000000000000000000000000000000000000000000000000000000815260040161089890611a7c565b60405180910390fd5b7f000000000000000000000000000000000000000000000000000000000000000073ffffffffffffffffffffffffffffffffffffffff1663d1660f997f000000000000000000000000000000000000000000000000000000000000000060045f9054906101000a900473ffffffffffffffffffffffffffffffffffffffff167f000000000000000000000000000000000000000000000000000000000000000073ffffffffffffffffffffffffffffffffffffffff166370a08231306040518263ffffffff1660e01b81526004016109799190611887565b602060405180830381865afa158015610994573d5f803e3d5ffd5b505050506040513d601f19601f820116820180604052508101906109b89190611aae565b6040518463ffffffff1660e01b81526004016109d693929190611ad9565b5f604051808303815f87803b1580156109ed575f80fd5b505af11580156109ff573d5f803e3d5ffd5b50505050565b60045f9054906101000a900473ffffffffffffffffffffffffffffffffffffffff1673ffffffffffffffffffffffffffffffffffffffff163373ffffffffffffffffffffffffffffffffffffffff1614610a94576040517f08c379a0000000000000000000000000000000000000000000000000000000008152600401610a8b90611a7c565b60405180910390fd5b60045f9054906101000a900473ffffffffffffffffffffffffffffffffffffffff1673ffffffffffffffffffffffffffffffffffffffff166108fc4790811502906040515f60405180830381858888f19350505050158015610af8573d5f803e3d5ffd5b50565b5f610b0461154e565b90505f8061030990506103e78314610dad57600483610b239190611931565b91505f600383610b339190611b0e565b90505b6001811115610da7575f8414610d94575f806001600284610b579190611b0e565b60038110610b6857610b676119b2565b5b015f9054906101000a900473ffffffffffffffffffffffffffffffffffffffff1673ffffffffffffffffffffffffffffffffffffffff1673ffffffffffffffffffffffffffffffffffffffff1681526020019081526020015f20545f803373ffffffffffffffffffffffffffffffffffffffff1673ffffffffffffffffffffffffffffffffffffffff1681526020019081526020015f20541115610d3557600281610c139190611b0e565b91505f600290505b600282610c289190611b0e565b811115610cd45760018082610c3d9190611b0e565b60038110610c4e57610c4d6119b2565b5b015f9054906101000a900473ffffffffffffffffffffffffffffffffffffffff1660018260038110610c8357610c826119b2565b5b015f6101000a81548173ffffffffffffffffffffffffffffffffffffffff021916908373ffffffffffffffffffffffffffffffffffffffff1602179055508080610ccc90611b41565b915050610c1b565b505f8203610d30573360018360038110610cf157610cf06119b2565b5b015f6101000a81548173ffffffffffffffffffffffffffffffffffffffff021916908373ffffffffffffffffffffffffffffffffffffffff1602179055505b610d93565b6103098214610d92573360018360038110610d5357610d526119b2565b5b015f6101000a81548173ffffffffffffffffffffffffffffffffffffffff021916908373ffffffffffffffffffffffffffffffffffffffff1602179055505b5b5b8080610d9f90611b41565b915050610b36565b5061101c565b5f600390505b5f81111561101a575f8060018084610dcb9190611b0e565b60038110610ddc57610ddb6119b2565b5b015f9054906101000a900473ffffffffffffffffffffffffffffffffffffffff1673ffffffffffffffffffffffffffffffffffffffff1673ffffffffffffffffffffffffffffffffffffffff1681526020019081526020015f20545f803373ffffffffffffffffffffffffffffffffffffffff1673ffffffffffffffffffffffffffffffffffffffff1681526020019081526020015f20541115610fa957600181610e879190611b0e565b91505f600290505b600182610e9c9190611b0e565b811115610f485760018082610eb19190611b0e565b60038110610ec257610ec16119b2565b5b015f9054906101000a900473ffffffffffffffffffffffffffffffffffffffff1660018260038110610ef757610ef66119b2565b5b015f6101000a81548173ffffffffffffffffffffffffffffffffffffffff021916908373ffffffffffffffffffffffffffffffffffffffff1602179055508080610f4090611b41565b915050610e8f565b505f8203610fa4573360018360038110610f6557610f646119b2565b5b015f6101000a81548173ffffffffffffffffffffffffffffffffffffffff021916908373ffffffffffffffffffffffffffffffffffffffff1602179055505b611007565b6103098214611006573360018360038110610fc757610fc66119b2565b5b015f6101000a81548173ffffffffffffffffffffffffffffffffffffffff021916908373ffffffffffffffffffffffffffffffffffffffff1602179055505b5b808061101290611b41565b915050610db3565b505b505050565b5f61102a6115e4565b90505f8061030990506103e783146112d6576004836110499190611931565b91505f6003836110599190611b0e565b90505b60018111156112d0575f84146112bd5760055f600660028461107e9190611b0e565b6003811061108f5761108e6119b2565b5b015f9054906101000a900473ffffffffffffffffffffffffffffffffffffffff1673ffffffffffffffffffffffffffffffffffffffff1673ffffffffffffffffffffffffffffffffffffffff1681526020019081526020015f205460055f3373ffffffffffffffffffffffffffffffffffffffff1673ffffffffffffffffffffffffffffffffffffffff1681526020019081526020015f2054111561125e5760028161113b9190611b0e565b91505f600290505b6002826111509190611b0e565b8111156111fd5760066001826111669190611b0e565b60038110611177576111766119b2565b5b015f9054906101000a900473ffffffffffffffffffffffffffffffffffffffff16600682600381106111ac576111ab6119b2565b5b015f6101000a81548173ffffffffffffffffffffffffffffffffffffffff021916908373ffffffffffffffffffffffffffffffffffffffff16021790555080806111f590611b41565b915050611143565b505f820361125957336006836003811061121a576112196119b2565b5b015f6101000a81548173ffffffffffffffffffffffffffffffffffffffff021916908373ffffffffffffffffffffffffffffffffffffffff1602179055505b6112bc565b61030982146112bb57336006836003811061127c5761127b6119b2565b5b015f6101000a81548173ffffffffffffffffffffffffffffffffffffffff021916908373ffffffffffffffffffffffffffffffffffffffff1602179055505b5b5b80806112c890611b41565b91505061105c565b50611549565b5f600390505b5f8111156115475760055f60066001846112f69190611b0e565b60038110611307576113066119b2565b5b015f9054906101000a900473ffffffffffffffffffffffffffffffffffffffff1673ffffffffffffffffffffffffffffffffffffffff1673ffffffffffffffffffffffffffffffffffffffff1681526020019081526020015f205460055f3373ffffffffffffffffffffffffffffffffffffffff1673ffffffffffffffffffffffffffffffffffffffff1681526020019081526020015f205411156114d6576001816113b39190611b0e565b91505f600290505b6001826113c89190611b0e565b8111156114755760066001826113de9190611b0e565b600381106113ef576113ee6119b2565b5b015f9054906101000a900473ffffffffffffffffffffffffffffffffffffffff1660068260038110611424576114236119b2565b5b015f6101000a81548173ffffffffffffffffffffffffffffffffffffffff021916908373ffffffffffffffffffffffffffffffffffffffff160217905550808061146d90611b41565b9150506113bb565b505f82036114d1573360068360038110611492576114916119b2565b5b015f6101000a81548173ffffffffffffffffffffffffffffffffffffffff021916908373ffffffffffffffffffffffffffffffffffffffff1602179055505b611534565b61030982146115335733600683600381106114f4576114f36119b2565b5b015f6101000a81548173ffffffffffffffffffffffffffffffffffffffff021916908373ffffffffffffffffffffffffffffffffffffffff1602179055505b5b808061153f90611b41565b9150506112dc565b505b505050565b5f806103e790505f5b60038110156115dc573373ffffffffffffffffffffffffffffffffffffffff166001826003811061158b5761158a6119b2565b5b015f9054906101000a900473ffffffffffffffffffffffffffffffffffffffff1673ffffffffffffffffffffffffffffffffffffffff16036115cf578091506115dc565b8080600101915050611557565b508091505090565b5f806103e790505f5b6003811015611672573373ffffffffffffffffffffffffffffffffffffffff1660068260038110611621576116206119b2565b5b015f9054906101000a900473ffffffffffffffffffffffffffffffffffffffff1673ffffffffffffffffffffffffffffffffffffffff160361166557809150611672565b80806001019150506115ed565b508091505090565b5f80fd5b5f73ffffffffffffffffffffffffffffffffffffffff82169050919050565b5f6116a78261167e565b9050919050565b6116b78161169d565b81146116c1575f80fd5b50565b5f813590506116d2816116ae565b92915050565b5f819050919050565b6116ea816116d8565b81146116f4575f80fd5b50565b5f81359050611705816116e1565b92915050565b5f80604083850312156117215761172061167a565b5b5f61172e858286016116c4565b925050602061173f858286016116f7565b9150509250929050565b5f8115159050919050565b61175d81611749565b82525050565b5f6020820190506117765f830184611754565b92915050565b6117858161169d565b82525050565b5f60608201905061179e5f83018661177c565b6117ab602083018561177c565b6117b8604083018461177c565b949350505050565b5f602082840312156117d5576117d461167a565b5b5f6117e2848285016116c4565b91505092915050565b6117f4816116d8565b82525050565b5f60208201905061180d5f8301846117eb565b92915050565b5f819050919050565b5f61183661183161182c8461167e565b611813565b61167e565b9050919050565b5f6118478261181c565b9050919050565b5f6118588261183d565b9050919050565b6118688161184e565b82525050565b5f6020820190506118815f83018461185f565b92915050565b5f60208201905061189a5f83018461177c565b92915050565b5f602082840312156118b5576118b461167a565b5b5f6118c2848285016116f7565b91505092915050565b5f6118d58261183d565b9050919050565b6118e5816118cb565b82525050565b5f6020820190506118fe5f8301846118dc565b92915050565b7f4e487b71000000000000000000000000000000000000000000000000000000005f52601160045260245ffd5b5f61193b826116d8565b9150611946836116d8565b925082820190508082111561195e5761195d611904565b5b92915050565b5f6040820190506119775f83018561177c565b611984602083018461177c565b9392505050565b5f60408201905061199e5f83018561177c565b6119ab60208301846117eb565b9392505050565b7f4e487b71000000000000000000000000000000000000000000000000000000005f52603260045260245ffd5b5f6080820190506119f25f8301876118dc565b6119ff602083018661177c565b611a0c604083018561177c565b611a1960608301846117eb565b95945050505050565b5f82825260208201905092915050565b7f4f6e6c79206f776e65722063616e2063616c6c000000000000000000000000005f82015250565b5f611a66601383611a22565b9150611a7182611a32565b602082019050919050565b5f6020820190508181035f830152611a9381611a5a565b9050919050565b5f81519050611aa8816116e1565b92915050565b5f60208284031215611ac357611ac261167a565b5b5f611ad084828501611a9a565b91505092915050565b5f606082019050611aec5f8301866118dc565b611af9602083018561177c565b611b0660408301846117eb565b949350505050565b5f611b18826116d8565b9150611b23836116d8565b9250828203905081811115611b3b57611b3a611904565b5b92915050565b5f611b4b826116d8565b91505f8203611b5d57611b5c611904565b5b60018203905091905056fea2646970667358221220460bf08a877b9e2ca706a669fbf85613faf97b71a7d79083c35d7c5cac5d3ef264736f6c63430008160033",
			"opcodes": "PUSH1 0xE0 PUSH1 0x40 MSTORE CALLVALUE DUP1 ISZERO PUSH3 0x10 JUMPI PUSH0 DUP1 REVERT JUMPDEST POP PUSH1 0x40 MLOAD PUSH3 0x1DE8 CODESIZE SUB DUP1 PUSH3 0x1DE8 DUP4 CODECOPY DUP2 DUP2 ADD PUSH1 0x40 MSTORE DUP2 ADD SWAP1 PUSH3 0x36 SWAP2 SWAP1 PUSH3 0x1BE JUMP JUMPDEST CALLER PUSH1 0x4 PUSH0 PUSH2 0x100 EXP DUP2 SLOAD DUP2 PUSH20 0xFFFFFFFFFFFFFFFFFFFFFFFFFFFFFFFFFFFFFFFF MUL NOT AND SWAP1 DUP4 PUSH20 0xFFFFFFFFFFFFFFFFFFFFFFFFFFFFFFFFFFFFFFFF AND MUL OR SWAP1 SSTORE POP CALLER PUSH1 0x4 PUSH0 PUSH2 0x100 EXP DUP2 SLOAD DUP2 PUSH20 0xFFFFFFFFFFFFFFFFFFFFFFFFFFFFFFFFFFFFFFFF MUL NOT AND SWAP1 DUP4 PUSH20 0xFFFFFFFFFFFFFFFFFFFFFFFFFFFFFFFFFFFFFFFF AND MUL OR SWAP1 SSTORE POP DUP1 PUSH20 0xFFFFFFFFFFFFFFFFFFFFFFFFFFFFFFFFFFFFFFFF AND PUSH1 0x80 DUP2 PUSH20 0xFFFFFFFFFFFFFFFFFFFFFFFFFFFFFFFFFFFFFFFF AND DUP2 MSTORE POP POP DUP1 PUSH20 0xFFFFFFFFFFFFFFFFFFFFFFFFFFFFFFFFFFFFFFFF AND PUSH1 0xA0 DUP2 PUSH20 0xFFFFFFFFFFFFFFFFFFFFFFFFFFFFFFFFFFFFFFFF AND DUP2 MSTORE POP POP DUP1 PUSH20 0xFFFFFFFFFFFFFFFFFFFFFFFFFFFFFFFFFFFFFFFF AND PUSH1 0xC0 DUP2 PUSH20 0xFFFFFFFFFFFFFFFFFFFFFFFFFFFFFFFFFFFFFFFF AND DUP2 MSTORE POP POP POP PUSH3 0x1EE JUMP JUMPDEST PUSH0 DUP1 REVERT JUMPDEST PUSH0 PUSH20 0xFFFFFFFFFFFFFFFFFFFFFFFFFFFFFFFFFFFFFFFF DUP3 AND SWAP1 POP SWAP2 SWAP1 POP JUMP JUMPDEST PUSH0 PUSH3 0x188 DUP3 PUSH3 0x15D JUMP JUMPDEST SWAP1 POP SWAP2 SWAP1 POP JUMP JUMPDEST PUSH3 0x19A DUP2 PUSH3 0x17C JUMP JUMPDEST DUP2 EQ PUSH3 0x1A5 JUMPI PUSH0 DUP1 REVERT JUMPDEST POP JUMP JUMPDEST PUSH0 DUP2 MLOAD SWAP1 POP PUSH3 0x1B8 DUP2 PUSH3 0x18F JUMP JUMPDEST SWAP3 SWAP2 POP POP JUMP JUMPDEST PUSH0 PUSH1 0x20 DUP3 DUP5 SUB SLT ISZERO PUSH3 0x1D6 JUMPI PUSH3 0x1D5 PUSH3 0x159 JUMP JUMPDEST JUMPDEST PUSH0 PUSH3 0x1E5 DUP5 DUP3 DUP6 ADD PUSH3 0x1A8 JUMP JUMPDEST SWAP2 POP POP SWAP3 SWAP2 POP POP JUMP JUMPDEST PUSH1 0x80 MLOAD PUSH1 0xA0 MLOAD PUSH1 0xC0 MLOAD PUSH2 0x1B9E PUSH3 0x24A PUSH0 CODECOPY PUSH0 DUP2 DUP2 PUSH2 0x64E ADD MSTORE DUP2 DUP2 PUSH2 0x71C ADD MSTORE PUSH2 0x8DF ADD MSTORE PUSH0 DUP2 DUP2 PUSH2 0x5CA ADD MSTORE DUP2 DUP2 PUSH2 0x612 ADD MSTORE DUP2 DUP2 PUSH2 0x8A3 ADD MSTORE PUSH2 0x922 ADD MSTORE PUSH0 DUP2 DUP2 PUSH2 0x349 ADD MSTORE DUP2 DUP2 PUSH2 0x39D ADD MSTORE PUSH2 0x5EE ADD MSTORE PUSH2 0x1B9E PUSH0 RETURN INVALID PUSH1 0x80 PUSH1 0x40 MSTORE PUSH1 0x4 CALLDATASIZE LT PUSH2 0xC5 JUMPI PUSH0 CALLDATALOAD PUSH1 0xE0 SHR DUP1 PUSH4 0x6215BE77 GT PUSH2 0x7E JUMPI DUP1 PUSH4 0xB254B80A GT PUSH2 0x58 JUMPI DUP1 PUSH4 0xB254B80A EQ PUSH2 0x288 JUMPI DUP1 PUSH4 0xCA628C78 EQ PUSH2 0x2B4 JUMPI DUP1 PUSH4 0xE086E5EC EQ PUSH2 0x2CA JUMPI DUP1 PUSH4 0xF6326FB3 EQ PUSH2 0x2E0 JUMPI PUSH2 0xD4 JUMP JUMPDEST DUP1 PUSH4 0x6215BE77 EQ PUSH2 0x20C JUMPI DUP1 PUSH4 0x7251E8C2 EQ PUSH2 0x234 JUMPI DUP1 PUSH4 0x8DA5CB5B EQ PUSH2 0x25E JUMPI PUSH2 0xD4 JUMP JUMPDEST DUP1 PUSH4 0x24A756D1 EQ PUSH2 0xD8 JUMPI DUP1 PUSH4 0x2B7E8FAF EQ PUSH2 0x114 JUMPI DUP1 PUSH4 0x3AECD0E3 EQ PUSH2 0x140 JUMPI DUP1 PUSH4 0x3BB66A7B EQ PUSH2 0x17C JUMPI DUP1 PUSH4 0x4D3F3CF6 EQ PUSH2 0x1B8 JUMPI DUP1 PUSH4 0x5FBE4D1D EQ PUSH2 0x1E2 JUMPI PUSH2 0xD4 JUMP JUMPDEST CALLDATASIZE PUSH2 0xD4 JUMPI PUSH2 0xD2 PUSH2 0x2EA JUMP JUMPDEST STOP JUMPDEST PUSH0 DUP1 REVERT JUMPDEST CALLVALUE DUP1 ISZERO PUSH2 0xE3 JUMPI PUSH0 DUP1 REVERT JUMPDEST POP PUSH2 0xFE PUSH1 0x4 DUP1 CALLDATASIZE SUB DUP2 ADD SWAP1 PUSH2 0xF9 SWAP2 SWAP1 PUSH2 0x170B JUMP JUMPDEST PUSH2 0x346 JUMP JUMPDEST PUSH1 0x40 MLOAD PUSH2 0x10B SWAP2 SWAP1 PUSH2 0x1763 JUMP JUMPDEST PUSH1 0x40 MLOAD DUP1 SWAP2 SUB SWAP1 RETURN JUMPDEST CALLVALUE DUP1 ISZERO PUSH2 0x11F JUMPI PUSH0 DUP1 REVERT JUMPDEST POP PUSH2 0x128 PUSH2 0x48F JUMP JUMPDEST PUSH1 0x40 MLOAD PUSH2 0x137 SWAP4 SWAP3 SWAP2 SWAP1 PUSH2 0x178B JUMP JUMPDEST PUSH1 0x40 MLOAD DUP1 SWAP2 SUB SWAP1 RETURN JUMPDEST CALLVALUE DUP1 ISZERO PUSH2 0x14B JUMPI PUSH0 DUP1 REVERT JUMPDEST POP PUSH2 0x166 PUSH1 0x4 DUP1 CALLDATASIZE SUB DUP2 ADD SWAP1 PUSH2 0x161 SWAP2 SWAP1 PUSH2 0x17C0 JUMP JUMPDEST PUSH2 0x53D JUMP JUMPDEST PUSH1 0x40 MLOAD PUSH2 0x173 SWAP2 SWAP1 PUSH2 0x17FA JUMP JUMPDEST PUSH1 0x40 MLOAD DUP1 SWAP2 SUB SWAP1 RETURN JUMPDEST CALLVALUE DUP1 ISZERO PUSH2 0x187 JUMPI PUSH0 DUP1 REVERT JUMPDEST POP PUSH2 0x1A2 PUSH1 0x4 DUP1 CALLDATASIZE SUB DUP2 ADD SWAP1 PUSH2 0x19D SWAP2 SWAP1 PUSH2 0x17C0 JUMP JUMPDEST PUSH2 0x583 JUMP JUMPDEST PUSH1 0x40 MLOAD PUSH2 0x1AF SWAP2 SWAP1 PUSH2 0x17FA JUMP JUMPDEST PUSH1 0x40 MLOAD DUP1 SWAP2 SUB SWAP1 RETURN JUMPDEST CALLVALUE DUP1 ISZERO PUSH2 0x1C3 JUMPI PUSH0 DUP1 REVERT JUMPDEST POP PUSH2 0x1CC PUSH2 0x5C8 JUMP JUMPDEST PUSH1 0x40 MLOAD PUSH2 0x1D9 SWAP2 SWAP1 PUSH2 0x186E JUMP JUMPDEST PUSH1 0x40 MLOAD DUP1 SWAP2 SUB SWAP1 RETURN JUMPDEST CALLVALUE DUP1 ISZERO PUSH2 0x1ED JUMPI PUSH0 DUP1 REVERT JUMPDEST POP PUSH2 0x1F6 PUSH2 0x5EC JUMP JUMPDEST PUSH1 0x40 MLOAD PUSH2 0x203 SWAP2 SWAP1 PUSH2 0x1887 JUMP JUMPDEST PUSH1 0x40 MLOAD DUP1 SWAP2 SUB SWAP1 RETURN JUMPDEST CALLVALUE DUP1 ISZERO PUSH2 0x217 JUMPI PUSH0 DUP1 REVERT JUMPDEST POP PUSH2 0x232 PUSH1 0x4 DUP1 CALLDATASIZE SUB DUP2 ADD SWAP1 PUSH2 0x22D SWAP2 SWAP1 PUSH2 0x18A0 JUMP JUMPDEST PUSH2 0x610 JUMP JUMPDEST STOP JUMPDEST CALLVALUE DUP1 ISZERO PUSH2 0x23F JUMPI PUSH0 DUP1 REVERT JUMPDEST POP PUSH2 0x248 PUSH2 0x71A JUMP JUMPDEST PUSH1 0x40 MLOAD PUSH2 0x255 SWAP2 SWAP1 PUSH2 0x18EB JUMP JUMPDEST PUSH1 0x40 MLOAD DUP1 SWAP2 SUB SWAP1 RETURN JUMPDEST CALLVALUE DUP1 ISZERO PUSH2 0x269 JUMPI PUSH0 DUP1 REVERT JUMPDEST POP PUSH2 0x272 PUSH2 0x73E JUMP JUMPDEST PUSH1 0x40 MLOAD PUSH2 0x27F SWAP2 SWAP1 PUSH2 0x1887 JUMP JUMPDEST PUSH1 0x40 MLOAD DUP1 SWAP2 SUB SWAP1 RETURN JUMPDEST CALLVALUE DUP1 ISZERO PUSH2 0x293 JUMPI PUSH0 DUP1 REVERT JUMPDEST POP PUSH2 0x29C PUSH2 0x763 JUMP JUMPDEST PUSH1 0x40 MLOAD PUSH2 0x2AB SWAP4 SWAP3 SWAP2 SWAP1 PUSH2 0x178B JUMP JUMPDEST PUSH1 0x40 MLOAD DUP1 SWAP2 SUB SWAP1 RETURN JUMPDEST CALLVALUE DUP1 ISZERO PUSH2 0x2BF JUMPI PUSH0 DUP1 REVERT JUMPDEST POP PUSH2 0x2C8 PUSH2 0x812 JUMP JUMPDEST STOP JUMPDEST CALLVALUE DUP1 ISZERO PUSH2 0x2D5 JUMPI PUSH0 DUP1 REVERT JUMPDEST POP PUSH2 0x2DE PUSH2 0xA05 JUMP JUMPDEST STOP JUMPDEST PUSH2 0x2E8 PUSH2 0x2EA JUMP JUMPDEST STOP JUMPDEST CALLVALUE PUSH0 DUP1 CALLER PUSH20 0xFFFFFFFFFFFFFFFFFFFFFFFFFFFFFFFFFFFFFFFF AND PUSH20 0xFFFFFFFFFFFFFFFFFFFFFFFFFFFFFFFFFFFFFFFF AND DUP2 MSTORE PUSH1 0x20 ADD SWAP1 DUP2 MSTORE PUSH1 0x20 ADD PUSH0 KECCAK256 PUSH0 DUP3 DUP3 SLOAD PUSH2 0x335 SWAP2 SWAP1 PUSH2 0x1931 JUMP JUMPDEST SWAP3 POP POP DUP2 SWAP1 SSTORE POP PUSH2 0x344 PUSH2 0xAFB JUMP JUMPDEST JUMP JUMPDEST PUSH0 PUSH32 0x0 PUSH20 0xFFFFFFFFFFFFFFFFFFFFFFFFFFFFFFFFFFFFFFFF AND CALLER PUSH20 0xFFFFFFFFFFFFFFFFFFFFFFFFFFFFFFFFFFFFFFFF AND EQ PUSH2 0x3F9 JUMPI CALLER PUSH32 0x0 PUSH1 0x40 MLOAD PUSH32 0x93B7D3400000000000000000000000000000000000000000000000000000000 DUP2 MSTORE PUSH1 0x4 ADD PUSH2 0x3F0 SWAP3 SWAP2 SWAP1 PUSH2 0x1964 JUMP JUMPDEST PUSH1 0x40 MLOAD DUP1 SWAP2 SUB SWAP1 REVERT JUMPDEST DUP2 PUSH1 0x5 PUSH0 DUP6 PUSH20 0xFFFFFFFFFFFFFFFFFFFFFFFFFFFFFFFFFFFFFFFF AND PUSH20 0xFFFFFFFFFFFFFFFFFFFFFFFFFFFFFFFFFFFFFFFF AND DUP2 MSTORE PUSH1 0x20 ADD SWAP1 DUP2 MSTORE PUSH1 0x20 ADD PUSH0 KECCAK256 PUSH0 DUP3 DUP3 SLOAD PUSH2 0x445 SWAP2 SWAP1 PUSH2 0x1931 JUMP JUMPDEST SWAP3 POP POP DUP2 SWAP1 SSTORE POP PUSH32 0xCAE15051BBB38F81D4D2FB0EEBA04C25EC7FC5E1AC9D89D6D68AF8D3AAB337DC DUP4 DUP4 PUSH1 0x40 MLOAD PUSH2 0x47D SWAP3 SWAP2 SWAP1 PUSH2 0x198B JUMP JUMPDEST PUSH1 0x40 MLOAD DUP1 SWAP2 SUB SWAP1 LOG1 PUSH1 0x1 SWAP1 POP SWAP3 SWAP2 POP POP JUMP JUMPDEST PUSH0 DUP1 PUSH0 PUSH1 0x1 PUSH0 PUSH1 0x3 DUP2 LT PUSH2 0x4A6 JUMPI PUSH2 0x4A5 PUSH2 0x19B2 JUMP JUMPDEST JUMPDEST ADD PUSH0 SWAP1 SLOAD SWAP1 PUSH2 0x100 EXP SWAP1 DIV PUSH20 0xFFFFFFFFFFFFFFFFFFFFFFFFFFFFFFFFFFFFFFFF AND PUSH1 0x1 DUP1 PUSH1 0x3 DUP2 LT PUSH2 0x4DB JUMPI PUSH2 0x4DA PUSH2 0x19B2 JUMP JUMPDEST JUMPDEST ADD PUSH0 SWAP1 SLOAD SWAP1 PUSH2 0x100 EXP SWAP1 DIV PUSH20 0xFFFFFFFFFFFFFFFFFFFFFFFFFFFFFFFFFFFFFFFF AND PUSH1 0x1 PUSH1 0x2 PUSH1 0x3 DUP2 LT PUSH2 0x511 JUMPI PUSH2 0x510 PUSH2 0x19B2 JUMP JUMPDEST JUMPDEST ADD PUSH0 SWAP1 SLOAD SWAP1 PUSH2 0x100 EXP SWAP1 DIV PUSH20 0xFFFFFFFFFFFFFFFFFFFFFFFFFFFFFFFFFFFFFFFF AND SWAP3 POP SWAP3 POP SWAP3 POP SWAP1 SWAP2 SWAP3 JUMP JUMPDEST PUSH0 PUSH1 0x5 PUSH0 DUP4 PUSH20 0xFFFFFFFFFFFFFFFFFFFFFFFFFFFFFFFFFFFFFFFF AND PUSH20 0xFFFFFFFFFFFFFFFFFFFFFFFFFFFFFFFFFFFFFFFF AND DUP2 MSTORE PUSH1 0x20 ADD SWAP1 DUP2 MSTORE PUSH1 0x20 ADD PUSH0 KECCAK256 SLOAD SWAP1 POP SWAP2 SWAP1 POP JUMP JUMPDEST PUSH0 DUP1 PUSH0 DUP4 PUSH20 0xFFFFFFFFFFFFFFFFFFFFFFFFFFFFFFFFFFFFFFFF AND PUSH20 0xFFFFFFFFFFFFFFFFFFFFFFFFFFFFFFFFFFFFFFFF AND DUP2 MSTORE PUSH1 0x20 ADD SWAP1 DUP2 MSTORE PUSH1 0x20 ADD PUSH0 KECCAK256 SLOAD SWAP1 POP SWAP2 SWAP1 POP JUMP JUMPDEST PUSH32 0x0 DUP2 JUMP JUMPDEST PUSH32 0x0 DUP2 JUMP JUMPDEST PUSH32 0x0 PUSH20 0xFFFFFFFFFFFFFFFFFFFFFFFFFFFFFFFFFFFFFFFF AND PUSH4 0xD9FC4B61 PUSH32 0x0 CALLER ADDRESS DUP6 PUSH1 0x40 MLOAD DUP6 PUSH4 0xFFFFFFFF AND PUSH1 0xE0 SHL DUP2 MSTORE PUSH1 0x4 ADD PUSH2 0x68F SWAP5 SWAP4 SWAP3 SWAP2 SWAP1 PUSH2 0x19DF JUMP JUMPDEST PUSH0 PUSH1 0x40 MLOAD DUP1 DUP4 SUB DUP2 PUSH0 DUP8 DUP1 EXTCODESIZE ISZERO DUP1 ISZERO PUSH2 0x6A6 JUMPI PUSH0 DUP1 REVERT JUMPDEST POP GAS CALL ISZERO DUP1 ISZERO PUSH2 0x6B8 JUMPI RETURNDATASIZE PUSH0 DUP1 RETURNDATACOPY RETURNDATASIZE PUSH0 REVERT JUMPDEST POP POP POP POP DUP1 PUSH1 0x5 PUSH0 CALLER PUSH20 0xFFFFFFFFFFFFFFFFFFFFFFFFFFFFFFFFFFFFFFFF AND PUSH20 0xFFFFFFFFFFFFFFFFFFFFFFFFFFFFFFFFFFFFFFFF AND DUP2 MSTORE PUSH1 0x20 ADD SWAP1 DUP2 MSTORE PUSH1 0x20 ADD PUSH0 KECCAK256 PUSH0 DUP3 DUP3 SLOAD PUSH2 0x708 SWAP2 SWAP1 PUSH2 0x1931 JUMP JUMPDEST SWAP3 POP POP DUP2 SWAP1 SSTORE POP PUSH2 0x717 PUSH2 0x1021 JUMP JUMPDEST POP JUMP JUMPDEST PUSH32 0x0 DUP2 JUMP JUMPDEST PUSH1 0x4 PUSH0 SWAP1 SLOAD SWAP1 PUSH2 0x100 EXP SWAP1 DIV PUSH20 0xFFFFFFFFFFFFFFFFFFFFFFFFFFFFFFFFFFFFFFFF AND DUP2 JUMP JUMPDEST PUSH0 DUP1 PUSH0 PUSH1 0x6 PUSH0 PUSH1 0x3 DUP2 LT PUSH2 0x77A JUMPI PUSH2 0x779 PUSH2 0x19B2 JUMP JUMPDEST JUMPDEST ADD PUSH0 SWAP1 SLOAD SWAP1 PUSH2 0x100 EXP SWAP1 DIV PUSH20 0xFFFFFFFFFFFFFFFFFFFFFFFFFFFFFFFFFFFFFFFF AND PUSH1 0x6 PUSH1 0x1 PUSH1 0x3 DUP2 LT PUSH2 0x7B0 JUMPI PUSH2 0x7AF PUSH2 0x19B2 JUMP JUMPDEST JUMPDEST ADD PUSH0 SWAP1 SLOAD SWAP1 PUSH2 0x100 EXP SWAP1 DIV PUSH20 0xFFFFFFFFFFFFFFFFFFFFFFFFFFFFFFFFFFFFFFFF AND PUSH1 0x6 PUSH1 0x2 PUSH1 0x3 DUP2 LT PUSH2 0x7E6 JUMPI PUSH2 0x7E5 PUSH2 0x19B2 JUMP JUMPDEST JUMPDEST ADD PUSH0 SWAP1 SLOAD SWAP1 PUSH2 0x100 EXP SWAP1 DIV PUSH20 0xFFFFFFFFFFFFFFFFFFFFFFFFFFFFFFFFFFFFFFFF AND SWAP3 POP SWAP3 POP SWAP3 POP SWAP1 SWAP2 SWAP3 JUMP JUMPDEST PUSH1 0x4 PUSH0 SWAP1 SLOAD SWAP1 PUSH2 0x100 EXP SWAP1 DIV PUSH20 0xFFFFFFFFFFFFFFFFFFFFFFFFFFFFFFFFFFFFFFFF AND PUSH20 0xFFFFFFFFFFFFFFFFFFFFFFFFFFFFFFFFFFFFFFFF AND CALLER PUSH20 0xFFFFFFFFFFFFFFFFFFFFFFFFFFFFFFFFFFFFFFFF AND EQ PUSH2 0x8A1 JUMPI PUSH1 0x40 MLOAD PUSH32 0x8C379A000000000000000000000000000000000000000000000000000000000 DUP2 MSTORE PUSH1 0x4 ADD PUSH2 0x898 SWAP1 PUSH2 0x1A7C JUMP JUMPDEST PUSH1 0x40 MLOAD DUP1 SWAP2 SUB SWAP1 REVERT JUMPDEST PUSH32 0x0 PUSH20 0xFFFFFFFFFFFFFFFFFFFFFFFFFFFFFFFFFFFFFFFF AND PUSH4 0xD1660F99 PUSH32 0x0 PUSH1 0x4 PUSH0 SWAP1 SLOAD SWAP1 PUSH2 0x100 EXP SWAP1 DIV PUSH20 0xFFFFFFFFFFFFFFFFFFFFFFFFFFFFFFFFFFFFFFFF AND PUSH32 0x0 PUSH20 0xFFFFFFFFFFFFFFFFFFFFFFFFFFFFFFFFFFFFFFFF AND PUSH4 0x70A08231 ADDRESS PUSH1 0x40 MLOAD DUP3 PUSH4 0xFFFFFFFF AND PUSH1 0xE0 SHL DUP2 MSTORE PUSH1 0x4 ADD PUSH2 0x979 SWAP2 SWAP1 PUSH2 0x1887 JUMP JUMPDEST PUSH1 0x20 PUSH1 0x40 MLOAD DUP1 DUP4 SUB DUP2 DUP7 GAS STATICCALL ISZERO DUP1 ISZERO PUSH2 0x994 JUMPI RETURNDATASIZE PUSH0 DUP1 RETURNDATACOPY RETURNDATASIZE PUSH0 REVERT JUMPDEST POP POP POP POP PUSH1 0x40 MLOAD RETURNDATASIZE PUSH1 0x1F NOT PUSH1 0x1F DUP3 ADD AND DUP3 ADD DUP1 PUSH1 0x40 MSTORE POP DUP2 ADD SWAP1 PUSH2 0x9B8 SWAP2 SWAP1 PUSH2 0x1AAE JUMP JUMPDEST PUSH1 0x40 MLOAD DUP5 PUSH4 0xFFFFFFFF AND PUSH1 0xE0 SHL DUP2 MSTORE PUSH1 0x4 ADD PUSH2 0x9D6 SWAP4 SWAP3 SWAP2 SWAP1 PUSH2 0x1AD9 JUMP JUMPDEST PUSH0 PUSH1 0x40 MLOAD DUP1 DUP4 SUB DUP2 PUSH0 DUP8 DUP1 EXTCODESIZE ISZERO DUP1 ISZERO PUSH2 0x9ED JUMPI PUSH0 DUP1 REVERT JUMPDEST POP GAS CALL ISZERO DUP1 ISZERO PUSH2 0x9FF JUMPI RETURNDATASIZE PUSH0 DUP1 RETURNDATACOPY RETURNDATASIZE PUSH0 REVERT JUMPDEST POP POP POP POP JUMP JUMPDEST PUSH1 0x4 PUSH0 SWAP1 SLOAD SWAP1 PUSH2 0x100 EXP SWAP1 DIV PUSH20 0xFFFFFFFFFFFFFFFFFFFFFFFFFFFFFFFFFFFFFFFF AND PUSH20 0xFFFFFFFFFFFFFFFFFFFFFFFFFFFFFFFFFFFFFFFF AND CALLER PUSH20 0xFFFFFFFFFFFFFFFFFFFFFFFFFFFFFFFFFFFFFFFF AND EQ PUSH2 0xA94 JUMPI PUSH1 0x40 MLOAD PUSH32 0x8C379A000000000000000000000000000000000000000000000000000000000 DUP2 MSTORE PUSH1 0x4 ADD PUSH2 0xA8B SWAP1 PUSH2 0x1A7C JUMP JUMPDEST PUSH1 0x40 MLOAD DUP1 SWAP2 SUB SWAP1 REVERT JUMPDEST PUSH1 0x4 PUSH0 SWAP1 SLOAD SWAP1 PUSH2 0x100 EXP SWAP1 DIV PUSH20 0xFFFFFFFFFFFFFFFFFFFFFFFFFFFFFFFFFFFFFFFF AND PUSH20 0xFFFFFFFFFFFFFFFFFFFFFFFFFFFFFFFFFFFFFFFF AND PUSH2 0x8FC SELFBALANCE SWAP1 DUP2 ISZERO MUL SWAP1 PUSH1 0x40 MLOAD PUSH0 PUSH1 0x40 MLOAD DUP1 DUP4 SUB DUP2 DUP6 DUP9 DUP9 CALL SWAP4 POP POP POP POP ISZERO DUP1 ISZERO PUSH2 0xAF8 JUMPI RETURNDATASIZE PUSH0 DUP1 RETURNDATACOPY RETURNDATASIZE PUSH0 REVERT JUMPDEST POP JUMP JUMPDEST PUSH0 PUSH2 0xB04 PUSH2 0x154E JUMP JUMPDEST SWAP1 POP PUSH0 DUP1 PUSH2 0x309 SWAP1 POP PUSH2 0x3E7 DUP4 EQ PUSH2 0xDAD JUMPI PUSH1 0x4 DUP4 PUSH2 0xB23 SWAP2 SWAP1 PUSH2 0x1931 JUMP JUMPDEST SWAP2 POP PUSH0 PUSH1 0x3 DUP4 PUSH2 0xB33 SWAP2 SWAP1 PUSH2 0x1B0E JUMP JUMPDEST SWAP1 POP JUMPDEST PUSH1 0x1 DUP2 GT ISZERO PUSH2 0xDA7 JUMPI PUSH0 DUP5 EQ PUSH2 0xD94 JUMPI PUSH0 DUP1 PUSH1 0x1 PUSH1 0x2 DUP5 PUSH2 0xB57 SWAP2 SWAP1 PUSH2 0x1B0E JUMP JUMPDEST PUSH1 0x3 DUP2 LT PUSH2 0xB68 JUMPI PUSH2 0xB67 PUSH2 0x19B2 JUMP JUMPDEST JUMPDEST ADD PUSH0 SWAP1 SLOAD SWAP1 PUSH2 0x100 EXP SWAP1 DIV PUSH20 0xFFFFFFFFFFFFFFFFFFFFFFFFFFFFFFFFFFFFFFFF AND PUSH20 0xFFFFFFFFFFFFFFFFFFFFFFFFFFFFFFFFFFFFFFFF AND PUSH20 0xFFFFFFFFFFFFFFFFFFFFFFFFFFFFFFFFFFFFFFFF AND DUP2 MSTORE PUSH1 0x20 ADD SWAP1 DUP2 MSTORE PUSH1 0x20 ADD PUSH0 KECCAK256 SLOAD PUSH0 DUP1 CALLER PUSH20 0xFFFFFFFFFFFFFFFFFFFFFFFFFFFFFFFFFFFFFFFF AND PUSH20 0xFFFFFFFFFFFFFFFFFFFFFFFFFFFFFFFFFFFFFFFF AND DUP2 MSTORE PUSH1 0x20 ADD SWAP1 DUP2 MSTORE PUSH1 0x20 ADD PUSH0 KECCAK256 SLOAD GT ISZERO PUSH2 0xD35 JUMPI PUSH1 0x2 DUP2 PUSH2 0xC13 SWAP2 SWAP1 PUSH2 0x1B0E JUMP JUMPDEST SWAP2 POP PUSH0 PUSH1 0x2 SWAP1 POP JUMPDEST PUSH1 0x2 DUP3 PUSH2 0xC28 SWAP2 SWAP1 PUSH2 0x1B0E JUMP JUMPDEST DUP2 GT ISZERO PUSH2 0xCD4 JUMPI PUSH1 0x1 DUP1 DUP3 PUSH2 0xC3D SWAP2 SWAP1 PUSH2 0x1B0E JUMP JUMPDEST PUSH1 0x3 DUP2 LT PUSH2 0xC4E JUMPI PUSH2 0xC4D PUSH2 0x19B2 JUMP JUMPDEST JUMPDEST ADD PUSH0 SWAP1 SLOAD SWAP1 PUSH2 0x100 EXP SWAP1 DIV PUSH20 0xFFFFFFFFFFFFFFFFFFFFFFFFFFFFFFFFFFFFFFFF AND PUSH1 0x1 DUP3 PUSH1 0x3 DUP2 LT PUSH2 0xC83 JUMPI PUSH2 0xC82 PUSH2 0x19B2 JUMP JUMPDEST JUMPDEST ADD PUSH0 PUSH2 0x100 EXP DUP2 SLOAD DUP2 PUSH20 0xFFFFFFFFFFFFFFFFFFFFFFFFFFFFFFFFFFFFFFFF MUL NOT AND SWAP1 DUP4 PUSH20 0xFFFFFFFFFFFFFFFFFFFFFFFFFFFFFFFFFFFFFFFF AND MUL OR SWAP1 SSTORE POP DUP1 DUP1 PUSH2 0xCCC SWAP1 PUSH2 0x1B41 JUMP JUMPDEST SWAP2 POP POP PUSH2 0xC1B JUMP JUMPDEST POP PUSH0 DUP3 SUB PUSH2 0xD30 JUMPI CALLER PUSH1 0x1 DUP4 PUSH1 0x3 DUP2 LT PUSH2 0xCF1 JUMPI PUSH2 0xCF0 PUSH2 0x19B2 JUMP JUMPDEST JUMPDEST ADD PUSH0 PUSH2 0x100 EXP DUP2 SLOAD DUP2 PUSH20 0xFFFFFFFFFFFFFFFFFFFFFFFFFFFFFFFFFFFFFFFF MUL NOT AND SWAP1 DUP4 PUSH20 0xFFFFFFFFFFFFFFFFFFFFFFFFFFFFFFFFFFFFFFFF AND MUL OR SWAP1 SSTORE POP JUMPDEST PUSH2 0xD93 JUMP JUMPDEST PUSH2 0x309 DUP3 EQ PUSH2 0xD92 JUMPI CALLER PUSH1 0x1 DUP4 PUSH1 0x3 DUP2 LT PUSH2 0xD53 JUMPI PUSH2 0xD52 PUSH2 0x19B2 JUMP JUMPDEST JUMPDEST ADD PUSH0 PUSH2 0x100 EXP DUP2 SLOAD DUP2 PUSH20 0xFFFFFFFFFFFFFFFFFFFFFFFFFFFFFFFFFFFFFFFF MUL NOT AND SWAP1 DUP4 PUSH20 0xFFFFFFFFFFFFFFFFFFFFFFFFFFFFFFFFFFFFFFFF AND MUL OR SWAP1 SSTORE POP JUMPDEST JUMPDEST JUMPDEST DUP1 DUP1 PUSH2 0xD9F SWAP1 PUSH2 0x1B41 JUMP JUMPDEST SWAP2 POP POP PUSH2 0xB36 JUMP JUMPDEST POP PUSH2 0x101C JUMP JUMPDEST PUSH0 PUSH1 0x3 SWAP1 POP JUMPDEST PUSH0 DUP2 GT ISZERO PUSH2 0x101A JUMPI PUSH0 DUP1 PUSH1 0x1 DUP1 DUP5 PUSH2 0xDCB SWAP2 SWAP1 PUSH2 0x1B0E JUMP JUMPDEST PUSH1 0x3 DUP2 LT PUSH2 0xDDC JUMPI PUSH2 0xDDB PUSH2 0x19B2 JUMP JUMPDEST JUMPDEST ADD PUSH0 SWAP1 SLOAD SWAP1 PUSH2 0x100 EXP SWAP1 DIV PUSH20 0xFFFFFFFFFFFFFFFFFFFFFFFFFFFFFFFFFFFFFFFF AND PUSH20 0xFFFFFFFFFFFFFFFFFFFFFFFFFFFFFFFFFFFFFFFF AND PUSH20 0xFFFFFFFFFFFFFFFFFFFFFFFFFFFFFFFFFFFFFFFF AND DUP2 MSTORE PUSH1 0x20 ADD SWAP1 DUP2 MSTORE PUSH1 0x20 ADD PUSH0 KECCAK256 SLOAD PUSH0 DUP1 CALLER PUSH20 0xFFFFFFFFFFFFFFFFFFFFFFFFFFFFFFFFFFFFFFFF AND PUSH20 0xFFFFFFFFFFFFFFFFFFFFFFFFFFFFFFFFFFFFFFFF AND DUP2 MSTORE PUSH1 0x20 ADD SWAP1 DUP2 MSTORE PUSH1 0x20 ADD PUSH0 KECCAK256 SLOAD GT ISZERO PUSH2 0xFA9 JUMPI PUSH1 0x1 DUP2 PUSH2 0xE87 SWAP2 SWAP1 PUSH2 0x1B0E JUMP JUMPDEST SWAP2 POP PUSH0 PUSH1 0x2 SWAP1 POP JUMPDEST PUSH1 0x1 DUP3 PUSH2 0xE9C SWAP2 SWAP1 PUSH2 0x1B0E JUMP JUMPDEST DUP2 GT ISZERO PUSH2 0xF48 JUMPI PUSH1 0x1 DUP1 DUP3 PUSH2 0xEB1 SWAP2 SWAP1 PUSH2 0x1B0E JUMP JUMPDEST PUSH1 0x3 DUP2 LT PUSH2 0xEC2 JUMPI PUSH2 0xEC1 PUSH2 0x19B2 JUMP JUMPDEST JUMPDEST ADD PUSH0 SWAP1 SLOAD SWAP1 PUSH2 0x100 EXP SWAP1 DIV PUSH20 0xFFFFFFFFFFFFFFFFFFFFFFFFFFFFFFFFFFFFFFFF AND PUSH1 0x1 DUP3 PUSH1 0x3 DUP2 LT PUSH2 0xEF7 JUMPI PUSH2 0xEF6 PUSH2 0x19B2 JUMP JUMPDEST JUMPDEST ADD PUSH0 PUSH2 0x100 EXP DUP2 SLOAD DUP2 PUSH20 0xFFFFFFFFFFFFFFFFFFFFFFFFFFFFFFFFFFFFFFFF MUL NOT AND SWAP1 DUP4 PUSH20 0xFFFFFFFFFFFFFFFFFFFFFFFFFFFFFFFFFFFFFFFF AND MUL OR SWAP1 SSTORE POP DUP1 DUP1 PUSH2 0xF40 SWAP1 PUSH2 0x1B41 JUMP JUMPDEST SWAP2 POP POP PUSH2 0xE8F JUMP JUMPDEST POP PUSH0 DUP3 SUB PUSH2 0xFA4 JUMPI CALLER PUSH1 0x1 DUP4 PUSH1 0x3 DUP2 LT PUSH2 0xF65 JUMPI PUSH2 0xF64 PUSH2 0x19B2 JUMP JUMPDEST JUMPDEST ADD PUSH0 PUSH2 0x100 EXP DUP2 SLOAD DUP2 PUSH20 0xFFFFFFFFFFFFFFFFFFFFFFFFFFFFFFFFFFFFFFFF MUL NOT AND SWAP1 DUP4 PUSH20 0xFFFFFFFFFFFFFFFFFFFFFFFFFFFFFFFFFFFFFFFF AND MUL OR SWAP1 SSTORE POP JUMPDEST PUSH2 0x1007 JUMP JUMPDEST PUSH2 0x309 DUP3 EQ PUSH2 0x1006 JUMPI CALLER PUSH1 0x1 DUP4 PUSH1 0x3 DUP2 LT PUSH2 0xFC7 JUMPI PUSH2 0xFC6 PUSH2 0x19B2 JUMP JUMPDEST JUMPDEST ADD PUSH0 PUSH2 0x100 EXP DUP2 SLOAD DUP2 PUSH20 0xFFFFFFFFFFFFFFFFFFFFFFFFFFFFFFFFFFFFFFFF MUL NOT AND SWAP1 DUP4 PUSH20 0xFFFFFFFFFFFFFFFFFFFFFFFFFFFFFFFFFFFFFFFF AND MUL OR SWAP1 SSTORE POP JUMPDEST JUMPDEST DUP1 DUP1 PUSH2 0x1012 SWAP1 PUSH2 0x1B41 JUMP JUMPDEST SWAP2 POP POP PUSH2 0xDB3 JUMP JUMPDEST POP JUMPDEST POP POP POP JUMP JUMPDEST PUSH0 PUSH2 0x102A PUSH2 0x15E4 JUMP JUMPDEST SWAP1 POP PUSH0 DUP1 PUSH2 0x309 SWAP1 POP PUSH2 0x3E7 DUP4 EQ PUSH2 0x12D6 JUMPI PUSH1 0x4 DUP4 PUSH2 0x1049 SWAP2 SWAP1 PUSH2 0x1931 JUMP JUMPDEST SWAP2 POP PUSH0 PUSH1 0x3 DUP4 PUSH2 0x1059 SWAP2 SWAP1 PUSH2 0x1B0E JUMP JUMPDEST SWAP1 POP JUMPDEST PUSH1 0x1 DUP2 GT ISZERO PUSH2 0x12D0 JUMPI PUSH0 DUP5 EQ PUSH2 0x12BD JUMPI PUSH1 0x5 PUSH0 PUSH1 0x6 PUSH1 0x2 DUP5 PUSH2 0x107E SWAP2 SWAP1 PUSH2 0x1B0E JUMP JUMPDEST PUSH1 0x3 DUP2 LT PUSH2 0x108F JUMPI PUSH2 0x108E PUSH2 0x19B2 JUMP JUMPDEST JUMPDEST ADD PUSH0 SWAP1 SLOAD SWAP1 PUSH2 0x100 EXP SWAP1 DIV PUSH20 0xFFFFFFFFFFFFFFFFFFFFFFFFFFFFFFFFFFFFFFFF AND PUSH20 0xFFFFFFFFFFFFFFFFFFFFFFFFFFFFFFFFFFFFFFFF AND PUSH20 0xFFFFFFFFFFFFFFFFFFFFFFFFFFFFFFFFFFFFFFFF AND DUP2 MSTORE PUSH1 0x20 ADD SWAP1 DUP2 MSTORE PUSH1 0x20 ADD PUSH0 KECCAK256 SLOAD PUSH1 0x5 PUSH0 CALLER PUSH20 0xFFFFFFFFFFFFFFFFFFFFFFFFFFFFFFFFFFFFFFFF AND PUSH20 0xFFFFFFFFFFFFFFFFFFFFFFFFFFFFFFFFFFFFFFFF AND DUP2 MSTORE PUSH1 0x20 ADD SWAP1 DUP2 MSTORE PUSH1 0x20 ADD PUSH0 KECCAK256 SLOAD GT ISZERO PUSH2 0x125E JUMPI PUSH1 0x2 DUP2 PUSH2 0x113B SWAP2 SWAP1 PUSH2 0x1B0E JUMP JUMPDEST SWAP2 POP PUSH0 PUSH1 0x2 SWAP1 POP JUMPDEST PUSH1 0x2 DUP3 PUSH2 0x1150 SWAP2 SWAP1 PUSH2 0x1B0E JUMP JUMPDEST DUP2 GT ISZERO PUSH2 0x11FD JUMPI PUSH1 0x6 PUSH1 0x1 DUP3 PUSH2 0x1166 SWAP2 SWAP1 PUSH2 0x1B0E JUMP JUMPDEST PUSH1 0x3 DUP2 LT PUSH2 0x1177 JUMPI PUSH2 0x1176 PUSH2 0x19B2 JUMP JUMPDEST JUMPDEST ADD PUSH0 SWAP1 SLOAD SWAP1 PUSH2 0x100 EXP SWAP1 DIV PUSH20 0xFFFFFFFFFFFFFFFFFFFFFFFFFFFFFFFFFFFFFFFF AND PUSH1 0x6 DUP3 PUSH1 0x3 DUP2 LT PUSH2 0x11AC JUMPI PUSH2 0x11AB PUSH2 0x19B2 JUMP JUMPDEST JUMPDEST ADD PUSH0 PUSH2 0x100 EXP DUP2 SLOAD DUP2 PUSH20 0xFFFFFFFFFFFFFFFFFFFFFFFFFFFFFFFFFFFFFFFF MUL NOT AND SWAP1 DUP4 PUSH20 0xFFFFFFFFFFFFFFFFFFFFFFFFFFFFFFFFFFFFFFFF AND MUL OR SWAP1 SSTORE POP DUP1 DUP1 PUSH2 0x11F5 SWAP1 PUSH2 0x1B41 JUMP JUMPDEST SWAP2 POP POP PUSH2 0x1143 JUMP JUMPDEST POP PUSH0 DUP3 SUB PUSH2 0x1259 JUMPI CALLER PUSH1 0x6 DUP4 PUSH1 0x3 DUP2 LT PUSH2 0x121A JUMPI PUSH2 0x1219 PUSH2 0x19B2 JUMP JUMPDEST JUMPDEST ADD PUSH0 PUSH2 0x100 EXP DUP2 SLOAD DUP2 PUSH20 0xFFFFFFFFFFFFFFFFFFFFFFFFFFFFFFFFFFFFFFFF MUL NOT AND SWAP1 DUP4 PUSH20 0xFFFFFFFFFFFFFFFFFFFFFFFFFFFFFFFFFFFFFFFF AND MUL OR SWAP1 SSTORE POP JUMPDEST PUSH2 0x12BC JUMP JUMPDEST PUSH2 0x309 DUP3 EQ PUSH2 0x12BB JUMPI CALLER PUSH1 0x6 DUP4 PUSH1 0x3 DUP2 LT PUSH2 0x127C JUMPI PUSH2 0x127B PUSH2 0x19B2 JUMP JUMPDEST JUMPDEST ADD PUSH0 PUSH2 0x100 EXP DUP2 SLOAD DUP2 PUSH20 0xFFFFFFFFFFFFFFFFFFFFFFFFFFFFFFFFFFFFFFFF MUL NOT AND SWAP1 DUP4 PUSH20 0xFFFFFFFFFFFFFFFFFFFFFFFFFFFFFFFFFFFFFFFF AND MUL OR SWAP1 SSTORE POP JUMPDEST JUMPDEST JUMPDEST DUP1 DUP1 PUSH2 0x12C8 SWAP1 PUSH2 0x1B41 JUMP JUMPDEST SWAP2 POP POP PUSH2 0x105C JUMP JUMPDEST POP PUSH2 0x1549 JUMP JUMPDEST PUSH0 PUSH1 0x3 SWAP1 POP JUMPDEST PUSH0 DUP2 GT ISZERO PUSH2 0x1547 JUMPI PUSH1 0x5 PUSH0 PUSH1 0x6 PUSH1 0x1 DUP5 PUSH2 0x12F6 SWAP2 SWAP1 PUSH2 0x1B0E JUMP JUMPDEST PUSH1 0x3 DUP2 LT PUSH2 0x1307 JUMPI PUSH2 0x1306 PUSH2 0x19B2 JUMP JUMPDEST JUMPDEST ADD PUSH0 SWAP1 SLOAD SWAP1 PUSH2 0x100 EXP SWAP1 DIV PUSH20 0xFFFFFFFFFFFFFFFFFFFFFFFFFFFFFFFFFFFFFFFF AND PUSH20 0xFFFFFFFFFFFFFFFFFFFFFFFFFFFFFFFFFFFFFFFF AND PUSH20 0xFFFFFFFFFFFFFFFFFFFFFFFFFFFFFFFFFFFFFFFF AND DUP2 MSTORE PUSH1 0x20 ADD SWAP1 DUP2 MSTORE PUSH1 0x20 ADD PUSH0 KECCAK256 SLOAD PUSH1 0x5 PUSH0 CALLER PUSH20 0xFFFFFFFFFFFFFFFFFFFFFFFFFFFFFFFFFFFFFFFF AND PUSH20 0xFFFFFFFFFFFFFFFFFFFFFFFFFFFFFFFFFFFFFFFF AND DUP2 MSTORE PUSH1 0x20 ADD SWAP1 DUP2 MSTORE PUSH1 0x20 ADD PUSH0 KECCAK256 SLOAD GT ISZERO PUSH2 0x14D6 JUMPI PUSH1 0x1 DUP2 PUSH2 0x13B3 SWAP2 SWAP1 PUSH2 0x1B0E JUMP JUMPDEST SWAP2 POP PUSH0 PUSH1 0x2 SWAP1 POP JUMPDEST PUSH1 0x1 DUP3 PUSH2 0x13C8 SWAP2 SWAP1 PUSH2 0x1B0E JUMP JUMPDEST DUP2 GT ISZERO PUSH2 0x1475 JUMPI PUSH1 0x6 PUSH1 0x1 DUP3 PUSH2 0x13DE SWAP2 SWAP1 PUSH2 0x1B0E JUMP JUMPDEST PUSH1 0x3 DUP2 LT PUSH2 0x13EF JUMPI PUSH2 0x13EE PUSH2 0x19B2 JUMP JUMPDEST JUMPDEST ADD PUSH0 SWAP1 SLOAD SWAP1 PUSH2 0x100 EXP SWAP1 DIV PUSH20 0xFFFFFFFFFFFFFFFFFFFFFFFFFFFFFFFFFFFFFFFF AND PUSH1 0x6 DUP3 PUSH1 0x3 DUP2 LT PUSH2 0x1424 JUMPI PUSH2 0x1423 PUSH2 0x19B2 JUMP JUMPDEST JUMPDEST ADD PUSH0 PUSH2 0x100 EXP DUP2 SLOAD DUP2 PUSH20 0xFFFFFFFFFFFFFFFFFFFFFFFFFFFFFFFFFFFFFFFF MUL NOT AND SWAP1 DUP4 PUSH20 0xFFFFFFFFFFFFFFFFFFFFFFFFFFFFFFFFFFFFFFFF AND MUL OR SWAP1 SSTORE POP DUP1 DUP1 PUSH2 0x146D SWAP1 PUSH2 0x1B41 JUMP JUMPDEST SWAP2 POP POP PUSH2 0x13BB JUMP JUMPDEST POP PUSH0 DUP3 SUB PUSH2 0x14D1 JUMPI CALLER PUSH1 0x6 DUP4 PUSH1 0x3 DUP2 LT PUSH2 0x1492 JUMPI PUSH2 0x1491 PUSH2 0x19B2 JUMP JUMPDEST JUMPDEST ADD PUSH0 PUSH2 0x100 EXP DUP2 SLOAD DUP2 PUSH20 0xFFFFFFFFFFFFFFFFFFFFFFFFFFFFFFFFFFFFFFFF MUL NOT AND SWAP1 DUP4 PUSH20 0xFFFFFFFFFFFFFFFFFFFFFFFFFFFFFFFFFFFFFFFF AND MUL OR SWAP1 SSTORE POP JUMPDEST PUSH2 0x1534 JUMP JUMPDEST PUSH2 0x309 DUP3 EQ PUSH2 0x1533 JUMPI CALLER PUSH1 0x6 DUP4 PUSH1 0x3 DUP2 LT PUSH2 0x14F4 JUMPI PUSH2 0x14F3 PUSH2 0x19B2 JUMP JUMPDEST JUMPDEST ADD PUSH0 PUSH2 0x100 EXP DUP2 SLOAD DUP2 PUSH20 0xFFFFFFFFFFFFFFFFFFFFFFFFFFFFFFFFFFFFFFFF MUL NOT AND SWAP1 DUP4 PUSH20 0xFFFFFFFFFFFFFFFFFFFFFFFFFFFFFFFFFFFFFFFF AND MUL OR SWAP1 SSTORE POP JUMPDEST JUMPDEST DUP1 DUP1 PUSH2 0x153F SWAP1 PUSH2 0x1B41 JUMP JUMPDEST SWAP2 POP POP PUSH2 0x12DC JUMP JUMPDEST POP JUMPDEST POP POP POP JUMP JUMPDEST PUSH0 DUP1 PUSH2 0x3E7 SWAP1 POP PUSH0 JUMPDEST PUSH1 0x3 DUP2 LT ISZERO PUSH2 0x15DC JUMPI CALLER PUSH20 0xFFFFFFFFFFFFFFFFFFFFFFFFFFFFFFFFFFFFFFFF AND PUSH1 0x1 DUP3 PUSH1 0x3 DUP2 LT PUSH2 0x158B JUMPI PUSH2 0x158A PUSH2 0x19B2 JUMP JUMPDEST JUMPDEST ADD PUSH0 SWAP1 SLOAD SWAP1 PUSH2 0x100 EXP SWAP1 DIV PUSH20 0xFFFFFFFFFFFFFFFFFFFFFFFFFFFFFFFFFFFFFFFF AND PUSH20 0xFFFFFFFFFFFFFFFFFFFFFFFFFFFFFFFFFFFFFFFF AND SUB PUSH2 0x15CF JUMPI DUP1 SWAP2 POP PUSH2 0x15DC JUMP JUMPDEST DUP1 DUP1 PUSH1 0x1 ADD SWAP2 POP POP PUSH2 0x1557 JUMP JUMPDEST POP DUP1 SWAP2 POP POP SWAP1 JUMP JUMPDEST PUSH0 DUP1 PUSH2 0x3E7 SWAP1 POP PUSH0 JUMPDEST PUSH1 0x3 DUP2 LT ISZERO PUSH2 0x1672 JUMPI CALLER PUSH20 0xFFFFFFFFFFFFFFFFFFFFFFFFFFFFFFFFFFFFFFFF AND PUSH1 0x6 DUP3 PUSH1 0x3 DUP2 LT PUSH2 0x1621 JUMPI PUSH2 0x1620 PUSH2 0x19B2 JUMP JUMPDEST JUMPDEST ADD PUSH0 SWAP1 SLOAD SWAP1 PUSH2 0x100 EXP SWAP1 DIV PUSH20 0xFFFFFFFFFFFFFFFFFFFFFFFFFFFFFFFFFFFFFFFF AND PUSH20 0xFFFFFFFFFFFFFFFFFFFFFFFFFFFFFFFFFFFFFFFF AND SUB PUSH2 0x1665 JUMPI DUP1 SWAP2 POP PUSH2 0x1672 JUMP JUMPDEST DUP1 DUP1 PUSH1 0x1 ADD SWAP2 POP POP PUSH2 0x15ED JUMP JUMPDEST POP DUP1 SWAP2 POP POP SWAP1 JUMP JUMPDEST PUSH0 DUP1 REVERT JUMPDEST PUSH0 PUSH20 0xFFFFFFFFFFFFFFFFFFFFFFFFFFFFFFFFFFFFFFFF DUP3 AND SWAP1 POP SWAP2 SWAP1 POP JUMP JUMPDEST PUSH0 PUSH2 0x16A7 DUP3 PUSH2 0x167E JUMP JUMPDEST SWAP1 POP SWAP2 SWAP1 POP JUMP JUMPDEST PUSH2 0x16B7 DUP2 PUSH2 0x169D JUMP JUMPDEST DUP2 EQ PUSH2 0x16C1 JUMPI PUSH0 DUP1 REVERT JUMPDEST POP JUMP JUMPDEST PUSH0 DUP2 CALLDATALOAD SWAP1 POP PUSH2 0x16D2 DUP2 PUSH2 0x16AE JUMP JUMPDEST SWAP3 SWAP2 POP POP JUMP JUMPDEST PUSH0 DUP2 SWAP1 POP SWAP2 SWAP1 POP JUMP JUMPDEST PUSH2 0x16EA DUP2 PUSH2 0x16D8 JUMP JUMPDEST DUP2 EQ PUSH2 0x16F4 JUMPI PUSH0 DUP1 REVERT JUMPDEST POP JUMP JUMPDEST PUSH0 DUP2 CALLDATALOAD SWAP1 POP PUSH2 0x1705 DUP2 PUSH2 0x16E1 JUMP JUMPDEST SWAP3 SWAP2 POP POP JUMP JUMPDEST PUSH0 DUP1 PUSH1 0x40 DUP4 DUP6 SUB SLT ISZERO PUSH2 0x1721 JUMPI PUSH2 0x1720 PUSH2 0x167A JUMP JUMPDEST JUMPDEST PUSH0 PUSH2 0x172E DUP6 DUP3 DUP7 ADD PUSH2 0x16C4 JUMP JUMPDEST SWAP3 POP POP PUSH1 0x20 PUSH2 0x173F DUP6 DUP3 DUP7 ADD PUSH2 0x16F7 JUMP JUMPDEST SWAP2 POP POP SWAP3 POP SWAP3 SWAP1 POP JUMP JUMPDEST PUSH0 DUP2 ISZERO ISZERO SWAP1 POP SWAP2 SWAP1 POP JUMP JUMPDEST PUSH2 0x175D DUP2 PUSH2 0x1749 JUMP JUMPDEST DUP3 MSTORE POP POP JUMP JUMPDEST PUSH0 PUSH1 0x20 DUP3 ADD SWAP1 POP PUSH2 0x1776 PUSH0 DUP4 ADD DUP5 PUSH2 0x1754 JUMP JUMPDEST SWAP3 SWAP2 POP POP JUMP JUMPDEST PUSH2 0x1785 DUP2 PUSH2 0x169D JUMP JUMPDEST DUP3 MSTORE POP POP JUMP JUMPDEST PUSH0 PUSH1 0x60 DUP3 ADD SWAP1 POP PUSH2 0x179E PUSH0 DUP4 ADD DUP7 PUSH2 0x177C JUMP JUMPDEST PUSH2 0x17AB PUSH1 0x20 DUP4 ADD DUP6 PUSH2 0x177C JUMP JUMPDEST PUSH2 0x17B8 PUSH1 0x40 DUP4 ADD DUP5 PUSH2 0x177C JUMP JUMPDEST SWAP5 SWAP4 POP POP POP POP JUMP JUMPDEST PUSH0 PUSH1 0x20 DUP3 DUP5 SUB SLT ISZERO PUSH2 0x17D5 JUMPI PUSH2 0x17D4 PUSH2 0x167A JUMP JUMPDEST JUMPDEST PUSH0 PUSH2 0x17E2 DUP5 DUP3 DUP6 ADD PUSH2 0x16C4 JUMP JUMPDEST SWAP2 POP POP SWAP3 SWAP2 POP POP JUMP JUMPDEST PUSH2 0x17F4 DUP2 PUSH2 0x16D8 JUMP JUMPDEST DUP3 MSTORE POP POP JUMP JUMPDEST PUSH0 PUSH1 0x20 DUP3 ADD SWAP1 POP PUSH2 0x180D PUSH0 DUP4 ADD DUP5 PUSH2 0x17EB JUMP JUMPDEST SWAP3 SWAP2 POP POP JUMP JUMPDEST PUSH0 DUP2 SWAP1 POP SWAP2 SWAP1 POP JUMP JUMPDEST PUSH0 PUSH2 0x1836 PUSH2 0x1831 PUSH2 0x182C DUP5 PUSH2 0x167E JUMP JUMPDEST PUSH2 0x1813 JUMP JUMPDEST PUSH2 0x167E JUMP JUMPDEST SWAP1 POP SWAP2 SWAP1 POP JUMP JUMPDEST PUSH0 PUSH2 0x1847 DUP3 PUSH2 0x181C JUMP JUMPDEST SWAP1 POP SWAP2 SWAP1 POP JUMP JUMPDEST PUSH0 PUSH2 0x1858 DUP3 PUSH2 0x183D JUMP JUMPDEST SWAP1 POP SWAP2 SWAP1 POP JUMP JUMPDEST PUSH2 0x1868 DUP2 PUSH2 0x184E JUMP JUMPDEST DUP3 MSTORE POP POP JUMP JUMPDEST PUSH0 PUSH1 0x20 DUP3 ADD SWAP1 POP PUSH2 0x1881 PUSH0 DUP4 ADD DUP5 PUSH2 0x185F JUMP JUMPDEST SWAP3 SWAP2 POP POP JUMP JUMPDEST PUSH0 PUSH1 0x20 DUP3 ADD SWAP1 POP PUSH2 0x189A PUSH0 DUP4 ADD DUP5 PUSH2 0x177C JUMP JUMPDEST SWAP3 SWAP2 POP POP JUMP JUMPDEST PUSH0 PUSH1 0x20 DUP3 DUP5 SUB SLT ISZERO PUSH2 0x18B5 JUMPI PUSH2 0x18B4 PUSH2 0x167A JUMP JUMPDEST JUMPDEST PUSH0 PUSH2 0x18C2 DUP5 DUP3 DUP6 ADD PUSH2 0x16F7 JUMP JUMPDEST SWAP2 POP POP SWAP3 SWAP2 POP POP JUMP JUMPDEST PUSH0 PUSH2 0x18D5 DUP3 PUSH2 0x183D JUMP JUMPDEST SWAP1 POP SWAP2 SWAP1 POP JUMP JUMPDEST PUSH2 0x18E5 DUP2 PUSH2 0x18CB JUMP JUMPDEST DUP3 MSTORE POP POP JUMP JUMPDEST PUSH0 PUSH1 0x20 DUP3 ADD SWAP1 POP PUSH2 0x18FE PUSH0 DUP4 ADD DUP5 PUSH2 0x18DC JUMP JUMPDEST SWAP3 SWAP2 POP POP JUMP JUMPDEST PUSH32 0x4E487B7100000000000000000000000000000000000000000000000000000000 PUSH0 MSTORE PUSH1 0x11 PUSH1 0x4 MSTORE PUSH1 0x24 PUSH0 REVERT JUMPDEST PUSH0 PUSH2 0x193B DUP3 PUSH2 0x16D8 JUMP JUMPDEST SWAP2 POP PUSH2 0x1946 DUP4 PUSH2 0x16D8 JUMP JUMPDEST SWAP3 POP DUP3 DUP3 ADD SWAP1 POP DUP1 DUP3 GT ISZERO PUSH2 0x195E JUMPI PUSH2 0x195D PUSH2 0x1904 JUMP JUMPDEST JUMPDEST SWAP3 SWAP2 POP POP JUMP JUMPDEST PUSH0 PUSH1 0x40 DUP3 ADD SWAP1 POP PUSH2 0x1977 PUSH0 DUP4 ADD DUP6 PUSH2 0x177C JUMP JUMPDEST PUSH2 0x1984 PUSH1 0x20 DUP4 ADD DUP5 PUSH2 0x177C JUMP JUMPDEST SWAP4 SWAP3 POP POP POP JUMP JUMPDEST PUSH0 PUSH1 0x40 DUP3 ADD SWAP1 POP PUSH2 0x199E PUSH0 DUP4 ADD DUP6 PUSH2 0x177C JUMP JUMPDEST PUSH2 0x19AB PUSH1 0x20 DUP4 ADD DUP5 PUSH2 0x17EB JUMP JUMPDEST SWAP4 SWAP3 POP POP POP JUMP JUMPDEST PUSH32 0x4E487B7100000000000000000000000000000000000000000000000000000000 PUSH0 MSTORE PUSH1 0x32 PUSH1 0x4 MSTORE PUSH1 0x24 PUSH0 REVERT JUMPDEST PUSH0 PUSH1 0x80 DUP3 ADD SWAP1 POP PUSH2 0x19F2 PUSH0 DUP4 ADD DUP8 PUSH2 0x18DC JUMP JUMPDEST PUSH2 0x19FF PUSH1 0x20 DUP4 ADD DUP7 PUSH2 0x177C JUMP JUMPDEST PUSH2 0x1A0C PUSH1 0x40 DUP4 ADD DUP6 PUSH2 0x177C JUMP JUMPDEST PUSH2 0x1A19 PUSH1 0x60 DUP4 ADD DUP5 PUSH2 0x17EB JUMP JUMPDEST SWAP6 SWAP5 POP POP POP POP POP JUMP JUMPDEST PUSH0 DUP3 DUP3 MSTORE PUSH1 0x20 DUP3 ADD SWAP1 POP SWAP3 SWAP2 POP POP JUMP JUMPDEST PUSH32 0x4F6E6C79206F776E65722063616E2063616C6C00000000000000000000000000 PUSH0 DUP3 ADD MSTORE POP JUMP JUMPDEST PUSH0 PUSH2 0x1A66 PUSH1 0x13 DUP4 PUSH2 0x1A22 JUMP JUMPDEST SWAP2 POP PUSH2 0x1A71 DUP3 PUSH2 0x1A32 JUMP JUMPDEST PUSH1 0x20 DUP3 ADD SWAP1 POP SWAP2 SWAP1 POP JUMP JUMPDEST PUSH0 PUSH1 0x20 DUP3 ADD SWAP1 POP DUP2 DUP2 SUB PUSH0 DUP4 ADD MSTORE PUSH2 0x1A93 DUP2 PUSH2 0x1A5A JUMP JUMPDEST SWAP1 POP SWAP2 SWAP1 POP JUMP JUMPDEST PUSH0 DUP2 MLOAD SWAP1 POP PUSH2 0x1AA8 DUP2 PUSH2 0x16E1 JUMP JUMPDEST SWAP3 SWAP2 POP POP JUMP JUMPDEST PUSH0 PUSH1 0x20 DUP3 DUP5 SUB SLT ISZERO PUSH2 0x1AC3 JUMPI PUSH2 0x1AC2 PUSH2 0x167A JUMP JUMPDEST JUMPDEST PUSH0 PUSH2 0x1AD0 DUP5 DUP3 DUP6 ADD PUSH2 0x1A9A JUMP JUMPDEST SWAP2 POP POP SWAP3 SWAP2 POP POP JUMP JUMPDEST PUSH0 PUSH1 0x60 DUP3 ADD SWAP1 POP PUSH2 0x1AEC PUSH0 DUP4 ADD DUP7 PUSH2 0x18DC JUMP JUMPDEST PUSH2 0x1AF9 PUSH1 0x20 DUP4 ADD DUP6 PUSH2 0x177C JUMP JUMPDEST PUSH2 0x1B06 PUSH1 0x40 DUP4 ADD DUP5 PUSH2 0x17EB JUMP JUMPDEST SWAP5 SWAP4 POP POP POP POP JUMP JUMPDEST PUSH0 PUSH2 0x1B18 DUP3 PUSH2 0x16D8 JUMP JUMPDEST SWAP2 POP PUSH2 0x1B23 DUP4 PUSH2 0x16D8 JUMP JUMPDEST SWAP3 POP DUP3 DUP3 SUB SWAP1 POP DUP2 DUP2 GT ISZERO PUSH2 0x1B3B JUMPI PUSH2 0x1B3A PUSH2 0x1904 JUMP JUMPDEST JUMPDEST SWAP3 SWAP2 POP POP JUMP JUMPDEST PUSH0 PUSH2 0x1B4B DUP3 PUSH2 0x16D8 JUMP JUMPDEST SWAP2 POP PUSH0 DUP3 SUB PUSH2 0x1B5D JUMPI PUSH2 0x1B5C PUSH2 0x1904 JUMP JUMPDEST JUMPDEST PUSH1 0x1 DUP3 SUB SWAP1 POP SWAP2 SWAP1 POP JUMP INVALID LOG2 PUSH5 0x6970667358 0x22 SLT KECCAK256 CHAINID SIGNEXTEND CREATE DUP11 DUP8 PUSH28 0x9E2CA706A669FBF85613FAF97B71A7D79083C35D7C5CAC5D3EF26473 PUSH16 0x6C634300081600330000000000000000 "
		},
		"gasEstimates": {
			"creation": {
				"codeDepositCost": "1414000",
				"executionCost": "infinite",
				"totalCost": "infinite"
			},
			"external": {
				"depositETH()": "infinite",
				"depositToken(uint256)": "infinite",
				"getETHBalance(address)": "2896",
				"getETHTopThreeAccount()": "infinite",
				"getTokenBalance(address)": "2874",
				"getTokenTopThreeAccount()": "infinite",
				"iERC20Token()": "infinite",
				"iGTT()": "infinite",
				"owner()": "2575",
				"tokenAddr()": "infinite",
				"tokensReceived(address,uint256)": "infinite",
				"withdrawETH()": "infinite",
				"withdrawToken()": "infinite"
			},
			"internal": {
				"_checkTokenRankMembership()": "infinite",
				"_handleRankWhenDepositToken()": "infinite"
			}
		},
		"methodIdentifiers": {
			"depositETH()": "f6326fb3",
			"depositToken(uint256)": "6215be77",
			"getETHBalance(address)": "3bb66a7b",
			"getETHTopThreeAccount()": "2b7e8faf",
			"getTokenBalance(address)": "3aecd0e3",
			"getTokenTopThreeAccount()": "b254b80a",
			"iERC20Token()": "7251e8c2",
			"iGTT()": "4d3f3cf6",
			"owner()": "8da5cb5b",
			"tokenAddr()": "5fbe4d1d",
			"tokensReceived(address,uint256)": "24a756d1",
			"withdrawETH()": "e086e5ec",
			"withdrawToken()": "ca628c78"
		}
	},
	"abi": [
		{
			"inputs": [
				{
					"internalType": "address",
					"name": "_tokenAddr",
					"type": "address"
				}
			],
			"stateMutability": "nonpayable",
			"type": "constructor"
		},
		{
			"inputs": [
				{
					"internalType": "address",
					"name": "inputAddr",
					"type": "address"
				},
				{
					"internalType": "address",
					"name": "validAddr",
					"type": "address"
				}
			],
			"name": "WrongTokenReceived",
			"type": "error"
		},
		{
			"anonymous": false,
			"inputs": [
				{
					"indexed": false,
					"internalType": "address",
					"name": "sender",
					"type": "address"
				},
				{
					"indexed": false,
					"internalType": "uint256",
					"name": "amount",
					"type": "uint256"
				}
			],
			"name": "tokenReceived",
			"type": "event"
		},
		{
			"inputs": [],
			"name": "depositETH",
			"outputs": [],
			"stateMutability": "payable",
			"type": "function"
		},
		{
			"inputs": [
				{
					"internalType": "uint256",
					"name": "_tokenAmount",
					"type": "uint256"
				}
			],
			"name": "depositToken",
			"outputs": [],
			"stateMutability": "nonpayable",
			"type": "function"
		},
		{
			"inputs": [
				{
					"internalType": "address",
					"name": "_account",
					"type": "address"
				}
			],
			"name": "getETHBalance",
			"outputs": [
				{
					"internalType": "uint256",
					"name": "",
					"type": "uint256"
				}
			],
			"stateMutability": "view",
			"type": "function"
		},
		{
			"inputs": [],
			"name": "getETHTopThreeAccount",
			"outputs": [
				{
					"internalType": "address",
					"name": "",
					"type": "address"
				},
				{
					"internalType": "address",
					"name": "",
					"type": "address"
				},
				{
					"internalType": "address",
					"name": "",
					"type": "address"
				}
			],
			"stateMutability": "view",
			"type": "function"
		},
		{
			"inputs": [
				{
					"internalType": "address",
					"name": "_account",
					"type": "address"
				}
			],
			"name": "getTokenBalance",
			"outputs": [
				{
					"internalType": "uint256",
					"name": "",
					"type": "uint256"
				}
			],
			"stateMutability": "view",
			"type": "function"
		},
		{
			"inputs": [],
			"name": "getTokenTopThreeAccount",
			"outputs": [
				{
					"internalType": "address",
					"name": "",
					"type": "address"
				},
				{
					"internalType": "address",
					"name": "",
					"type": "address"
				},
				{
					"internalType": "address",
					"name": "",
					"type": "address"
				}
			],
			"stateMutability": "view",
			"type": "function"
		},
		{
			"inputs": [],
			"name": "iERC20Token",
			"outputs": [
				{
					"internalType": "contract IERC20",
					"name": "",
					"type": "address"
				}
			],
			"stateMutability": "view",
			"type": "function"
		},
		{
			"inputs": [],
			"name": "iGTT",
			"outputs": [
				{
					"internalType": "contract IERC20TokenGTT",
					"name": "",
					"type": "address"
				}
			],
			"stateMutability": "view",
			"type": "function"
		},
		{
			"inputs": [],
			"name": "owner",
			"outputs": [
				{
					"internalType": "address",
					"name": "",
					"type": "address"
				}
			],
			"stateMutability": "view",
			"type": "function"
		},
		{
			"inputs": [],
			"name": "tokenAddr",
			"outputs": [
				{
					"internalType": "address",
					"name": "",
					"type": "address"
				}
			],
			"stateMutability": "view",
			"type": "function"
		},
		{
			"inputs": [
				{
					"internalType": "address",
					"name": "_from",
					"type": "address"
				},
				{
					"internalType": "uint256",
					"name": "_amount",
					"type": "uint256"
				}
			],
			"name": "tokensReceived",
			"outputs": [
				{
					"internalType": "bool",
					"name": "",
					"type": "bool"
				}
			],
			"stateMutability": "nonpayable",
			"type": "function"
		},
		{
			"inputs": [],
			"name": "withdrawETH",
			"outputs": [],
			"stateMutability": "nonpayable",
			"type": "function"
		},
		{
			"inputs": [],
			"name": "withdrawToken",
			"outputs": [],
			"stateMutability": "nonpayable",
			"type": "function"
		},
		{
			"stateMutability": "payable",
			"type": "receive"
		}
	]
}